{"contracts/core/LimitOrderSCW.sol":{"LimitOrderSCW":{"abi":[{"anonymous":false,"inputs":[{"indexed":true,"internalType":"address","name":"tokenOut","type":"address"},{"indexed":true,"internalType":"address","name":"tokenIn","type":"address"},{"indexed":true,"internalType":"uint256","name":"expiry","type":"uint256"},{"indexed":false,"internalType":"uint256","name":"id","type":"uint256"},{"indexed":false,"internalType":"uint256","name":"amountOut","type":"uint256"},{"indexed":false,"internalType":"uint256","name":"rate","type":"uint256"}],"name":"NewLimitOrder","type":"event"},{"inputs":[{"internalType":"address","name":"_tokenOut","type":"address"},{"internalType":"address","name":"_tokenIn","type":"address"},{"internalType":"uint256","name":"_expiry","type":"uint256"},{"internalType":"uint256","name":"_amountOut","type":"uint256"},{"internalType":"uint256","name":"_rate","type":"uint256"}],"name":"createOrder","outputs":[],"stateMutability":"nonpayable","type":"function"},{"inputs":[{"internalType":"uint256","name":"_orderId","type":"uint256"},{"internalType":"address","name":"_filler","type":"address"},{"internalType":"uint256","name":"_amountOut","type":"uint256"},{"internalType":"bytes","name":"_params","type":"bytes"}],"name":"fillLimitOrder","outputs":[],"stateMutability":"nonpayable","type":"function"},{"inputs":[],"name":"idCounter","outputs":[{"internalType":"uint256","name":"","type":"uint256"}],"stateMutability":"view","type":"function"},{"inputs":[{"internalType":"uint256","name":"","type":"uint256"}],"name":"limitOrders","outputs":[{"internalType":"address","name":"tokenOut","type":"address"},{"internalType":"address","name":"tokenIn","type":"address"},{"internalType":"uint256","name":"expiry","type":"uint256"},{"internalType":"uint256","name":"id","type":"uint256"},{"internalType":"uint256","name":"amountOut","type":"uint256"},{"internalType":"uint256","name":"rate","type":"uint256"}],"stateMutability":"view","type":"function"}],"evm":{"bytecode":{"linkReferences":{},"object":"60806040526001805534801561001457600080fd5b506001600055610aa8806100296000396000f3fe608060405234801561001057600080fd5b506004361061004c5760003560e01c8063518e62db146100515780638aab7a0a14610066578063a3e2b49514610079578063eb08ab2814610108575b600080fd5b61006461005f3660046107e4565b61011f565b005b610064610074366004610847565b610240565b6100cb61008736600461091c565b60026020819052600091825260409091208054600182015492820154600383015460048401546005909401546001600160a01b039384169590931693919290919086565b604080516001600160a01b039788168152969095166020870152938501929092526060840152608083015260a082015260c0015b60405180910390f35b61011160015481565b6040519081526020016100ff565b6040805160c0810182526001600160a01b03808816825286811660208084019182528385018881526001805460608701818152608088018b815260a089018b81526000938452600296879052998320985189549089167fffffffffffffffffffffffff0000000000000000000000000000000000000000918216178a55965189850180549190991697169690961790965591519286019290925592516003850155905160048401559251600590920191909155815491906101df8361094b565b90915550506001546040805191825260208201849052810182905283906001600160a01b0380871691908816907f8e90a202923754d43d4bc900c935b2c20a7ccf8454ab3ca3276f138f295ac1559060600160405180910390a45050505050565b610248610742565b600084815260026020526040902060038101546102ac5760405162461bcd60e51b815260206004820152601760248201527f5f6f72646572496420646f6573206e6f7420657869737400000000000000000060448201526064015b60405180910390fd5b428160020154116102ff5760405162461bcd60e51b815260206004820152601060248201527f6f7264657220697320657870697265640000000000000000000000000000000060448201526064016102a3565b82816004015410156103535760405162461bcd60e51b815260206004820152601d60248201527f5f616d6f756e744f75742067726561746572207468616e206f7264657200000060448201526064016102a3565b80546040516370a0823160e01b81523060048201526000916001600160a01b0316906370a0823190602401602060405180830381865afa15801561039b573d6000803e3d6000fd5b505050506040513d601f19601f820116820180604052508101906103bf9190610964565b9050838110156104115760405162461bcd60e51b815260206004820152601a60248201527f696e73756666696369656e74206163636f756e742066756e647300000000000060448201526064016102a3565b60018201546040516370a0823160e01b81523060048201526000916001600160a01b0316906370a0823190602401602060405180830381865afa15801561045c573d6000803e3d6000fd5b505050506040513d601f19601f820116820180604052508101906104809190610964565b905060006104ad670de0b6b3a76400006104a786600501548961079b90919063ffffffff16565b906107b0565b9050858460040154036104cd5760016002850155600060048501556104e7565b858460040160008282546104e1919061097d565b90915550505b83546040517fa9059cbb0000000000000000000000000000000000000000000000000000000081526001600160a01b038981166004830152602482018990529091169063a9059cbb906044016020604051808303816000875af1158015610552573d6000803e3d6000fd5b505050506040513d601f19601f820116820180604052508101906105769190610990565b5060018401546040517f26a18b610000000000000000000000000000000000000000000000000000000081526001600160a01b03808a16926326a18b61926105c8928d92169086908b906004016109b9565b600060405180830381600087803b1580156105e257600080fd5b505af11580156105f6573d6000803e3d6000fd5b5050505060018401546040516370a0823160e01b81523060048201526000916001600160a01b0316906370a0823190602401602060405180830381865afa158015610645573d6000803e3d6000fd5b505050506040513d601f19601f820116820180604052508101906106699190610964565b905061067583836107bc565b8110156106c45760405162461bcd60e51b815260206004820152601d60248201527f696e73756666696369656e7420746f6b656e496e20726563656976656400000060448201526064016102a3565b6002850154600186015486546003880154600489015460058a015460408051938452602084019290925282820152516001600160a01b0393841693909216917f8e90a202923754d43d4bc900c935b2c20a7ccf8454ab3ca3276f138f295ac1559181900360600190a4505050505061073c6001600055565b50505050565b6002600054036107945760405162461bcd60e51b815260206004820152601f60248201527f5265656e7472616e637947756172643a207265656e7472616e742063616c6c0060448201526064016102a3565b6002600055565b60006107a78284610a26565b90505b92915050565b60006107a78284610a3d565b60006107a78284610a5f565b80356001600160a01b03811681146107df57600080fd5b919050565b600080600080600060a086880312156107fc57600080fd5b610805866107c8565b9450610813602087016107c8565b94979496505050506040830135926060810135926080909101359150565b634e487b7160e01b600052604160045260246000fd5b6000806000806080858703121561085d57600080fd5b8435935061086d602086016107c8565b925060408501359150606085013567ffffffffffffffff8082111561089157600080fd5b818701915087601f8301126108a557600080fd5b8135818111156108b7576108b7610831565b604051601f8201601f19908116603f011681019083821181831017156108df576108df610831565b816040528281528a60208487010111156108f857600080fd5b82602086016020830137600060208483010152809550505050505092959194509250565b60006020828403121561092e57600080fd5b5035919050565b634e487b7160e01b600052601160045260246000fd5b60006001820161095d5761095d610935565b5060010190565b60006020828403121561097657600080fd5b5051919050565b818103818111156107aa576107aa610935565b6000602082840312156109a257600080fd5b815180151581146109b257600080fd5b9392505050565b848152600060206001600160a01b0386168184015284604084015260806060840152835180608085015260005b81811015610a025785810183015185820160a0015282016109e6565b50600060a0828601015260a0601f19601f8301168501019250505095945050505050565b80820281158282048414176107aa576107aa610935565b600082610a5a57634e487b7160e01b600052601260045260246000fd5b500490565b808201808211156107aa576107aa61093556fea26469706673582212202ea63219740f7f36976c4bfc264c3340b474eac88c0168fa3206219a3b8daa5864736f6c63430008110033","opcodes":"PUSH1 0x80 PUSH1 0x40 MSTORE PUSH1 0x1 DUP1 SSTORE CALLVALUE DUP1 ISZERO PUSH2 0x14 JUMPI PUSH1 0x0 DUP1 REVERT JUMPDEST POP PUSH1 0x1 PUSH1 0x0 SSTORE PUSH2 0xAA8 DUP1 PUSH2 0x29 PUSH1 0x0 CODECOPY PUSH1 0x0 RETURN INVALID PUSH1 0x80 PUSH1 0x40 MSTORE CALLVALUE DUP1 ISZERO PUSH2 0x10 JUMPI PUSH1 0x0 DUP1 REVERT JUMPDEST POP PUSH1 0x4 CALLDATASIZE LT PUSH2 0x4C JUMPI PUSH1 0x0 CALLDATALOAD PUSH1 0xE0 SHR DUP1 PUSH4 0x518E62DB EQ PUSH2 0x51 JUMPI DUP1 PUSH4 0x8AAB7A0A EQ PUSH2 0x66 JUMPI DUP1 PUSH4 0xA3E2B495 EQ PUSH2 0x79 JUMPI DUP1 PUSH4 0xEB08AB28 EQ PUSH2 0x108 JUMPI JUMPDEST PUSH1 0x0 DUP1 REVERT JUMPDEST PUSH2 0x64 PUSH2 0x5F CALLDATASIZE PUSH1 0x4 PUSH2 0x7E4 JUMP JUMPDEST PUSH2 0x11F JUMP JUMPDEST STOP JUMPDEST PUSH2 0x64 PUSH2 0x74 CALLDATASIZE PUSH1 0x4 PUSH2 0x847 JUMP JUMPDEST PUSH2 0x240 JUMP JUMPDEST PUSH2 0xCB PUSH2 0x87 CALLDATASIZE PUSH1 0x4 PUSH2 0x91C JUMP JUMPDEST PUSH1 0x2 PUSH1 0x20 DUP2 SWAP1 MSTORE PUSH1 0x0 SWAP2 DUP3 MSTORE PUSH1 0x40 SWAP1 SWAP2 KECCAK256 DUP1 SLOAD PUSH1 0x1 DUP3 ADD SLOAD SWAP3 DUP3 ADD SLOAD PUSH1 0x3 DUP4 ADD SLOAD PUSH1 0x4 DUP5 ADD SLOAD PUSH1 0x5 SWAP1 SWAP5 ADD SLOAD PUSH1 0x1 PUSH1 0x1 PUSH1 0xA0 SHL SUB SWAP4 DUP5 AND SWAP6 SWAP1 SWAP4 AND SWAP4 SWAP2 SWAP3 SWAP1 SWAP2 SWAP1 DUP7 JUMP JUMPDEST PUSH1 0x40 DUP1 MLOAD PUSH1 0x1 PUSH1 0x1 PUSH1 0xA0 SHL SUB SWAP8 DUP9 AND DUP2 MSTORE SWAP7 SWAP1 SWAP6 AND PUSH1 0x20 DUP8 ADD MSTORE SWAP4 DUP6 ADD SWAP3 SWAP1 SWAP3 MSTORE PUSH1 0x60 DUP5 ADD MSTORE PUSH1 0x80 DUP4 ADD MSTORE PUSH1 0xA0 DUP3 ADD MSTORE PUSH1 0xC0 ADD JUMPDEST PUSH1 0x40 MLOAD DUP1 SWAP2 SUB SWAP1 RETURN JUMPDEST PUSH2 0x111 PUSH1 0x1 SLOAD DUP2 JUMP JUMPDEST PUSH1 0x40 MLOAD SWAP1 DUP2 MSTORE PUSH1 0x20 ADD PUSH2 0xFF JUMP JUMPDEST PUSH1 0x40 DUP1 MLOAD PUSH1 0xC0 DUP2 ADD DUP3 MSTORE PUSH1 0x1 PUSH1 0x1 PUSH1 0xA0 SHL SUB DUP1 DUP9 AND DUP3 MSTORE DUP7 DUP2 AND PUSH1 0x20 DUP1 DUP5 ADD SWAP2 DUP3 MSTORE DUP4 DUP6 ADD DUP9 DUP2 MSTORE PUSH1 0x1 DUP1 SLOAD PUSH1 0x60 DUP8 ADD DUP2 DUP2 MSTORE PUSH1 0x80 DUP9 ADD DUP12 DUP2 MSTORE PUSH1 0xA0 DUP10 ADD DUP12 DUP2 MSTORE PUSH1 0x0 SWAP4 DUP5 MSTORE PUSH1 0x2 SWAP7 DUP8 SWAP1 MSTORE SWAP10 DUP4 KECCAK256 SWAP9 MLOAD DUP10 SLOAD SWAP1 DUP10 AND PUSH32 0xFFFFFFFFFFFFFFFFFFFFFFFF0000000000000000000000000000000000000000 SWAP2 DUP3 AND OR DUP11 SSTORE SWAP7 MLOAD DUP10 DUP6 ADD DUP1 SLOAD SWAP2 SWAP1 SWAP10 AND SWAP8 AND SWAP7 SWAP1 SWAP7 OR SWAP1 SWAP7 SSTORE SWAP2 MLOAD SWAP3 DUP7 ADD SWAP3 SWAP1 SWAP3 SSTORE SWAP3 MLOAD PUSH1 0x3 DUP6 ADD SSTORE SWAP1 MLOAD PUSH1 0x4 DUP5 ADD SSTORE SWAP3 MLOAD PUSH1 0x5 SWAP1 SWAP3 ADD SWAP2 SWAP1 SWAP2 SSTORE DUP2 SLOAD SWAP2 SWAP1 PUSH2 0x1DF DUP4 PUSH2 0x94B JUMP JUMPDEST SWAP1 SWAP2 SSTORE POP POP PUSH1 0x1 SLOAD PUSH1 0x40 DUP1 MLOAD SWAP2 DUP3 MSTORE PUSH1 0x20 DUP3 ADD DUP5 SWAP1 MSTORE DUP2 ADD DUP3 SWAP1 MSTORE DUP4 SWAP1 PUSH1 0x1 PUSH1 0x1 PUSH1 0xA0 SHL SUB DUP1 DUP8 AND SWAP2 SWAP1 DUP9 AND SWAP1 PUSH32 0x8E90A202923754D43D4BC900C935B2C20A7CCF8454AB3CA3276F138F295AC155 SWAP1 PUSH1 0x60 ADD PUSH1 0x40 MLOAD DUP1 SWAP2 SUB SWAP1 LOG4 POP POP POP POP POP JUMP JUMPDEST PUSH2 0x248 PUSH2 0x742 JUMP JUMPDEST PUSH1 0x0 DUP5 DUP2 MSTORE PUSH1 0x2 PUSH1 0x20 MSTORE PUSH1 0x40 SWAP1 KECCAK256 PUSH1 0x3 DUP2 ADD SLOAD PUSH2 0x2AC JUMPI PUSH1 0x40 MLOAD PUSH3 0x461BCD PUSH1 0xE5 SHL DUP2 MSTORE PUSH1 0x20 PUSH1 0x4 DUP3 ADD MSTORE PUSH1 0x17 PUSH1 0x24 DUP3 ADD MSTORE PUSH32 0x5F6F72646572496420646F6573206E6F74206578697374000000000000000000 PUSH1 0x44 DUP3 ADD MSTORE PUSH1 0x64 ADD JUMPDEST PUSH1 0x40 MLOAD DUP1 SWAP2 SUB SWAP1 REVERT JUMPDEST TIMESTAMP DUP2 PUSH1 0x2 ADD SLOAD GT PUSH2 0x2FF JUMPI PUSH1 0x40 MLOAD PUSH3 0x461BCD PUSH1 0xE5 SHL DUP2 MSTORE PUSH1 0x20 PUSH1 0x4 DUP3 ADD MSTORE PUSH1 0x10 PUSH1 0x24 DUP3 ADD MSTORE PUSH32 0x6F72646572206973206578706972656400000000000000000000000000000000 PUSH1 0x44 DUP3 ADD MSTORE PUSH1 0x64 ADD PUSH2 0x2A3 JUMP JUMPDEST DUP3 DUP2 PUSH1 0x4 ADD SLOAD LT ISZERO PUSH2 0x353 JUMPI PUSH1 0x40 MLOAD PUSH3 0x461BCD PUSH1 0xE5 SHL DUP2 MSTORE PUSH1 0x20 PUSH1 0x4 DUP3 ADD MSTORE PUSH1 0x1D PUSH1 0x24 DUP3 ADD MSTORE PUSH32 0x5F616D6F756E744F75742067726561746572207468616E206F72646572000000 PUSH1 0x44 DUP3 ADD MSTORE PUSH1 0x64 ADD PUSH2 0x2A3 JUMP JUMPDEST DUP1 SLOAD PUSH1 0x40 MLOAD PUSH4 0x70A08231 PUSH1 0xE0 SHL DUP2 MSTORE ADDRESS PUSH1 0x4 DUP3 ADD MSTORE PUSH1 0x0 SWAP2 PUSH1 0x1 PUSH1 0x1 PUSH1 0xA0 SHL SUB AND SWAP1 PUSH4 0x70A08231 SWAP1 PUSH1 0x24 ADD PUSH1 0x20 PUSH1 0x40 MLOAD DUP1 DUP4 SUB DUP2 DUP7 GAS STATICCALL ISZERO DUP1 ISZERO PUSH2 0x39B JUMPI RETURNDATASIZE PUSH1 0x0 DUP1 RETURNDATACOPY RETURNDATASIZE PUSH1 0x0 REVERT JUMPDEST POP POP POP POP PUSH1 0x40 MLOAD RETURNDATASIZE PUSH1 0x1F NOT PUSH1 0x1F DUP3 ADD AND DUP3 ADD DUP1 PUSH1 0x40 MSTORE POP DUP2 ADD SWAP1 PUSH2 0x3BF SWAP2 SWAP1 PUSH2 0x964 JUMP JUMPDEST SWAP1 POP DUP4 DUP2 LT ISZERO PUSH2 0x411 JUMPI PUSH1 0x40 MLOAD PUSH3 0x461BCD PUSH1 0xE5 SHL DUP2 MSTORE PUSH1 0x20 PUSH1 0x4 DUP3 ADD MSTORE PUSH1 0x1A PUSH1 0x24 DUP3 ADD MSTORE PUSH32 0x696E73756666696369656E74206163636F756E742066756E6473000000000000 PUSH1 0x44 DUP3 ADD MSTORE PUSH1 0x64 ADD PUSH2 0x2A3 JUMP JUMPDEST PUSH1 0x1 DUP3 ADD SLOAD PUSH1 0x40 MLOAD PUSH4 0x70A08231 PUSH1 0xE0 SHL DUP2 MSTORE ADDRESS PUSH1 0x4 DUP3 ADD MSTORE PUSH1 0x0 SWAP2 PUSH1 0x1 PUSH1 0x1 PUSH1 0xA0 SHL SUB AND SWAP1 PUSH4 0x70A08231 SWAP1 PUSH1 0x24 ADD PUSH1 0x20 PUSH1 0x40 MLOAD DUP1 DUP4 SUB DUP2 DUP7 GAS STATICCALL ISZERO DUP1 ISZERO PUSH2 0x45C JUMPI RETURNDATASIZE PUSH1 0x0 DUP1 RETURNDATACOPY RETURNDATASIZE PUSH1 0x0 REVERT JUMPDEST POP POP POP POP PUSH1 0x40 MLOAD RETURNDATASIZE PUSH1 0x1F NOT PUSH1 0x1F DUP3 ADD AND DUP3 ADD DUP1 PUSH1 0x40 MSTORE POP DUP2 ADD SWAP1 PUSH2 0x480 SWAP2 SWAP1 PUSH2 0x964 JUMP JUMPDEST SWAP1 POP PUSH1 0x0 PUSH2 0x4AD PUSH8 0xDE0B6B3A7640000 PUSH2 0x4A7 DUP7 PUSH1 0x5 ADD SLOAD DUP10 PUSH2 0x79B SWAP1 SWAP2 SWAP1 PUSH4 0xFFFFFFFF AND JUMP JUMPDEST SWAP1 PUSH2 0x7B0 JUMP JUMPDEST SWAP1 POP DUP6 DUP5 PUSH1 0x4 ADD SLOAD SUB PUSH2 0x4CD JUMPI PUSH1 0x1 PUSH1 0x2 DUP6 ADD SSTORE PUSH1 0x0 PUSH1 0x4 DUP6 ADD SSTORE PUSH2 0x4E7 JUMP JUMPDEST DUP6 DUP5 PUSH1 0x4 ADD PUSH1 0x0 DUP3 DUP3 SLOAD PUSH2 0x4E1 SWAP2 SWAP1 PUSH2 0x97D JUMP JUMPDEST SWAP1 SWAP2 SSTORE POP POP JUMPDEST DUP4 SLOAD PUSH1 0x40 MLOAD PUSH32 0xA9059CBB00000000000000000000000000000000000000000000000000000000 DUP2 MSTORE PUSH1 0x1 PUSH1 0x1 PUSH1 0xA0 SHL SUB DUP10 DUP2 AND PUSH1 0x4 DUP4 ADD MSTORE PUSH1 0x24 DUP3 ADD DUP10 SWAP1 MSTORE SWAP1 SWAP2 AND SWAP1 PUSH4 0xA9059CBB SWAP1 PUSH1 0x44 ADD PUSH1 0x20 PUSH1 0x40 MLOAD DUP1 DUP4 SUB DUP2 PUSH1 0x0 DUP8 GAS CALL ISZERO DUP1 ISZERO PUSH2 0x552 JUMPI RETURNDATASIZE PUSH1 0x0 DUP1 RETURNDATACOPY RETURNDATASIZE PUSH1 0x0 REVERT JUMPDEST POP POP POP POP PUSH1 0x40 MLOAD RETURNDATASIZE PUSH1 0x1F NOT PUSH1 0x1F DUP3 ADD AND DUP3 ADD DUP1 PUSH1 0x40 MSTORE POP DUP2 ADD SWAP1 PUSH2 0x576 SWAP2 SWAP1 PUSH2 0x990 JUMP JUMPDEST POP PUSH1 0x1 DUP5 ADD SLOAD PUSH1 0x40 MLOAD PUSH32 0x26A18B6100000000000000000000000000000000000000000000000000000000 DUP2 MSTORE PUSH1 0x1 PUSH1 0x1 PUSH1 0xA0 SHL SUB DUP1 DUP11 AND SWAP3 PUSH4 0x26A18B61 SWAP3 PUSH2 0x5C8 SWAP3 DUP14 SWAP3 AND SWAP1 DUP7 SWAP1 DUP12 SWAP1 PUSH1 0x4 ADD PUSH2 0x9B9 JUMP JUMPDEST PUSH1 0x0 PUSH1 0x40 MLOAD DUP1 DUP4 SUB DUP2 PUSH1 0x0 DUP8 DUP1 EXTCODESIZE ISZERO DUP1 ISZERO PUSH2 0x5E2 JUMPI PUSH1 0x0 DUP1 REVERT JUMPDEST POP GAS CALL ISZERO DUP1 ISZERO PUSH2 0x5F6 JUMPI RETURNDATASIZE PUSH1 0x0 DUP1 RETURNDATACOPY RETURNDATASIZE PUSH1 0x0 REVERT JUMPDEST POP POP POP POP PUSH1 0x1 DUP5 ADD SLOAD PUSH1 0x40 MLOAD PUSH4 0x70A08231 PUSH1 0xE0 SHL DUP2 MSTORE ADDRESS PUSH1 0x4 DUP3 ADD MSTORE PUSH1 0x0 SWAP2 PUSH1 0x1 PUSH1 0x1 PUSH1 0xA0 SHL SUB AND SWAP1 PUSH4 0x70A08231 SWAP1 PUSH1 0x24 ADD PUSH1 0x20 PUSH1 0x40 MLOAD DUP1 DUP4 SUB DUP2 DUP7 GAS STATICCALL ISZERO DUP1 ISZERO PUSH2 0x645 JUMPI RETURNDATASIZE PUSH1 0x0 DUP1 RETURNDATACOPY RETURNDATASIZE PUSH1 0x0 REVERT JUMPDEST POP POP POP POP PUSH1 0x40 MLOAD RETURNDATASIZE PUSH1 0x1F NOT PUSH1 0x1F DUP3 ADD AND DUP3 ADD DUP1 PUSH1 0x40 MSTORE POP DUP2 ADD SWAP1 PUSH2 0x669 SWAP2 SWAP1 PUSH2 0x964 JUMP JUMPDEST SWAP1 POP PUSH2 0x675 DUP4 DUP4 PUSH2 0x7BC JUMP JUMPDEST DUP2 LT ISZERO PUSH2 0x6C4 JUMPI PUSH1 0x40 MLOAD PUSH3 0x461BCD PUSH1 0xE5 SHL DUP2 MSTORE PUSH1 0x20 PUSH1 0x4 DUP3 ADD MSTORE PUSH1 0x1D PUSH1 0x24 DUP3 ADD MSTORE PUSH32 0x696E73756666696369656E7420746F6B656E496E207265636569766564000000 PUSH1 0x44 DUP3 ADD MSTORE PUSH1 0x64 ADD PUSH2 0x2A3 JUMP JUMPDEST PUSH1 0x2 DUP6 ADD SLOAD PUSH1 0x1 DUP7 ADD SLOAD DUP7 SLOAD PUSH1 0x3 DUP9 ADD SLOAD PUSH1 0x4 DUP10 ADD SLOAD PUSH1 0x5 DUP11 ADD SLOAD PUSH1 0x40 DUP1 MLOAD SWAP4 DUP5 MSTORE PUSH1 0x20 DUP5 ADD SWAP3 SWAP1 SWAP3 MSTORE DUP3 DUP3 ADD MSTORE MLOAD PUSH1 0x1 PUSH1 0x1 PUSH1 0xA0 SHL SUB SWAP4 DUP5 AND SWAP4 SWAP1 SWAP3 AND SWAP2 PUSH32 0x8E90A202923754D43D4BC900C935B2C20A7CCF8454AB3CA3276F138F295AC155 SWAP2 DUP2 SWAP1 SUB PUSH1 0x60 ADD SWAP1 LOG4 POP POP POP POP POP PUSH2 0x73C PUSH1 0x1 PUSH1 0x0 SSTORE JUMP JUMPDEST POP POP POP POP JUMP JUMPDEST PUSH1 0x2 PUSH1 0x0 SLOAD SUB PUSH2 0x794 JUMPI PUSH1 0x40 MLOAD PUSH3 0x461BCD PUSH1 0xE5 SHL DUP2 MSTORE PUSH1 0x20 PUSH1 0x4 DUP3 ADD MSTORE PUSH1 0x1F PUSH1 0x24 DUP3 ADD MSTORE PUSH32 0x5265656E7472616E637947756172643A207265656E7472616E742063616C6C00 PUSH1 0x44 DUP3 ADD MSTORE PUSH1 0x64 ADD PUSH2 0x2A3 JUMP JUMPDEST PUSH1 0x2 PUSH1 0x0 SSTORE JUMP JUMPDEST PUSH1 0x0 PUSH2 0x7A7 DUP3 DUP5 PUSH2 0xA26 JUMP JUMPDEST SWAP1 POP JUMPDEST SWAP3 SWAP2 POP POP JUMP JUMPDEST PUSH1 0x0 PUSH2 0x7A7 DUP3 DUP5 PUSH2 0xA3D JUMP JUMPDEST PUSH1 0x0 PUSH2 0x7A7 DUP3 DUP5 PUSH2 0xA5F JUMP JUMPDEST DUP1 CALLDATALOAD PUSH1 0x1 PUSH1 0x1 PUSH1 0xA0 SHL SUB DUP2 AND DUP2 EQ PUSH2 0x7DF JUMPI PUSH1 0x0 DUP1 REVERT JUMPDEST SWAP2 SWAP1 POP JUMP JUMPDEST PUSH1 0x0 DUP1 PUSH1 0x0 DUP1 PUSH1 0x0 PUSH1 0xA0 DUP7 DUP9 SUB SLT ISZERO PUSH2 0x7FC JUMPI PUSH1 0x0 DUP1 REVERT JUMPDEST PUSH2 0x805 DUP7 PUSH2 0x7C8 JUMP JUMPDEST SWAP5 POP PUSH2 0x813 PUSH1 0x20 DUP8 ADD PUSH2 0x7C8 JUMP JUMPDEST SWAP5 SWAP8 SWAP5 SWAP7 POP POP POP POP PUSH1 0x40 DUP4 ADD CALLDATALOAD SWAP3 PUSH1 0x60 DUP2 ADD CALLDATALOAD SWAP3 PUSH1 0x80 SWAP1 SWAP2 ADD CALLDATALOAD SWAP2 POP JUMP JUMPDEST PUSH4 0x4E487B71 PUSH1 0xE0 SHL PUSH1 0x0 MSTORE PUSH1 0x41 PUSH1 0x4 MSTORE PUSH1 0x24 PUSH1 0x0 REVERT JUMPDEST PUSH1 0x0 DUP1 PUSH1 0x0 DUP1 PUSH1 0x80 DUP6 DUP8 SUB SLT ISZERO PUSH2 0x85D JUMPI PUSH1 0x0 DUP1 REVERT JUMPDEST DUP5 CALLDATALOAD SWAP4 POP PUSH2 0x86D PUSH1 0x20 DUP7 ADD PUSH2 0x7C8 JUMP JUMPDEST SWAP3 POP PUSH1 0x40 DUP6 ADD CALLDATALOAD SWAP2 POP PUSH1 0x60 DUP6 ADD CALLDATALOAD PUSH8 0xFFFFFFFFFFFFFFFF DUP1 DUP3 GT ISZERO PUSH2 0x891 JUMPI PUSH1 0x0 DUP1 REVERT JUMPDEST DUP2 DUP8 ADD SWAP2 POP DUP8 PUSH1 0x1F DUP4 ADD SLT PUSH2 0x8A5 JUMPI PUSH1 0x0 DUP1 REVERT JUMPDEST DUP2 CALLDATALOAD DUP2 DUP2 GT ISZERO PUSH2 0x8B7 JUMPI PUSH2 0x8B7 PUSH2 0x831 JUMP JUMPDEST PUSH1 0x40 MLOAD PUSH1 0x1F DUP3 ADD PUSH1 0x1F NOT SWAP1 DUP2 AND PUSH1 0x3F ADD AND DUP2 ADD SWAP1 DUP4 DUP3 GT DUP2 DUP4 LT OR ISZERO PUSH2 0x8DF JUMPI PUSH2 0x8DF PUSH2 0x831 JUMP JUMPDEST DUP2 PUSH1 0x40 MSTORE DUP3 DUP2 MSTORE DUP11 PUSH1 0x20 DUP5 DUP8 ADD ADD GT ISZERO PUSH2 0x8F8 JUMPI PUSH1 0x0 DUP1 REVERT JUMPDEST DUP3 PUSH1 0x20 DUP7 ADD PUSH1 0x20 DUP4 ADD CALLDATACOPY PUSH1 0x0 PUSH1 0x20 DUP5 DUP4 ADD ADD MSTORE DUP1 SWAP6 POP POP POP POP POP POP SWAP3 SWAP6 SWAP2 SWAP5 POP SWAP3 POP JUMP JUMPDEST PUSH1 0x0 PUSH1 0x20 DUP3 DUP5 SUB SLT ISZERO PUSH2 0x92E JUMPI PUSH1 0x0 DUP1 REVERT JUMPDEST POP CALLDATALOAD SWAP2 SWAP1 POP JUMP JUMPDEST PUSH4 0x4E487B71 PUSH1 0xE0 SHL PUSH1 0x0 MSTORE PUSH1 0x11 PUSH1 0x4 MSTORE PUSH1 0x24 PUSH1 0x0 REVERT JUMPDEST PUSH1 0x0 PUSH1 0x1 DUP3 ADD PUSH2 0x95D JUMPI PUSH2 0x95D PUSH2 0x935 JUMP JUMPDEST POP PUSH1 0x1 ADD SWAP1 JUMP JUMPDEST PUSH1 0x0 PUSH1 0x20 DUP3 DUP5 SUB SLT ISZERO PUSH2 0x976 JUMPI PUSH1 0x0 DUP1 REVERT JUMPDEST POP MLOAD SWAP2 SWAP1 POP JUMP JUMPDEST DUP2 DUP2 SUB DUP2 DUP2 GT ISZERO PUSH2 0x7AA JUMPI PUSH2 0x7AA PUSH2 0x935 JUMP JUMPDEST PUSH1 0x0 PUSH1 0x20 DUP3 DUP5 SUB SLT ISZERO PUSH2 0x9A2 JUMPI PUSH1 0x0 DUP1 REVERT JUMPDEST DUP2 MLOAD DUP1 ISZERO ISZERO DUP2 EQ PUSH2 0x9B2 JUMPI PUSH1 0x0 DUP1 REVERT JUMPDEST SWAP4 SWAP3 POP POP POP JUMP JUMPDEST DUP5 DUP2 MSTORE PUSH1 0x0 PUSH1 0x20 PUSH1 0x1 PUSH1 0x1 PUSH1 0xA0 SHL SUB DUP7 AND DUP2 DUP5 ADD MSTORE DUP5 PUSH1 0x40 DUP5 ADD MSTORE PUSH1 0x80 PUSH1 0x60 DUP5 ADD MSTORE DUP4 MLOAD DUP1 PUSH1 0x80 DUP6 ADD MSTORE PUSH1 0x0 JUMPDEST DUP2 DUP2 LT ISZERO PUSH2 0xA02 JUMPI DUP6 DUP2 ADD DUP4 ADD MLOAD DUP6 DUP3 ADD PUSH1 0xA0 ADD MSTORE DUP3 ADD PUSH2 0x9E6 JUMP JUMPDEST POP PUSH1 0x0 PUSH1 0xA0 DUP3 DUP7 ADD ADD MSTORE PUSH1 0xA0 PUSH1 0x1F NOT PUSH1 0x1F DUP4 ADD AND DUP6 ADD ADD SWAP3 POP POP POP SWAP6 SWAP5 POP POP POP POP POP JUMP JUMPDEST DUP1 DUP3 MUL DUP2 ISZERO DUP3 DUP3 DIV DUP5 EQ OR PUSH2 0x7AA JUMPI PUSH2 0x7AA PUSH2 0x935 JUMP JUMPDEST PUSH1 0x0 DUP3 PUSH2 0xA5A JUMPI PUSH4 0x4E487B71 PUSH1 0xE0 SHL PUSH1 0x0 MSTORE PUSH1 0x12 PUSH1 0x4 MSTORE PUSH1 0x24 PUSH1 0x0 REVERT JUMPDEST POP DIV SWAP1 JUMP JUMPDEST DUP1 DUP3 ADD DUP1 DUP3 GT ISZERO PUSH2 0x7AA JUMPI PUSH2 0x7AA PUSH2 0x935 JUMP INVALID LOG2 PUSH5 0x6970667358 0x22 SLT KECCAK256 0x2E 0xA6 ORIGIN NOT PUSH21 0xF7F36976C4BFC264C3340B474EAC88C0168FA3206 0x21 SWAP11 EXTCODESIZE DUP14 0xAA PC PUSH5 0x736F6C6343 STOP ADDMOD GT STOP CALLER "},"methodIdentifiers":{"createOrder(address,address,uint256,uint256,uint256)":"518e62db","fillLimitOrder(uint256,address,uint256,bytes)":"8aab7a0a","idCounter()":"eb08ab28","limitOrders(uint256)":"a3e2b495"}},"storageLayout":{"storage":[{"astId":2397,"contract":"contracts/core/LimitOrderSCW.sol:LimitOrderSCW","label":"_status","offset":0,"slot":"0","type":"t_uint256"},{"astId":6170,"contract":"contracts/core/LimitOrderSCW.sol:LimitOrderSCW","label":"idCounter","offset":0,"slot":"1","type":"t_uint256"},{"astId":6175,"contract":"contracts/core/LimitOrderSCW.sol:LimitOrderSCW","label":"limitOrders","offset":0,"slot":"2","type":"t_mapping(t_uint256,t_struct(LimitOrder)6167_storage)"}],"types":{"t_address":{"encoding":"inplace","label":"address","numberOfBytes":"20"},"t_mapping(t_uint256,t_struct(LimitOrder)6167_storage)":{"encoding":"mapping","key":"t_uint256","label":"mapping(uint256 => struct LimitOrderSCW.LimitOrder)","numberOfBytes":"32","value":"t_struct(LimitOrder)6167_storage"},"t_struct(LimitOrder)6167_storage":{"encoding":"inplace","label":"struct LimitOrderSCW.LimitOrder","members":[{"astId":6156,"contract":"contracts/core/LimitOrderSCW.sol:LimitOrderSCW","label":"tokenOut","offset":0,"slot":"0","type":"t_address"},{"astId":6158,"contract":"contracts/core/LimitOrderSCW.sol:LimitOrderSCW","label":"tokenIn","offset":0,"slot":"1","type":"t_address"},{"astId":6160,"contract":"contracts/core/LimitOrderSCW.sol:LimitOrderSCW","label":"expiry","offset":0,"slot":"2","type":"t_uint256"},{"astId":6162,"contract":"contracts/core/LimitOrderSCW.sol:LimitOrderSCW","label":"id","offset":0,"slot":"3","type":"t_uint256"},{"astId":6164,"contract":"contracts/core/LimitOrderSCW.sol:LimitOrderSCW","label":"amountOut","offset":0,"slot":"4","type":"t_uint256"},{"astId":6166,"contract":"contracts/core/LimitOrderSCW.sol:LimitOrderSCW","label":"rate","offset":0,"slot":"5","type":"t_uint256"}],"numberOfBytes":"192"},"t_uint256":{"encoding":"inplace","label":"uint256","numberOfBytes":"32"}}}}}}