{"contracts/core/EntryPoint.sol":{"EntryPoint":{"abi":[{"inputs":[{"internalType":"uint256","name":"preOpGas","type":"uint256"},{"internalType":"uint256","name":"paid","type":"uint256"},{"internalType":"uint48","name":"validAfter","type":"uint48"},{"internalType":"uint48","name":"validUntil","type":"uint48"},{"internalType":"bool","name":"targetSuccess","type":"bool"},{"internalType":"bytes","name":"targetResult","type":"bytes"}],"name":"ExecutionResult","type":"error"},{"inputs":[{"internalType":"uint256","name":"opIndex","type":"uint256"},{"internalType":"string","name":"reason","type":"string"}],"name":"FailedOp","type":"error"},{"inputs":[{"internalType":"address","name":"sender","type":"address"}],"name":"SenderAddressResult","type":"error"},{"inputs":[{"internalType":"address","name":"aggregator","type":"address"}],"name":"SignatureValidationFailed","type":"error"},{"inputs":[{"components":[{"internalType":"uint256","name":"preOpGas","type":"uint256"},{"internalType":"uint256","name":"prefund","type":"uint256"},{"internalType":"bool","name":"sigFailed","type":"bool"},{"internalType":"uint48","name":"validAfter","type":"uint48"},{"internalType":"uint48","name":"validUntil","type":"uint48"},{"internalType":"bytes","name":"paymasterContext","type":"bytes"}],"internalType":"struct IEntryPoint.ReturnInfo","name":"returnInfo","type":"tuple"},{"components":[{"internalType":"uint256","name":"stake","type":"uint256"},{"internalType":"uint256","name":"unstakeDelaySec","type":"uint256"}],"internalType":"struct IStakeManager.StakeInfo","name":"senderInfo","type":"tuple"},{"components":[{"internalType":"uint256","name":"stake","type":"uint256"},{"internalType":"uint256","name":"unstakeDelaySec","type":"uint256"}],"internalType":"struct IStakeManager.StakeInfo","name":"factoryInfo","type":"tuple"},{"components":[{"internalType":"uint256","name":"stake","type":"uint256"},{"internalType":"uint256","name":"unstakeDelaySec","type":"uint256"}],"internalType":"struct IStakeManager.StakeInfo","name":"paymasterInfo","type":"tuple"}],"name":"ValidationResult","type":"error"},{"inputs":[{"components":[{"internalType":"uint256","name":"preOpGas","type":"uint256"},{"internalType":"uint256","name":"prefund","type":"uint256"},{"internalType":"bool","name":"sigFailed","type":"bool"},{"internalType":"uint48","name":"validAfter","type":"uint48"},{"internalType":"uint48","name":"validUntil","type":"uint48"},{"internalType":"bytes","name":"paymasterContext","type":"bytes"}],"internalType":"struct IEntryPoint.ReturnInfo","name":"returnInfo","type":"tuple"},{"components":[{"internalType":"uint256","name":"stake","type":"uint256"},{"internalType":"uint256","name":"unstakeDelaySec","type":"uint256"}],"internalType":"struct IStakeManager.StakeInfo","name":"senderInfo","type":"tuple"},{"components":[{"internalType":"uint256","name":"stake","type":"uint256"},{"internalType":"uint256","name":"unstakeDelaySec","type":"uint256"}],"internalType":"struct IStakeManager.StakeInfo","name":"factoryInfo","type":"tuple"},{"components":[{"internalType":"uint256","name":"stake","type":"uint256"},{"internalType":"uint256","name":"unstakeDelaySec","type":"uint256"}],"internalType":"struct IStakeManager.StakeInfo","name":"paymasterInfo","type":"tuple"},{"components":[{"internalType":"address","name":"aggregator","type":"address"},{"components":[{"internalType":"uint256","name":"stake","type":"uint256"},{"internalType":"uint256","name":"unstakeDelaySec","type":"uint256"}],"internalType":"struct IStakeManager.StakeInfo","name":"stakeInfo","type":"tuple"}],"internalType":"struct IEntryPoint.AggregatorStakeInfo","name":"aggregatorInfo","type":"tuple"}],"name":"ValidationResultWithAggregation","type":"error"},{"anonymous":false,"inputs":[{"indexed":true,"internalType":"bytes32","name":"userOpHash","type":"bytes32"},{"indexed":true,"internalType":"address","name":"sender","type":"address"},{"indexed":false,"internalType":"address","name":"factory","type":"address"},{"indexed":false,"internalType":"address","name":"paymaster","type":"address"}],"name":"AccountDeployed","type":"event"},{"anonymous":false,"inputs":[{"indexed":true,"internalType":"address","name":"account","type":"address"},{"indexed":false,"internalType":"uint256","name":"totalDeposit","type":"uint256"}],"name":"Deposited","type":"event"},{"anonymous":false,"inputs":[{"indexed":true,"internalType":"address","name":"aggregator","type":"address"}],"name":"SignatureAggregatorChanged","type":"event"},{"anonymous":false,"inputs":[{"indexed":true,"internalType":"address","name":"account","type":"address"},{"indexed":false,"internalType":"uint256","name":"totalStaked","type":"uint256"},{"indexed":false,"internalType":"uint256","name":"unstakeDelaySec","type":"uint256"}],"name":"StakeLocked","type":"event"},{"anonymous":false,"inputs":[{"indexed":true,"internalType":"address","name":"account","type":"address"},{"indexed":false,"internalType":"uint256","name":"withdrawTime","type":"uint256"}],"name":"StakeUnlocked","type":"event"},{"anonymous":false,"inputs":[{"indexed":true,"internalType":"address","name":"account","type":"address"},{"indexed":false,"internalType":"address","name":"withdrawAddress","type":"address"},{"indexed":false,"internalType":"uint256","name":"amount","type":"uint256"}],"name":"StakeWithdrawn","type":"event"},{"anonymous":false,"inputs":[{"indexed":true,"internalType":"bytes32","name":"userOpHash","type":"bytes32"},{"indexed":true,"internalType":"address","name":"sender","type":"address"},{"indexed":true,"internalType":"address","name":"paymaster","type":"address"},{"indexed":false,"internalType":"uint256","name":"nonce","type":"uint256"},{"indexed":false,"internalType":"bool","name":"success","type":"bool"},{"indexed":false,"internalType":"uint256","name":"actualGasCost","type":"uint256"},{"indexed":false,"internalType":"uint256","name":"actualGasUsed","type":"uint256"}],"name":"UserOperationEvent","type":"event"},{"anonymous":false,"inputs":[{"indexed":true,"internalType":"bytes32","name":"userOpHash","type":"bytes32"},{"indexed":true,"internalType":"address","name":"sender","type":"address"},{"indexed":false,"internalType":"uint256","name":"nonce","type":"uint256"},{"indexed":false,"internalType":"bytes","name":"revertReason","type":"bytes"}],"name":"UserOperationRevertReason","type":"event"},{"anonymous":false,"inputs":[{"indexed":true,"internalType":"address","name":"account","type":"address"},{"indexed":false,"internalType":"address","name":"withdrawAddress","type":"address"},{"indexed":false,"internalType":"uint256","name":"amount","type":"uint256"}],"name":"Withdrawn","type":"event"},{"inputs":[],"name":"SIG_VALIDATION_FAILED","outputs":[{"internalType":"uint256","name":"","type":"uint256"}],"stateMutability":"view","type":"function"},{"inputs":[{"internalType":"bytes","name":"initCode","type":"bytes"},{"internalType":"address","name":"sender","type":"address"},{"internalType":"bytes","name":"paymasterAndData","type":"bytes"}],"name":"_validateSenderAndPaymaster","outputs":[],"stateMutability":"view","type":"function"},{"inputs":[{"internalType":"uint32","name":"unstakeDelaySec","type":"uint32"}],"name":"addStake","outputs":[],"stateMutability":"payable","type":"function"},{"inputs":[{"internalType":"address","name":"account","type":"address"}],"name":"balanceOf","outputs":[{"internalType":"uint256","name":"","type":"uint256"}],"stateMutability":"view","type":"function"},{"inputs":[{"internalType":"address","name":"account","type":"address"}],"name":"depositTo","outputs":[],"stateMutability":"payable","type":"function"},{"inputs":[{"internalType":"address","name":"","type":"address"}],"name":"deposits","outputs":[{"internalType":"uint112","name":"deposit","type":"uint112"},{"internalType":"bool","name":"staked","type":"bool"},{"internalType":"uint112","name":"stake","type":"uint112"},{"internalType":"uint32","name":"unstakeDelaySec","type":"uint32"},{"internalType":"uint48","name":"withdrawTime","type":"uint48"}],"stateMutability":"view","type":"function"},{"inputs":[{"internalType":"address","name":"account","type":"address"}],"name":"getDepositInfo","outputs":[{"components":[{"internalType":"uint112","name":"deposit","type":"uint112"},{"internalType":"bool","name":"staked","type":"bool"},{"internalType":"uint112","name":"stake","type":"uint112"},{"internalType":"uint32","name":"unstakeDelaySec","type":"uint32"},{"internalType":"uint48","name":"withdrawTime","type":"uint48"}],"internalType":"struct IStakeManager.DepositInfo","name":"info","type":"tuple"}],"stateMutability":"view","type":"function"},{"inputs":[{"internalType":"bytes","name":"initCode","type":"bytes"}],"name":"getSenderAddress","outputs":[],"stateMutability":"nonpayable","type":"function"},{"inputs":[{"components":[{"internalType":"address","name":"sender","type":"address"},{"internalType":"uint256","name":"nonce","type":"uint256"},{"internalType":"bytes","name":"initCode","type":"bytes"},{"internalType":"bytes","name":"callData","type":"bytes"},{"internalType":"uint256","name":"callGasLimit","type":"uint256"},{"internalType":"uint256","name":"verificationGasLimit","type":"uint256"},{"internalType":"uint256","name":"preVerificationGas","type":"uint256"},{"internalType":"uint256","name":"maxFeePerGas","type":"uint256"},{"internalType":"uint256","name":"maxPriorityFeePerGas","type":"uint256"},{"internalType":"bytes","name":"paymasterAndData","type":"bytes"},{"internalType":"bytes","name":"signature","type":"bytes"}],"internalType":"struct UserOperation","name":"userOp","type":"tuple"}],"name":"getUserOpHash","outputs":[{"internalType":"bytes32","name":"","type":"bytes32"}],"stateMutability":"view","type":"function"},{"inputs":[{"components":[{"components":[{"internalType":"address","name":"sender","type":"address"},{"internalType":"uint256","name":"nonce","type":"uint256"},{"internalType":"bytes","name":"initCode","type":"bytes"},{"internalType":"bytes","name":"callData","type":"bytes"},{"internalType":"uint256","name":"callGasLimit","type":"uint256"},{"internalType":"uint256","name":"verificationGasLimit","type":"uint256"},{"internalType":"uint256","name":"preVerificationGas","type":"uint256"},{"internalType":"uint256","name":"maxFeePerGas","type":"uint256"},{"internalType":"uint256","name":"maxPriorityFeePerGas","type":"uint256"},{"internalType":"bytes","name":"paymasterAndData","type":"bytes"},{"internalType":"bytes","name":"signature","type":"bytes"}],"internalType":"struct UserOperation[]","name":"userOps","type":"tuple[]"},{"internalType":"contract IAggregator","name":"aggregator","type":"address"},{"internalType":"bytes","name":"signature","type":"bytes"}],"internalType":"struct IEntryPoint.UserOpsPerAggregator[]","name":"opsPerAggregator","type":"tuple[]"},{"internalType":"address payable","name":"beneficiary","type":"address"}],"name":"handleAggregatedOps","outputs":[],"stateMutability":"nonpayable","type":"function"},{"inputs":[{"components":[{"internalType":"address","name":"sender","type":"address"},{"internalType":"uint256","name":"nonce","type":"uint256"},{"internalType":"bytes","name":"initCode","type":"bytes"},{"internalType":"bytes","name":"callData","type":"bytes"},{"internalType":"uint256","name":"callGasLimit","type":"uint256"},{"internalType":"uint256","name":"verificationGasLimit","type":"uint256"},{"internalType":"uint256","name":"preVerificationGas","type":"uint256"},{"internalType":"uint256","name":"maxFeePerGas","type":"uint256"},{"internalType":"uint256","name":"maxPriorityFeePerGas","type":"uint256"},{"internalType":"bytes","name":"paymasterAndData","type":"bytes"},{"internalType":"bytes","name":"signature","type":"bytes"}],"internalType":"struct UserOperation[]","name":"ops","type":"tuple[]"},{"internalType":"address payable","name":"beneficiary","type":"address"}],"name":"handleOps","outputs":[],"stateMutability":"nonpayable","type":"function"},{"inputs":[{"internalType":"bytes","name":"callData","type":"bytes"},{"components":[{"components":[{"internalType":"address","name":"sender","type":"address"},{"internalType":"uint256","name":"nonce","type":"uint256"},{"internalType":"uint256","name":"callGasLimit","type":"uint256"},{"internalType":"uint256","name":"verificationGasLimit","type":"uint256"},{"internalType":"uint256","name":"preVerificationGas","type":"uint256"},{"internalType":"address","name":"paymaster","type":"address"},{"internalType":"uint256","name":"maxFeePerGas","type":"uint256"},{"internalType":"uint256","name":"maxPriorityFeePerGas","type":"uint256"}],"internalType":"struct EntryPoint.MemoryUserOp","name":"mUserOp","type":"tuple"},{"internalType":"bytes32","name":"userOpHash","type":"bytes32"},{"internalType":"uint256","name":"prefund","type":"uint256"},{"internalType":"uint256","name":"contextOffset","type":"uint256"},{"internalType":"uint256","name":"preOpGas","type":"uint256"}],"internalType":"struct EntryPoint.UserOpInfo","name":"opInfo","type":"tuple"},{"internalType":"bytes","name":"context","type":"bytes"}],"name":"innerHandleOp","outputs":[{"internalType":"uint256","name":"actualGasCost","type":"uint256"}],"stateMutability":"nonpayable","type":"function"},{"inputs":[{"components":[{"internalType":"address","name":"sender","type":"address"},{"internalType":"uint256","name":"nonce","type":"uint256"},{"internalType":"bytes","name":"initCode","type":"bytes"},{"internalType":"bytes","name":"callData","type":"bytes"},{"internalType":"uint256","name":"callGasLimit","type":"uint256"},{"internalType":"uint256","name":"verificationGasLimit","type":"uint256"},{"internalType":"uint256","name":"preVerificationGas","type":"uint256"},{"internalType":"uint256","name":"maxFeePerGas","type":"uint256"},{"internalType":"uint256","name":"maxPriorityFeePerGas","type":"uint256"},{"internalType":"bytes","name":"paymasterAndData","type":"bytes"},{"internalType":"bytes","name":"signature","type":"bytes"}],"internalType":"struct UserOperation","name":"op","type":"tuple"},{"internalType":"address","name":"target","type":"address"},{"internalType":"bytes","name":"targetCallData","type":"bytes"}],"name":"simulateHandleOp","outputs":[],"stateMutability":"nonpayable","type":"function"},{"inputs":[{"components":[{"internalType":"address","name":"sender","type":"address"},{"internalType":"uint256","name":"nonce","type":"uint256"},{"internalType":"bytes","name":"initCode","type":"bytes"},{"internalType":"bytes","name":"callData","type":"bytes"},{"internalType":"uint256","name":"callGasLimit","type":"uint256"},{"internalType":"uint256","name":"verificationGasLimit","type":"uint256"},{"internalType":"uint256","name":"preVerificationGas","type":"uint256"},{"internalType":"uint256","name":"maxFeePerGas","type":"uint256"},{"internalType":"uint256","name":"maxPriorityFeePerGas","type":"uint256"},{"internalType":"bytes","name":"paymasterAndData","type":"bytes"},{"internalType":"bytes","name":"signature","type":"bytes"}],"internalType":"struct UserOperation","name":"userOp","type":"tuple"}],"name":"simulateValidation","outputs":[],"stateMutability":"nonpayable","type":"function"},{"inputs":[],"name":"unlockStake","outputs":[],"stateMutability":"nonpayable","type":"function"},{"inputs":[{"internalType":"address payable","name":"withdrawAddress","type":"address"}],"name":"withdrawStake","outputs":[],"stateMutability":"nonpayable","type":"function"},{"inputs":[{"internalType":"address payable","name":"withdrawAddress","type":"address"},{"internalType":"uint256","name":"withdrawAmount","type":"uint256"}],"name":"withdrawTo","outputs":[],"stateMutability":"nonpayable","type":"function"},{"stateMutability":"payable","type":"receive"}],"evm":{"bytecode":{"linkReferences":{},"object":"60a0604052604051620000129062000076565b604051809103906000f0801580156200002f573d6000803e3d6000fd5b5073ffffffffffffffffffffffffffffffffffffffff1660809073ffffffffffffffffffffffffffffffffffffffff168152503480156200006f57600080fd5b5062000084565b6103628062006df583390190565b608051616d4e620000a7600039600081816115c501526137890152616d4e6000f3fe6080604052600436106101025760003560e01c8063957122ab11610095578063bb9fe6bf11610064578063bb9fe6bf1461033b578063c23a5cea14610352578063d6383f941461037b578063ee219423146103a4578063fc7e286d146103cd57610112565b8063957122ab146102905780639b249f69146102b9578063a6193531146102e2578063b760faf91461031f57610112565b80634b1d7cf5116100d15780634b1d7cf5146101c25780635287ce12146101eb57806370a08231146102285780638f41ec5a1461026557610112565b80630396cb60146101175780631d732756146101335780631fad948c14610170578063205c28781461019957610112565b36610112576101103361040e565b005b600080fd5b610131600480360381019061012c9190613bb4565b6104ca565b005b34801561013f57600080fd5b5061015a60048036038101906101559190613fb1565b610881565b6040516101679190614052565b60405180910390f35b34801561017c57600080fd5b5061019760048036038101906101929190614101565b610a55565b005b3480156101a557600080fd5b506101c060048036038101906101bb9190614161565b610bac565b005b3480156101ce57600080fd5b506101e960048036038101906101e491906141f7565b610dd1565b005b3480156101f757600080fd5b50610212600480360381019061020d9190614257565b6112ca565b60405161021f9190614360565b60405180910390f35b34801561023457600080fd5b5061024f600480360381019061024a9190614257565b611417565b60405161025c9190614052565b60405180910390f35b34801561027157600080fd5b5061027a61148c565b6040516102879190614052565b60405180910390f35b34801561029c57600080fd5b506102b760048036038101906102b2919061437b565b611491565b005b3480156102c557600080fd5b506102e060048036038101906102db9190614410565b6115c3565b005b3480156102ee57600080fd5b5061030960048036038101906103049190614482565b61169d565b60405161031691906144da565b60405180910390f35b61033960048036038101906103349190614257565b61040e565b005b34801561034757600080fd5b506103506116d9565b005b34801561035e57600080fd5b50610379600480360381019061037491906144f5565b611889565b005b34801561038757600080fd5b506103a2600480360381019061039d9190614522565b611b89565b005b3480156103b057600080fd5b506103cb60048036038101906103c69190614482565b611cd9565b005b3480156103d957600080fd5b506103f460048036038101906103ef9190614257565b611f66565b6040516104059594939291906145ee565b60405180910390f35b6104188134611fff565b60008060008373ffffffffffffffffffffffffffffffffffffffff1673ffffffffffffffffffffffffffffffffffffffff16815260200190815260200160002090508173ffffffffffffffffffffffffffffffffffffffff167f2da466a7b24304f47e87fa2e1e5a81b9831ce54fec19055ce277ca2f39ba42c48260000160009054906101000a90046dffffffffffffffffffffffffffff166040516104be919061467c565b60405180910390a25050565b60008060003373ffffffffffffffffffffffffffffffffffffffff1673ffffffffffffffffffffffffffffffffffffffff168152602001908152602001600020905060008263ffffffff1611610555576040517f08c379a000000000000000000000000000000000000000000000000000000000815260040161054c906146f4565b60405180910390fd5b8060010160009054906101000a900463ffffffff1663ffffffff168263ffffffff1610156105b8576040517f08c379a00000000000000000000000000000000000000000000000000000000081526004016105af90614760565b60405180910390fd5b60003482600001600f9054906101000a90046dffffffffffffffffffffffffffff166dffffffffffffffffffffffffffff166105f491906147af565b905060008111610639576040517f08c379a00000000000000000000000000000000000000000000000000000000081526004016106309061482f565b60405180910390fd5b6dffffffffffffffffffffffffffff801681111561068c576040517f08c379a00000000000000000000000000000000000000000000000000000000081526004016106839061489b565b60405180910390fd5b6040518060a001604052808360000160009054906101000a90046dffffffffffffffffffffffffffff166dffffffffffffffffffffffffffff168152602001600115158152602001826dffffffffffffffffffffffffffff1681526020018463ffffffff168152602001600065ffffffffffff168152506000803373ffffffffffffffffffffffffffffffffffffffff1673ffffffffffffffffffffffffffffffffffffffff16815260200190815260200160002060008201518160000160006101000a8154816dffffffffffffffffffffffffffff02191690836dffffffffffffffffffffffffffff160217905550602082015181600001600e6101000a81548160ff021916908315150217905550604082015181600001600f6101000a8154816dffffffffffffffffffffffffffff02191690836dffffffffffffffffffffffffffff16021790555060608201518160010160006101000a81548163ffffffff021916908363ffffffff16021790555060808201518160010160046101000a81548165ffffffffffff021916908365ffffffffffff1602179055509050503373ffffffffffffffffffffffffffffffffffffffff167fa5ae833d0bb1dcd632d98a8b70973e8516812898e19bf27b70071ebc8dc52c0182856040516108749291906148ec565b60405180910390a2505050565b6000805a90503073ffffffffffffffffffffffffffffffffffffffff163373ffffffffffffffffffffffffffffffffffffffff16146108f5576040517f08c379a00000000000000000000000000000000000000000000000000000000081526004016108ec90614961565b60405180910390fd5b60008560000151905060008160400151905061138882606001518201015a1015610943577fdeaddead0000000000000000000000000000000000000000000000000000000060005260206000fd5b600080895111156109e7576000610961846000015160008c8661210f565b9050806109e5576000610975610800612128565b90506000815111156109df57846000015173ffffffffffffffffffffffffffffffffffffffff168a602001517f1c4fada7374c0a9ee8841fc38afe82932dc0f8e69012e927f061a8bae611a2018760200151846040516109d6929190614a00565b60405180910390a35b60019250505b505b600088608001515a8603019050610a466000838b8b8b8080601f016020809104026020016040519081016040528093929190818152602001838380828437600081840152601f19601f8201169050808301925050505050505085612158565b95505050505050949350505050565b600083839050905060008167ffffffffffffffff811115610a7957610a78613bfc565b5b604051908082528060200260200182016040528015610ab257816020015b610a9f6139fb565b815260200190600190039081610a975790505b50905060005b82811015610b32576000828281518110610ad557610ad4614a30565b5b60200260200101519050600080610b11848a8a87818110610af957610af8614a30565b5b9050602002810190610b0b9190614a6e565b856124cf565b91509150610b228483836000612679565b5050508080600101915050610ab8565b506000805b83811015610b9957610b8881888884818110610b5657610b55614a30565b5b9050602002810190610b689190614a6e565b858481518110610b7b57610b7a614a30565b5b602002602001015161280c565b820191508080600101915050610b37565b50610ba48482612965565b505050505050565b60008060003373ffffffffffffffffffffffffffffffffffffffff1673ffffffffffffffffffffffffffffffffffffffff16815260200190815260200160002090508060000160009054906101000a90046dffffffffffffffffffffffffffff166dffffffffffffffffffffffffffff16821115610c5f576040517f08c379a0000000000000000000000000000000000000000000000000000000008152600401610c5690614ae3565b60405180910390fd5b818160000160009054906101000a90046dffffffffffffffffffffffffffff166dffffffffffffffffffffffffffff16610c999190614b03565b8160000160006101000a8154816dffffffffffffffffffffffffffff02191690836dffffffffffffffffffffffffffff1602179055503373ffffffffffffffffffffffffffffffffffffffff167fd1c19fbcd4551a5edfb66d43d2e337c04837afda3482b42bdf569a8fccdae5fb8484604051610d17929190614b8c565b60405180910390a260008373ffffffffffffffffffffffffffffffffffffffff1683604051610d4590614be6565b60006040518083038185875af1925050503d8060008114610d82576040519150601f19603f3d011682016040523d82523d6000602084013e610d87565b606091505b5050905080610dcb576040517f08c379a0000000000000000000000000000000000000000000000000000000008152600401610dc290614c47565b60405180910390fd5b50505050565b60008383905090506000805b82811015610fbe5736868683818110610df957610df8614a30565b5b9050602002810190610e0b9190614c67565b9050366000828060000190610e209190614c8f565b915091506000836020016020810190610e399190614d30565b9050600173ffffffffffffffffffffffffffffffffffffffff168173ffffffffffffffffffffffffffffffffffffffff1603610eaa576040517f08c379a0000000000000000000000000000000000000000000000000000000008152600401610ea190614da9565b60405180910390fd5b600073ffffffffffffffffffffffffffffffffffffffff168173ffffffffffffffffffffffffffffffffffffffff1614610f96578073ffffffffffffffffffffffffffffffffffffffff1663e3563a4f8484878060400190610f0c9190614dc9565b6040518563ffffffff1660e01b8152600401610f2b9493929190615192565b60006040518083038186803b158015610f4357600080fd5b505afa925050508015610f54575060015b610f9557806040517f86a9f750000000000000000000000000000000000000000000000000000000008152600401610f8c91906151dc565b60405180910390fd5b5b8282905086610fa591906147af565b9550505050508080610fb6906151f7565b915050610ddd565b5060008167ffffffffffffffff811115610fdb57610fda613bfc565b5b60405190808252806020026020018201604052801561101457816020015b6110016139fb565b815260200190600190039081610ff95790505b5090506000805b8481101561112a573688888381811061103757611036614a30565b5b90506020028101906110499190614c67565b905036600082806000019061105e9190614c8f565b9150915060008360200160208101906110779190614d30565b9050600083839050905060005b818110156111115760008989815181106110a1576110a0614a30565b5b602002602001015190506000806110dd8b8989878181106110c5576110c4614a30565b5b90506020028101906110d79190614a6e565b856124cf565b915091506110ed84838389612679565b8a806110f8906151f7565b9b50505050508080611109906151f7565b915050611084565b5050505050508080611122906151f7565b91505061101b565b50600080915060005b85811015611271573689898381811061114f5761114e614a30565b5b90506020028101906111619190614c67565b90508060200160208101906111769190614d30565b73ffffffffffffffffffffffffffffffffffffffff167f575ff3acadd5ab348fe1855e217e0f3678f8d767d7494c9f9fefbee2e17cca4d60405160405180910390a23660008280600001906111cb9190614c8f565b91509150600082829050905060005b818110156112595761122b888585848181106111f9576111f8614a30565b5b905060200281019061120b9190614a6e565b8b8b8151811061121e5761121d614a30565b5b602002602001015161280c565b8761123691906147af565b96508780611243906151f7565b9850508080611251906151f7565b9150506111da565b50505050508080611269906151f7565b915050611133565b50600073ffffffffffffffffffffffffffffffffffffffff167f575ff3acadd5ab348fe1855e217e0f3678f8d767d7494c9f9fefbee2e17cca4d60405160405180910390a26112c08682612965565b5050505050505050565b6112d2613a33565b6000808373ffffffffffffffffffffffffffffffffffffffff1673ffffffffffffffffffffffffffffffffffffffff1681526020019081526020016000206040518060a00160405290816000820160009054906101000a90046dffffffffffffffffffffffffffff166dffffffffffffffffffffffffffff166dffffffffffffffffffffffffffff16815260200160008201600e9054906101000a900460ff1615151515815260200160008201600f9054906101000a90046dffffffffffffffffffffffffffff166dffffffffffffffffffffffffffff166dffffffffffffffffffffffffffff1681526020016001820160009054906101000a900463ffffffff1663ffffffff1663ffffffff1681526020016001820160049054906101000a900465ffffffffffff1665ffffffffffff1665ffffffffffff16815250509050919050565b60008060008373ffffffffffffffffffffffffffffffffffffffff1673ffffffffffffffffffffffffffffffffffffffff16815260200190815260200160002060000160009054906101000a90046dffffffffffffffffffffffffffff166dffffffffffffffffffffffffffff169050919050565b600181565b6000858590501480156114bb575060008373ffffffffffffffffffffffffffffffffffffffff163b145b156114fb576040517f08c379a00000000000000000000000000000000000000000000000000000000081526004016114f29061528b565b60405180910390fd5b60148282905010611588576000828260009060149261151c939291906152b5565b906115279190615334565b60601c905060008173ffffffffffffffffffffffffffffffffffffffff163b03611586576040517f08c379a000000000000000000000000000000000000000000000000000000000815260040161157d906153df565b60405180910390fd5b505b6040517f08c379a00000000000000000000000000000000000000000000000000000000081526004016115ba90615422565b60405180910390fd5b7f000000000000000000000000000000000000000000000000000000000000000073ffffffffffffffffffffffffffffffffffffffff1663570e1a3683836040518363ffffffff1660e01b815260040161161e929190615442565b6020604051808303816000875af115801561163d573d6000803e3d6000fd5b505050506040513d601f19601f82011682018060405250810190611661919061547b565b6040517f6ca7b80600000000000000000000000000000000000000000000000000000000815260040161169491906151dc565b60405180910390fd5b60006116a882612a85565b30466040516020016116bc939291906154a8565b604051602081830303815290604052805190602001209050919050565b60008060003373ffffffffffffffffffffffffffffffffffffffff1673ffffffffffffffffffffffffffffffffffffffff168152602001908152602001600020905060008160010160009054906101000a900463ffffffff1663ffffffff1603611778576040517f08c379a000000000000000000000000000000000000000000000000000000000815260040161176f9061552b565b60405180910390fd5b80600001600e9054906101000a900460ff166117c9576040517f08c379a00000000000000000000000000000000000000000000000000000000081526004016117c090615597565b60405180910390fd5b60008160010160009054906101000a900463ffffffff1663ffffffff16426117f191906155b7565b9050808260010160046101000a81548165ffffffffffff021916908365ffffffffffff160217905550600082600001600e6101000a81548160ff0219169083151502179055503373ffffffffffffffffffffffffffffffffffffffff167ffa9b3c14cc825c412c9ed81b3ba365a5b459439403f18829e572ed53a4180f0a8260405161187d9190615622565b60405180910390a25050565b60008060003373ffffffffffffffffffffffffffffffffffffffff1673ffffffffffffffffffffffffffffffffffffffff1681526020019081526020016000209050600081600001600f9054906101000a90046dffffffffffffffffffffffffffff166dffffffffffffffffffffffffffff16905060008111611941576040517f08c379a000000000000000000000000000000000000000000000000000000000815260040161193890615689565b60405180910390fd5b60008260010160049054906101000a900465ffffffffffff1665ffffffffffff16116119a2576040517f08c379a0000000000000000000000000000000000000000000000000000000008152600401611999906156f5565b60405180910390fd5b428260010160049054906101000a900465ffffffffffff1665ffffffffffff161115611a03576040517f08c379a00000000000000000000000000000000000000000000000000000000081526004016119fa90615761565b60405180910390fd5b60008260010160006101000a81548163ffffffff021916908363ffffffff16021790555060008260010160046101000a81548165ffffffffffff021916908365ffffffffffff160217905550600082600001600f6101000a8154816dffffffffffffffffffffffffffff02191690836dffffffffffffffffffffffffffff1602179055503373ffffffffffffffffffffffffffffffffffffffff167fb7c918e0e249f999e965cafeb6c664271b3f4317d296461500e71da39f0cbda38483604051611acf929190614b8c565b60405180910390a260008373ffffffffffffffffffffffffffffffffffffffff1682604051611afd90614be6565b60006040518083038185875af1925050503d8060008114611b3a576040519150601f19603f3d011682016040523d82523d6000602084013e611b3f565b606091505b5050905080611b83576040517f08c379a0000000000000000000000000000000000000000000000000000000008152600401611b7a906157cd565b60405180910390fd5b50505050565b611b916139fb565b611b9a85612a9e565b600080611ba9600088856124cf565b915091506000611bb98383612bc6565b9050611bc3612cd9565b6000611bd160008a8761280c565b9050611bdb612cd9565b60006060600073ffffffffffffffffffffffffffffffffffffffff168a73ffffffffffffffffffffffffffffffffffffffff1614611c86578973ffffffffffffffffffffffffffffffffffffffff168989604051611c3a929190615812565b6000604051808303816000865af19150503d8060008114611c77576040519150601f19603f3d011682016040523d82523d6000602084013e611c7c565b606091505b5080925081935050505b8660800151838560200151866040015185856040517f8b7ac980000000000000000000000000000000000000000000000000000000008152600401611cd09695949392919061582b565b60405180910390fd5b611ce16139fb565b611cea82612a9e565b600080611cf9600085856124cf565b915091506000611d10846000015160a00151612cdf565b90506000611d25856000015160000151612cdf565b9050611d2f613a92565b366000888060400190611d429190614dc9565b9150915060006014838390501015611d5b576000611d7e565b8282600090601492611d6f939291906152b5565b90611d7a9190615334565b60601c5b9050611d8981612cdf565b93505050506000611d9a8686612bc6565b90506000816000015190506000600173ffffffffffffffffffffffffffffffffffffffff168273ffffffffffffffffffffffffffffffffffffffff1614905060006040518060c001604052808b6080015181526020018b6040015181526020018315158152602001856020015165ffffffffffff168152602001856040015165ffffffffffff168152602001611e338c60600151612d8b565b8152509050600073ffffffffffffffffffffffffffffffffffffffff168373ffffffffffffffffffffffffffffffffffffffff1614158015611ea25750600173ffffffffffffffffffffffffffffffffffffffff168373ffffffffffffffffffffffffffffffffffffffff1614155b15611f2357600060405180604001604052808573ffffffffffffffffffffffffffffffffffffffff168152602001611ed986612cdf565b81525090508187878a846040517ffaecb4e4000000000000000000000000000000000000000000000000000000008152600401611f1a9594939291906159e2565b60405180910390fd5b808686896040517fe0cff05f000000000000000000000000000000000000000000000000000000008152600401611f5d9493929190615a3d565b60405180910390fd5b60006020528060005260406000206000915090508060000160009054906101000a90046dffffffffffffffffffffffffffff169080600001600e9054906101000a900460ff169080600001600f9054906101000a90046dffffffffffffffffffffffffffff16908060010160009054906101000a900463ffffffff16908060010160049054906101000a900465ffffffffffff16905085565b60008060008473ffffffffffffffffffffffffffffffffffffffff1673ffffffffffffffffffffffffffffffffffffffff16815260200190815260200160002090506000828260000160009054906101000a90046dffffffffffffffffffffffffffff166dffffffffffffffffffffffffffff1661207d91906147af565b90506dffffffffffffffffffffffffffff80168111156120d2576040517f08c379a00000000000000000000000000000000000000000000000000000000081526004016120c990615ad5565b60405180910390fd5b808260000160006101000a8154816dffffffffffffffffffffffffffff02191690836dffffffffffffffffffffffffffff16021790555050505050565b6000806000845160208601878987f19050949350505050565b60603d82811115612137578290505b604051602082018101604052818152816000602083013e8092505050919050565b6000805a905060008086600001519050600061217382612d95565b905060008260a001519050600073ffffffffffffffffffffffffffffffffffffffff168173ffffffffffffffffffffffffffffffffffffffff16036121be57826000015193506123ae565b8093506000885111156123ad5781870295506002808111156121e3576121e2615af5565b5b8a60028111156121f6576121f5615af5565b5b14612275578073ffffffffffffffffffffffffffffffffffffffff1663a9a2340984606001518c8b8a6040518563ffffffff1660e01b815260040161223d93929190615b6c565b600060405180830381600088803b15801561225757600080fd5b5087f115801561226b573d6000803e3d6000fd5b50505050506123ac565b8073ffffffffffffffffffffffffffffffffffffffff1663a9a2340984606001518c8b8a6040518563ffffffff1660e01b81526004016122b793929190615b6c565b600060405180830381600088803b1580156122d157600080fd5b5087f1935050505080156122e3575060015b6123ab576122ef615bb7565b806308c379a00361236c5750612303615bd9565b8061230e575061236e565b8b816040516020016123209190615cd6565b6040516020818303038152906040526040517f220266b6000000000000000000000000000000000000000000000000000000008152600401612363929190615d35565b60405180910390fd5b505b8a6040517f220266b60000000000000000000000000000000000000000000000000000000081526004016123a29190615db1565b60405180910390fd5b5b5b5b5a85038701965081870295508589604001511015612403578a6040517f220266b60000000000000000000000000000000000000000000000000000000081526004016123fa9190615e2b565b60405180910390fd5b6000868a604001510390506124188582611fff565b600080600281111561242d5761242c615af5565b5b8c60028111156124405761243f615af5565b5b1490508460a0015173ffffffffffffffffffffffffffffffffffffffff16856000015173ffffffffffffffffffffffffffffffffffffffff168c602001517f49628fd1471006c1482da88028e9ce4dbb080b815c9b0344d39e5a8e6ec1419f8860200151858d8f6040516124b79493929190615e59565b60405180910390a45050505050505095945050505050565b60008060005a90506000846000015190506124ea8682612dcf565b6124f38661169d565b85602001818152505060008661010001358760e001358360400151846060015185608001511717171790506effffffffffffffffffffffffffffff8016811115612572576040517f08c379a000000000000000000000000000000000000000000000000000000000815260040161256990615eea565b60405180910390fd5b60008061257e84612f77565b905061258c8a8a8a84612fe8565b809850819350505061259c612cd9565b6060600073ffffffffffffffffffffffffffffffffffffffff168560a0015173ffffffffffffffffffffffffffffffffffffffff16146125ec576125e38b8b8b8587613311565b80985081925050505b60005a87039050808b60a00135101561263c578b6040517f220266b60000000000000000000000000000000000000000000000000000000081526004016126339190615f56565b60405180910390fd5b828a604001818152505061264f826135cf565b8a60600181815250508a60c001355a8803018a608001818152505050505050505050935093915050565b600080612685856135d9565b915091508173ffffffffffffffffffffffffffffffffffffffff168373ffffffffffffffffffffffffffffffffffffffff16146126f957856040517f220266b60000000000000000000000000000000000000000000000000000000081526004016126f09190615fd0565b60405180910390fd5b801561273c57856040517f220266b6000000000000000000000000000000000000000000000000000000008152600401612733919061604a565b60405180910390fd5b6000612747856135d9565b8093508192505050600073ffffffffffffffffffffffffffffffffffffffff168173ffffffffffffffffffffffffffffffffffffffff16146127c057866040517f220266b60000000000000000000000000000000000000000000000000000000081526004016127b791906160c4565b60405180910390fd5b811561280357866040517f220266b60000000000000000000000000000000000000000000000000000000081526004016127fa9190616164565b60405180910390fd5b50505050505050565b6000805a905060006128218460600151612d8b565b90503073ffffffffffffffffffffffffffffffffffffffff16631d73275686806060019061284f9190614dc9565b87856040518563ffffffff1660e01b815260040161287094939291906162b0565b6020604051808303816000875af19250505080156128ac57506040513d601f19601f820116820180604052508101906128a9919061630e565b60015b61295757600060206000803e60005190507fdeaddead00000000000000000000000000000000000000000000000000000000810361292157866040517f220266b60000000000000000000000000000000000000000000000000000000081526004016129189190616387565b60405180910390fd5b600085608001515a856129349190614b03565b61293e91906147af565b905061294e886002888685612158565b9450505061295c565b809350505b50509392505050565b600073ffffffffffffffffffffffffffffffffffffffff168273ffffffffffffffffffffffffffffffffffffffff16036129d4576040517f08c379a00000000000000000000000000000000000000000000000000000000081526004016129cb90616401565b60405180910390fd5b60008273ffffffffffffffffffffffffffffffffffffffff16826040516129fa90614be6565b60006040518083038185875af1925050503d8060008114612a37576040519150601f19603f3d011682016040523d82523d6000602084013e612a3c565b606091505b5050905080612a80576040517f08c379a0000000000000000000000000000000000000000000000000000000008152600401612a779061646d565b60405180910390fd5b505050565b6000612a9082613632565b805190602001209050919050565b3073ffffffffffffffffffffffffffffffffffffffff1663957122ab828060400190612aca9190614dc9565b846000016020810190612add9190614257565b85806101200190612aee9190614dc9565b6040518663ffffffff1660e01b8152600401612b0e95949392919061648d565b60006040518083038186803b158015612b2657600080fd5b505afa925050508015612b37575060015b612bc257612b43615bb7565b806308c379a003612bb15750612b57615bd9565b80612b625750612bb3565b6000815114612bab576000816040517f220266b6000000000000000000000000000000000000000000000000000000008152600401612ba2929190616511565b60405180910390fd5b50612bbd565b505b3d6000803e3d6000fd5b612bc3565b5b50565b612bce613aac565b6000612bd984613674565b90506000612be684613674565b9050600082600001519050600073ffffffffffffffffffffffffffffffffffffffff168173ffffffffffffffffffffffffffffffffffffffff1603612c2d57816000015190505b6000836020015190506000846040015190506000846020015190506000856040015190508165ffffffffffff168465ffffffffffff161015612c6d578193505b8065ffffffffffff168365ffffffffffff161115612c89578092505b60405180606001604052808673ffffffffffffffffffffffffffffffffffffffff1681526020018565ffffffffffff1681526020018465ffffffffffff1681525097505050505050505092915050565b43600052565b612ce7613a92565b60008060008473ffffffffffffffffffffffffffffffffffffffff1673ffffffffffffffffffffffffffffffffffffffff168152602001908152602001600020905080600001600f9054906101000a90046dffffffffffffffffffffffffffff166dffffffffffffffffffffffffffff168260000181815250508060010160009054906101000a900463ffffffff1663ffffffff1682602001818152505050919050565b6060819050919050565b6000808260c00151905060008360e001519050808203612db9578192505050612dca565b612dc5824883016136f8565b925050505b919050565b816000016020810190612de29190614257565b816000019073ffffffffffffffffffffffffffffffffffffffff16908173ffffffffffffffffffffffffffffffffffffffff1681525050816020013581602001818152505081608001358160400181815250508160a001358160600181815250508160c001358160800181815250508160e001358160c00181815250508161010001358160e001818152505036600083806101200190612e829190614dc9565b915091506000828290501115612f37576014828290501015612ed9576040517f08c379a0000000000000000000000000000000000000000000000000000000008152600401612ed09061658d565b60405180910390fd5b8181600090601492612eed939291906152b5565b90612ef89190615334565b60601c8360a0019073ffffffffffffffffffffffffffffffffffffffff16908173ffffffffffffffffffffffffffffffffffffffff1681525050612f71565b60008360a0019073ffffffffffffffffffffffffffffffffffffffff16908173ffffffffffffffffffffffffffffffffffffffff16815250505b50505050565b600080600073ffffffffffffffffffffffffffffffffffffffff168360a0015173ffffffffffffffffffffffffffffffffffffffff1603612fb9576001612fbc565b60035b60ff16905060008360800151828560600151028560400151010190508360c00151810292505050919050565b60008060005a905060008560000151905060008160000151905061301c89888a80604001906130179190614dc9565b613711565b60008260a00151905061302d612cd9565b60008073ffffffffffffffffffffffffffffffffffffffff168273ffffffffffffffffffffffffffffffffffffffff160361308557600061306d84611417565b905088811161307e57808903613081565b60005b9150505b8273ffffffffffffffffffffffffffffffffffffffff16633a871cdd85606001518c8c60200151856040518563ffffffff1660e01b81526004016130cb93929190616711565b60206040518083038160008887f19350505050801561310857506040513d601f19601f82011682018060405250810190613105919061630e565b60015b6131d057613114615bb7565b806308c379a0036131915750613128615bd9565b806131335750613193565b8b816040516020016131459190616775565b6040516020818303038152906040526040517f220266b6000000000000000000000000000000000000000000000000000000008152600401613188929190615d35565b60405180910390fd5b505b8a6040517f220266b60000000000000000000000000000000000000000000000000000000081526004016131c791906167e7565b60405180910390fd5b80965050600073ffffffffffffffffffffffffffffffffffffffff168273ffffffffffffffffffffffffffffffffffffffff16036132fe5760008060008573ffffffffffffffffffffffffffffffffffffffff1673ffffffffffffffffffffffffffffffffffffffff168152602001908152602001600020905060008160000160009054906101000a90046dffffffffffffffffffffffffffff166dffffffffffffffffffffffffffff169050808a11156132c2578c6040517f220266b60000000000000000000000000000000000000000000000000000000081526004016132b99190616861565b60405180910390fd5b8981038260000160006101000a8154816dffffffffffffffffffffffffffff02191690836dffffffffffffffffffffffffffff16021790555050505b5a85039650505050505094509492505050565b606060008085600001519050600081606001519050848111613368576040517f08c379a000000000000000000000000000000000000000000000000000000000815260040161335f906168db565b60405180910390fd5b6000858203905060008360a00151905060008060008373ffffffffffffffffffffffffffffffffffffffff1673ffffffffffffffffffffffffffffffffffffffff168152602001908152602001600020905060008160000160009054906101000a90046dffffffffffffffffffffffffffff166dffffffffffffffffffffffffffff16905089811015613432578c6040517f220266b60000000000000000000000000000000000000000000000000000000081526004016134299190616947565b60405180910390fd5b8981038260000160006101000a8154816dffffffffffffffffffffffffffff02191690836dffffffffffffffffffffffffffff1602179055508273ffffffffffffffffffffffffffffffffffffffff1663f465c77e858e8e602001518e6040518563ffffffff1660e01b81526004016134ad93929190616711565b60006040518083038160008887f1935050505080156134ef57506040513d6000823e3d601f19601f820116820180604052508101906134ec91906169e5565b60015b6135b7576134fb615bb7565b806308c379a003613578575061350f615bd9565b8061351a575061357a565b8d8160405160200161352c9190616a67565b6040516020818303038152906040526040517f220266b600000000000000000000000000000000000000000000000000000000815260040161356f929190615d35565b60405180910390fd5b505b8c6040517f220266b60000000000000000000000000000000000000000000000000000000081526004016135ae9190616ad9565b60405180910390fd5b81995080985050505050505050509550959350505050565b6000819050919050565b600080600083036135f0576000809150915061362d565b60006135fb84613674565b9050806040015165ffffffffffff164211806136225750806020015165ffffffffffff1642105b915080600001519250505b915091565b6060366000838061014001906136489190614dc9565b915091508360208184030360405194506020810185016040528085528082602087013750505050919050565b61367c613aac565b6000829050600060a084901c905060008165ffffffffffff16036136a45765ffffffffffff90505b600060d085901c905060405180606001604052808473ffffffffffffffffffffffffffffffffffffffff1681526020018265ffffffffffff1681526020018365ffffffffffff168152509350505050919050565b60008183106137075781613709565b825b905092915050565b600082829050146139f5576000836000015160000151905060008173ffffffffffffffffffffffffffffffffffffffff163b1461378557846040517f220266b600000000000000000000000000000000000000000000000000000000815260040161377c9190616b53565b60405180910390fd5b60007f000000000000000000000000000000000000000000000000000000000000000073ffffffffffffffffffffffffffffffffffffffff1663570e1a3686600001516060015186866040518463ffffffff1660e01b81526004016137eb929190615442565b60206040518083038160008887f115801561380a573d6000803e3d6000fd5b50505050506040513d601f19601f8201168201806040525081019061382f919061547b565b9050600073ffffffffffffffffffffffffffffffffffffffff168173ffffffffffffffffffffffffffffffffffffffff16036138a257856040517f220266b60000000000000000000000000000000000000000000000000000000081526004016138999190616bcd565b60405180910390fd5b8173ffffffffffffffffffffffffffffffffffffffff168173ffffffffffffffffffffffffffffffffffffffff161461391257856040517f220266b60000000000000000000000000000000000000000000000000000000081526004016139099190616c47565b60405180910390fd5b60008173ffffffffffffffffffffffffffffffffffffffff163b0361396e57856040517f220266b60000000000000000000000000000000000000000000000000000000081526004016139659190616cc1565b60405180910390fd5b60008484600090601492613984939291906152b5565b9061398f9190615334565b60601c90508273ffffffffffffffffffffffffffffffffffffffff1686602001517fd51a9c61267aa6196961883ecf5ff2da6619c37dac0fa92122513fb32c032d2d83896000015160a001516040516139e9929190616cef565b60405180910390a35050505b50505050565b6040518060a00160405280613a0e613af3565b8152602001600080191681526020016000815260200160008152602001600081525090565b6040518060a0016040528060006dffffffffffffffffffffffffffff16815260200160001515815260200160006dffffffffffffffffffffffffffff168152602001600063ffffffff168152602001600065ffffffffffff1681525090565b604051806040016040528060008152602001600081525090565b6040518060600160405280600073ffffffffffffffffffffffffffffffffffffffff168152602001600065ffffffffffff168152602001600065ffffffffffff1681525090565b604051806101000160405280600073ffffffffffffffffffffffffffffffffffffffff16815260200160008152602001600081526020016000815260200160008152602001600073ffffffffffffffffffffffffffffffffffffffff16815260200160008152602001600081525090565b6000604051905090565b600080fd5b600080fd5b600063ffffffff82169050919050565b613b9181613b78565b8114613b9c57600080fd5b50565b600081359050613bae81613b88565b92915050565b600060208284031215613bca57613bc9613b6e565b5b6000613bd884828501613b9f565b91505092915050565b600080fd5b600080fd5b6000601f19601f8301169050919050565b7f4e487b7100000000000000000000000000000000000000000000000000000000600052604160045260246000fd5b613c3482613beb565b810181811067ffffffffffffffff82111715613c5357613c52613bfc565b5b80604052505050565b6000613c66613b64565b9050613c728282613c2b565b919050565b600067ffffffffffffffff821115613c9257613c91613bfc565b5b613c9b82613beb565b9050602081019050919050565b82818337600083830152505050565b6000613cca613cc584613c77565b613c5c565b905082815260208101848484011115613ce657613ce5613be6565b5b613cf1848285613ca8565b509392505050565b600082601f830112613d0e57613d0d613be1565b5b8135613d1e848260208601613cb7565b91505092915050565b600080fd5b600073ffffffffffffffffffffffffffffffffffffffff82169050919050565b6000613d5782613d2c565b9050919050565b613d6781613d4c565b8114613d7257600080fd5b50565b600081359050613d8481613d5e565b92915050565b6000819050919050565b613d9d81613d8a565b8114613da857600080fd5b50565b600081359050613dba81613d94565b92915050565b60006101008284031215613dd757613dd6613d27565b5b613de2610100613c5c565b90506000613df284828501613d75565b6000830152506020613e0684828501613dab565b6020830152506040613e1a84828501613dab565b6040830152506060613e2e84828501613dab565b6060830152506080613e4284828501613dab565b60808301525060a0613e5684828501613d75565b60a08301525060c0613e6a84828501613dab565b60c08301525060e0613e7e84828501613dab565b60e08301525092915050565b6000819050919050565b613e9d81613e8a565b8114613ea857600080fd5b50565b600081359050613eba81613e94565b92915050565b60006101808284031215613ed757613ed6613d27565b5b613ee160a0613c5c565b90506000613ef184828501613dc0565b600083015250610100613f0684828501613eab565b602083015250610120613f1b84828501613dab565b604083015250610140613f3084828501613dab565b606083015250610160613f4584828501613dab565b60808301525092915050565b600080fd5b600080fd5b60008083601f840112613f7157613f70613be1565b5b8235905067ffffffffffffffff811115613f8e57613f8d613f51565b5b602083019150836001820283011115613faa57613fa9613f56565b5b9250929050565b6000806000806101c08587031215613fcc57613fcb613b6e565b5b600085013567ffffffffffffffff811115613fea57613fe9613b73565b5b613ff687828801613cf9565b945050602061400787828801613ec0565b9350506101a085013567ffffffffffffffff81111561402957614028613b73565b5b61403587828801613f5b565b925092505092959194509250565b61404c81613d8a565b82525050565b60006020820190506140676000830184614043565b92915050565b60008083601f84011261408357614082613be1565b5b8235905067ffffffffffffffff8111156140a05761409f613f51565b5b6020830191508360208202830111156140bc576140bb613f56565b5b9250929050565b60006140ce82613d2c565b9050919050565b6140de816140c3565b81146140e957600080fd5b50565b6000813590506140fb816140d5565b92915050565b60008060006040848603121561411a57614119613b6e565b5b600084013567ffffffffffffffff81111561413857614137613b73565b5b6141448682870161406d565b93509350506020614157868287016140ec565b9150509250925092565b6000806040838503121561417857614177613b6e565b5b6000614186858286016140ec565b925050602061419785828601613dab565b9150509250929050565b60008083601f8401126141b7576141b6613be1565b5b8235905067ffffffffffffffff8111156141d4576141d3613f51565b5b6020830191508360208202830111156141f0576141ef613f56565b5b9250929050565b6000806000604084860312156142105761420f613b6e565b5b600084013567ffffffffffffffff81111561422e5761422d613b73565b5b61423a868287016141a1565b9350935050602061424d868287016140ec565b9150509250925092565b60006020828403121561426d5761426c613b6e565b5b600061427b84828501613d75565b91505092915050565b60006dffffffffffffffffffffffffffff82169050919050565b6142a781614284565b82525050565b60008115159050919050565b6142c2816142ad565b82525050565b6142d181613b78565b82525050565b600065ffffffffffff82169050919050565b6142f2816142d7565b82525050565b60a08201600082015161430e600085018261429e565b50602082015161432160208501826142b9565b506040820151614334604085018261429e565b50606082015161434760608501826142c8565b50608082015161435a60808501826142e9565b50505050565b600060a08201905061437560008301846142f8565b92915050565b60008060008060006060868803121561439757614396613b6e565b5b600086013567ffffffffffffffff8111156143b5576143b4613b73565b5b6143c188828901613f5b565b955095505060206143d488828901613d75565b935050604086013567ffffffffffffffff8111156143f5576143f4613b73565b5b61440188828901613f5b565b92509250509295509295909350565b6000806020838503121561442757614426613b6e565b5b600083013567ffffffffffffffff81111561444557614444613b73565b5b61445185828601613f5b565b92509250509250929050565b600080fd5b600061016082840312156144795761447861445d565b5b81905092915050565b60006020828403121561449857614497613b6e565b5b600082013567ffffffffffffffff8111156144b6576144b5613b73565b5b6144c284828501614462565b91505092915050565b6144d481613e8a565b82525050565b60006020820190506144ef60008301846144cb565b92915050565b60006020828403121561450b5761450a613b6e565b5b6000614519848285016140ec565b91505092915050565b6000806000806060858703121561453c5761453b613b6e565b5b600085013567ffffffffffffffff81111561455a57614559613b73565b5b61456687828801614462565b945050602061457787828801613d75565b935050604085013567ffffffffffffffff81111561459857614597613b73565b5b6145a487828801613f5b565b925092505092959194509250565b6145bb81614284565b82525050565b6145ca816142ad565b82525050565b6145d981613b78565b82525050565b6145e8816142d7565b82525050565b600060a08201905061460360008301886145b2565b61461060208301876145c1565b61461d60408301866145b2565b61462a60608301856145d0565b61463760808301846145df565b9695505050505050565b6000819050919050565b600061466661466161465c84614284565b614641565b613d8a565b9050919050565b6146768161464b565b82525050565b6000602082019050614691600083018461466d565b92915050565b600082825260208201905092915050565b7f6d757374207370656369667920756e7374616b652064656c6179000000000000600082015250565b60006146de601a83614697565b91506146e9826146a8565b602082019050919050565b6000602082019050818103600083015261470d816146d1565b9050919050565b7f63616e6e6f7420646563726561736520756e7374616b652074696d6500000000600082015250565b600061474a601c83614697565b915061475582614714565b602082019050919050565b600060208201905081810360008301526147798161473d565b9050919050565b7f4e487b7100000000000000000000000000000000000000000000000000000000600052601160045260246000fd5b60006147ba82613d8a565b91506147c583613d8a565b92508282019050808211156147dd576147dc614780565b5b92915050565b7f6e6f207374616b65207370656369666965640000000000000000000000000000600082015250565b6000614819601283614697565b9150614824826147e3565b602082019050919050565b600060208201905081810360008301526148488161480c565b9050919050565b7f7374616b65206f766572666c6f77000000000000000000000000000000000000600082015250565b6000614885600e83614697565b91506148908261484f565b602082019050919050565b600060208201905081810360008301526148b481614878565b9050919050565b60006148d66148d16148cc84613b78565b614641565b613d8a565b9050919050565b6148e6816148bb565b82525050565b60006040820190506149016000830185614043565b61490e60208301846148dd565b9392505050565b7f4141393220696e7465726e616c2063616c6c206f6e6c79000000000000000000600082015250565b600061494b601783614697565b915061495682614915565b602082019050919050565b6000602082019050818103600083015261497a8161493e565b9050919050565b600081519050919050565b600082825260208201905092915050565b60005b838110156149bb5780820151818401526020810190506149a0565b60008484015250505050565b60006149d282614981565b6149dc818561498c565b93506149ec81856020860161499d565b6149f581613beb565b840191505092915050565b6000604082019050614a156000830185614043565b8181036020830152614a2781846149c7565b90509392505050565b7f4e487b7100000000000000000000000000000000000000000000000000000000600052603260045260246000fd5b600080fd5b600080fd5b600080fd5b60008235600161016003833603038112614a8b57614a8a614a5f565b5b80830191505092915050565b7f576974686472617720616d6f756e7420746f6f206c6172676500000000000000600082015250565b6000614acd601983614697565b9150614ad882614a97565b602082019050919050565b60006020820190508181036000830152614afc81614ac0565b9050919050565b6000614b0e82613d8a565b9150614b1983613d8a565b9250828203905081811115614b3157614b30614780565b5b92915050565b6000614b52614b4d614b4884613d2c565b614641565b613d2c565b9050919050565b6000614b6482614b37565b9050919050565b6000614b7682614b59565b9050919050565b614b8681614b6b565b82525050565b6000604082019050614ba16000830185614b7d565b614bae6020830184614043565b9392505050565b600081905092915050565b50565b6000614bd0600083614bb5565b9150614bdb82614bc0565b600082019050919050565b6000614bf182614bc3565b9150819050919050565b7f6661696c656420746f2077697468647261770000000000000000000000000000600082015250565b6000614c31601283614697565b9150614c3c82614bfb565b602082019050919050565b60006020820190508181036000830152614c6081614c24565b9050919050565b600082356001606003833603038112614c8357614c82614a5f565b5b80830191505092915050565b60008083356001602003843603038112614cac57614cab614a5f565b5b80840192508235915067ffffffffffffffff821115614cce57614ccd614a64565b5b602083019250602082023603831315614cea57614ce9614a69565b5b509250929050565b6000614cfd82613d4c565b9050919050565b614d0d81614cf2565b8114614d1857600080fd5b50565b600081359050614d2a81614d04565b92915050565b600060208284031215614d4657614d45613b6e565b5b6000614d5484828501614d1b565b91505092915050565b7f4141393620696e76616c69642061676772656761746f72000000000000000000600082015250565b6000614d93601783614697565b9150614d9e82614d5d565b602082019050919050565b60006020820190508181036000830152614dc281614d86565b9050919050565b60008083356001602003843603038112614de657614de5614a5f565b5b80840192508235915067ffffffffffffffff821115614e0857614e07614a64565b5b602083019250600182023603831315614e2457614e23614a69565b5b509250929050565b600082825260208201905092915050565b6000819050919050565b6000614e566020840184613d75565b905092915050565b614e6781613d4c565b82525050565b6000614e7c6020840184613dab565b905092915050565b614e8d81613d8a565b82525050565b600080fd5b600080fd5b600080fd5b60008083356001602003843603038112614ebf57614ebe614e9d565b5b83810192508235915060208301925067ffffffffffffffff821115614ee757614ee6614e93565b5b600182023603831315614efd57614efc614e98565b5b509250929050565b600082825260208201905092915050565b6000614f228385614f05565b9350614f2f838584613ca8565b614f3883613beb565b840190509392505050565b60006101608301614f576000840184614e47565b614f646000860182614e5e565b50614f726020840184614e6d565b614f7f6020860182614e84565b50614f8d6040840184614ea2565b8583036040870152614fa0838284614f16565b92505050614fb16060840184614ea2565b8583036060870152614fc4838284614f16565b92505050614fd56080840184614e6d565b614fe26080860182614e84565b50614ff060a0840184614e6d565b614ffd60a0860182614e84565b5061500b60c0840184614e6d565b61501860c0860182614e84565b5061502660e0840184614e6d565b61503360e0860182614e84565b50615042610100840184614e6d565b615050610100860182614e84565b5061505f610120840184614ea2565b858303610120870152615073838284614f16565b92505050615085610140840184614ea2565b858303610140870152615099838284614f16565b925050508091505092915050565b60006150b38383614f43565b905092915050565b600082356001610160038336030381126150d8576150d7614e9d565b5b82810191505092915050565b6000602082019050919050565b60006150fd8385614e2c565b93508360208402850161510f84614e3d565b8060005b8781101561515357848403895261512a82846150bb565b61513485826150a7565b945061513f836150e4565b925060208a01995050600181019050615113565b50829750879450505050509392505050565b6000615171838561498c565b935061517e838584613ca8565b61518783613beb565b840190509392505050565b600060408201905081810360008301526151ad8186886150f1565b905081810360208301526151c2818486615165565b905095945050505050565b6151d681613d4c565b82525050565b60006020820190506151f160008301846151cd565b92915050565b600061520282613d8a565b91507fffffffffffffffffffffffffffffffffffffffffffffffffffffffffffffffff820361523457615233614780565b5b600182019050919050565b7f41413230206163636f756e74206e6f74206465706c6f79656400000000000000600082015250565b6000615275601983614697565b91506152808261523f565b602082019050919050565b600060208201905081810360008301526152a481615268565b9050919050565b600080fd5b600080fd5b600080858511156152c9576152c86152ab565b5b838611156152da576152d96152b0565b5b6001850283019150848603905094509492505050565b600082905092915050565b60007fffffffffffffffffffffffffffffffffffffffff00000000000000000000000082169050919050565b600082821b905092915050565b600061534083836152f0565b8261534b81356152fb565b9250601482101561538b576153867fffffffffffffffffffffffffffffffffffffffff00000000000000000000000083601403600802615327565b831692505b505092915050565b7f41413330207061796d6173746572206e6f74206465706c6f7965640000000000600082015250565b60006153c9601b83614697565b91506153d482615393565b602082019050919050565b600060208201905081810360008301526153f8816153bc565b9050919050565b600061540c600083614697565b915061541782614bc0565b600082019050919050565b6000602082019050818103600083015261543b816153ff565b9050919050565b6000602082019050818103600083015261545d818486615165565b90509392505050565b60008151905061547581613d5e565b92915050565b60006020828403121561549157615490613b6e565b5b600061549f84828501615466565b91505092915050565b60006060820190506154bd60008301866144cb565b6154ca60208301856151cd565b6154d76040830184614043565b949350505050565b7f6e6f74207374616b656400000000000000000000000000000000000000000000600082015250565b6000615515600a83614697565b9150615520826154df565b602082019050919050565b6000602082019050818103600083015261554481615508565b9050919050565b7f616c726561647920756e7374616b696e67000000000000000000000000000000600082015250565b6000615581601183614697565b915061558c8261554b565b602082019050919050565b600060208201905081810360008301526155b081615574565b9050919050565b60006155c2826142d7565b91506155cd836142d7565b9250828201905065ffffffffffff8111156155eb576155ea614780565b5b92915050565b600061560c615607615602846142d7565b614641565b613d8a565b9050919050565b61561c816155f1565b82525050565b60006020820190506156376000830184615613565b92915050565b7f4e6f207374616b6520746f207769746864726177000000000000000000000000600082015250565b6000615673601483614697565b915061567e8261563d565b602082019050919050565b600060208201905081810360008301526156a281615666565b9050919050565b7f6d7573742063616c6c20756e6c6f636b5374616b652829206669727374000000600082015250565b60006156df601d83614697565b91506156ea826156a9565b602082019050919050565b6000602082019050818103600083015261570e816156d2565b9050919050565b7f5374616b65207769746864726177616c206973206e6f74206475650000000000600082015250565b600061574b601b83614697565b915061575682615715565b602082019050919050565b6000602082019050818103600083015261577a8161573e565b9050919050565b7f6661696c656420746f207769746864726177207374616b650000000000000000600082015250565b60006157b7601883614697565b91506157c282615781565b602082019050919050565b600060208201905081810360008301526157e6816157aa565b9050919050565b60006157f98385614bb5565b9350615806838584613ca8565b82840190509392505050565b600061581f8284866157ed565b91508190509392505050565b600060c0820190506158406000830189614043565b61584d6020830188614043565b61585a60408301876145df565b61586760608301866145df565b61587460808301856145c1565b81810360a083015261588681846149c7565b9050979650505050505050565b600061589e82614981565b6158a88185614f05565b93506158b881856020860161499d565b6158c181613beb565b840191505092915050565b600060c0830160008301516158e46000860182614e84565b5060208301516158f76020860182614e84565b50604083015161590a60408601826142b9565b50606083015161591d60608601826142e9565b50608083015161593060808601826142e9565b5060a083015184820360a08601526159488282615893565b9150508091505092915050565b60408201600082015161596b6000850182614e84565b50602082015161597e6020850182614e84565b50505050565b60408201600082015161599a6000850182614e84565b5060208201516159ad6020850182614e84565b50505050565b6060820160008201516159c96000850182614e5e565b5060208201516159dc6020850182615984565b50505050565b60006101408201905081810360008301526159fd81886158cc565b9050615a0c6020830187615955565b615a196060830186615955565b615a2660a0830185615955565b615a3360e08301846159b3565b9695505050505050565b600060e0820190508181036000830152615a5781876158cc565b9050615a666020830186615955565b615a736060830185615955565b615a8060a0830184615955565b95945050505050565b7f6465706f736974206f766572666c6f7700000000000000000000000000000000600082015250565b6000615abf601083614697565b9150615aca82615a89565b602082019050919050565b60006020820190508181036000830152615aee81615ab2565b9050919050565b7f4e487b7100000000000000000000000000000000000000000000000000000000600052602160045260246000fd5b60038110615b3557615b34615af5565b5b50565b6000819050615b4682615b24565b919050565b6000615b5682615b38565b9050919050565b615b6681615b4b565b82525050565b6000606082019050615b816000830186615b5d565b8181036020830152615b9381856149c7565b9050615ba26040830184614043565b949350505050565b60008160e01c9050919050565b600060033d1115615bd65760046000803e615bd3600051615baa565b90505b90565b600060443d10615c6657615beb613b64565b60043d036004823e80513d602482011167ffffffffffffffff82111715615c13575050615c66565b808201805167ffffffffffffffff811115615c315750505050615c66565b80602083010160043d038501811115615c4e575050505050615c66565b615c5d82602001850186613c2b565b82955050505050505b90565b7f4141353020706f73744f702072657665727465643a2000000000000000000000815250565b600081519050919050565b600081905092915050565b6000615cb082615c8f565b615cba8185615c9a565b9350615cca81856020860161499d565b80840191505092915050565b6000615ce182615c69565b601682019150615cf18284615ca5565b915081905092915050565b6000615d0782615c8f565b615d118185614697565b9350615d2181856020860161499d565b615d2a81613beb565b840191505092915050565b6000604082019050615d4a6000830185614043565b8181036020830152615d5c8184615cfc565b90509392505050565b7f4141353020706f73744f70207265766572740000000000000000000000000000600082015250565b6000615d9b601283614697565b9150615da682615d65565b602082019050919050565b6000604082019050615dc66000830184614043565b8181036020830152615dd781615d8e565b905092915050565b7f414135312070726566756e642062656c6f772061637475616c476173436f7374600082015250565b6000615e15602083614697565b9150615e2082615ddf565b602082019050919050565b6000604082019050615e406000830184614043565b8181036020830152615e5181615e08565b905092915050565b6000608082019050615e6e6000830187614043565b615e7b60208301866145c1565b615e886040830185614043565b615e956060830184614043565b95945050505050565b7f41413934206761732076616c756573206f766572666c6f770000000000000000600082015250565b6000615ed4601883614697565b9150615edf82615e9e565b602082019050919050565b60006020820190508181036000830152615f0381615ec7565b9050919050565b7f41413430206f76657220766572696669636174696f6e4761734c696d69740000600082015250565b6000615f40601e83614697565b9150615f4b82615f0a565b602082019050919050565b6000604082019050615f6b6000830184614043565b8181036020830152615f7c81615f33565b905092915050565b7f41413234207369676e6174757265206572726f72000000000000000000000000600082015250565b6000615fba601483614697565b9150615fc582615f84565b602082019050919050565b6000604082019050615fe56000830184614043565b8181036020830152615ff681615fad565b905092915050565b7f414132322065787069726564206f72206e6f7420647565000000000000000000600082015250565b6000616034601783614697565b915061603f82615ffe565b602082019050919050565b600060408201905061605f6000830184614043565b818103602083015261607081616027565b905092915050565b7f41413334207369676e6174757265206572726f72000000000000000000000000600082015250565b60006160ae601483614697565b91506160b982616078565b602082019050919050565b60006040820190506160d96000830184614043565b81810360208301526160ea816160a1565b905092915050565b7f41413332207061796d61737465722065787069726564206f72206e6f7420647560008201527f6500000000000000000000000000000000000000000000000000000000000000602082015250565b600061614e602183614697565b9150616159826160f2565b604082019050919050565b60006040820190506161796000830184614043565b818103602083015261618a81616141565b905092915050565b610100820160008201516161a96000850182614e5e565b5060208201516161bc6020850182614e84565b5060408201516161cf6040850182614e84565b5060608201516161e26060850182614e84565b5060808201516161f56080850182614e84565b5060a082015161620860a0850182614e5e565b5060c082015161621b60c0850182614e84565b5060e082015161622e60e0850182614e84565b50505050565b61623d81613e8a565b82525050565b6101808201600082015161625a6000850182616192565b50602082015161626e610100850182616234565b506040820151616282610120850182614e84565b506060820151616296610140850182614e84565b5060808201516162aa610160850182614e84565b50505050565b60006101c08201905081810360008301526162cc818688615165565b90506162db6020830185616243565b8181036101a08301526162ee81846149c7565b905095945050505050565b60008151905061630881613d94565b92915050565b60006020828403121561632457616323613b6e565b5b6000616332848285016162f9565b91505092915050565b7f41413935206f7574206f66206761730000000000000000000000000000000000600082015250565b6000616371600f83614697565b915061637c8261633b565b602082019050919050565b600060408201905061639c6000830184614043565b81810360208301526163ad81616364565b905092915050565b7f4141393020696e76616c69642062656e65666963696172790000000000000000600082015250565b60006163eb601883614697565b91506163f6826163b5565b602082019050919050565b6000602082019050818103600083015261641a816163de565b9050919050565b7f41413931206661696c65642073656e6420746f2062656e656669636961727900600082015250565b6000616457601f83614697565b915061646282616421565b602082019050919050565b600060208201905081810360008301526164868161644a565b9050919050565b600060608201905081810360008301526164a8818789615165565b90506164b760208301866151cd565b81810360408301526164ca818486615165565b90509695505050505050565b6000819050919050565b60006164fb6164f66164f1846164d6565b614641565b613d8a565b9050919050565b61650b816164e0565b82525050565b60006040820190506165266000830185616502565b81810360208301526165388184615cfc565b90509392505050565b7f4141393320696e76616c6964207061796d6173746572416e6444617461000000600082015250565b6000616577601d83614697565b915061658282616541565b602082019050919050565b600060208201905081810360008301526165a68161656a565b9050919050565b600061016083016165c16000840184614e47565b6165ce6000860182614e5e565b506165dc6020840184614e6d565b6165e96020860182614e84565b506165f76040840184614ea2565b858303604087015261660a838284614f16565b9250505061661b6060840184614ea2565b858303606087015261662e838284614f16565b9250505061663f6080840184614e6d565b61664c6080860182614e84565b5061665a60a0840184614e6d565b61666760a0860182614e84565b5061667560c0840184614e6d565b61668260c0860182614e84565b5061669060e0840184614e6d565b61669d60e0860182614e84565b506166ac610100840184614e6d565b6166ba610100860182614e84565b506166c9610120840184614ea2565b8583036101208701526166dd838284614f16565b925050506166ef610140840184614ea2565b858303610140870152616703838284614f16565b925050508091505092915050565b6000606082019050818103600083015261672b81866165ad565b905061673a60208301856144cb565b6167476040830184614043565b949350505050565b7f414132332072657665727465643a200000000000000000000000000000000000815250565b60006167808261674f565b600f820191506167908284615ca5565b915081905092915050565b7f4141323320726576657274656420286f72204f4f472900000000000000000000600082015250565b60006167d1601683614697565b91506167dc8261679b565b602082019050919050565b60006040820190506167fc6000830184614043565b818103602083015261680d816167c4565b905092915050565b7f41413231206469646e2774207061792070726566756e64000000000000000000600082015250565b600061684b601783614697565b915061685682616815565b602082019050919050565b60006040820190506168766000830184614043565b81810360208301526168878161683e565b905092915050565b7f4141343120746f6f206c6974746c6520766572696669636174696f6e47617300600082015250565b60006168c5601f83614697565b91506168d08261688f565b602082019050919050565b600060208201905081810360008301526168f4816168b8565b9050919050565b7f41413331207061796d6173746572206465706f73697420746f6f206c6f770000600082015250565b6000616931601e83614697565b915061693c826168fb565b602082019050919050565b600060408201905061695c6000830184614043565b818103602083015261696d81616924565b905092915050565b600061698861698384613c77565b613c5c565b9050828152602081018484840111156169a4576169a3613be6565b5b6169af84828561499d565b509392505050565b600082601f8301126169cc576169cb613be1565b5b81516169dc848260208601616975565b91505092915050565b600080604083850312156169fc576169fb613b6e565b5b600083015167ffffffffffffffff811115616a1a57616a19613b73565b5b616a26858286016169b7565b9250506020616a37858286016162f9565b9150509250929050565b7f414133332072657665727465643a200000000000000000000000000000000000815250565b6000616a7282616a41565b600f82019150616a828284615ca5565b915081905092915050565b7f4141333320726576657274656420286f72204f4f472900000000000000000000600082015250565b6000616ac3601683614697565b9150616ace82616a8d565b602082019050919050565b6000604082019050616aee6000830184614043565b8181036020830152616aff81616ab6565b905092915050565b7f414131302073656e64657220616c726561647920636f6e737472756374656400600082015250565b6000616b3d601f83614697565b9150616b4882616b07565b602082019050919050565b6000604082019050616b686000830184614043565b8181036020830152616b7981616b30565b905092915050565b7f4141313320696e6974436f6465206661696c6564206f72204f4f470000000000600082015250565b6000616bb7601b83614697565b9150616bc282616b81565b602082019050919050565b6000604082019050616be26000830184614043565b8181036020830152616bf381616baa565b905092915050565b7f4141313420696e6974436f6465206d7573742072657475726e2073656e646572600082015250565b6000616c31602083614697565b9150616c3c82616bfb565b602082019050919050565b6000604082019050616c5c6000830184614043565b8181036020830152616c6d81616c24565b905092915050565b7f4141313520696e6974436f6465206d757374206372656174652073656e646572600082015250565b6000616cab602083614697565b9150616cb682616c75565b602082019050919050565b6000604082019050616cd66000830184614043565b8181036020830152616ce781616c9e565b905092915050565b6000604082019050616d0460008301856151cd565b616d1160208301846151cd565b939250505056fea2646970667358221220df7ed039ca2f549898be1770fcf30f68ddc10ed2d51ec3a8ecc3de2495b8c94e64736f6c63430008120033608060405234801561001057600080fd5b50610342806100206000396000f3fe608060405234801561001057600080fd5b506004361061002b5760003560e01c8063570e1a3614610030575b600080fd5b61004a6004803603810190610045919061017b565b610060565b6040516100579190610209565b60405180910390f35b60008083836000906014926100779392919061022e565b9061008291906102ad565b60601c905060008484601490809261009c9392919061022e565b8080601f016020809104026020016040519081016040528093929190818152602001838380828437600081840152601f19601f8201169050808301925050505050505090506000602060008351602085016000875af1905060005193508061010357600093505b50505092915050565b600080fd5b600080fd5b600080fd5b600080fd5b600080fd5b60008083601f84011261013b5761013a610116565b5b8235905067ffffffffffffffff8111156101585761015761011b565b5b60208301915083600182028301111561017457610173610120565b5b9250929050565b600080602083850312156101925761019161010c565b5b600083013567ffffffffffffffff8111156101b0576101af610111565b5b6101bc85828601610125565b92509250509250929050565b600073ffffffffffffffffffffffffffffffffffffffff82169050919050565b60006101f3826101c8565b9050919050565b610203816101e8565b82525050565b600060208201905061021e60008301846101fa565b92915050565b600080fd5b600080fd5b6000808585111561024257610241610224565b5b8386111561025357610252610229565b5b6001850283019150848603905094509492505050565b600082905092915050565b60007fffffffffffffffffffffffffffffffffffffffff00000000000000000000000082169050919050565b600082821b905092915050565b60006102b98383610269565b826102c48135610274565b92506014821015610304576102ff7fffffffffffffffffffffffffffffffffffffffff000000000000000000000000836014036008026102a0565b831692505b50509291505056fea2646970667358221220e30d142f87793a971782f295797354cee0b2cab1dde5d99328c16b485b8887d864736f6c63430008120033","opcodes":"PUSH1 0xA0 PUSH1 0x40 MSTORE PUSH1 0x40 MLOAD PUSH3 0x12 SWAP1 PUSH3 0x76 JUMP JUMPDEST PUSH1 0x40 MLOAD DUP1 SWAP2 SUB SWAP1 PUSH1 0x0 CREATE DUP1 ISZERO DUP1 ISZERO PUSH3 0x2F JUMPI RETURNDATASIZE PUSH1 0x0 DUP1 RETURNDATACOPY RETURNDATASIZE PUSH1 0x0 REVERT JUMPDEST POP PUSH20 0xFFFFFFFFFFFFFFFFFFFFFFFFFFFFFFFFFFFFFFFF AND PUSH1 0x80 SWAP1 PUSH20 0xFFFFFFFFFFFFFFFFFFFFFFFFFFFFFFFFFFFFFFFF AND DUP2 MSTORE POP CALLVALUE DUP1 ISZERO PUSH3 0x6F JUMPI PUSH1 0x0 DUP1 REVERT JUMPDEST POP PUSH3 0x84 JUMP JUMPDEST PUSH2 0x362 DUP1 PUSH3 0x6DF5 DUP4 CODECOPY ADD SWAP1 JUMP JUMPDEST PUSH1 0x80 MLOAD PUSH2 0x6D4E PUSH3 0xA7 PUSH1 0x0 CODECOPY PUSH1 0x0 DUP2 DUP2 PUSH2 0x15C5 ADD MSTORE PUSH2 0x3789 ADD MSTORE PUSH2 0x6D4E PUSH1 0x0 RETURN INVALID PUSH1 0x80 PUSH1 0x40 MSTORE PUSH1 0x4 CALLDATASIZE LT PUSH2 0x102 JUMPI PUSH1 0x0 CALLDATALOAD PUSH1 0xE0 SHR DUP1 PUSH4 0x957122AB GT PUSH2 0x95 JUMPI DUP1 PUSH4 0xBB9FE6BF GT PUSH2 0x64 JUMPI DUP1 PUSH4 0xBB9FE6BF EQ PUSH2 0x33B JUMPI DUP1 PUSH4 0xC23A5CEA EQ PUSH2 0x352 JUMPI DUP1 PUSH4 0xD6383F94 EQ PUSH2 0x37B JUMPI DUP1 PUSH4 0xEE219423 EQ PUSH2 0x3A4 JUMPI DUP1 PUSH4 0xFC7E286D EQ PUSH2 0x3CD JUMPI PUSH2 0x112 JUMP JUMPDEST DUP1 PUSH4 0x957122AB EQ PUSH2 0x290 JUMPI DUP1 PUSH4 0x9B249F69 EQ PUSH2 0x2B9 JUMPI DUP1 PUSH4 0xA6193531 EQ PUSH2 0x2E2 JUMPI DUP1 PUSH4 0xB760FAF9 EQ PUSH2 0x31F JUMPI PUSH2 0x112 JUMP JUMPDEST DUP1 PUSH4 0x4B1D7CF5 GT PUSH2 0xD1 JUMPI DUP1 PUSH4 0x4B1D7CF5 EQ PUSH2 0x1C2 JUMPI DUP1 PUSH4 0x5287CE12 EQ PUSH2 0x1EB JUMPI DUP1 PUSH4 0x70A08231 EQ PUSH2 0x228 JUMPI DUP1 PUSH4 0x8F41EC5A EQ PUSH2 0x265 JUMPI PUSH2 0x112 JUMP JUMPDEST DUP1 PUSH4 0x396CB60 EQ PUSH2 0x117 JUMPI DUP1 PUSH4 0x1D732756 EQ PUSH2 0x133 JUMPI DUP1 PUSH4 0x1FAD948C EQ PUSH2 0x170 JUMPI DUP1 PUSH4 0x205C2878 EQ PUSH2 0x199 JUMPI PUSH2 0x112 JUMP JUMPDEST CALLDATASIZE PUSH2 0x112 JUMPI PUSH2 0x110 CALLER PUSH2 0x40E JUMP JUMPDEST STOP JUMPDEST PUSH1 0x0 DUP1 REVERT JUMPDEST PUSH2 0x131 PUSH1 0x4 DUP1 CALLDATASIZE SUB DUP2 ADD SWAP1 PUSH2 0x12C SWAP2 SWAP1 PUSH2 0x3BB4 JUMP JUMPDEST PUSH2 0x4CA JUMP JUMPDEST STOP JUMPDEST CALLVALUE DUP1 ISZERO PUSH2 0x13F JUMPI PUSH1 0x0 DUP1 REVERT JUMPDEST POP PUSH2 0x15A PUSH1 0x4 DUP1 CALLDATASIZE SUB DUP2 ADD SWAP1 PUSH2 0x155 SWAP2 SWAP1 PUSH2 0x3FB1 JUMP JUMPDEST PUSH2 0x881 JUMP JUMPDEST PUSH1 0x40 MLOAD PUSH2 0x167 SWAP2 SWAP1 PUSH2 0x4052 JUMP JUMPDEST PUSH1 0x40 MLOAD DUP1 SWAP2 SUB SWAP1 RETURN JUMPDEST CALLVALUE DUP1 ISZERO PUSH2 0x17C JUMPI PUSH1 0x0 DUP1 REVERT JUMPDEST POP PUSH2 0x197 PUSH1 0x4 DUP1 CALLDATASIZE SUB DUP2 ADD SWAP1 PUSH2 0x192 SWAP2 SWAP1 PUSH2 0x4101 JUMP JUMPDEST PUSH2 0xA55 JUMP JUMPDEST STOP JUMPDEST CALLVALUE DUP1 ISZERO PUSH2 0x1A5 JUMPI PUSH1 0x0 DUP1 REVERT JUMPDEST POP PUSH2 0x1C0 PUSH1 0x4 DUP1 CALLDATASIZE SUB DUP2 ADD SWAP1 PUSH2 0x1BB SWAP2 SWAP1 PUSH2 0x4161 JUMP JUMPDEST PUSH2 0xBAC JUMP JUMPDEST STOP JUMPDEST CALLVALUE DUP1 ISZERO PUSH2 0x1CE JUMPI PUSH1 0x0 DUP1 REVERT JUMPDEST POP PUSH2 0x1E9 PUSH1 0x4 DUP1 CALLDATASIZE SUB DUP2 ADD SWAP1 PUSH2 0x1E4 SWAP2 SWAP1 PUSH2 0x41F7 JUMP JUMPDEST PUSH2 0xDD1 JUMP JUMPDEST STOP JUMPDEST CALLVALUE DUP1 ISZERO PUSH2 0x1F7 JUMPI PUSH1 0x0 DUP1 REVERT JUMPDEST POP PUSH2 0x212 PUSH1 0x4 DUP1 CALLDATASIZE SUB DUP2 ADD SWAP1 PUSH2 0x20D SWAP2 SWAP1 PUSH2 0x4257 JUMP JUMPDEST PUSH2 0x12CA JUMP JUMPDEST PUSH1 0x40 MLOAD PUSH2 0x21F SWAP2 SWAP1 PUSH2 0x4360 JUMP JUMPDEST PUSH1 0x40 MLOAD DUP1 SWAP2 SUB SWAP1 RETURN JUMPDEST CALLVALUE DUP1 ISZERO PUSH2 0x234 JUMPI PUSH1 0x0 DUP1 REVERT JUMPDEST POP PUSH2 0x24F PUSH1 0x4 DUP1 CALLDATASIZE SUB DUP2 ADD SWAP1 PUSH2 0x24A SWAP2 SWAP1 PUSH2 0x4257 JUMP JUMPDEST PUSH2 0x1417 JUMP JUMPDEST PUSH1 0x40 MLOAD PUSH2 0x25C SWAP2 SWAP1 PUSH2 0x4052 JUMP JUMPDEST PUSH1 0x40 MLOAD DUP1 SWAP2 SUB SWAP1 RETURN JUMPDEST CALLVALUE DUP1 ISZERO PUSH2 0x271 JUMPI PUSH1 0x0 DUP1 REVERT JUMPDEST POP PUSH2 0x27A PUSH2 0x148C JUMP JUMPDEST PUSH1 0x40 MLOAD PUSH2 0x287 SWAP2 SWAP1 PUSH2 0x4052 JUMP JUMPDEST PUSH1 0x40 MLOAD DUP1 SWAP2 SUB SWAP1 RETURN JUMPDEST CALLVALUE DUP1 ISZERO PUSH2 0x29C JUMPI PUSH1 0x0 DUP1 REVERT JUMPDEST POP PUSH2 0x2B7 PUSH1 0x4 DUP1 CALLDATASIZE SUB DUP2 ADD SWAP1 PUSH2 0x2B2 SWAP2 SWAP1 PUSH2 0x437B JUMP JUMPDEST PUSH2 0x1491 JUMP JUMPDEST STOP JUMPDEST CALLVALUE DUP1 ISZERO PUSH2 0x2C5 JUMPI PUSH1 0x0 DUP1 REVERT JUMPDEST POP PUSH2 0x2E0 PUSH1 0x4 DUP1 CALLDATASIZE SUB DUP2 ADD SWAP1 PUSH2 0x2DB SWAP2 SWAP1 PUSH2 0x4410 JUMP JUMPDEST PUSH2 0x15C3 JUMP JUMPDEST STOP JUMPDEST CALLVALUE DUP1 ISZERO PUSH2 0x2EE JUMPI PUSH1 0x0 DUP1 REVERT JUMPDEST POP PUSH2 0x309 PUSH1 0x4 DUP1 CALLDATASIZE SUB DUP2 ADD SWAP1 PUSH2 0x304 SWAP2 SWAP1 PUSH2 0x4482 JUMP JUMPDEST PUSH2 0x169D JUMP JUMPDEST PUSH1 0x40 MLOAD PUSH2 0x316 SWAP2 SWAP1 PUSH2 0x44DA JUMP JUMPDEST PUSH1 0x40 MLOAD DUP1 SWAP2 SUB SWAP1 RETURN JUMPDEST PUSH2 0x339 PUSH1 0x4 DUP1 CALLDATASIZE SUB DUP2 ADD SWAP1 PUSH2 0x334 SWAP2 SWAP1 PUSH2 0x4257 JUMP JUMPDEST PUSH2 0x40E JUMP JUMPDEST STOP JUMPDEST CALLVALUE DUP1 ISZERO PUSH2 0x347 JUMPI PUSH1 0x0 DUP1 REVERT JUMPDEST POP PUSH2 0x350 PUSH2 0x16D9 JUMP JUMPDEST STOP JUMPDEST CALLVALUE DUP1 ISZERO PUSH2 0x35E JUMPI PUSH1 0x0 DUP1 REVERT JUMPDEST POP PUSH2 0x379 PUSH1 0x4 DUP1 CALLDATASIZE SUB DUP2 ADD SWAP1 PUSH2 0x374 SWAP2 SWAP1 PUSH2 0x44F5 JUMP JUMPDEST PUSH2 0x1889 JUMP JUMPDEST STOP JUMPDEST CALLVALUE DUP1 ISZERO PUSH2 0x387 JUMPI PUSH1 0x0 DUP1 REVERT JUMPDEST POP PUSH2 0x3A2 PUSH1 0x4 DUP1 CALLDATASIZE SUB DUP2 ADD SWAP1 PUSH2 0x39D SWAP2 SWAP1 PUSH2 0x4522 JUMP JUMPDEST PUSH2 0x1B89 JUMP JUMPDEST STOP JUMPDEST CALLVALUE DUP1 ISZERO PUSH2 0x3B0 JUMPI PUSH1 0x0 DUP1 REVERT JUMPDEST POP PUSH2 0x3CB PUSH1 0x4 DUP1 CALLDATASIZE SUB DUP2 ADD SWAP1 PUSH2 0x3C6 SWAP2 SWAP1 PUSH2 0x4482 JUMP JUMPDEST PUSH2 0x1CD9 JUMP JUMPDEST STOP JUMPDEST CALLVALUE DUP1 ISZERO PUSH2 0x3D9 JUMPI PUSH1 0x0 DUP1 REVERT JUMPDEST POP PUSH2 0x3F4 PUSH1 0x4 DUP1 CALLDATASIZE SUB DUP2 ADD SWAP1 PUSH2 0x3EF SWAP2 SWAP1 PUSH2 0x4257 JUMP JUMPDEST PUSH2 0x1F66 JUMP JUMPDEST PUSH1 0x40 MLOAD PUSH2 0x405 SWAP6 SWAP5 SWAP4 SWAP3 SWAP2 SWAP1 PUSH2 0x45EE JUMP JUMPDEST PUSH1 0x40 MLOAD DUP1 SWAP2 SUB SWAP1 RETURN JUMPDEST PUSH2 0x418 DUP2 CALLVALUE PUSH2 0x1FFF JUMP JUMPDEST PUSH1 0x0 DUP1 PUSH1 0x0 DUP4 PUSH20 0xFFFFFFFFFFFFFFFFFFFFFFFFFFFFFFFFFFFFFFFF AND PUSH20 0xFFFFFFFFFFFFFFFFFFFFFFFFFFFFFFFFFFFFFFFF AND DUP2 MSTORE PUSH1 0x20 ADD SWAP1 DUP2 MSTORE PUSH1 0x20 ADD PUSH1 0x0 KECCAK256 SWAP1 POP DUP2 PUSH20 0xFFFFFFFFFFFFFFFFFFFFFFFFFFFFFFFFFFFFFFFF AND PUSH32 0x2DA466A7B24304F47E87FA2E1E5A81B9831CE54FEC19055CE277CA2F39BA42C4 DUP3 PUSH1 0x0 ADD PUSH1 0x0 SWAP1 SLOAD SWAP1 PUSH2 0x100 EXP SWAP1 DIV PUSH14 0xFFFFFFFFFFFFFFFFFFFFFFFFFFFF AND PUSH1 0x40 MLOAD PUSH2 0x4BE SWAP2 SWAP1 PUSH2 0x467C JUMP JUMPDEST PUSH1 0x40 MLOAD DUP1 SWAP2 SUB SWAP1 LOG2 POP POP JUMP JUMPDEST PUSH1 0x0 DUP1 PUSH1 0x0 CALLER PUSH20 0xFFFFFFFFFFFFFFFFFFFFFFFFFFFFFFFFFFFFFFFF AND PUSH20 0xFFFFFFFFFFFFFFFFFFFFFFFFFFFFFFFFFFFFFFFF AND DUP2 MSTORE PUSH1 0x20 ADD SWAP1 DUP2 MSTORE PUSH1 0x20 ADD PUSH1 0x0 KECCAK256 SWAP1 POP PUSH1 0x0 DUP3 PUSH4 0xFFFFFFFF AND GT PUSH2 0x555 JUMPI PUSH1 0x40 MLOAD PUSH32 0x8C379A000000000000000000000000000000000000000000000000000000000 DUP2 MSTORE PUSH1 0x4 ADD PUSH2 0x54C SWAP1 PUSH2 0x46F4 JUMP JUMPDEST PUSH1 0x40 MLOAD DUP1 SWAP2 SUB SWAP1 REVERT JUMPDEST DUP1 PUSH1 0x1 ADD PUSH1 0x0 SWAP1 SLOAD SWAP1 PUSH2 0x100 EXP SWAP1 DIV PUSH4 0xFFFFFFFF AND PUSH4 0xFFFFFFFF AND DUP3 PUSH4 0xFFFFFFFF AND LT ISZERO PUSH2 0x5B8 JUMPI PUSH1 0x40 MLOAD PUSH32 0x8C379A000000000000000000000000000000000000000000000000000000000 DUP2 MSTORE PUSH1 0x4 ADD PUSH2 0x5AF SWAP1 PUSH2 0x4760 JUMP JUMPDEST PUSH1 0x40 MLOAD DUP1 SWAP2 SUB SWAP1 REVERT JUMPDEST PUSH1 0x0 CALLVALUE DUP3 PUSH1 0x0 ADD PUSH1 0xF SWAP1 SLOAD SWAP1 PUSH2 0x100 EXP SWAP1 DIV PUSH14 0xFFFFFFFFFFFFFFFFFFFFFFFFFFFF AND PUSH14 0xFFFFFFFFFFFFFFFFFFFFFFFFFFFF AND PUSH2 0x5F4 SWAP2 SWAP1 PUSH2 0x47AF JUMP JUMPDEST SWAP1 POP PUSH1 0x0 DUP2 GT PUSH2 0x639 JUMPI PUSH1 0x40 MLOAD PUSH32 0x8C379A000000000000000000000000000000000000000000000000000000000 DUP2 MSTORE PUSH1 0x4 ADD PUSH2 0x630 SWAP1 PUSH2 0x482F JUMP JUMPDEST PUSH1 0x40 MLOAD DUP1 SWAP2 SUB SWAP1 REVERT JUMPDEST PUSH14 0xFFFFFFFFFFFFFFFFFFFFFFFFFFFF DUP1 AND DUP2 GT ISZERO PUSH2 0x68C JUMPI PUSH1 0x40 MLOAD PUSH32 0x8C379A000000000000000000000000000000000000000000000000000000000 DUP2 MSTORE PUSH1 0x4 ADD PUSH2 0x683 SWAP1 PUSH2 0x489B JUMP JUMPDEST PUSH1 0x40 MLOAD DUP1 SWAP2 SUB SWAP1 REVERT JUMPDEST PUSH1 0x40 MLOAD DUP1 PUSH1 0xA0 ADD PUSH1 0x40 MSTORE DUP1 DUP4 PUSH1 0x0 ADD PUSH1 0x0 SWAP1 SLOAD SWAP1 PUSH2 0x100 EXP SWAP1 DIV PUSH14 0xFFFFFFFFFFFFFFFFFFFFFFFFFFFF AND PUSH14 0xFFFFFFFFFFFFFFFFFFFFFFFFFFFF AND DUP2 MSTORE PUSH1 0x20 ADD PUSH1 0x1 ISZERO ISZERO DUP2 MSTORE PUSH1 0x20 ADD DUP3 PUSH14 0xFFFFFFFFFFFFFFFFFFFFFFFFFFFF AND DUP2 MSTORE PUSH1 0x20 ADD DUP5 PUSH4 0xFFFFFFFF AND DUP2 MSTORE PUSH1 0x20 ADD PUSH1 0x0 PUSH6 0xFFFFFFFFFFFF AND DUP2 MSTORE POP PUSH1 0x0 DUP1 CALLER PUSH20 0xFFFFFFFFFFFFFFFFFFFFFFFFFFFFFFFFFFFFFFFF AND PUSH20 0xFFFFFFFFFFFFFFFFFFFFFFFFFFFFFFFFFFFFFFFF AND DUP2 MSTORE PUSH1 0x20 ADD SWAP1 DUP2 MSTORE PUSH1 0x20 ADD PUSH1 0x0 KECCAK256 PUSH1 0x0 DUP3 ADD MLOAD DUP2 PUSH1 0x0 ADD PUSH1 0x0 PUSH2 0x100 EXP DUP2 SLOAD DUP2 PUSH14 0xFFFFFFFFFFFFFFFFFFFFFFFFFFFF MUL NOT AND SWAP1 DUP4 PUSH14 0xFFFFFFFFFFFFFFFFFFFFFFFFFFFF AND MUL OR SWAP1 SSTORE POP PUSH1 0x20 DUP3 ADD MLOAD DUP2 PUSH1 0x0 ADD PUSH1 0xE PUSH2 0x100 EXP DUP2 SLOAD DUP2 PUSH1 0xFF MUL NOT AND SWAP1 DUP4 ISZERO ISZERO MUL OR SWAP1 SSTORE POP PUSH1 0x40 DUP3 ADD MLOAD DUP2 PUSH1 0x0 ADD PUSH1 0xF PUSH2 0x100 EXP DUP2 SLOAD DUP2 PUSH14 0xFFFFFFFFFFFFFFFFFFFFFFFFFFFF MUL NOT AND SWAP1 DUP4 PUSH14 0xFFFFFFFFFFFFFFFFFFFFFFFFFFFF AND MUL OR SWAP1 SSTORE POP PUSH1 0x60 DUP3 ADD MLOAD DUP2 PUSH1 0x1 ADD PUSH1 0x0 PUSH2 0x100 EXP DUP2 SLOAD DUP2 PUSH4 0xFFFFFFFF MUL NOT AND SWAP1 DUP4 PUSH4 0xFFFFFFFF AND MUL OR SWAP1 SSTORE POP PUSH1 0x80 DUP3 ADD MLOAD DUP2 PUSH1 0x1 ADD PUSH1 0x4 PUSH2 0x100 EXP DUP2 SLOAD DUP2 PUSH6 0xFFFFFFFFFFFF MUL NOT AND SWAP1 DUP4 PUSH6 0xFFFFFFFFFFFF AND MUL OR SWAP1 SSTORE POP SWAP1 POP POP CALLER PUSH20 0xFFFFFFFFFFFFFFFFFFFFFFFFFFFFFFFFFFFFFFFF AND PUSH32 0xA5AE833D0BB1DCD632D98A8B70973E8516812898E19BF27B70071EBC8DC52C01 DUP3 DUP6 PUSH1 0x40 MLOAD PUSH2 0x874 SWAP3 SWAP2 SWAP1 PUSH2 0x48EC JUMP JUMPDEST PUSH1 0x40 MLOAD DUP1 SWAP2 SUB SWAP1 LOG2 POP POP POP JUMP JUMPDEST PUSH1 0x0 DUP1 GAS SWAP1 POP ADDRESS PUSH20 0xFFFFFFFFFFFFFFFFFFFFFFFFFFFFFFFFFFFFFFFF AND CALLER PUSH20 0xFFFFFFFFFFFFFFFFFFFFFFFFFFFFFFFFFFFFFFFF AND EQ PUSH2 0x8F5 JUMPI PUSH1 0x40 MLOAD PUSH32 0x8C379A000000000000000000000000000000000000000000000000000000000 DUP2 MSTORE PUSH1 0x4 ADD PUSH2 0x8EC SWAP1 PUSH2 0x4961 JUMP JUMPDEST PUSH1 0x40 MLOAD DUP1 SWAP2 SUB SWAP1 REVERT JUMPDEST PUSH1 0x0 DUP6 PUSH1 0x0 ADD MLOAD SWAP1 POP PUSH1 0x0 DUP2 PUSH1 0x40 ADD MLOAD SWAP1 POP PUSH2 0x1388 DUP3 PUSH1 0x60 ADD MLOAD DUP3 ADD ADD GAS LT ISZERO PUSH2 0x943 JUMPI PUSH32 0xDEADDEAD00000000000000000000000000000000000000000000000000000000 PUSH1 0x0 MSTORE PUSH1 0x20 PUSH1 0x0 REVERT JUMPDEST PUSH1 0x0 DUP1 DUP10 MLOAD GT ISZERO PUSH2 0x9E7 JUMPI PUSH1 0x0 PUSH2 0x961 DUP5 PUSH1 0x0 ADD MLOAD PUSH1 0x0 DUP13 DUP7 PUSH2 0x210F JUMP JUMPDEST SWAP1 POP DUP1 PUSH2 0x9E5 JUMPI PUSH1 0x0 PUSH2 0x975 PUSH2 0x800 PUSH2 0x2128 JUMP JUMPDEST SWAP1 POP PUSH1 0x0 DUP2 MLOAD GT ISZERO PUSH2 0x9DF JUMPI DUP5 PUSH1 0x0 ADD MLOAD PUSH20 0xFFFFFFFFFFFFFFFFFFFFFFFFFFFFFFFFFFFFFFFF AND DUP11 PUSH1 0x20 ADD MLOAD PUSH32 0x1C4FADA7374C0A9EE8841FC38AFE82932DC0F8E69012E927F061A8BAE611A201 DUP8 PUSH1 0x20 ADD MLOAD DUP5 PUSH1 0x40 MLOAD PUSH2 0x9D6 SWAP3 SWAP2 SWAP1 PUSH2 0x4A00 JUMP JUMPDEST PUSH1 0x40 MLOAD DUP1 SWAP2 SUB SWAP1 LOG3 JUMPDEST PUSH1 0x1 SWAP3 POP POP JUMPDEST POP JUMPDEST PUSH1 0x0 DUP9 PUSH1 0x80 ADD MLOAD GAS DUP7 SUB ADD SWAP1 POP PUSH2 0xA46 PUSH1 0x0 DUP4 DUP12 DUP12 DUP12 DUP1 DUP1 PUSH1 0x1F ADD PUSH1 0x20 DUP1 SWAP2 DIV MUL PUSH1 0x20 ADD PUSH1 0x40 MLOAD SWAP1 DUP2 ADD PUSH1 0x40 MSTORE DUP1 SWAP4 SWAP3 SWAP2 SWAP1 DUP2 DUP2 MSTORE PUSH1 0x20 ADD DUP4 DUP4 DUP1 DUP3 DUP5 CALLDATACOPY PUSH1 0x0 DUP2 DUP5 ADD MSTORE PUSH1 0x1F NOT PUSH1 0x1F DUP3 ADD AND SWAP1 POP DUP1 DUP4 ADD SWAP3 POP POP POP POP POP POP POP DUP6 PUSH2 0x2158 JUMP JUMPDEST SWAP6 POP POP POP POP POP POP SWAP5 SWAP4 POP POP POP POP JUMP JUMPDEST PUSH1 0x0 DUP4 DUP4 SWAP1 POP SWAP1 POP PUSH1 0x0 DUP2 PUSH8 0xFFFFFFFFFFFFFFFF DUP2 GT ISZERO PUSH2 0xA79 JUMPI PUSH2 0xA78 PUSH2 0x3BFC JUMP JUMPDEST JUMPDEST PUSH1 0x40 MLOAD SWAP1 DUP1 DUP3 MSTORE DUP1 PUSH1 0x20 MUL PUSH1 0x20 ADD DUP3 ADD PUSH1 0x40 MSTORE DUP1 ISZERO PUSH2 0xAB2 JUMPI DUP2 PUSH1 0x20 ADD JUMPDEST PUSH2 0xA9F PUSH2 0x39FB JUMP JUMPDEST DUP2 MSTORE PUSH1 0x20 ADD SWAP1 PUSH1 0x1 SWAP1 SUB SWAP1 DUP2 PUSH2 0xA97 JUMPI SWAP1 POP JUMPDEST POP SWAP1 POP PUSH1 0x0 JUMPDEST DUP3 DUP2 LT ISZERO PUSH2 0xB32 JUMPI PUSH1 0x0 DUP3 DUP3 DUP2 MLOAD DUP2 LT PUSH2 0xAD5 JUMPI PUSH2 0xAD4 PUSH2 0x4A30 JUMP JUMPDEST JUMPDEST PUSH1 0x20 MUL PUSH1 0x20 ADD ADD MLOAD SWAP1 POP PUSH1 0x0 DUP1 PUSH2 0xB11 DUP5 DUP11 DUP11 DUP8 DUP2 DUP2 LT PUSH2 0xAF9 JUMPI PUSH2 0xAF8 PUSH2 0x4A30 JUMP JUMPDEST JUMPDEST SWAP1 POP PUSH1 0x20 MUL DUP2 ADD SWAP1 PUSH2 0xB0B SWAP2 SWAP1 PUSH2 0x4A6E JUMP JUMPDEST DUP6 PUSH2 0x24CF JUMP JUMPDEST SWAP2 POP SWAP2 POP PUSH2 0xB22 DUP5 DUP4 DUP4 PUSH1 0x0 PUSH2 0x2679 JUMP JUMPDEST POP POP POP DUP1 DUP1 PUSH1 0x1 ADD SWAP2 POP POP PUSH2 0xAB8 JUMP JUMPDEST POP PUSH1 0x0 DUP1 JUMPDEST DUP4 DUP2 LT ISZERO PUSH2 0xB99 JUMPI PUSH2 0xB88 DUP2 DUP9 DUP9 DUP5 DUP2 DUP2 LT PUSH2 0xB56 JUMPI PUSH2 0xB55 PUSH2 0x4A30 JUMP JUMPDEST JUMPDEST SWAP1 POP PUSH1 0x20 MUL DUP2 ADD SWAP1 PUSH2 0xB68 SWAP2 SWAP1 PUSH2 0x4A6E JUMP JUMPDEST DUP6 DUP5 DUP2 MLOAD DUP2 LT PUSH2 0xB7B JUMPI PUSH2 0xB7A PUSH2 0x4A30 JUMP JUMPDEST JUMPDEST PUSH1 0x20 MUL PUSH1 0x20 ADD ADD MLOAD PUSH2 0x280C JUMP JUMPDEST DUP3 ADD SWAP2 POP DUP1 DUP1 PUSH1 0x1 ADD SWAP2 POP POP PUSH2 0xB37 JUMP JUMPDEST POP PUSH2 0xBA4 DUP5 DUP3 PUSH2 0x2965 JUMP JUMPDEST POP POP POP POP POP POP JUMP JUMPDEST PUSH1 0x0 DUP1 PUSH1 0x0 CALLER PUSH20 0xFFFFFFFFFFFFFFFFFFFFFFFFFFFFFFFFFFFFFFFF AND PUSH20 0xFFFFFFFFFFFFFFFFFFFFFFFFFFFFFFFFFFFFFFFF AND DUP2 MSTORE PUSH1 0x20 ADD SWAP1 DUP2 MSTORE PUSH1 0x20 ADD PUSH1 0x0 KECCAK256 SWAP1 POP DUP1 PUSH1 0x0 ADD PUSH1 0x0 SWAP1 SLOAD SWAP1 PUSH2 0x100 EXP SWAP1 DIV PUSH14 0xFFFFFFFFFFFFFFFFFFFFFFFFFFFF AND PUSH14 0xFFFFFFFFFFFFFFFFFFFFFFFFFFFF AND DUP3 GT ISZERO PUSH2 0xC5F JUMPI PUSH1 0x40 MLOAD PUSH32 0x8C379A000000000000000000000000000000000000000000000000000000000 DUP2 MSTORE PUSH1 0x4 ADD PUSH2 0xC56 SWAP1 PUSH2 0x4AE3 JUMP JUMPDEST PUSH1 0x40 MLOAD DUP1 SWAP2 SUB SWAP1 REVERT JUMPDEST DUP2 DUP2 PUSH1 0x0 ADD PUSH1 0x0 SWAP1 SLOAD SWAP1 PUSH2 0x100 EXP SWAP1 DIV PUSH14 0xFFFFFFFFFFFFFFFFFFFFFFFFFFFF AND PUSH14 0xFFFFFFFFFFFFFFFFFFFFFFFFFFFF AND PUSH2 0xC99 SWAP2 SWAP1 PUSH2 0x4B03 JUMP JUMPDEST DUP2 PUSH1 0x0 ADD PUSH1 0x0 PUSH2 0x100 EXP DUP2 SLOAD DUP2 PUSH14 0xFFFFFFFFFFFFFFFFFFFFFFFFFFFF MUL NOT AND SWAP1 DUP4 PUSH14 0xFFFFFFFFFFFFFFFFFFFFFFFFFFFF AND MUL OR SWAP1 SSTORE POP CALLER PUSH20 0xFFFFFFFFFFFFFFFFFFFFFFFFFFFFFFFFFFFFFFFF AND PUSH32 0xD1C19FBCD4551A5EDFB66D43D2E337C04837AFDA3482B42BDF569A8FCCDAE5FB DUP5 DUP5 PUSH1 0x40 MLOAD PUSH2 0xD17 SWAP3 SWAP2 SWAP1 PUSH2 0x4B8C JUMP JUMPDEST PUSH1 0x40 MLOAD DUP1 SWAP2 SUB SWAP1 LOG2 PUSH1 0x0 DUP4 PUSH20 0xFFFFFFFFFFFFFFFFFFFFFFFFFFFFFFFFFFFFFFFF AND DUP4 PUSH1 0x40 MLOAD PUSH2 0xD45 SWAP1 PUSH2 0x4BE6 JUMP JUMPDEST PUSH1 0x0 PUSH1 0x40 MLOAD DUP1 DUP4 SUB DUP2 DUP6 DUP8 GAS CALL SWAP3 POP POP POP RETURNDATASIZE DUP1 PUSH1 0x0 DUP2 EQ PUSH2 0xD82 JUMPI PUSH1 0x40 MLOAD SWAP2 POP PUSH1 0x1F NOT PUSH1 0x3F RETURNDATASIZE ADD AND DUP3 ADD PUSH1 0x40 MSTORE RETURNDATASIZE DUP3 MSTORE RETURNDATASIZE PUSH1 0x0 PUSH1 0x20 DUP5 ADD RETURNDATACOPY PUSH2 0xD87 JUMP JUMPDEST PUSH1 0x60 SWAP2 POP JUMPDEST POP POP SWAP1 POP DUP1 PUSH2 0xDCB JUMPI PUSH1 0x40 MLOAD PUSH32 0x8C379A000000000000000000000000000000000000000000000000000000000 DUP2 MSTORE PUSH1 0x4 ADD PUSH2 0xDC2 SWAP1 PUSH2 0x4C47 JUMP JUMPDEST PUSH1 0x40 MLOAD DUP1 SWAP2 SUB SWAP1 REVERT JUMPDEST POP POP POP POP JUMP JUMPDEST PUSH1 0x0 DUP4 DUP4 SWAP1 POP SWAP1 POP PUSH1 0x0 DUP1 JUMPDEST DUP3 DUP2 LT ISZERO PUSH2 0xFBE JUMPI CALLDATASIZE DUP7 DUP7 DUP4 DUP2 DUP2 LT PUSH2 0xDF9 JUMPI PUSH2 0xDF8 PUSH2 0x4A30 JUMP JUMPDEST JUMPDEST SWAP1 POP PUSH1 0x20 MUL DUP2 ADD SWAP1 PUSH2 0xE0B SWAP2 SWAP1 PUSH2 0x4C67 JUMP JUMPDEST SWAP1 POP CALLDATASIZE PUSH1 0x0 DUP3 DUP1 PUSH1 0x0 ADD SWAP1 PUSH2 0xE20 SWAP2 SWAP1 PUSH2 0x4C8F JUMP JUMPDEST SWAP2 POP SWAP2 POP PUSH1 0x0 DUP4 PUSH1 0x20 ADD PUSH1 0x20 DUP2 ADD SWAP1 PUSH2 0xE39 SWAP2 SWAP1 PUSH2 0x4D30 JUMP JUMPDEST SWAP1 POP PUSH1 0x1 PUSH20 0xFFFFFFFFFFFFFFFFFFFFFFFFFFFFFFFFFFFFFFFF AND DUP2 PUSH20 0xFFFFFFFFFFFFFFFFFFFFFFFFFFFFFFFFFFFFFFFF AND SUB PUSH2 0xEAA JUMPI PUSH1 0x40 MLOAD PUSH32 0x8C379A000000000000000000000000000000000000000000000000000000000 DUP2 MSTORE PUSH1 0x4 ADD PUSH2 0xEA1 SWAP1 PUSH2 0x4DA9 JUMP JUMPDEST PUSH1 0x40 MLOAD DUP1 SWAP2 SUB SWAP1 REVERT JUMPDEST PUSH1 0x0 PUSH20 0xFFFFFFFFFFFFFFFFFFFFFFFFFFFFFFFFFFFFFFFF AND DUP2 PUSH20 0xFFFFFFFFFFFFFFFFFFFFFFFFFFFFFFFFFFFFFFFF AND EQ PUSH2 0xF96 JUMPI DUP1 PUSH20 0xFFFFFFFFFFFFFFFFFFFFFFFFFFFFFFFFFFFFFFFF AND PUSH4 0xE3563A4F DUP5 DUP5 DUP8 DUP1 PUSH1 0x40 ADD SWAP1 PUSH2 0xF0C SWAP2 SWAP1 PUSH2 0x4DC9 JUMP JUMPDEST PUSH1 0x40 MLOAD DUP6 PUSH4 0xFFFFFFFF AND PUSH1 0xE0 SHL DUP2 MSTORE PUSH1 0x4 ADD PUSH2 0xF2B SWAP5 SWAP4 SWAP3 SWAP2 SWAP1 PUSH2 0x5192 JUMP JUMPDEST PUSH1 0x0 PUSH1 0x40 MLOAD DUP1 DUP4 SUB DUP2 DUP7 DUP1 EXTCODESIZE ISZERO DUP1 ISZERO PUSH2 0xF43 JUMPI PUSH1 0x0 DUP1 REVERT JUMPDEST POP GAS STATICCALL SWAP3 POP POP POP DUP1 ISZERO PUSH2 0xF54 JUMPI POP PUSH1 0x1 JUMPDEST PUSH2 0xF95 JUMPI DUP1 PUSH1 0x40 MLOAD PUSH32 0x86A9F75000000000000000000000000000000000000000000000000000000000 DUP2 MSTORE PUSH1 0x4 ADD PUSH2 0xF8C SWAP2 SWAP1 PUSH2 0x51DC JUMP JUMPDEST PUSH1 0x40 MLOAD DUP1 SWAP2 SUB SWAP1 REVERT JUMPDEST JUMPDEST DUP3 DUP3 SWAP1 POP DUP7 PUSH2 0xFA5 SWAP2 SWAP1 PUSH2 0x47AF JUMP JUMPDEST SWAP6 POP POP POP POP POP DUP1 DUP1 PUSH2 0xFB6 SWAP1 PUSH2 0x51F7 JUMP JUMPDEST SWAP2 POP POP PUSH2 0xDDD JUMP JUMPDEST POP PUSH1 0x0 DUP2 PUSH8 0xFFFFFFFFFFFFFFFF DUP2 GT ISZERO PUSH2 0xFDB JUMPI PUSH2 0xFDA PUSH2 0x3BFC JUMP JUMPDEST JUMPDEST PUSH1 0x40 MLOAD SWAP1 DUP1 DUP3 MSTORE DUP1 PUSH1 0x20 MUL PUSH1 0x20 ADD DUP3 ADD PUSH1 0x40 MSTORE DUP1 ISZERO PUSH2 0x1014 JUMPI DUP2 PUSH1 0x20 ADD JUMPDEST PUSH2 0x1001 PUSH2 0x39FB JUMP JUMPDEST DUP2 MSTORE PUSH1 0x20 ADD SWAP1 PUSH1 0x1 SWAP1 SUB SWAP1 DUP2 PUSH2 0xFF9 JUMPI SWAP1 POP JUMPDEST POP SWAP1 POP PUSH1 0x0 DUP1 JUMPDEST DUP5 DUP2 LT ISZERO PUSH2 0x112A JUMPI CALLDATASIZE DUP9 DUP9 DUP4 DUP2 DUP2 LT PUSH2 0x1037 JUMPI PUSH2 0x1036 PUSH2 0x4A30 JUMP JUMPDEST JUMPDEST SWAP1 POP PUSH1 0x20 MUL DUP2 ADD SWAP1 PUSH2 0x1049 SWAP2 SWAP1 PUSH2 0x4C67 JUMP JUMPDEST SWAP1 POP CALLDATASIZE PUSH1 0x0 DUP3 DUP1 PUSH1 0x0 ADD SWAP1 PUSH2 0x105E SWAP2 SWAP1 PUSH2 0x4C8F JUMP JUMPDEST SWAP2 POP SWAP2 POP PUSH1 0x0 DUP4 PUSH1 0x20 ADD PUSH1 0x20 DUP2 ADD SWAP1 PUSH2 0x1077 SWAP2 SWAP1 PUSH2 0x4D30 JUMP JUMPDEST SWAP1 POP PUSH1 0x0 DUP4 DUP4 SWAP1 POP SWAP1 POP PUSH1 0x0 JUMPDEST DUP2 DUP2 LT ISZERO PUSH2 0x1111 JUMPI PUSH1 0x0 DUP10 DUP10 DUP2 MLOAD DUP2 LT PUSH2 0x10A1 JUMPI PUSH2 0x10A0 PUSH2 0x4A30 JUMP JUMPDEST JUMPDEST PUSH1 0x20 MUL PUSH1 0x20 ADD ADD MLOAD SWAP1 POP PUSH1 0x0 DUP1 PUSH2 0x10DD DUP12 DUP10 DUP10 DUP8 DUP2 DUP2 LT PUSH2 0x10C5 JUMPI PUSH2 0x10C4 PUSH2 0x4A30 JUMP JUMPDEST JUMPDEST SWAP1 POP PUSH1 0x20 MUL DUP2 ADD SWAP1 PUSH2 0x10D7 SWAP2 SWAP1 PUSH2 0x4A6E JUMP JUMPDEST DUP6 PUSH2 0x24CF JUMP JUMPDEST SWAP2 POP SWAP2 POP PUSH2 0x10ED DUP5 DUP4 DUP4 DUP10 PUSH2 0x2679 JUMP JUMPDEST DUP11 DUP1 PUSH2 0x10F8 SWAP1 PUSH2 0x51F7 JUMP JUMPDEST SWAP12 POP POP POP POP POP DUP1 DUP1 PUSH2 0x1109 SWAP1 PUSH2 0x51F7 JUMP JUMPDEST SWAP2 POP POP PUSH2 0x1084 JUMP JUMPDEST POP POP POP POP POP POP DUP1 DUP1 PUSH2 0x1122 SWAP1 PUSH2 0x51F7 JUMP JUMPDEST SWAP2 POP POP PUSH2 0x101B JUMP JUMPDEST POP PUSH1 0x0 DUP1 SWAP2 POP PUSH1 0x0 JUMPDEST DUP6 DUP2 LT ISZERO PUSH2 0x1271 JUMPI CALLDATASIZE DUP10 DUP10 DUP4 DUP2 DUP2 LT PUSH2 0x114F JUMPI PUSH2 0x114E PUSH2 0x4A30 JUMP JUMPDEST JUMPDEST SWAP1 POP PUSH1 0x20 MUL DUP2 ADD SWAP1 PUSH2 0x1161 SWAP2 SWAP1 PUSH2 0x4C67 JUMP JUMPDEST SWAP1 POP DUP1 PUSH1 0x20 ADD PUSH1 0x20 DUP2 ADD SWAP1 PUSH2 0x1176 SWAP2 SWAP1 PUSH2 0x4D30 JUMP JUMPDEST PUSH20 0xFFFFFFFFFFFFFFFFFFFFFFFFFFFFFFFFFFFFFFFF AND PUSH32 0x575FF3ACADD5AB348FE1855E217E0F3678F8D767D7494C9F9FEFBEE2E17CCA4D PUSH1 0x40 MLOAD PUSH1 0x40 MLOAD DUP1 SWAP2 SUB SWAP1 LOG2 CALLDATASIZE PUSH1 0x0 DUP3 DUP1 PUSH1 0x0 ADD SWAP1 PUSH2 0x11CB SWAP2 SWAP1 PUSH2 0x4C8F JUMP JUMPDEST SWAP2 POP SWAP2 POP PUSH1 0x0 DUP3 DUP3 SWAP1 POP SWAP1 POP PUSH1 0x0 JUMPDEST DUP2 DUP2 LT ISZERO PUSH2 0x1259 JUMPI PUSH2 0x122B DUP9 DUP6 DUP6 DUP5 DUP2 DUP2 LT PUSH2 0x11F9 JUMPI PUSH2 0x11F8 PUSH2 0x4A30 JUMP JUMPDEST JUMPDEST SWAP1 POP PUSH1 0x20 MUL DUP2 ADD SWAP1 PUSH2 0x120B SWAP2 SWAP1 PUSH2 0x4A6E JUMP JUMPDEST DUP12 DUP12 DUP2 MLOAD DUP2 LT PUSH2 0x121E JUMPI PUSH2 0x121D PUSH2 0x4A30 JUMP JUMPDEST JUMPDEST PUSH1 0x20 MUL PUSH1 0x20 ADD ADD MLOAD PUSH2 0x280C JUMP JUMPDEST DUP8 PUSH2 0x1236 SWAP2 SWAP1 PUSH2 0x47AF JUMP JUMPDEST SWAP7 POP DUP8 DUP1 PUSH2 0x1243 SWAP1 PUSH2 0x51F7 JUMP JUMPDEST SWAP9 POP POP DUP1 DUP1 PUSH2 0x1251 SWAP1 PUSH2 0x51F7 JUMP JUMPDEST SWAP2 POP POP PUSH2 0x11DA JUMP JUMPDEST POP POP POP POP POP DUP1 DUP1 PUSH2 0x1269 SWAP1 PUSH2 0x51F7 JUMP JUMPDEST SWAP2 POP POP PUSH2 0x1133 JUMP JUMPDEST POP PUSH1 0x0 PUSH20 0xFFFFFFFFFFFFFFFFFFFFFFFFFFFFFFFFFFFFFFFF AND PUSH32 0x575FF3ACADD5AB348FE1855E217E0F3678F8D767D7494C9F9FEFBEE2E17CCA4D PUSH1 0x40 MLOAD PUSH1 0x40 MLOAD DUP1 SWAP2 SUB SWAP1 LOG2 PUSH2 0x12C0 DUP7 DUP3 PUSH2 0x2965 JUMP JUMPDEST POP POP POP POP POP POP POP POP JUMP JUMPDEST PUSH2 0x12D2 PUSH2 0x3A33 JUMP JUMPDEST PUSH1 0x0 DUP1 DUP4 PUSH20 0xFFFFFFFFFFFFFFFFFFFFFFFFFFFFFFFFFFFFFFFF AND PUSH20 0xFFFFFFFFFFFFFFFFFFFFFFFFFFFFFFFFFFFFFFFF AND DUP2 MSTORE PUSH1 0x20 ADD SWAP1 DUP2 MSTORE PUSH1 0x20 ADD PUSH1 0x0 KECCAK256 PUSH1 0x40 MLOAD DUP1 PUSH1 0xA0 ADD PUSH1 0x40 MSTORE SWAP1 DUP2 PUSH1 0x0 DUP3 ADD PUSH1 0x0 SWAP1 SLOAD SWAP1 PUSH2 0x100 EXP SWAP1 DIV PUSH14 0xFFFFFFFFFFFFFFFFFFFFFFFFFFFF AND PUSH14 0xFFFFFFFFFFFFFFFFFFFFFFFFFFFF AND PUSH14 0xFFFFFFFFFFFFFFFFFFFFFFFFFFFF AND DUP2 MSTORE PUSH1 0x20 ADD PUSH1 0x0 DUP3 ADD PUSH1 0xE SWAP1 SLOAD SWAP1 PUSH2 0x100 EXP SWAP1 DIV PUSH1 0xFF AND ISZERO ISZERO ISZERO ISZERO DUP2 MSTORE PUSH1 0x20 ADD PUSH1 0x0 DUP3 ADD PUSH1 0xF SWAP1 SLOAD SWAP1 PUSH2 0x100 EXP SWAP1 DIV PUSH14 0xFFFFFFFFFFFFFFFFFFFFFFFFFFFF AND PUSH14 0xFFFFFFFFFFFFFFFFFFFFFFFFFFFF AND PUSH14 0xFFFFFFFFFFFFFFFFFFFFFFFFFFFF AND DUP2 MSTORE PUSH1 0x20 ADD PUSH1 0x1 DUP3 ADD PUSH1 0x0 SWAP1 SLOAD SWAP1 PUSH2 0x100 EXP SWAP1 DIV PUSH4 0xFFFFFFFF AND PUSH4 0xFFFFFFFF AND PUSH4 0xFFFFFFFF AND DUP2 MSTORE PUSH1 0x20 ADD PUSH1 0x1 DUP3 ADD PUSH1 0x4 SWAP1 SLOAD SWAP1 PUSH2 0x100 EXP SWAP1 DIV PUSH6 0xFFFFFFFFFFFF AND PUSH6 0xFFFFFFFFFFFF AND PUSH6 0xFFFFFFFFFFFF AND DUP2 MSTORE POP POP SWAP1 POP SWAP2 SWAP1 POP JUMP JUMPDEST PUSH1 0x0 DUP1 PUSH1 0x0 DUP4 PUSH20 0xFFFFFFFFFFFFFFFFFFFFFFFFFFFFFFFFFFFFFFFF AND PUSH20 0xFFFFFFFFFFFFFFFFFFFFFFFFFFFFFFFFFFFFFFFF AND DUP2 MSTORE PUSH1 0x20 ADD SWAP1 DUP2 MSTORE PUSH1 0x20 ADD PUSH1 0x0 KECCAK256 PUSH1 0x0 ADD PUSH1 0x0 SWAP1 SLOAD SWAP1 PUSH2 0x100 EXP SWAP1 DIV PUSH14 0xFFFFFFFFFFFFFFFFFFFFFFFFFFFF AND PUSH14 0xFFFFFFFFFFFFFFFFFFFFFFFFFFFF AND SWAP1 POP SWAP2 SWAP1 POP JUMP JUMPDEST PUSH1 0x1 DUP2 JUMP JUMPDEST PUSH1 0x0 DUP6 DUP6 SWAP1 POP EQ DUP1 ISZERO PUSH2 0x14BB JUMPI POP PUSH1 0x0 DUP4 PUSH20 0xFFFFFFFFFFFFFFFFFFFFFFFFFFFFFFFFFFFFFFFF AND EXTCODESIZE EQ JUMPDEST ISZERO PUSH2 0x14FB JUMPI PUSH1 0x40 MLOAD PUSH32 0x8C379A000000000000000000000000000000000000000000000000000000000 DUP2 MSTORE PUSH1 0x4 ADD PUSH2 0x14F2 SWAP1 PUSH2 0x528B JUMP JUMPDEST PUSH1 0x40 MLOAD DUP1 SWAP2 SUB SWAP1 REVERT JUMPDEST PUSH1 0x14 DUP3 DUP3 SWAP1 POP LT PUSH2 0x1588 JUMPI PUSH1 0x0 DUP3 DUP3 PUSH1 0x0 SWAP1 PUSH1 0x14 SWAP3 PUSH2 0x151C SWAP4 SWAP3 SWAP2 SWAP1 PUSH2 0x52B5 JUMP JUMPDEST SWAP1 PUSH2 0x1527 SWAP2 SWAP1 PUSH2 0x5334 JUMP JUMPDEST PUSH1 0x60 SHR SWAP1 POP PUSH1 0x0 DUP2 PUSH20 0xFFFFFFFFFFFFFFFFFFFFFFFFFFFFFFFFFFFFFFFF AND EXTCODESIZE SUB PUSH2 0x1586 JUMPI PUSH1 0x40 MLOAD PUSH32 0x8C379A000000000000000000000000000000000000000000000000000000000 DUP2 MSTORE PUSH1 0x4 ADD PUSH2 0x157D SWAP1 PUSH2 0x53DF JUMP JUMPDEST PUSH1 0x40 MLOAD DUP1 SWAP2 SUB SWAP1 REVERT JUMPDEST POP JUMPDEST PUSH1 0x40 MLOAD PUSH32 0x8C379A000000000000000000000000000000000000000000000000000000000 DUP2 MSTORE PUSH1 0x4 ADD PUSH2 0x15BA SWAP1 PUSH2 0x5422 JUMP JUMPDEST PUSH1 0x40 MLOAD DUP1 SWAP2 SUB SWAP1 REVERT JUMPDEST PUSH32 0x0 PUSH20 0xFFFFFFFFFFFFFFFFFFFFFFFFFFFFFFFFFFFFFFFF AND PUSH4 0x570E1A36 DUP4 DUP4 PUSH1 0x40 MLOAD DUP4 PUSH4 0xFFFFFFFF AND PUSH1 0xE0 SHL DUP2 MSTORE PUSH1 0x4 ADD PUSH2 0x161E SWAP3 SWAP2 SWAP1 PUSH2 0x5442 JUMP JUMPDEST PUSH1 0x20 PUSH1 0x40 MLOAD DUP1 DUP4 SUB DUP2 PUSH1 0x0 DUP8 GAS CALL ISZERO DUP1 ISZERO PUSH2 0x163D JUMPI RETURNDATASIZE PUSH1 0x0 DUP1 RETURNDATACOPY RETURNDATASIZE PUSH1 0x0 REVERT JUMPDEST POP POP POP POP PUSH1 0x40 MLOAD RETURNDATASIZE PUSH1 0x1F NOT PUSH1 0x1F DUP3 ADD AND DUP3 ADD DUP1 PUSH1 0x40 MSTORE POP DUP2 ADD SWAP1 PUSH2 0x1661 SWAP2 SWAP1 PUSH2 0x547B JUMP JUMPDEST PUSH1 0x40 MLOAD PUSH32 0x6CA7B80600000000000000000000000000000000000000000000000000000000 DUP2 MSTORE PUSH1 0x4 ADD PUSH2 0x1694 SWAP2 SWAP1 PUSH2 0x51DC JUMP JUMPDEST PUSH1 0x40 MLOAD DUP1 SWAP2 SUB SWAP1 REVERT JUMPDEST PUSH1 0x0 PUSH2 0x16A8 DUP3 PUSH2 0x2A85 JUMP JUMPDEST ADDRESS CHAINID PUSH1 0x40 MLOAD PUSH1 0x20 ADD PUSH2 0x16BC SWAP4 SWAP3 SWAP2 SWAP1 PUSH2 0x54A8 JUMP JUMPDEST PUSH1 0x40 MLOAD PUSH1 0x20 DUP2 DUP4 SUB SUB DUP2 MSTORE SWAP1 PUSH1 0x40 MSTORE DUP1 MLOAD SWAP1 PUSH1 0x20 ADD KECCAK256 SWAP1 POP SWAP2 SWAP1 POP JUMP JUMPDEST PUSH1 0x0 DUP1 PUSH1 0x0 CALLER PUSH20 0xFFFFFFFFFFFFFFFFFFFFFFFFFFFFFFFFFFFFFFFF AND PUSH20 0xFFFFFFFFFFFFFFFFFFFFFFFFFFFFFFFFFFFFFFFF AND DUP2 MSTORE PUSH1 0x20 ADD SWAP1 DUP2 MSTORE PUSH1 0x20 ADD PUSH1 0x0 KECCAK256 SWAP1 POP PUSH1 0x0 DUP2 PUSH1 0x1 ADD PUSH1 0x0 SWAP1 SLOAD SWAP1 PUSH2 0x100 EXP SWAP1 DIV PUSH4 0xFFFFFFFF AND PUSH4 0xFFFFFFFF AND SUB PUSH2 0x1778 JUMPI PUSH1 0x40 MLOAD PUSH32 0x8C379A000000000000000000000000000000000000000000000000000000000 DUP2 MSTORE PUSH1 0x4 ADD PUSH2 0x176F SWAP1 PUSH2 0x552B JUMP JUMPDEST PUSH1 0x40 MLOAD DUP1 SWAP2 SUB SWAP1 REVERT JUMPDEST DUP1 PUSH1 0x0 ADD PUSH1 0xE SWAP1 SLOAD SWAP1 PUSH2 0x100 EXP SWAP1 DIV PUSH1 0xFF AND PUSH2 0x17C9 JUMPI PUSH1 0x40 MLOAD PUSH32 0x8C379A000000000000000000000000000000000000000000000000000000000 DUP2 MSTORE PUSH1 0x4 ADD PUSH2 0x17C0 SWAP1 PUSH2 0x5597 JUMP JUMPDEST PUSH1 0x40 MLOAD DUP1 SWAP2 SUB SWAP1 REVERT JUMPDEST PUSH1 0x0 DUP2 PUSH1 0x1 ADD PUSH1 0x0 SWAP1 SLOAD SWAP1 PUSH2 0x100 EXP SWAP1 DIV PUSH4 0xFFFFFFFF AND PUSH4 0xFFFFFFFF AND TIMESTAMP PUSH2 0x17F1 SWAP2 SWAP1 PUSH2 0x55B7 JUMP JUMPDEST SWAP1 POP DUP1 DUP3 PUSH1 0x1 ADD PUSH1 0x4 PUSH2 0x100 EXP DUP2 SLOAD DUP2 PUSH6 0xFFFFFFFFFFFF MUL NOT AND SWAP1 DUP4 PUSH6 0xFFFFFFFFFFFF AND MUL OR SWAP1 SSTORE POP PUSH1 0x0 DUP3 PUSH1 0x0 ADD PUSH1 0xE PUSH2 0x100 EXP DUP2 SLOAD DUP2 PUSH1 0xFF MUL NOT AND SWAP1 DUP4 ISZERO ISZERO MUL OR SWAP1 SSTORE POP CALLER PUSH20 0xFFFFFFFFFFFFFFFFFFFFFFFFFFFFFFFFFFFFFFFF AND PUSH32 0xFA9B3C14CC825C412C9ED81B3BA365A5B459439403F18829E572ED53A4180F0A DUP3 PUSH1 0x40 MLOAD PUSH2 0x187D SWAP2 SWAP1 PUSH2 0x5622 JUMP JUMPDEST PUSH1 0x40 MLOAD DUP1 SWAP2 SUB SWAP1 LOG2 POP POP JUMP JUMPDEST PUSH1 0x0 DUP1 PUSH1 0x0 CALLER PUSH20 0xFFFFFFFFFFFFFFFFFFFFFFFFFFFFFFFFFFFFFFFF AND PUSH20 0xFFFFFFFFFFFFFFFFFFFFFFFFFFFFFFFFFFFFFFFF AND DUP2 MSTORE PUSH1 0x20 ADD SWAP1 DUP2 MSTORE PUSH1 0x20 ADD PUSH1 0x0 KECCAK256 SWAP1 POP PUSH1 0x0 DUP2 PUSH1 0x0 ADD PUSH1 0xF SWAP1 SLOAD SWAP1 PUSH2 0x100 EXP SWAP1 DIV PUSH14 0xFFFFFFFFFFFFFFFFFFFFFFFFFFFF AND PUSH14 0xFFFFFFFFFFFFFFFFFFFFFFFFFFFF AND SWAP1 POP PUSH1 0x0 DUP2 GT PUSH2 0x1941 JUMPI PUSH1 0x40 MLOAD PUSH32 0x8C379A000000000000000000000000000000000000000000000000000000000 DUP2 MSTORE PUSH1 0x4 ADD PUSH2 0x1938 SWAP1 PUSH2 0x5689 JUMP JUMPDEST PUSH1 0x40 MLOAD DUP1 SWAP2 SUB SWAP1 REVERT JUMPDEST PUSH1 0x0 DUP3 PUSH1 0x1 ADD PUSH1 0x4 SWAP1 SLOAD SWAP1 PUSH2 0x100 EXP SWAP1 DIV PUSH6 0xFFFFFFFFFFFF AND PUSH6 0xFFFFFFFFFFFF AND GT PUSH2 0x19A2 JUMPI PUSH1 0x40 MLOAD PUSH32 0x8C379A000000000000000000000000000000000000000000000000000000000 DUP2 MSTORE PUSH1 0x4 ADD PUSH2 0x1999 SWAP1 PUSH2 0x56F5 JUMP JUMPDEST PUSH1 0x40 MLOAD DUP1 SWAP2 SUB SWAP1 REVERT JUMPDEST TIMESTAMP DUP3 PUSH1 0x1 ADD PUSH1 0x4 SWAP1 SLOAD SWAP1 PUSH2 0x100 EXP SWAP1 DIV PUSH6 0xFFFFFFFFFFFF AND PUSH6 0xFFFFFFFFFFFF AND GT ISZERO PUSH2 0x1A03 JUMPI PUSH1 0x40 MLOAD PUSH32 0x8C379A000000000000000000000000000000000000000000000000000000000 DUP2 MSTORE PUSH1 0x4 ADD PUSH2 0x19FA SWAP1 PUSH2 0x5761 JUMP JUMPDEST PUSH1 0x40 MLOAD DUP1 SWAP2 SUB SWAP1 REVERT JUMPDEST PUSH1 0x0 DUP3 PUSH1 0x1 ADD PUSH1 0x0 PUSH2 0x100 EXP DUP2 SLOAD DUP2 PUSH4 0xFFFFFFFF MUL NOT AND SWAP1 DUP4 PUSH4 0xFFFFFFFF AND MUL OR SWAP1 SSTORE POP PUSH1 0x0 DUP3 PUSH1 0x1 ADD PUSH1 0x4 PUSH2 0x100 EXP DUP2 SLOAD DUP2 PUSH6 0xFFFFFFFFFFFF MUL NOT AND SWAP1 DUP4 PUSH6 0xFFFFFFFFFFFF AND MUL OR SWAP1 SSTORE POP PUSH1 0x0 DUP3 PUSH1 0x0 ADD PUSH1 0xF PUSH2 0x100 EXP DUP2 SLOAD DUP2 PUSH14 0xFFFFFFFFFFFFFFFFFFFFFFFFFFFF MUL NOT AND SWAP1 DUP4 PUSH14 0xFFFFFFFFFFFFFFFFFFFFFFFFFFFF AND MUL OR SWAP1 SSTORE POP CALLER PUSH20 0xFFFFFFFFFFFFFFFFFFFFFFFFFFFFFFFFFFFFFFFF AND PUSH32 0xB7C918E0E249F999E965CAFEB6C664271B3F4317D296461500E71DA39F0CBDA3 DUP5 DUP4 PUSH1 0x40 MLOAD PUSH2 0x1ACF SWAP3 SWAP2 SWAP1 PUSH2 0x4B8C JUMP JUMPDEST PUSH1 0x40 MLOAD DUP1 SWAP2 SUB SWAP1 LOG2 PUSH1 0x0 DUP4 PUSH20 0xFFFFFFFFFFFFFFFFFFFFFFFFFFFFFFFFFFFFFFFF AND DUP3 PUSH1 0x40 MLOAD PUSH2 0x1AFD SWAP1 PUSH2 0x4BE6 JUMP JUMPDEST PUSH1 0x0 PUSH1 0x40 MLOAD DUP1 DUP4 SUB DUP2 DUP6 DUP8 GAS CALL SWAP3 POP POP POP RETURNDATASIZE DUP1 PUSH1 0x0 DUP2 EQ PUSH2 0x1B3A JUMPI PUSH1 0x40 MLOAD SWAP2 POP PUSH1 0x1F NOT PUSH1 0x3F RETURNDATASIZE ADD AND DUP3 ADD PUSH1 0x40 MSTORE RETURNDATASIZE DUP3 MSTORE RETURNDATASIZE PUSH1 0x0 PUSH1 0x20 DUP5 ADD RETURNDATACOPY PUSH2 0x1B3F JUMP JUMPDEST PUSH1 0x60 SWAP2 POP JUMPDEST POP POP SWAP1 POP DUP1 PUSH2 0x1B83 JUMPI PUSH1 0x40 MLOAD PUSH32 0x8C379A000000000000000000000000000000000000000000000000000000000 DUP2 MSTORE PUSH1 0x4 ADD PUSH2 0x1B7A SWAP1 PUSH2 0x57CD JUMP JUMPDEST PUSH1 0x40 MLOAD DUP1 SWAP2 SUB SWAP1 REVERT JUMPDEST POP POP POP POP JUMP JUMPDEST PUSH2 0x1B91 PUSH2 0x39FB JUMP JUMPDEST PUSH2 0x1B9A DUP6 PUSH2 0x2A9E JUMP JUMPDEST PUSH1 0x0 DUP1 PUSH2 0x1BA9 PUSH1 0x0 DUP9 DUP6 PUSH2 0x24CF JUMP JUMPDEST SWAP2 POP SWAP2 POP PUSH1 0x0 PUSH2 0x1BB9 DUP4 DUP4 PUSH2 0x2BC6 JUMP JUMPDEST SWAP1 POP PUSH2 0x1BC3 PUSH2 0x2CD9 JUMP JUMPDEST PUSH1 0x0 PUSH2 0x1BD1 PUSH1 0x0 DUP11 DUP8 PUSH2 0x280C JUMP JUMPDEST SWAP1 POP PUSH2 0x1BDB PUSH2 0x2CD9 JUMP JUMPDEST PUSH1 0x0 PUSH1 0x60 PUSH1 0x0 PUSH20 0xFFFFFFFFFFFFFFFFFFFFFFFFFFFFFFFFFFFFFFFF AND DUP11 PUSH20 0xFFFFFFFFFFFFFFFFFFFFFFFFFFFFFFFFFFFFFFFF AND EQ PUSH2 0x1C86 JUMPI DUP10 PUSH20 0xFFFFFFFFFFFFFFFFFFFFFFFFFFFFFFFFFFFFFFFF AND DUP10 DUP10 PUSH1 0x40 MLOAD PUSH2 0x1C3A SWAP3 SWAP2 SWAP1 PUSH2 0x5812 JUMP JUMPDEST PUSH1 0x0 PUSH1 0x40 MLOAD DUP1 DUP4 SUB DUP2 PUSH1 0x0 DUP7 GAS CALL SWAP2 POP POP RETURNDATASIZE DUP1 PUSH1 0x0 DUP2 EQ PUSH2 0x1C77 JUMPI PUSH1 0x40 MLOAD SWAP2 POP PUSH1 0x1F NOT PUSH1 0x3F RETURNDATASIZE ADD AND DUP3 ADD PUSH1 0x40 MSTORE RETURNDATASIZE DUP3 MSTORE RETURNDATASIZE PUSH1 0x0 PUSH1 0x20 DUP5 ADD RETURNDATACOPY PUSH2 0x1C7C JUMP JUMPDEST PUSH1 0x60 SWAP2 POP JUMPDEST POP DUP1 SWAP3 POP DUP2 SWAP4 POP POP POP JUMPDEST DUP7 PUSH1 0x80 ADD MLOAD DUP4 DUP6 PUSH1 0x20 ADD MLOAD DUP7 PUSH1 0x40 ADD MLOAD DUP6 DUP6 PUSH1 0x40 MLOAD PUSH32 0x8B7AC98000000000000000000000000000000000000000000000000000000000 DUP2 MSTORE PUSH1 0x4 ADD PUSH2 0x1CD0 SWAP7 SWAP6 SWAP5 SWAP4 SWAP3 SWAP2 SWAP1 PUSH2 0x582B JUMP JUMPDEST PUSH1 0x40 MLOAD DUP1 SWAP2 SUB SWAP1 REVERT JUMPDEST PUSH2 0x1CE1 PUSH2 0x39FB JUMP JUMPDEST PUSH2 0x1CEA DUP3 PUSH2 0x2A9E JUMP JUMPDEST PUSH1 0x0 DUP1 PUSH2 0x1CF9 PUSH1 0x0 DUP6 DUP6 PUSH2 0x24CF JUMP JUMPDEST SWAP2 POP SWAP2 POP PUSH1 0x0 PUSH2 0x1D10 DUP5 PUSH1 0x0 ADD MLOAD PUSH1 0xA0 ADD MLOAD PUSH2 0x2CDF JUMP JUMPDEST SWAP1 POP PUSH1 0x0 PUSH2 0x1D25 DUP6 PUSH1 0x0 ADD MLOAD PUSH1 0x0 ADD MLOAD PUSH2 0x2CDF JUMP JUMPDEST SWAP1 POP PUSH2 0x1D2F PUSH2 0x3A92 JUMP JUMPDEST CALLDATASIZE PUSH1 0x0 DUP9 DUP1 PUSH1 0x40 ADD SWAP1 PUSH2 0x1D42 SWAP2 SWAP1 PUSH2 0x4DC9 JUMP JUMPDEST SWAP2 POP SWAP2 POP PUSH1 0x0 PUSH1 0x14 DUP4 DUP4 SWAP1 POP LT ISZERO PUSH2 0x1D5B JUMPI PUSH1 0x0 PUSH2 0x1D7E JUMP JUMPDEST DUP3 DUP3 PUSH1 0x0 SWAP1 PUSH1 0x14 SWAP3 PUSH2 0x1D6F SWAP4 SWAP3 SWAP2 SWAP1 PUSH2 0x52B5 JUMP JUMPDEST SWAP1 PUSH2 0x1D7A SWAP2 SWAP1 PUSH2 0x5334 JUMP JUMPDEST PUSH1 0x60 SHR JUMPDEST SWAP1 POP PUSH2 0x1D89 DUP2 PUSH2 0x2CDF JUMP JUMPDEST SWAP4 POP POP POP POP PUSH1 0x0 PUSH2 0x1D9A DUP7 DUP7 PUSH2 0x2BC6 JUMP JUMPDEST SWAP1 POP PUSH1 0x0 DUP2 PUSH1 0x0 ADD MLOAD SWAP1 POP PUSH1 0x0 PUSH1 0x1 PUSH20 0xFFFFFFFFFFFFFFFFFFFFFFFFFFFFFFFFFFFFFFFF AND DUP3 PUSH20 0xFFFFFFFFFFFFFFFFFFFFFFFFFFFFFFFFFFFFFFFF AND EQ SWAP1 POP PUSH1 0x0 PUSH1 0x40 MLOAD DUP1 PUSH1 0xC0 ADD PUSH1 0x40 MSTORE DUP1 DUP12 PUSH1 0x80 ADD MLOAD DUP2 MSTORE PUSH1 0x20 ADD DUP12 PUSH1 0x40 ADD MLOAD DUP2 MSTORE PUSH1 0x20 ADD DUP4 ISZERO ISZERO DUP2 MSTORE PUSH1 0x20 ADD DUP6 PUSH1 0x20 ADD MLOAD PUSH6 0xFFFFFFFFFFFF AND DUP2 MSTORE PUSH1 0x20 ADD DUP6 PUSH1 0x40 ADD MLOAD PUSH6 0xFFFFFFFFFFFF AND DUP2 MSTORE PUSH1 0x20 ADD PUSH2 0x1E33 DUP13 PUSH1 0x60 ADD MLOAD PUSH2 0x2D8B JUMP JUMPDEST DUP2 MSTORE POP SWAP1 POP PUSH1 0x0 PUSH20 0xFFFFFFFFFFFFFFFFFFFFFFFFFFFFFFFFFFFFFFFF AND DUP4 PUSH20 0xFFFFFFFFFFFFFFFFFFFFFFFFFFFFFFFFFFFFFFFF AND EQ ISZERO DUP1 ISZERO PUSH2 0x1EA2 JUMPI POP PUSH1 0x1 PUSH20 0xFFFFFFFFFFFFFFFFFFFFFFFFFFFFFFFFFFFFFFFF AND DUP4 PUSH20 0xFFFFFFFFFFFFFFFFFFFFFFFFFFFFFFFFFFFFFFFF AND EQ ISZERO JUMPDEST ISZERO PUSH2 0x1F23 JUMPI PUSH1 0x0 PUSH1 0x40 MLOAD DUP1 PUSH1 0x40 ADD PUSH1 0x40 MSTORE DUP1 DUP6 PUSH20 0xFFFFFFFFFFFFFFFFFFFFFFFFFFFFFFFFFFFFFFFF AND DUP2 MSTORE PUSH1 0x20 ADD PUSH2 0x1ED9 DUP7 PUSH2 0x2CDF JUMP JUMPDEST DUP2 MSTORE POP SWAP1 POP DUP2 DUP8 DUP8 DUP11 DUP5 PUSH1 0x40 MLOAD PUSH32 0xFAECB4E400000000000000000000000000000000000000000000000000000000 DUP2 MSTORE PUSH1 0x4 ADD PUSH2 0x1F1A SWAP6 SWAP5 SWAP4 SWAP3 SWAP2 SWAP1 PUSH2 0x59E2 JUMP JUMPDEST PUSH1 0x40 MLOAD DUP1 SWAP2 SUB SWAP1 REVERT JUMPDEST DUP1 DUP7 DUP7 DUP10 PUSH1 0x40 MLOAD PUSH32 0xE0CFF05F00000000000000000000000000000000000000000000000000000000 DUP2 MSTORE PUSH1 0x4 ADD PUSH2 0x1F5D SWAP5 SWAP4 SWAP3 SWAP2 SWAP1 PUSH2 0x5A3D JUMP JUMPDEST PUSH1 0x40 MLOAD DUP1 SWAP2 SUB SWAP1 REVERT JUMPDEST PUSH1 0x0 PUSH1 0x20 MSTORE DUP1 PUSH1 0x0 MSTORE PUSH1 0x40 PUSH1 0x0 KECCAK256 PUSH1 0x0 SWAP2 POP SWAP1 POP DUP1 PUSH1 0x0 ADD PUSH1 0x0 SWAP1 SLOAD SWAP1 PUSH2 0x100 EXP SWAP1 DIV PUSH14 0xFFFFFFFFFFFFFFFFFFFFFFFFFFFF AND SWAP1 DUP1 PUSH1 0x0 ADD PUSH1 0xE SWAP1 SLOAD SWAP1 PUSH2 0x100 EXP SWAP1 DIV PUSH1 0xFF AND SWAP1 DUP1 PUSH1 0x0 ADD PUSH1 0xF SWAP1 SLOAD SWAP1 PUSH2 0x100 EXP SWAP1 DIV PUSH14 0xFFFFFFFFFFFFFFFFFFFFFFFFFFFF AND SWAP1 DUP1 PUSH1 0x1 ADD PUSH1 0x0 SWAP1 SLOAD SWAP1 PUSH2 0x100 EXP SWAP1 DIV PUSH4 0xFFFFFFFF AND SWAP1 DUP1 PUSH1 0x1 ADD PUSH1 0x4 SWAP1 SLOAD SWAP1 PUSH2 0x100 EXP SWAP1 DIV PUSH6 0xFFFFFFFFFFFF AND SWAP1 POP DUP6 JUMP JUMPDEST PUSH1 0x0 DUP1 PUSH1 0x0 DUP5 PUSH20 0xFFFFFFFFFFFFFFFFFFFFFFFFFFFFFFFFFFFFFFFF AND PUSH20 0xFFFFFFFFFFFFFFFFFFFFFFFFFFFFFFFFFFFFFFFF AND DUP2 MSTORE PUSH1 0x20 ADD SWAP1 DUP2 MSTORE PUSH1 0x20 ADD PUSH1 0x0 KECCAK256 SWAP1 POP PUSH1 0x0 DUP3 DUP3 PUSH1 0x0 ADD PUSH1 0x0 SWAP1 SLOAD SWAP1 PUSH2 0x100 EXP SWAP1 DIV PUSH14 0xFFFFFFFFFFFFFFFFFFFFFFFFFFFF AND PUSH14 0xFFFFFFFFFFFFFFFFFFFFFFFFFFFF AND PUSH2 0x207D SWAP2 SWAP1 PUSH2 0x47AF JUMP JUMPDEST SWAP1 POP PUSH14 0xFFFFFFFFFFFFFFFFFFFFFFFFFFFF DUP1 AND DUP2 GT ISZERO PUSH2 0x20D2 JUMPI PUSH1 0x40 MLOAD PUSH32 0x8C379A000000000000000000000000000000000000000000000000000000000 DUP2 MSTORE PUSH1 0x4 ADD PUSH2 0x20C9 SWAP1 PUSH2 0x5AD5 JUMP JUMPDEST PUSH1 0x40 MLOAD DUP1 SWAP2 SUB SWAP1 REVERT JUMPDEST DUP1 DUP3 PUSH1 0x0 ADD PUSH1 0x0 PUSH2 0x100 EXP DUP2 SLOAD DUP2 PUSH14 0xFFFFFFFFFFFFFFFFFFFFFFFFFFFF MUL NOT AND SWAP1 DUP4 PUSH14 0xFFFFFFFFFFFFFFFFFFFFFFFFFFFF AND MUL OR SWAP1 SSTORE POP POP POP POP POP JUMP JUMPDEST PUSH1 0x0 DUP1 PUSH1 0x0 DUP5 MLOAD PUSH1 0x20 DUP7 ADD DUP8 DUP10 DUP8 CALL SWAP1 POP SWAP5 SWAP4 POP POP POP POP JUMP JUMPDEST PUSH1 0x60 RETURNDATASIZE DUP3 DUP2 GT ISZERO PUSH2 0x2137 JUMPI DUP3 SWAP1 POP JUMPDEST PUSH1 0x40 MLOAD PUSH1 0x20 DUP3 ADD DUP2 ADD PUSH1 0x40 MSTORE DUP2 DUP2 MSTORE DUP2 PUSH1 0x0 PUSH1 0x20 DUP4 ADD RETURNDATACOPY DUP1 SWAP3 POP POP POP SWAP2 SWAP1 POP JUMP JUMPDEST PUSH1 0x0 DUP1 GAS SWAP1 POP PUSH1 0x0 DUP1 DUP7 PUSH1 0x0 ADD MLOAD SWAP1 POP PUSH1 0x0 PUSH2 0x2173 DUP3 PUSH2 0x2D95 JUMP JUMPDEST SWAP1 POP PUSH1 0x0 DUP3 PUSH1 0xA0 ADD MLOAD SWAP1 POP PUSH1 0x0 PUSH20 0xFFFFFFFFFFFFFFFFFFFFFFFFFFFFFFFFFFFFFFFF AND DUP2 PUSH20 0xFFFFFFFFFFFFFFFFFFFFFFFFFFFFFFFFFFFFFFFF AND SUB PUSH2 0x21BE JUMPI DUP3 PUSH1 0x0 ADD MLOAD SWAP4 POP PUSH2 0x23AE JUMP JUMPDEST DUP1 SWAP4 POP PUSH1 0x0 DUP9 MLOAD GT ISZERO PUSH2 0x23AD JUMPI DUP2 DUP8 MUL SWAP6 POP PUSH1 0x2 DUP1 DUP2 GT ISZERO PUSH2 0x21E3 JUMPI PUSH2 0x21E2 PUSH2 0x5AF5 JUMP JUMPDEST JUMPDEST DUP11 PUSH1 0x2 DUP2 GT ISZERO PUSH2 0x21F6 JUMPI PUSH2 0x21F5 PUSH2 0x5AF5 JUMP JUMPDEST JUMPDEST EQ PUSH2 0x2275 JUMPI DUP1 PUSH20 0xFFFFFFFFFFFFFFFFFFFFFFFFFFFFFFFFFFFFFFFF AND PUSH4 0xA9A23409 DUP5 PUSH1 0x60 ADD MLOAD DUP13 DUP12 DUP11 PUSH1 0x40 MLOAD DUP6 PUSH4 0xFFFFFFFF AND PUSH1 0xE0 SHL DUP2 MSTORE PUSH1 0x4 ADD PUSH2 0x223D SWAP4 SWAP3 SWAP2 SWAP1 PUSH2 0x5B6C JUMP JUMPDEST PUSH1 0x0 PUSH1 0x40 MLOAD DUP1 DUP4 SUB DUP2 PUSH1 0x0 DUP9 DUP1 EXTCODESIZE ISZERO DUP1 ISZERO PUSH2 0x2257 JUMPI PUSH1 0x0 DUP1 REVERT JUMPDEST POP DUP8 CALL ISZERO DUP1 ISZERO PUSH2 0x226B JUMPI RETURNDATASIZE PUSH1 0x0 DUP1 RETURNDATACOPY RETURNDATASIZE PUSH1 0x0 REVERT JUMPDEST POP POP POP POP POP PUSH2 0x23AC JUMP JUMPDEST DUP1 PUSH20 0xFFFFFFFFFFFFFFFFFFFFFFFFFFFFFFFFFFFFFFFF AND PUSH4 0xA9A23409 DUP5 PUSH1 0x60 ADD MLOAD DUP13 DUP12 DUP11 PUSH1 0x40 MLOAD DUP6 PUSH4 0xFFFFFFFF AND PUSH1 0xE0 SHL DUP2 MSTORE PUSH1 0x4 ADD PUSH2 0x22B7 SWAP4 SWAP3 SWAP2 SWAP1 PUSH2 0x5B6C JUMP JUMPDEST PUSH1 0x0 PUSH1 0x40 MLOAD DUP1 DUP4 SUB DUP2 PUSH1 0x0 DUP9 DUP1 EXTCODESIZE ISZERO DUP1 ISZERO PUSH2 0x22D1 JUMPI PUSH1 0x0 DUP1 REVERT JUMPDEST POP DUP8 CALL SWAP4 POP POP POP POP DUP1 ISZERO PUSH2 0x22E3 JUMPI POP PUSH1 0x1 JUMPDEST PUSH2 0x23AB JUMPI PUSH2 0x22EF PUSH2 0x5BB7 JUMP JUMPDEST DUP1 PUSH4 0x8C379A0 SUB PUSH2 0x236C JUMPI POP PUSH2 0x2303 PUSH2 0x5BD9 JUMP JUMPDEST DUP1 PUSH2 0x230E JUMPI POP PUSH2 0x236E JUMP JUMPDEST DUP12 DUP2 PUSH1 0x40 MLOAD PUSH1 0x20 ADD PUSH2 0x2320 SWAP2 SWAP1 PUSH2 0x5CD6 JUMP JUMPDEST PUSH1 0x40 MLOAD PUSH1 0x20 DUP2 DUP4 SUB SUB DUP2 MSTORE SWAP1 PUSH1 0x40 MSTORE PUSH1 0x40 MLOAD PUSH32 0x220266B600000000000000000000000000000000000000000000000000000000 DUP2 MSTORE PUSH1 0x4 ADD PUSH2 0x2363 SWAP3 SWAP2 SWAP1 PUSH2 0x5D35 JUMP JUMPDEST PUSH1 0x40 MLOAD DUP1 SWAP2 SUB SWAP1 REVERT JUMPDEST POP JUMPDEST DUP11 PUSH1 0x40 MLOAD PUSH32 0x220266B600000000000000000000000000000000000000000000000000000000 DUP2 MSTORE PUSH1 0x4 ADD PUSH2 0x23A2 SWAP2 SWAP1 PUSH2 0x5DB1 JUMP JUMPDEST PUSH1 0x40 MLOAD DUP1 SWAP2 SUB SWAP1 REVERT JUMPDEST JUMPDEST JUMPDEST JUMPDEST GAS DUP6 SUB DUP8 ADD SWAP7 POP DUP2 DUP8 MUL SWAP6 POP DUP6 DUP10 PUSH1 0x40 ADD MLOAD LT ISZERO PUSH2 0x2403 JUMPI DUP11 PUSH1 0x40 MLOAD PUSH32 0x220266B600000000000000000000000000000000000000000000000000000000 DUP2 MSTORE PUSH1 0x4 ADD PUSH2 0x23FA SWAP2 SWAP1 PUSH2 0x5E2B JUMP JUMPDEST PUSH1 0x40 MLOAD DUP1 SWAP2 SUB SWAP1 REVERT JUMPDEST PUSH1 0x0 DUP7 DUP11 PUSH1 0x40 ADD MLOAD SUB SWAP1 POP PUSH2 0x2418 DUP6 DUP3 PUSH2 0x1FFF JUMP JUMPDEST PUSH1 0x0 DUP1 PUSH1 0x2 DUP2 GT ISZERO PUSH2 0x242D JUMPI PUSH2 0x242C PUSH2 0x5AF5 JUMP JUMPDEST JUMPDEST DUP13 PUSH1 0x2 DUP2 GT ISZERO PUSH2 0x2440 JUMPI PUSH2 0x243F PUSH2 0x5AF5 JUMP JUMPDEST JUMPDEST EQ SWAP1 POP DUP5 PUSH1 0xA0 ADD MLOAD PUSH20 0xFFFFFFFFFFFFFFFFFFFFFFFFFFFFFFFFFFFFFFFF AND DUP6 PUSH1 0x0 ADD MLOAD PUSH20 0xFFFFFFFFFFFFFFFFFFFFFFFFFFFFFFFFFFFFFFFF AND DUP13 PUSH1 0x20 ADD MLOAD PUSH32 0x49628FD1471006C1482DA88028E9CE4DBB080B815C9B0344D39E5A8E6EC1419F DUP9 PUSH1 0x20 ADD MLOAD DUP6 DUP14 DUP16 PUSH1 0x40 MLOAD PUSH2 0x24B7 SWAP5 SWAP4 SWAP3 SWAP2 SWAP1 PUSH2 0x5E59 JUMP JUMPDEST PUSH1 0x40 MLOAD DUP1 SWAP2 SUB SWAP1 LOG4 POP POP POP POP POP POP POP SWAP6 SWAP5 POP POP POP POP POP JUMP JUMPDEST PUSH1 0x0 DUP1 PUSH1 0x0 GAS SWAP1 POP PUSH1 0x0 DUP5 PUSH1 0x0 ADD MLOAD SWAP1 POP PUSH2 0x24EA DUP7 DUP3 PUSH2 0x2DCF JUMP JUMPDEST PUSH2 0x24F3 DUP7 PUSH2 0x169D JUMP JUMPDEST DUP6 PUSH1 0x20 ADD DUP2 DUP2 MSTORE POP POP PUSH1 0x0 DUP7 PUSH2 0x100 ADD CALLDATALOAD DUP8 PUSH1 0xE0 ADD CALLDATALOAD DUP4 PUSH1 0x40 ADD MLOAD DUP5 PUSH1 0x60 ADD MLOAD DUP6 PUSH1 0x80 ADD MLOAD OR OR OR OR SWAP1 POP PUSH15 0xFFFFFFFFFFFFFFFFFFFFFFFFFFFFFF DUP1 AND DUP2 GT ISZERO PUSH2 0x2572 JUMPI PUSH1 0x40 MLOAD PUSH32 0x8C379A000000000000000000000000000000000000000000000000000000000 DUP2 MSTORE PUSH1 0x4 ADD PUSH2 0x2569 SWAP1 PUSH2 0x5EEA JUMP JUMPDEST PUSH1 0x40 MLOAD DUP1 SWAP2 SUB SWAP1 REVERT JUMPDEST PUSH1 0x0 DUP1 PUSH2 0x257E DUP5 PUSH2 0x2F77 JUMP JUMPDEST SWAP1 POP PUSH2 0x258C DUP11 DUP11 DUP11 DUP5 PUSH2 0x2FE8 JUMP JUMPDEST DUP1 SWAP9 POP DUP2 SWAP4 POP POP POP PUSH2 0x259C PUSH2 0x2CD9 JUMP JUMPDEST PUSH1 0x60 PUSH1 0x0 PUSH20 0xFFFFFFFFFFFFFFFFFFFFFFFFFFFFFFFFFFFFFFFF AND DUP6 PUSH1 0xA0 ADD MLOAD PUSH20 0xFFFFFFFFFFFFFFFFFFFFFFFFFFFFFFFFFFFFFFFF AND EQ PUSH2 0x25EC JUMPI PUSH2 0x25E3 DUP12 DUP12 DUP12 DUP6 DUP8 PUSH2 0x3311 JUMP JUMPDEST DUP1 SWAP9 POP DUP2 SWAP3 POP POP POP JUMPDEST PUSH1 0x0 GAS DUP8 SUB SWAP1 POP DUP1 DUP12 PUSH1 0xA0 ADD CALLDATALOAD LT ISZERO PUSH2 0x263C JUMPI DUP12 PUSH1 0x40 MLOAD PUSH32 0x220266B600000000000000000000000000000000000000000000000000000000 DUP2 MSTORE PUSH1 0x4 ADD PUSH2 0x2633 SWAP2 SWAP1 PUSH2 0x5F56 JUMP JUMPDEST PUSH1 0x40 MLOAD DUP1 SWAP2 SUB SWAP1 REVERT JUMPDEST DUP3 DUP11 PUSH1 0x40 ADD DUP2 DUP2 MSTORE POP POP PUSH2 0x264F DUP3 PUSH2 0x35CF JUMP JUMPDEST DUP11 PUSH1 0x60 ADD DUP2 DUP2 MSTORE POP POP DUP11 PUSH1 0xC0 ADD CALLDATALOAD GAS DUP9 SUB ADD DUP11 PUSH1 0x80 ADD DUP2 DUP2 MSTORE POP POP POP POP POP POP POP POP POP SWAP4 POP SWAP4 SWAP2 POP POP JUMP JUMPDEST PUSH1 0x0 DUP1 PUSH2 0x2685 DUP6 PUSH2 0x35D9 JUMP JUMPDEST SWAP2 POP SWAP2 POP DUP2 PUSH20 0xFFFFFFFFFFFFFFFFFFFFFFFFFFFFFFFFFFFFFFFF AND DUP4 PUSH20 0xFFFFFFFFFFFFFFFFFFFFFFFFFFFFFFFFFFFFFFFF AND EQ PUSH2 0x26F9 JUMPI DUP6 PUSH1 0x40 MLOAD PUSH32 0x220266B600000000000000000000000000000000000000000000000000000000 DUP2 MSTORE PUSH1 0x4 ADD PUSH2 0x26F0 SWAP2 SWAP1 PUSH2 0x5FD0 JUMP JUMPDEST PUSH1 0x40 MLOAD DUP1 SWAP2 SUB SWAP1 REVERT JUMPDEST DUP1 ISZERO PUSH2 0x273C JUMPI DUP6 PUSH1 0x40 MLOAD PUSH32 0x220266B600000000000000000000000000000000000000000000000000000000 DUP2 MSTORE PUSH1 0x4 ADD PUSH2 0x2733 SWAP2 SWAP1 PUSH2 0x604A JUMP JUMPDEST PUSH1 0x40 MLOAD DUP1 SWAP2 SUB SWAP1 REVERT JUMPDEST PUSH1 0x0 PUSH2 0x2747 DUP6 PUSH2 0x35D9 JUMP JUMPDEST DUP1 SWAP4 POP DUP2 SWAP3 POP POP POP PUSH1 0x0 PUSH20 0xFFFFFFFFFFFFFFFFFFFFFFFFFFFFFFFFFFFFFFFF AND DUP2 PUSH20 0xFFFFFFFFFFFFFFFFFFFFFFFFFFFFFFFFFFFFFFFF AND EQ PUSH2 0x27C0 JUMPI DUP7 PUSH1 0x40 MLOAD PUSH32 0x220266B600000000000000000000000000000000000000000000000000000000 DUP2 MSTORE PUSH1 0x4 ADD PUSH2 0x27B7 SWAP2 SWAP1 PUSH2 0x60C4 JUMP JUMPDEST PUSH1 0x40 MLOAD DUP1 SWAP2 SUB SWAP1 REVERT JUMPDEST DUP2 ISZERO PUSH2 0x2803 JUMPI DUP7 PUSH1 0x40 MLOAD PUSH32 0x220266B600000000000000000000000000000000000000000000000000000000 DUP2 MSTORE PUSH1 0x4 ADD PUSH2 0x27FA SWAP2 SWAP1 PUSH2 0x6164 JUMP JUMPDEST PUSH1 0x40 MLOAD DUP1 SWAP2 SUB SWAP1 REVERT JUMPDEST POP POP POP POP POP POP POP JUMP JUMPDEST PUSH1 0x0 DUP1 GAS SWAP1 POP PUSH1 0x0 PUSH2 0x2821 DUP5 PUSH1 0x60 ADD MLOAD PUSH2 0x2D8B JUMP JUMPDEST SWAP1 POP ADDRESS PUSH20 0xFFFFFFFFFFFFFFFFFFFFFFFFFFFFFFFFFFFFFFFF AND PUSH4 0x1D732756 DUP7 DUP1 PUSH1 0x60 ADD SWAP1 PUSH2 0x284F SWAP2 SWAP1 PUSH2 0x4DC9 JUMP JUMPDEST DUP8 DUP6 PUSH1 0x40 MLOAD DUP6 PUSH4 0xFFFFFFFF AND PUSH1 0xE0 SHL DUP2 MSTORE PUSH1 0x4 ADD PUSH2 0x2870 SWAP5 SWAP4 SWAP3 SWAP2 SWAP1 PUSH2 0x62B0 JUMP JUMPDEST PUSH1 0x20 PUSH1 0x40 MLOAD DUP1 DUP4 SUB DUP2 PUSH1 0x0 DUP8 GAS CALL SWAP3 POP POP POP DUP1 ISZERO PUSH2 0x28AC JUMPI POP PUSH1 0x40 MLOAD RETURNDATASIZE PUSH1 0x1F NOT PUSH1 0x1F DUP3 ADD AND DUP3 ADD DUP1 PUSH1 0x40 MSTORE POP DUP2 ADD SWAP1 PUSH2 0x28A9 SWAP2 SWAP1 PUSH2 0x630E JUMP JUMPDEST PUSH1 0x1 JUMPDEST PUSH2 0x2957 JUMPI PUSH1 0x0 PUSH1 0x20 PUSH1 0x0 DUP1 RETURNDATACOPY PUSH1 0x0 MLOAD SWAP1 POP PUSH32 0xDEADDEAD00000000000000000000000000000000000000000000000000000000 DUP2 SUB PUSH2 0x2921 JUMPI DUP7 PUSH1 0x40 MLOAD PUSH32 0x220266B600000000000000000000000000000000000000000000000000000000 DUP2 MSTORE PUSH1 0x4 ADD PUSH2 0x2918 SWAP2 SWAP1 PUSH2 0x6387 JUMP JUMPDEST PUSH1 0x40 MLOAD DUP1 SWAP2 SUB SWAP1 REVERT JUMPDEST PUSH1 0x0 DUP6 PUSH1 0x80 ADD MLOAD GAS DUP6 PUSH2 0x2934 SWAP2 SWAP1 PUSH2 0x4B03 JUMP JUMPDEST PUSH2 0x293E SWAP2 SWAP1 PUSH2 0x47AF JUMP JUMPDEST SWAP1 POP PUSH2 0x294E DUP9 PUSH1 0x2 DUP9 DUP7 DUP6 PUSH2 0x2158 JUMP JUMPDEST SWAP5 POP POP POP PUSH2 0x295C JUMP JUMPDEST DUP1 SWAP4 POP POP JUMPDEST POP POP SWAP4 SWAP3 POP POP POP JUMP JUMPDEST PUSH1 0x0 PUSH20 0xFFFFFFFFFFFFFFFFFFFFFFFFFFFFFFFFFFFFFFFF AND DUP3 PUSH20 0xFFFFFFFFFFFFFFFFFFFFFFFFFFFFFFFFFFFFFFFF AND SUB PUSH2 0x29D4 JUMPI PUSH1 0x40 MLOAD PUSH32 0x8C379A000000000000000000000000000000000000000000000000000000000 DUP2 MSTORE PUSH1 0x4 ADD PUSH2 0x29CB SWAP1 PUSH2 0x6401 JUMP JUMPDEST PUSH1 0x40 MLOAD DUP1 SWAP2 SUB SWAP1 REVERT JUMPDEST PUSH1 0x0 DUP3 PUSH20 0xFFFFFFFFFFFFFFFFFFFFFFFFFFFFFFFFFFFFFFFF AND DUP3 PUSH1 0x40 MLOAD PUSH2 0x29FA SWAP1 PUSH2 0x4BE6 JUMP JUMPDEST PUSH1 0x0 PUSH1 0x40 MLOAD DUP1 DUP4 SUB DUP2 DUP6 DUP8 GAS CALL SWAP3 POP POP POP RETURNDATASIZE DUP1 PUSH1 0x0 DUP2 EQ PUSH2 0x2A37 JUMPI PUSH1 0x40 MLOAD SWAP2 POP PUSH1 0x1F NOT PUSH1 0x3F RETURNDATASIZE ADD AND DUP3 ADD PUSH1 0x40 MSTORE RETURNDATASIZE DUP3 MSTORE RETURNDATASIZE PUSH1 0x0 PUSH1 0x20 DUP5 ADD RETURNDATACOPY PUSH2 0x2A3C JUMP JUMPDEST PUSH1 0x60 SWAP2 POP JUMPDEST POP POP SWAP1 POP DUP1 PUSH2 0x2A80 JUMPI PUSH1 0x40 MLOAD PUSH32 0x8C379A000000000000000000000000000000000000000000000000000000000 DUP2 MSTORE PUSH1 0x4 ADD PUSH2 0x2A77 SWAP1 PUSH2 0x646D JUMP JUMPDEST PUSH1 0x40 MLOAD DUP1 SWAP2 SUB SWAP1 REVERT JUMPDEST POP POP POP JUMP JUMPDEST PUSH1 0x0 PUSH2 0x2A90 DUP3 PUSH2 0x3632 JUMP JUMPDEST DUP1 MLOAD SWAP1 PUSH1 0x20 ADD KECCAK256 SWAP1 POP SWAP2 SWAP1 POP JUMP JUMPDEST ADDRESS PUSH20 0xFFFFFFFFFFFFFFFFFFFFFFFFFFFFFFFFFFFFFFFF AND PUSH4 0x957122AB DUP3 DUP1 PUSH1 0x40 ADD SWAP1 PUSH2 0x2ACA SWAP2 SWAP1 PUSH2 0x4DC9 JUMP JUMPDEST DUP5 PUSH1 0x0 ADD PUSH1 0x20 DUP2 ADD SWAP1 PUSH2 0x2ADD SWAP2 SWAP1 PUSH2 0x4257 JUMP JUMPDEST DUP6 DUP1 PUSH2 0x120 ADD SWAP1 PUSH2 0x2AEE SWAP2 SWAP1 PUSH2 0x4DC9 JUMP JUMPDEST PUSH1 0x40 MLOAD DUP7 PUSH4 0xFFFFFFFF AND PUSH1 0xE0 SHL DUP2 MSTORE PUSH1 0x4 ADD PUSH2 0x2B0E SWAP6 SWAP5 SWAP4 SWAP3 SWAP2 SWAP1 PUSH2 0x648D JUMP JUMPDEST PUSH1 0x0 PUSH1 0x40 MLOAD DUP1 DUP4 SUB DUP2 DUP7 DUP1 EXTCODESIZE ISZERO DUP1 ISZERO PUSH2 0x2B26 JUMPI PUSH1 0x0 DUP1 REVERT JUMPDEST POP GAS STATICCALL SWAP3 POP POP POP DUP1 ISZERO PUSH2 0x2B37 JUMPI POP PUSH1 0x1 JUMPDEST PUSH2 0x2BC2 JUMPI PUSH2 0x2B43 PUSH2 0x5BB7 JUMP JUMPDEST DUP1 PUSH4 0x8C379A0 SUB PUSH2 0x2BB1 JUMPI POP PUSH2 0x2B57 PUSH2 0x5BD9 JUMP JUMPDEST DUP1 PUSH2 0x2B62 JUMPI POP PUSH2 0x2BB3 JUMP JUMPDEST PUSH1 0x0 DUP2 MLOAD EQ PUSH2 0x2BAB JUMPI PUSH1 0x0 DUP2 PUSH1 0x40 MLOAD PUSH32 0x220266B600000000000000000000000000000000000000000000000000000000 DUP2 MSTORE PUSH1 0x4 ADD PUSH2 0x2BA2 SWAP3 SWAP2 SWAP1 PUSH2 0x6511 JUMP JUMPDEST PUSH1 0x40 MLOAD DUP1 SWAP2 SUB SWAP1 REVERT JUMPDEST POP PUSH2 0x2BBD JUMP JUMPDEST POP JUMPDEST RETURNDATASIZE PUSH1 0x0 DUP1 RETURNDATACOPY RETURNDATASIZE PUSH1 0x0 REVERT JUMPDEST PUSH2 0x2BC3 JUMP JUMPDEST JUMPDEST POP JUMP JUMPDEST PUSH2 0x2BCE PUSH2 0x3AAC JUMP JUMPDEST PUSH1 0x0 PUSH2 0x2BD9 DUP5 PUSH2 0x3674 JUMP JUMPDEST SWAP1 POP PUSH1 0x0 PUSH2 0x2BE6 DUP5 PUSH2 0x3674 JUMP JUMPDEST SWAP1 POP PUSH1 0x0 DUP3 PUSH1 0x0 ADD MLOAD SWAP1 POP PUSH1 0x0 PUSH20 0xFFFFFFFFFFFFFFFFFFFFFFFFFFFFFFFFFFFFFFFF AND DUP2 PUSH20 0xFFFFFFFFFFFFFFFFFFFFFFFFFFFFFFFFFFFFFFFF AND SUB PUSH2 0x2C2D JUMPI DUP2 PUSH1 0x0 ADD MLOAD SWAP1 POP JUMPDEST PUSH1 0x0 DUP4 PUSH1 0x20 ADD MLOAD SWAP1 POP PUSH1 0x0 DUP5 PUSH1 0x40 ADD MLOAD SWAP1 POP PUSH1 0x0 DUP5 PUSH1 0x20 ADD MLOAD SWAP1 POP PUSH1 0x0 DUP6 PUSH1 0x40 ADD MLOAD SWAP1 POP DUP2 PUSH6 0xFFFFFFFFFFFF AND DUP5 PUSH6 0xFFFFFFFFFFFF AND LT ISZERO PUSH2 0x2C6D JUMPI DUP2 SWAP4 POP JUMPDEST DUP1 PUSH6 0xFFFFFFFFFFFF AND DUP4 PUSH6 0xFFFFFFFFFFFF AND GT ISZERO PUSH2 0x2C89 JUMPI DUP1 SWAP3 POP JUMPDEST PUSH1 0x40 MLOAD DUP1 PUSH1 0x60 ADD PUSH1 0x40 MSTORE DUP1 DUP7 PUSH20 0xFFFFFFFFFFFFFFFFFFFFFFFFFFFFFFFFFFFFFFFF AND DUP2 MSTORE PUSH1 0x20 ADD DUP6 PUSH6 0xFFFFFFFFFFFF AND DUP2 MSTORE PUSH1 0x20 ADD DUP5 PUSH6 0xFFFFFFFFFFFF AND DUP2 MSTORE POP SWAP8 POP POP POP POP POP POP POP POP SWAP3 SWAP2 POP POP JUMP JUMPDEST NUMBER PUSH1 0x0 MSTORE JUMP JUMPDEST PUSH2 0x2CE7 PUSH2 0x3A92 JUMP JUMPDEST PUSH1 0x0 DUP1 PUSH1 0x0 DUP5 PUSH20 0xFFFFFFFFFFFFFFFFFFFFFFFFFFFFFFFFFFFFFFFF AND PUSH20 0xFFFFFFFFFFFFFFFFFFFFFFFFFFFFFFFFFFFFFFFF AND DUP2 MSTORE PUSH1 0x20 ADD SWAP1 DUP2 MSTORE PUSH1 0x20 ADD PUSH1 0x0 KECCAK256 SWAP1 POP DUP1 PUSH1 0x0 ADD PUSH1 0xF SWAP1 SLOAD SWAP1 PUSH2 0x100 EXP SWAP1 DIV PUSH14 0xFFFFFFFFFFFFFFFFFFFFFFFFFFFF AND PUSH14 0xFFFFFFFFFFFFFFFFFFFFFFFFFFFF AND DUP3 PUSH1 0x0 ADD DUP2 DUP2 MSTORE POP POP DUP1 PUSH1 0x1 ADD PUSH1 0x0 SWAP1 SLOAD SWAP1 PUSH2 0x100 EXP SWAP1 DIV PUSH4 0xFFFFFFFF AND PUSH4 0xFFFFFFFF AND DUP3 PUSH1 0x20 ADD DUP2 DUP2 MSTORE POP POP POP SWAP2 SWAP1 POP JUMP JUMPDEST PUSH1 0x60 DUP2 SWAP1 POP SWAP2 SWAP1 POP JUMP JUMPDEST PUSH1 0x0 DUP1 DUP3 PUSH1 0xC0 ADD MLOAD SWAP1 POP PUSH1 0x0 DUP4 PUSH1 0xE0 ADD MLOAD SWAP1 POP DUP1 DUP3 SUB PUSH2 0x2DB9 JUMPI DUP2 SWAP3 POP POP POP PUSH2 0x2DCA JUMP JUMPDEST PUSH2 0x2DC5 DUP3 BASEFEE DUP4 ADD PUSH2 0x36F8 JUMP JUMPDEST SWAP3 POP POP POP JUMPDEST SWAP2 SWAP1 POP JUMP JUMPDEST DUP2 PUSH1 0x0 ADD PUSH1 0x20 DUP2 ADD SWAP1 PUSH2 0x2DE2 SWAP2 SWAP1 PUSH2 0x4257 JUMP JUMPDEST DUP2 PUSH1 0x0 ADD SWAP1 PUSH20 0xFFFFFFFFFFFFFFFFFFFFFFFFFFFFFFFFFFFFFFFF AND SWAP1 DUP2 PUSH20 0xFFFFFFFFFFFFFFFFFFFFFFFFFFFFFFFFFFFFFFFF AND DUP2 MSTORE POP POP DUP2 PUSH1 0x20 ADD CALLDATALOAD DUP2 PUSH1 0x20 ADD DUP2 DUP2 MSTORE POP POP DUP2 PUSH1 0x80 ADD CALLDATALOAD DUP2 PUSH1 0x40 ADD DUP2 DUP2 MSTORE POP POP DUP2 PUSH1 0xA0 ADD CALLDATALOAD DUP2 PUSH1 0x60 ADD DUP2 DUP2 MSTORE POP POP DUP2 PUSH1 0xC0 ADD CALLDATALOAD DUP2 PUSH1 0x80 ADD DUP2 DUP2 MSTORE POP POP DUP2 PUSH1 0xE0 ADD CALLDATALOAD DUP2 PUSH1 0xC0 ADD DUP2 DUP2 MSTORE POP POP DUP2 PUSH2 0x100 ADD CALLDATALOAD DUP2 PUSH1 0xE0 ADD DUP2 DUP2 MSTORE POP POP CALLDATASIZE PUSH1 0x0 DUP4 DUP1 PUSH2 0x120 ADD SWAP1 PUSH2 0x2E82 SWAP2 SWAP1 PUSH2 0x4DC9 JUMP JUMPDEST SWAP2 POP SWAP2 POP PUSH1 0x0 DUP3 DUP3 SWAP1 POP GT ISZERO PUSH2 0x2F37 JUMPI PUSH1 0x14 DUP3 DUP3 SWAP1 POP LT ISZERO PUSH2 0x2ED9 JUMPI PUSH1 0x40 MLOAD PUSH32 0x8C379A000000000000000000000000000000000000000000000000000000000 DUP2 MSTORE PUSH1 0x4 ADD PUSH2 0x2ED0 SWAP1 PUSH2 0x658D JUMP JUMPDEST PUSH1 0x40 MLOAD DUP1 SWAP2 SUB SWAP1 REVERT JUMPDEST DUP2 DUP2 PUSH1 0x0 SWAP1 PUSH1 0x14 SWAP3 PUSH2 0x2EED SWAP4 SWAP3 SWAP2 SWAP1 PUSH2 0x52B5 JUMP JUMPDEST SWAP1 PUSH2 0x2EF8 SWAP2 SWAP1 PUSH2 0x5334 JUMP JUMPDEST PUSH1 0x60 SHR DUP4 PUSH1 0xA0 ADD SWAP1 PUSH20 0xFFFFFFFFFFFFFFFFFFFFFFFFFFFFFFFFFFFFFFFF AND SWAP1 DUP2 PUSH20 0xFFFFFFFFFFFFFFFFFFFFFFFFFFFFFFFFFFFFFFFF AND DUP2 MSTORE POP POP PUSH2 0x2F71 JUMP JUMPDEST PUSH1 0x0 DUP4 PUSH1 0xA0 ADD SWAP1 PUSH20 0xFFFFFFFFFFFFFFFFFFFFFFFFFFFFFFFFFFFFFFFF AND SWAP1 DUP2 PUSH20 0xFFFFFFFFFFFFFFFFFFFFFFFFFFFFFFFFFFFFFFFF AND DUP2 MSTORE POP POP JUMPDEST POP POP POP POP JUMP JUMPDEST PUSH1 0x0 DUP1 PUSH1 0x0 PUSH20 0xFFFFFFFFFFFFFFFFFFFFFFFFFFFFFFFFFFFFFFFF AND DUP4 PUSH1 0xA0 ADD MLOAD PUSH20 0xFFFFFFFFFFFFFFFFFFFFFFFFFFFFFFFFFFFFFFFF AND SUB PUSH2 0x2FB9 JUMPI PUSH1 0x1 PUSH2 0x2FBC JUMP JUMPDEST PUSH1 0x3 JUMPDEST PUSH1 0xFF AND SWAP1 POP PUSH1 0x0 DUP4 PUSH1 0x80 ADD MLOAD DUP3 DUP6 PUSH1 0x60 ADD MLOAD MUL DUP6 PUSH1 0x40 ADD MLOAD ADD ADD SWAP1 POP DUP4 PUSH1 0xC0 ADD MLOAD DUP2 MUL SWAP3 POP POP POP SWAP2 SWAP1 POP JUMP JUMPDEST PUSH1 0x0 DUP1 PUSH1 0x0 GAS SWAP1 POP PUSH1 0x0 DUP6 PUSH1 0x0 ADD MLOAD SWAP1 POP PUSH1 0x0 DUP2 PUSH1 0x0 ADD MLOAD SWAP1 POP PUSH2 0x301C DUP10 DUP9 DUP11 DUP1 PUSH1 0x40 ADD SWAP1 PUSH2 0x3017 SWAP2 SWAP1 PUSH2 0x4DC9 JUMP JUMPDEST PUSH2 0x3711 JUMP JUMPDEST PUSH1 0x0 DUP3 PUSH1 0xA0 ADD MLOAD SWAP1 POP PUSH2 0x302D PUSH2 0x2CD9 JUMP JUMPDEST PUSH1 0x0 DUP1 PUSH20 0xFFFFFFFFFFFFFFFFFFFFFFFFFFFFFFFFFFFFFFFF AND DUP3 PUSH20 0xFFFFFFFFFFFFFFFFFFFFFFFFFFFFFFFFFFFFFFFF AND SUB PUSH2 0x3085 JUMPI PUSH1 0x0 PUSH2 0x306D DUP5 PUSH2 0x1417 JUMP JUMPDEST SWAP1 POP DUP9 DUP2 GT PUSH2 0x307E JUMPI DUP1 DUP10 SUB PUSH2 0x3081 JUMP JUMPDEST PUSH1 0x0 JUMPDEST SWAP2 POP POP JUMPDEST DUP3 PUSH20 0xFFFFFFFFFFFFFFFFFFFFFFFFFFFFFFFFFFFFFFFF AND PUSH4 0x3A871CDD DUP6 PUSH1 0x60 ADD MLOAD DUP13 DUP13 PUSH1 0x20 ADD MLOAD DUP6 PUSH1 0x40 MLOAD DUP6 PUSH4 0xFFFFFFFF AND PUSH1 0xE0 SHL DUP2 MSTORE PUSH1 0x4 ADD PUSH2 0x30CB SWAP4 SWAP3 SWAP2 SWAP1 PUSH2 0x6711 JUMP JUMPDEST PUSH1 0x20 PUSH1 0x40 MLOAD DUP1 DUP4 SUB DUP2 PUSH1 0x0 DUP9 DUP8 CALL SWAP4 POP POP POP POP DUP1 ISZERO PUSH2 0x3108 JUMPI POP PUSH1 0x40 MLOAD RETURNDATASIZE PUSH1 0x1F NOT PUSH1 0x1F DUP3 ADD AND DUP3 ADD DUP1 PUSH1 0x40 MSTORE POP DUP2 ADD SWAP1 PUSH2 0x3105 SWAP2 SWAP1 PUSH2 0x630E JUMP JUMPDEST PUSH1 0x1 JUMPDEST PUSH2 0x31D0 JUMPI PUSH2 0x3114 PUSH2 0x5BB7 JUMP JUMPDEST DUP1 PUSH4 0x8C379A0 SUB PUSH2 0x3191 JUMPI POP PUSH2 0x3128 PUSH2 0x5BD9 JUMP JUMPDEST DUP1 PUSH2 0x3133 JUMPI POP PUSH2 0x3193 JUMP JUMPDEST DUP12 DUP2 PUSH1 0x40 MLOAD PUSH1 0x20 ADD PUSH2 0x3145 SWAP2 SWAP1 PUSH2 0x6775 JUMP JUMPDEST PUSH1 0x40 MLOAD PUSH1 0x20 DUP2 DUP4 SUB SUB DUP2 MSTORE SWAP1 PUSH1 0x40 MSTORE PUSH1 0x40 MLOAD PUSH32 0x220266B600000000000000000000000000000000000000000000000000000000 DUP2 MSTORE PUSH1 0x4 ADD PUSH2 0x3188 SWAP3 SWAP2 SWAP1 PUSH2 0x5D35 JUMP JUMPDEST PUSH1 0x40 MLOAD DUP1 SWAP2 SUB SWAP1 REVERT JUMPDEST POP JUMPDEST DUP11 PUSH1 0x40 MLOAD PUSH32 0x220266B600000000000000000000000000000000000000000000000000000000 DUP2 MSTORE PUSH1 0x4 ADD PUSH2 0x31C7 SWAP2 SWAP1 PUSH2 0x67E7 JUMP JUMPDEST PUSH1 0x40 MLOAD DUP1 SWAP2 SUB SWAP1 REVERT JUMPDEST DUP1 SWAP7 POP POP PUSH1 0x0 PUSH20 0xFFFFFFFFFFFFFFFFFFFFFFFFFFFFFFFFFFFFFFFF AND DUP3 PUSH20 0xFFFFFFFFFFFFFFFFFFFFFFFFFFFFFFFFFFFFFFFF AND SUB PUSH2 0x32FE JUMPI PUSH1 0x0 DUP1 PUSH1 0x0 DUP6 PUSH20 0xFFFFFFFFFFFFFFFFFFFFFFFFFFFFFFFFFFFFFFFF AND PUSH20 0xFFFFFFFFFFFFFFFFFFFFFFFFFFFFFFFFFFFFFFFF AND DUP2 MSTORE PUSH1 0x20 ADD SWAP1 DUP2 MSTORE PUSH1 0x20 ADD PUSH1 0x0 KECCAK256 SWAP1 POP PUSH1 0x0 DUP2 PUSH1 0x0 ADD PUSH1 0x0 SWAP1 SLOAD SWAP1 PUSH2 0x100 EXP SWAP1 DIV PUSH14 0xFFFFFFFFFFFFFFFFFFFFFFFFFFFF AND PUSH14 0xFFFFFFFFFFFFFFFFFFFFFFFFFFFF AND SWAP1 POP DUP1 DUP11 GT ISZERO PUSH2 0x32C2 JUMPI DUP13 PUSH1 0x40 MLOAD PUSH32 0x220266B600000000000000000000000000000000000000000000000000000000 DUP2 MSTORE PUSH1 0x4 ADD PUSH2 0x32B9 SWAP2 SWAP1 PUSH2 0x6861 JUMP JUMPDEST PUSH1 0x40 MLOAD DUP1 SWAP2 SUB SWAP1 REVERT JUMPDEST DUP10 DUP2 SUB DUP3 PUSH1 0x0 ADD PUSH1 0x0 PUSH2 0x100 EXP DUP2 SLOAD DUP2 PUSH14 0xFFFFFFFFFFFFFFFFFFFFFFFFFFFF MUL NOT AND SWAP1 DUP4 PUSH14 0xFFFFFFFFFFFFFFFFFFFFFFFFFFFF AND MUL OR SWAP1 SSTORE POP POP POP JUMPDEST GAS DUP6 SUB SWAP7 POP POP POP POP POP POP SWAP5 POP SWAP5 SWAP3 POP POP POP JUMP JUMPDEST PUSH1 0x60 PUSH1 0x0 DUP1 DUP6 PUSH1 0x0 ADD MLOAD SWAP1 POP PUSH1 0x0 DUP2 PUSH1 0x60 ADD MLOAD SWAP1 POP DUP5 DUP2 GT PUSH2 0x3368 JUMPI PUSH1 0x40 MLOAD PUSH32 0x8C379A000000000000000000000000000000000000000000000000000000000 DUP2 MSTORE PUSH1 0x4 ADD PUSH2 0x335F SWAP1 PUSH2 0x68DB JUMP JUMPDEST PUSH1 0x40 MLOAD DUP1 SWAP2 SUB SWAP1 REVERT JUMPDEST PUSH1 0x0 DUP6 DUP3 SUB SWAP1 POP PUSH1 0x0 DUP4 PUSH1 0xA0 ADD MLOAD SWAP1 POP PUSH1 0x0 DUP1 PUSH1 0x0 DUP4 PUSH20 0xFFFFFFFFFFFFFFFFFFFFFFFFFFFFFFFFFFFFFFFF AND PUSH20 0xFFFFFFFFFFFFFFFFFFFFFFFFFFFFFFFFFFFFFFFF AND DUP2 MSTORE PUSH1 0x20 ADD SWAP1 DUP2 MSTORE PUSH1 0x20 ADD PUSH1 0x0 KECCAK256 SWAP1 POP PUSH1 0x0 DUP2 PUSH1 0x0 ADD PUSH1 0x0 SWAP1 SLOAD SWAP1 PUSH2 0x100 EXP SWAP1 DIV PUSH14 0xFFFFFFFFFFFFFFFFFFFFFFFFFFFF AND PUSH14 0xFFFFFFFFFFFFFFFFFFFFFFFFFFFF AND SWAP1 POP DUP10 DUP2 LT ISZERO PUSH2 0x3432 JUMPI DUP13 PUSH1 0x40 MLOAD PUSH32 0x220266B600000000000000000000000000000000000000000000000000000000 DUP2 MSTORE PUSH1 0x4 ADD PUSH2 0x3429 SWAP2 SWAP1 PUSH2 0x6947 JUMP JUMPDEST PUSH1 0x40 MLOAD DUP1 SWAP2 SUB SWAP1 REVERT JUMPDEST DUP10 DUP2 SUB DUP3 PUSH1 0x0 ADD PUSH1 0x0 PUSH2 0x100 EXP DUP2 SLOAD DUP2 PUSH14 0xFFFFFFFFFFFFFFFFFFFFFFFFFFFF MUL NOT AND SWAP1 DUP4 PUSH14 0xFFFFFFFFFFFFFFFFFFFFFFFFFFFF AND MUL OR SWAP1 SSTORE POP DUP3 PUSH20 0xFFFFFFFFFFFFFFFFFFFFFFFFFFFFFFFFFFFFFFFF AND PUSH4 0xF465C77E DUP6 DUP15 DUP15 PUSH1 0x20 ADD MLOAD DUP15 PUSH1 0x40 MLOAD DUP6 PUSH4 0xFFFFFFFF AND PUSH1 0xE0 SHL DUP2 MSTORE PUSH1 0x4 ADD PUSH2 0x34AD SWAP4 SWAP3 SWAP2 SWAP1 PUSH2 0x6711 JUMP JUMPDEST PUSH1 0x0 PUSH1 0x40 MLOAD DUP1 DUP4 SUB DUP2 PUSH1 0x0 DUP9 DUP8 CALL SWAP4 POP POP POP POP DUP1 ISZERO PUSH2 0x34EF JUMPI POP PUSH1 0x40 MLOAD RETURNDATASIZE PUSH1 0x0 DUP3 RETURNDATACOPY RETURNDATASIZE PUSH1 0x1F NOT PUSH1 0x1F DUP3 ADD AND DUP3 ADD DUP1 PUSH1 0x40 MSTORE POP DUP2 ADD SWAP1 PUSH2 0x34EC SWAP2 SWAP1 PUSH2 0x69E5 JUMP JUMPDEST PUSH1 0x1 JUMPDEST PUSH2 0x35B7 JUMPI PUSH2 0x34FB PUSH2 0x5BB7 JUMP JUMPDEST DUP1 PUSH4 0x8C379A0 SUB PUSH2 0x3578 JUMPI POP PUSH2 0x350F PUSH2 0x5BD9 JUMP JUMPDEST DUP1 PUSH2 0x351A JUMPI POP PUSH2 0x357A JUMP JUMPDEST DUP14 DUP2 PUSH1 0x40 MLOAD PUSH1 0x20 ADD PUSH2 0x352C SWAP2 SWAP1 PUSH2 0x6A67 JUMP JUMPDEST PUSH1 0x40 MLOAD PUSH1 0x20 DUP2 DUP4 SUB SUB DUP2 MSTORE SWAP1 PUSH1 0x40 MSTORE PUSH1 0x40 MLOAD PUSH32 0x220266B600000000000000000000000000000000000000000000000000000000 DUP2 MSTORE PUSH1 0x4 ADD PUSH2 0x356F SWAP3 SWAP2 SWAP1 PUSH2 0x5D35 JUMP JUMPDEST PUSH1 0x40 MLOAD DUP1 SWAP2 SUB SWAP1 REVERT JUMPDEST POP JUMPDEST DUP13 PUSH1 0x40 MLOAD PUSH32 0x220266B600000000000000000000000000000000000000000000000000000000 DUP2 MSTORE PUSH1 0x4 ADD PUSH2 0x35AE SWAP2 SWAP1 PUSH2 0x6AD9 JUMP JUMPDEST PUSH1 0x40 MLOAD DUP1 SWAP2 SUB SWAP1 REVERT JUMPDEST DUP2 SWAP10 POP DUP1 SWAP9 POP POP POP POP POP POP POP POP POP SWAP6 POP SWAP6 SWAP4 POP POP POP POP JUMP JUMPDEST PUSH1 0x0 DUP2 SWAP1 POP SWAP2 SWAP1 POP JUMP JUMPDEST PUSH1 0x0 DUP1 PUSH1 0x0 DUP4 SUB PUSH2 0x35F0 JUMPI PUSH1 0x0 DUP1 SWAP2 POP SWAP2 POP PUSH2 0x362D JUMP JUMPDEST PUSH1 0x0 PUSH2 0x35FB DUP5 PUSH2 0x3674 JUMP JUMPDEST SWAP1 POP DUP1 PUSH1 0x40 ADD MLOAD PUSH6 0xFFFFFFFFFFFF AND TIMESTAMP GT DUP1 PUSH2 0x3622 JUMPI POP DUP1 PUSH1 0x20 ADD MLOAD PUSH6 0xFFFFFFFFFFFF AND TIMESTAMP LT JUMPDEST SWAP2 POP DUP1 PUSH1 0x0 ADD MLOAD SWAP3 POP POP JUMPDEST SWAP2 POP SWAP2 JUMP JUMPDEST PUSH1 0x60 CALLDATASIZE PUSH1 0x0 DUP4 DUP1 PUSH2 0x140 ADD SWAP1 PUSH2 0x3648 SWAP2 SWAP1 PUSH2 0x4DC9 JUMP JUMPDEST SWAP2 POP SWAP2 POP DUP4 PUSH1 0x20 DUP2 DUP5 SUB SUB PUSH1 0x40 MLOAD SWAP5 POP PUSH1 0x20 DUP2 ADD DUP6 ADD PUSH1 0x40 MSTORE DUP1 DUP6 MSTORE DUP1 DUP3 PUSH1 0x20 DUP8 ADD CALLDATACOPY POP POP POP POP SWAP2 SWAP1 POP JUMP JUMPDEST PUSH2 0x367C PUSH2 0x3AAC JUMP JUMPDEST PUSH1 0x0 DUP3 SWAP1 POP PUSH1 0x0 PUSH1 0xA0 DUP5 SWAP1 SHR SWAP1 POP PUSH1 0x0 DUP2 PUSH6 0xFFFFFFFFFFFF AND SUB PUSH2 0x36A4 JUMPI PUSH6 0xFFFFFFFFFFFF SWAP1 POP JUMPDEST PUSH1 0x0 PUSH1 0xD0 DUP6 SWAP1 SHR SWAP1 POP PUSH1 0x40 MLOAD DUP1 PUSH1 0x60 ADD PUSH1 0x40 MSTORE DUP1 DUP5 PUSH20 0xFFFFFFFFFFFFFFFFFFFFFFFFFFFFFFFFFFFFFFFF AND DUP2 MSTORE PUSH1 0x20 ADD DUP3 PUSH6 0xFFFFFFFFFFFF AND DUP2 MSTORE PUSH1 0x20 ADD DUP4 PUSH6 0xFFFFFFFFFFFF AND DUP2 MSTORE POP SWAP4 POP POP POP POP SWAP2 SWAP1 POP JUMP JUMPDEST PUSH1 0x0 DUP2 DUP4 LT PUSH2 0x3707 JUMPI DUP2 PUSH2 0x3709 JUMP JUMPDEST DUP3 JUMPDEST SWAP1 POP SWAP3 SWAP2 POP POP JUMP JUMPDEST PUSH1 0x0 DUP3 DUP3 SWAP1 POP EQ PUSH2 0x39F5 JUMPI PUSH1 0x0 DUP4 PUSH1 0x0 ADD MLOAD PUSH1 0x0 ADD MLOAD SWAP1 POP PUSH1 0x0 DUP2 PUSH20 0xFFFFFFFFFFFFFFFFFFFFFFFFFFFFFFFFFFFFFFFF AND EXTCODESIZE EQ PUSH2 0x3785 JUMPI DUP5 PUSH1 0x40 MLOAD PUSH32 0x220266B600000000000000000000000000000000000000000000000000000000 DUP2 MSTORE PUSH1 0x4 ADD PUSH2 0x377C SWAP2 SWAP1 PUSH2 0x6B53 JUMP JUMPDEST PUSH1 0x40 MLOAD DUP1 SWAP2 SUB SWAP1 REVERT JUMPDEST PUSH1 0x0 PUSH32 0x0 PUSH20 0xFFFFFFFFFFFFFFFFFFFFFFFFFFFFFFFFFFFFFFFF AND PUSH4 0x570E1A36 DUP7 PUSH1 0x0 ADD MLOAD PUSH1 0x60 ADD MLOAD DUP7 DUP7 PUSH1 0x40 MLOAD DUP5 PUSH4 0xFFFFFFFF AND PUSH1 0xE0 SHL DUP2 MSTORE PUSH1 0x4 ADD PUSH2 0x37EB SWAP3 SWAP2 SWAP1 PUSH2 0x5442 JUMP JUMPDEST PUSH1 0x20 PUSH1 0x40 MLOAD DUP1 DUP4 SUB DUP2 PUSH1 0x0 DUP9 DUP8 CALL ISZERO DUP1 ISZERO PUSH2 0x380A JUMPI RETURNDATASIZE PUSH1 0x0 DUP1 RETURNDATACOPY RETURNDATASIZE PUSH1 0x0 REVERT JUMPDEST POP POP POP POP POP PUSH1 0x40 MLOAD RETURNDATASIZE PUSH1 0x1F NOT PUSH1 0x1F DUP3 ADD AND DUP3 ADD DUP1 PUSH1 0x40 MSTORE POP DUP2 ADD SWAP1 PUSH2 0x382F SWAP2 SWAP1 PUSH2 0x547B JUMP JUMPDEST SWAP1 POP PUSH1 0x0 PUSH20 0xFFFFFFFFFFFFFFFFFFFFFFFFFFFFFFFFFFFFFFFF AND DUP2 PUSH20 0xFFFFFFFFFFFFFFFFFFFFFFFFFFFFFFFFFFFFFFFF AND SUB PUSH2 0x38A2 JUMPI DUP6 PUSH1 0x40 MLOAD PUSH32 0x220266B600000000000000000000000000000000000000000000000000000000 DUP2 MSTORE PUSH1 0x4 ADD PUSH2 0x3899 SWAP2 SWAP1 PUSH2 0x6BCD JUMP JUMPDEST PUSH1 0x40 MLOAD DUP1 SWAP2 SUB SWAP1 REVERT JUMPDEST DUP2 PUSH20 0xFFFFFFFFFFFFFFFFFFFFFFFFFFFFFFFFFFFFFFFF AND DUP2 PUSH20 0xFFFFFFFFFFFFFFFFFFFFFFFFFFFFFFFFFFFFFFFF AND EQ PUSH2 0x3912 JUMPI DUP6 PUSH1 0x40 MLOAD PUSH32 0x220266B600000000000000000000000000000000000000000000000000000000 DUP2 MSTORE PUSH1 0x4 ADD PUSH2 0x3909 SWAP2 SWAP1 PUSH2 0x6C47 JUMP JUMPDEST PUSH1 0x40 MLOAD DUP1 SWAP2 SUB SWAP1 REVERT JUMPDEST PUSH1 0x0 DUP2 PUSH20 0xFFFFFFFFFFFFFFFFFFFFFFFFFFFFFFFFFFFFFFFF AND EXTCODESIZE SUB PUSH2 0x396E JUMPI DUP6 PUSH1 0x40 MLOAD PUSH32 0x220266B600000000000000000000000000000000000000000000000000000000 DUP2 MSTORE PUSH1 0x4 ADD PUSH2 0x3965 SWAP2 SWAP1 PUSH2 0x6CC1 JUMP JUMPDEST PUSH1 0x40 MLOAD DUP1 SWAP2 SUB SWAP1 REVERT JUMPDEST PUSH1 0x0 DUP5 DUP5 PUSH1 0x0 SWAP1 PUSH1 0x14 SWAP3 PUSH2 0x3984 SWAP4 SWAP3 SWAP2 SWAP1 PUSH2 0x52B5 JUMP JUMPDEST SWAP1 PUSH2 0x398F SWAP2 SWAP1 PUSH2 0x5334 JUMP JUMPDEST PUSH1 0x60 SHR SWAP1 POP DUP3 PUSH20 0xFFFFFFFFFFFFFFFFFFFFFFFFFFFFFFFFFFFFFFFF AND DUP7 PUSH1 0x20 ADD MLOAD PUSH32 0xD51A9C61267AA6196961883ECF5FF2DA6619C37DAC0FA92122513FB32C032D2D DUP4 DUP10 PUSH1 0x0 ADD MLOAD PUSH1 0xA0 ADD MLOAD PUSH1 0x40 MLOAD PUSH2 0x39E9 SWAP3 SWAP2 SWAP1 PUSH2 0x6CEF JUMP JUMPDEST PUSH1 0x40 MLOAD DUP1 SWAP2 SUB SWAP1 LOG3 POP POP POP JUMPDEST POP POP POP POP JUMP JUMPDEST PUSH1 0x40 MLOAD DUP1 PUSH1 0xA0 ADD PUSH1 0x40 MSTORE DUP1 PUSH2 0x3A0E PUSH2 0x3AF3 JUMP JUMPDEST DUP2 MSTORE PUSH1 0x20 ADD PUSH1 0x0 DUP1 NOT AND DUP2 MSTORE PUSH1 0x20 ADD PUSH1 0x0 DUP2 MSTORE PUSH1 0x20 ADD PUSH1 0x0 DUP2 MSTORE PUSH1 0x20 ADD PUSH1 0x0 DUP2 MSTORE POP SWAP1 JUMP JUMPDEST PUSH1 0x40 MLOAD DUP1 PUSH1 0xA0 ADD PUSH1 0x40 MSTORE DUP1 PUSH1 0x0 PUSH14 0xFFFFFFFFFFFFFFFFFFFFFFFFFFFF AND DUP2 MSTORE PUSH1 0x20 ADD PUSH1 0x0 ISZERO ISZERO DUP2 MSTORE PUSH1 0x20 ADD PUSH1 0x0 PUSH14 0xFFFFFFFFFFFFFFFFFFFFFFFFFFFF AND DUP2 MSTORE PUSH1 0x20 ADD PUSH1 0x0 PUSH4 0xFFFFFFFF AND DUP2 MSTORE PUSH1 0x20 ADD PUSH1 0x0 PUSH6 0xFFFFFFFFFFFF AND DUP2 MSTORE POP SWAP1 JUMP JUMPDEST PUSH1 0x40 MLOAD DUP1 PUSH1 0x40 ADD PUSH1 0x40 MSTORE DUP1 PUSH1 0x0 DUP2 MSTORE PUSH1 0x20 ADD PUSH1 0x0 DUP2 MSTORE POP SWAP1 JUMP JUMPDEST PUSH1 0x40 MLOAD DUP1 PUSH1 0x60 ADD PUSH1 0x40 MSTORE DUP1 PUSH1 0x0 PUSH20 0xFFFFFFFFFFFFFFFFFFFFFFFFFFFFFFFFFFFFFFFF AND DUP2 MSTORE PUSH1 0x20 ADD PUSH1 0x0 PUSH6 0xFFFFFFFFFFFF AND DUP2 MSTORE PUSH1 0x20 ADD PUSH1 0x0 PUSH6 0xFFFFFFFFFFFF AND DUP2 MSTORE POP SWAP1 JUMP JUMPDEST PUSH1 0x40 MLOAD DUP1 PUSH2 0x100 ADD PUSH1 0x40 MSTORE DUP1 PUSH1 0x0 PUSH20 0xFFFFFFFFFFFFFFFFFFFFFFFFFFFFFFFFFFFFFFFF AND DUP2 MSTORE PUSH1 0x20 ADD PUSH1 0x0 DUP2 MSTORE PUSH1 0x20 ADD PUSH1 0x0 DUP2 MSTORE PUSH1 0x20 ADD PUSH1 0x0 DUP2 MSTORE PUSH1 0x20 ADD PUSH1 0x0 DUP2 MSTORE PUSH1 0x20 ADD PUSH1 0x0 PUSH20 0xFFFFFFFFFFFFFFFFFFFFFFFFFFFFFFFFFFFFFFFF AND DUP2 MSTORE PUSH1 0x20 ADD PUSH1 0x0 DUP2 MSTORE PUSH1 0x20 ADD PUSH1 0x0 DUP2 MSTORE POP SWAP1 JUMP JUMPDEST PUSH1 0x0 PUSH1 0x40 MLOAD SWAP1 POP SWAP1 JUMP JUMPDEST PUSH1 0x0 DUP1 REVERT JUMPDEST PUSH1 0x0 DUP1 REVERT JUMPDEST PUSH1 0x0 PUSH4 0xFFFFFFFF DUP3 AND SWAP1 POP SWAP2 SWAP1 POP JUMP JUMPDEST PUSH2 0x3B91 DUP2 PUSH2 0x3B78 JUMP JUMPDEST DUP2 EQ PUSH2 0x3B9C JUMPI PUSH1 0x0 DUP1 REVERT JUMPDEST POP JUMP JUMPDEST PUSH1 0x0 DUP2 CALLDATALOAD SWAP1 POP PUSH2 0x3BAE DUP2 PUSH2 0x3B88 JUMP JUMPDEST SWAP3 SWAP2 POP POP JUMP JUMPDEST PUSH1 0x0 PUSH1 0x20 DUP3 DUP5 SUB SLT ISZERO PUSH2 0x3BCA JUMPI PUSH2 0x3BC9 PUSH2 0x3B6E JUMP JUMPDEST JUMPDEST PUSH1 0x0 PUSH2 0x3BD8 DUP5 DUP3 DUP6 ADD PUSH2 0x3B9F JUMP JUMPDEST SWAP2 POP POP SWAP3 SWAP2 POP POP JUMP JUMPDEST PUSH1 0x0 DUP1 REVERT JUMPDEST PUSH1 0x0 DUP1 REVERT JUMPDEST PUSH1 0x0 PUSH1 0x1F NOT PUSH1 0x1F DUP4 ADD AND SWAP1 POP SWAP2 SWAP1 POP JUMP JUMPDEST PUSH32 0x4E487B7100000000000000000000000000000000000000000000000000000000 PUSH1 0x0 MSTORE PUSH1 0x41 PUSH1 0x4 MSTORE PUSH1 0x24 PUSH1 0x0 REVERT JUMPDEST PUSH2 0x3C34 DUP3 PUSH2 0x3BEB JUMP JUMPDEST DUP2 ADD DUP2 DUP2 LT PUSH8 0xFFFFFFFFFFFFFFFF DUP3 GT OR ISZERO PUSH2 0x3C53 JUMPI PUSH2 0x3C52 PUSH2 0x3BFC JUMP JUMPDEST JUMPDEST DUP1 PUSH1 0x40 MSTORE POP POP POP JUMP JUMPDEST PUSH1 0x0 PUSH2 0x3C66 PUSH2 0x3B64 JUMP JUMPDEST SWAP1 POP PUSH2 0x3C72 DUP3 DUP3 PUSH2 0x3C2B JUMP JUMPDEST SWAP2 SWAP1 POP JUMP JUMPDEST PUSH1 0x0 PUSH8 0xFFFFFFFFFFFFFFFF DUP3 GT ISZERO PUSH2 0x3C92 JUMPI PUSH2 0x3C91 PUSH2 0x3BFC JUMP JUMPDEST JUMPDEST PUSH2 0x3C9B DUP3 PUSH2 0x3BEB JUMP JUMPDEST SWAP1 POP PUSH1 0x20 DUP2 ADD SWAP1 POP SWAP2 SWAP1 POP JUMP JUMPDEST DUP3 DUP2 DUP4 CALLDATACOPY PUSH1 0x0 DUP4 DUP4 ADD MSTORE POP POP POP JUMP JUMPDEST PUSH1 0x0 PUSH2 0x3CCA PUSH2 0x3CC5 DUP5 PUSH2 0x3C77 JUMP JUMPDEST PUSH2 0x3C5C JUMP JUMPDEST SWAP1 POP DUP3 DUP2 MSTORE PUSH1 0x20 DUP2 ADD DUP5 DUP5 DUP5 ADD GT ISZERO PUSH2 0x3CE6 JUMPI PUSH2 0x3CE5 PUSH2 0x3BE6 JUMP JUMPDEST JUMPDEST PUSH2 0x3CF1 DUP5 DUP3 DUP6 PUSH2 0x3CA8 JUMP JUMPDEST POP SWAP4 SWAP3 POP POP POP JUMP JUMPDEST PUSH1 0x0 DUP3 PUSH1 0x1F DUP4 ADD SLT PUSH2 0x3D0E JUMPI PUSH2 0x3D0D PUSH2 0x3BE1 JUMP JUMPDEST JUMPDEST DUP2 CALLDATALOAD PUSH2 0x3D1E DUP5 DUP3 PUSH1 0x20 DUP7 ADD PUSH2 0x3CB7 JUMP JUMPDEST SWAP2 POP POP SWAP3 SWAP2 POP POP JUMP JUMPDEST PUSH1 0x0 DUP1 REVERT JUMPDEST PUSH1 0x0 PUSH20 0xFFFFFFFFFFFFFFFFFFFFFFFFFFFFFFFFFFFFFFFF DUP3 AND SWAP1 POP SWAP2 SWAP1 POP JUMP JUMPDEST PUSH1 0x0 PUSH2 0x3D57 DUP3 PUSH2 0x3D2C JUMP JUMPDEST SWAP1 POP SWAP2 SWAP1 POP JUMP JUMPDEST PUSH2 0x3D67 DUP2 PUSH2 0x3D4C JUMP JUMPDEST DUP2 EQ PUSH2 0x3D72 JUMPI PUSH1 0x0 DUP1 REVERT JUMPDEST POP JUMP JUMPDEST PUSH1 0x0 DUP2 CALLDATALOAD SWAP1 POP PUSH2 0x3D84 DUP2 PUSH2 0x3D5E JUMP JUMPDEST SWAP3 SWAP2 POP POP JUMP JUMPDEST PUSH1 0x0 DUP2 SWAP1 POP SWAP2 SWAP1 POP JUMP JUMPDEST PUSH2 0x3D9D DUP2 PUSH2 0x3D8A JUMP JUMPDEST DUP2 EQ PUSH2 0x3DA8 JUMPI PUSH1 0x0 DUP1 REVERT JUMPDEST POP JUMP JUMPDEST PUSH1 0x0 DUP2 CALLDATALOAD SWAP1 POP PUSH2 0x3DBA DUP2 PUSH2 0x3D94 JUMP JUMPDEST SWAP3 SWAP2 POP POP JUMP JUMPDEST PUSH1 0x0 PUSH2 0x100 DUP3 DUP5 SUB SLT ISZERO PUSH2 0x3DD7 JUMPI PUSH2 0x3DD6 PUSH2 0x3D27 JUMP JUMPDEST JUMPDEST PUSH2 0x3DE2 PUSH2 0x100 PUSH2 0x3C5C JUMP JUMPDEST SWAP1 POP PUSH1 0x0 PUSH2 0x3DF2 DUP5 DUP3 DUP6 ADD PUSH2 0x3D75 JUMP JUMPDEST PUSH1 0x0 DUP4 ADD MSTORE POP PUSH1 0x20 PUSH2 0x3E06 DUP5 DUP3 DUP6 ADD PUSH2 0x3DAB JUMP JUMPDEST PUSH1 0x20 DUP4 ADD MSTORE POP PUSH1 0x40 PUSH2 0x3E1A DUP5 DUP3 DUP6 ADD PUSH2 0x3DAB JUMP JUMPDEST PUSH1 0x40 DUP4 ADD MSTORE POP PUSH1 0x60 PUSH2 0x3E2E DUP5 DUP3 DUP6 ADD PUSH2 0x3DAB JUMP JUMPDEST PUSH1 0x60 DUP4 ADD MSTORE POP PUSH1 0x80 PUSH2 0x3E42 DUP5 DUP3 DUP6 ADD PUSH2 0x3DAB JUMP JUMPDEST PUSH1 0x80 DUP4 ADD MSTORE POP PUSH1 0xA0 PUSH2 0x3E56 DUP5 DUP3 DUP6 ADD PUSH2 0x3D75 JUMP JUMPDEST PUSH1 0xA0 DUP4 ADD MSTORE POP PUSH1 0xC0 PUSH2 0x3E6A DUP5 DUP3 DUP6 ADD PUSH2 0x3DAB JUMP JUMPDEST PUSH1 0xC0 DUP4 ADD MSTORE POP PUSH1 0xE0 PUSH2 0x3E7E DUP5 DUP3 DUP6 ADD PUSH2 0x3DAB JUMP JUMPDEST PUSH1 0xE0 DUP4 ADD MSTORE POP SWAP3 SWAP2 POP POP JUMP JUMPDEST PUSH1 0x0 DUP2 SWAP1 POP SWAP2 SWAP1 POP JUMP JUMPDEST PUSH2 0x3E9D DUP2 PUSH2 0x3E8A JUMP JUMPDEST DUP2 EQ PUSH2 0x3EA8 JUMPI PUSH1 0x0 DUP1 REVERT JUMPDEST POP JUMP JUMPDEST PUSH1 0x0 DUP2 CALLDATALOAD SWAP1 POP PUSH2 0x3EBA DUP2 PUSH2 0x3E94 JUMP JUMPDEST SWAP3 SWAP2 POP POP JUMP JUMPDEST PUSH1 0x0 PUSH2 0x180 DUP3 DUP5 SUB SLT ISZERO PUSH2 0x3ED7 JUMPI PUSH2 0x3ED6 PUSH2 0x3D27 JUMP JUMPDEST JUMPDEST PUSH2 0x3EE1 PUSH1 0xA0 PUSH2 0x3C5C JUMP JUMPDEST SWAP1 POP PUSH1 0x0 PUSH2 0x3EF1 DUP5 DUP3 DUP6 ADD PUSH2 0x3DC0 JUMP JUMPDEST PUSH1 0x0 DUP4 ADD MSTORE POP PUSH2 0x100 PUSH2 0x3F06 DUP5 DUP3 DUP6 ADD PUSH2 0x3EAB JUMP JUMPDEST PUSH1 0x20 DUP4 ADD MSTORE POP PUSH2 0x120 PUSH2 0x3F1B DUP5 DUP3 DUP6 ADD PUSH2 0x3DAB JUMP JUMPDEST PUSH1 0x40 DUP4 ADD MSTORE POP PUSH2 0x140 PUSH2 0x3F30 DUP5 DUP3 DUP6 ADD PUSH2 0x3DAB JUMP JUMPDEST PUSH1 0x60 DUP4 ADD MSTORE POP PUSH2 0x160 PUSH2 0x3F45 DUP5 DUP3 DUP6 ADD PUSH2 0x3DAB JUMP JUMPDEST PUSH1 0x80 DUP4 ADD MSTORE POP SWAP3 SWAP2 POP POP JUMP JUMPDEST PUSH1 0x0 DUP1 REVERT JUMPDEST PUSH1 0x0 DUP1 REVERT JUMPDEST PUSH1 0x0 DUP1 DUP4 PUSH1 0x1F DUP5 ADD SLT PUSH2 0x3F71 JUMPI PUSH2 0x3F70 PUSH2 0x3BE1 JUMP JUMPDEST JUMPDEST DUP3 CALLDATALOAD SWAP1 POP PUSH8 0xFFFFFFFFFFFFFFFF DUP2 GT ISZERO PUSH2 0x3F8E JUMPI PUSH2 0x3F8D PUSH2 0x3F51 JUMP JUMPDEST JUMPDEST PUSH1 0x20 DUP4 ADD SWAP2 POP DUP4 PUSH1 0x1 DUP3 MUL DUP4 ADD GT ISZERO PUSH2 0x3FAA JUMPI PUSH2 0x3FA9 PUSH2 0x3F56 JUMP JUMPDEST JUMPDEST SWAP3 POP SWAP3 SWAP1 POP JUMP JUMPDEST PUSH1 0x0 DUP1 PUSH1 0x0 DUP1 PUSH2 0x1C0 DUP6 DUP8 SUB SLT ISZERO PUSH2 0x3FCC JUMPI PUSH2 0x3FCB PUSH2 0x3B6E JUMP JUMPDEST JUMPDEST PUSH1 0x0 DUP6 ADD CALLDATALOAD PUSH8 0xFFFFFFFFFFFFFFFF DUP2 GT ISZERO PUSH2 0x3FEA JUMPI PUSH2 0x3FE9 PUSH2 0x3B73 JUMP JUMPDEST JUMPDEST PUSH2 0x3FF6 DUP8 DUP3 DUP9 ADD PUSH2 0x3CF9 JUMP JUMPDEST SWAP5 POP POP PUSH1 0x20 PUSH2 0x4007 DUP8 DUP3 DUP9 ADD PUSH2 0x3EC0 JUMP JUMPDEST SWAP4 POP POP PUSH2 0x1A0 DUP6 ADD CALLDATALOAD PUSH8 0xFFFFFFFFFFFFFFFF DUP2 GT ISZERO PUSH2 0x4029 JUMPI PUSH2 0x4028 PUSH2 0x3B73 JUMP JUMPDEST JUMPDEST PUSH2 0x4035 DUP8 DUP3 DUP9 ADD PUSH2 0x3F5B JUMP JUMPDEST SWAP3 POP SWAP3 POP POP SWAP3 SWAP6 SWAP2 SWAP5 POP SWAP3 POP JUMP JUMPDEST PUSH2 0x404C DUP2 PUSH2 0x3D8A JUMP JUMPDEST DUP3 MSTORE POP POP JUMP JUMPDEST PUSH1 0x0 PUSH1 0x20 DUP3 ADD SWAP1 POP PUSH2 0x4067 PUSH1 0x0 DUP4 ADD DUP5 PUSH2 0x4043 JUMP JUMPDEST SWAP3 SWAP2 POP POP JUMP JUMPDEST PUSH1 0x0 DUP1 DUP4 PUSH1 0x1F DUP5 ADD SLT PUSH2 0x4083 JUMPI PUSH2 0x4082 PUSH2 0x3BE1 JUMP JUMPDEST JUMPDEST DUP3 CALLDATALOAD SWAP1 POP PUSH8 0xFFFFFFFFFFFFFFFF DUP2 GT ISZERO PUSH2 0x40A0 JUMPI PUSH2 0x409F PUSH2 0x3F51 JUMP JUMPDEST JUMPDEST PUSH1 0x20 DUP4 ADD SWAP2 POP DUP4 PUSH1 0x20 DUP3 MUL DUP4 ADD GT ISZERO PUSH2 0x40BC JUMPI PUSH2 0x40BB PUSH2 0x3F56 JUMP JUMPDEST JUMPDEST SWAP3 POP SWAP3 SWAP1 POP JUMP JUMPDEST PUSH1 0x0 PUSH2 0x40CE DUP3 PUSH2 0x3D2C JUMP JUMPDEST SWAP1 POP SWAP2 SWAP1 POP JUMP JUMPDEST PUSH2 0x40DE DUP2 PUSH2 0x40C3 JUMP JUMPDEST DUP2 EQ PUSH2 0x40E9 JUMPI PUSH1 0x0 DUP1 REVERT JUMPDEST POP JUMP JUMPDEST PUSH1 0x0 DUP2 CALLDATALOAD SWAP1 POP PUSH2 0x40FB DUP2 PUSH2 0x40D5 JUMP JUMPDEST SWAP3 SWAP2 POP POP JUMP JUMPDEST PUSH1 0x0 DUP1 PUSH1 0x0 PUSH1 0x40 DUP5 DUP7 SUB SLT ISZERO PUSH2 0x411A JUMPI PUSH2 0x4119 PUSH2 0x3B6E JUMP JUMPDEST JUMPDEST PUSH1 0x0 DUP5 ADD CALLDATALOAD PUSH8 0xFFFFFFFFFFFFFFFF DUP2 GT ISZERO PUSH2 0x4138 JUMPI PUSH2 0x4137 PUSH2 0x3B73 JUMP JUMPDEST JUMPDEST PUSH2 0x4144 DUP7 DUP3 DUP8 ADD PUSH2 0x406D JUMP JUMPDEST SWAP4 POP SWAP4 POP POP PUSH1 0x20 PUSH2 0x4157 DUP7 DUP3 DUP8 ADD PUSH2 0x40EC JUMP JUMPDEST SWAP2 POP POP SWAP3 POP SWAP3 POP SWAP3 JUMP JUMPDEST PUSH1 0x0 DUP1 PUSH1 0x40 DUP4 DUP6 SUB SLT ISZERO PUSH2 0x4178 JUMPI PUSH2 0x4177 PUSH2 0x3B6E JUMP JUMPDEST JUMPDEST PUSH1 0x0 PUSH2 0x4186 DUP6 DUP3 DUP7 ADD PUSH2 0x40EC JUMP JUMPDEST SWAP3 POP POP PUSH1 0x20 PUSH2 0x4197 DUP6 DUP3 DUP7 ADD PUSH2 0x3DAB JUMP JUMPDEST SWAP2 POP POP SWAP3 POP SWAP3 SWAP1 POP JUMP JUMPDEST PUSH1 0x0 DUP1 DUP4 PUSH1 0x1F DUP5 ADD SLT PUSH2 0x41B7 JUMPI PUSH2 0x41B6 PUSH2 0x3BE1 JUMP JUMPDEST JUMPDEST DUP3 CALLDATALOAD SWAP1 POP PUSH8 0xFFFFFFFFFFFFFFFF DUP2 GT ISZERO PUSH2 0x41D4 JUMPI PUSH2 0x41D3 PUSH2 0x3F51 JUMP JUMPDEST JUMPDEST PUSH1 0x20 DUP4 ADD SWAP2 POP DUP4 PUSH1 0x20 DUP3 MUL DUP4 ADD GT ISZERO PUSH2 0x41F0 JUMPI PUSH2 0x41EF PUSH2 0x3F56 JUMP JUMPDEST JUMPDEST SWAP3 POP SWAP3 SWAP1 POP JUMP JUMPDEST PUSH1 0x0 DUP1 PUSH1 0x0 PUSH1 0x40 DUP5 DUP7 SUB SLT ISZERO PUSH2 0x4210 JUMPI PUSH2 0x420F PUSH2 0x3B6E JUMP JUMPDEST JUMPDEST PUSH1 0x0 DUP5 ADD CALLDATALOAD PUSH8 0xFFFFFFFFFFFFFFFF DUP2 GT ISZERO PUSH2 0x422E JUMPI PUSH2 0x422D PUSH2 0x3B73 JUMP JUMPDEST JUMPDEST PUSH2 0x423A DUP7 DUP3 DUP8 ADD PUSH2 0x41A1 JUMP JUMPDEST SWAP4 POP SWAP4 POP POP PUSH1 0x20 PUSH2 0x424D DUP7 DUP3 DUP8 ADD PUSH2 0x40EC JUMP JUMPDEST SWAP2 POP POP SWAP3 POP SWAP3 POP SWAP3 JUMP JUMPDEST PUSH1 0x0 PUSH1 0x20 DUP3 DUP5 SUB SLT ISZERO PUSH2 0x426D JUMPI PUSH2 0x426C PUSH2 0x3B6E JUMP JUMPDEST JUMPDEST PUSH1 0x0 PUSH2 0x427B DUP5 DUP3 DUP6 ADD PUSH2 0x3D75 JUMP JUMPDEST SWAP2 POP POP SWAP3 SWAP2 POP POP JUMP JUMPDEST PUSH1 0x0 PUSH14 0xFFFFFFFFFFFFFFFFFFFFFFFFFFFF DUP3 AND SWAP1 POP SWAP2 SWAP1 POP JUMP JUMPDEST PUSH2 0x42A7 DUP2 PUSH2 0x4284 JUMP JUMPDEST DUP3 MSTORE POP POP JUMP JUMPDEST PUSH1 0x0 DUP2 ISZERO ISZERO SWAP1 POP SWAP2 SWAP1 POP JUMP JUMPDEST PUSH2 0x42C2 DUP2 PUSH2 0x42AD JUMP JUMPDEST DUP3 MSTORE POP POP JUMP JUMPDEST PUSH2 0x42D1 DUP2 PUSH2 0x3B78 JUMP JUMPDEST DUP3 MSTORE POP POP JUMP JUMPDEST PUSH1 0x0 PUSH6 0xFFFFFFFFFFFF DUP3 AND SWAP1 POP SWAP2 SWAP1 POP JUMP JUMPDEST PUSH2 0x42F2 DUP2 PUSH2 0x42D7 JUMP JUMPDEST DUP3 MSTORE POP POP JUMP JUMPDEST PUSH1 0xA0 DUP3 ADD PUSH1 0x0 DUP3 ADD MLOAD PUSH2 0x430E PUSH1 0x0 DUP6 ADD DUP3 PUSH2 0x429E JUMP JUMPDEST POP PUSH1 0x20 DUP3 ADD MLOAD PUSH2 0x4321 PUSH1 0x20 DUP6 ADD DUP3 PUSH2 0x42B9 JUMP JUMPDEST POP PUSH1 0x40 DUP3 ADD MLOAD PUSH2 0x4334 PUSH1 0x40 DUP6 ADD DUP3 PUSH2 0x429E JUMP JUMPDEST POP PUSH1 0x60 DUP3 ADD MLOAD PUSH2 0x4347 PUSH1 0x60 DUP6 ADD DUP3 PUSH2 0x42C8 JUMP JUMPDEST POP PUSH1 0x80 DUP3 ADD MLOAD PUSH2 0x435A PUSH1 0x80 DUP6 ADD DUP3 PUSH2 0x42E9 JUMP JUMPDEST POP POP POP POP JUMP JUMPDEST PUSH1 0x0 PUSH1 0xA0 DUP3 ADD SWAP1 POP PUSH2 0x4375 PUSH1 0x0 DUP4 ADD DUP5 PUSH2 0x42F8 JUMP JUMPDEST SWAP3 SWAP2 POP POP JUMP JUMPDEST PUSH1 0x0 DUP1 PUSH1 0x0 DUP1 PUSH1 0x0 PUSH1 0x60 DUP7 DUP9 SUB SLT ISZERO PUSH2 0x4397 JUMPI PUSH2 0x4396 PUSH2 0x3B6E JUMP JUMPDEST JUMPDEST PUSH1 0x0 DUP7 ADD CALLDATALOAD PUSH8 0xFFFFFFFFFFFFFFFF DUP2 GT ISZERO PUSH2 0x43B5 JUMPI PUSH2 0x43B4 PUSH2 0x3B73 JUMP JUMPDEST JUMPDEST PUSH2 0x43C1 DUP9 DUP3 DUP10 ADD PUSH2 0x3F5B JUMP JUMPDEST SWAP6 POP SWAP6 POP POP PUSH1 0x20 PUSH2 0x43D4 DUP9 DUP3 DUP10 ADD PUSH2 0x3D75 JUMP JUMPDEST SWAP4 POP POP PUSH1 0x40 DUP7 ADD CALLDATALOAD PUSH8 0xFFFFFFFFFFFFFFFF DUP2 GT ISZERO PUSH2 0x43F5 JUMPI PUSH2 0x43F4 PUSH2 0x3B73 JUMP JUMPDEST JUMPDEST PUSH2 0x4401 DUP9 DUP3 DUP10 ADD PUSH2 0x3F5B JUMP JUMPDEST SWAP3 POP SWAP3 POP POP SWAP3 SWAP6 POP SWAP3 SWAP6 SWAP1 SWAP4 POP JUMP JUMPDEST PUSH1 0x0 DUP1 PUSH1 0x20 DUP4 DUP6 SUB SLT ISZERO PUSH2 0x4427 JUMPI PUSH2 0x4426 PUSH2 0x3B6E JUMP JUMPDEST JUMPDEST PUSH1 0x0 DUP4 ADD CALLDATALOAD PUSH8 0xFFFFFFFFFFFFFFFF DUP2 GT ISZERO PUSH2 0x4445 JUMPI PUSH2 0x4444 PUSH2 0x3B73 JUMP JUMPDEST JUMPDEST PUSH2 0x4451 DUP6 DUP3 DUP7 ADD PUSH2 0x3F5B JUMP JUMPDEST SWAP3 POP SWAP3 POP POP SWAP3 POP SWAP3 SWAP1 POP JUMP JUMPDEST PUSH1 0x0 DUP1 REVERT JUMPDEST PUSH1 0x0 PUSH2 0x160 DUP3 DUP5 SUB SLT ISZERO PUSH2 0x4479 JUMPI PUSH2 0x4478 PUSH2 0x445D JUMP JUMPDEST JUMPDEST DUP2 SWAP1 POP SWAP3 SWAP2 POP POP JUMP JUMPDEST PUSH1 0x0 PUSH1 0x20 DUP3 DUP5 SUB SLT ISZERO PUSH2 0x4498 JUMPI PUSH2 0x4497 PUSH2 0x3B6E JUMP JUMPDEST JUMPDEST PUSH1 0x0 DUP3 ADD CALLDATALOAD PUSH8 0xFFFFFFFFFFFFFFFF DUP2 GT ISZERO PUSH2 0x44B6 JUMPI PUSH2 0x44B5 PUSH2 0x3B73 JUMP JUMPDEST JUMPDEST PUSH2 0x44C2 DUP5 DUP3 DUP6 ADD PUSH2 0x4462 JUMP JUMPDEST SWAP2 POP POP SWAP3 SWAP2 POP POP JUMP JUMPDEST PUSH2 0x44D4 DUP2 PUSH2 0x3E8A JUMP JUMPDEST DUP3 MSTORE POP POP JUMP JUMPDEST PUSH1 0x0 PUSH1 0x20 DUP3 ADD SWAP1 POP PUSH2 0x44EF PUSH1 0x0 DUP4 ADD DUP5 PUSH2 0x44CB JUMP JUMPDEST SWAP3 SWAP2 POP POP JUMP JUMPDEST PUSH1 0x0 PUSH1 0x20 DUP3 DUP5 SUB SLT ISZERO PUSH2 0x450B JUMPI PUSH2 0x450A PUSH2 0x3B6E JUMP JUMPDEST JUMPDEST PUSH1 0x0 PUSH2 0x4519 DUP5 DUP3 DUP6 ADD PUSH2 0x40EC JUMP JUMPDEST SWAP2 POP POP SWAP3 SWAP2 POP POP JUMP JUMPDEST PUSH1 0x0 DUP1 PUSH1 0x0 DUP1 PUSH1 0x60 DUP6 DUP8 SUB SLT ISZERO PUSH2 0x453C JUMPI PUSH2 0x453B PUSH2 0x3B6E JUMP JUMPDEST JUMPDEST PUSH1 0x0 DUP6 ADD CALLDATALOAD PUSH8 0xFFFFFFFFFFFFFFFF DUP2 GT ISZERO PUSH2 0x455A JUMPI PUSH2 0x4559 PUSH2 0x3B73 JUMP JUMPDEST JUMPDEST PUSH2 0x4566 DUP8 DUP3 DUP9 ADD PUSH2 0x4462 JUMP JUMPDEST SWAP5 POP POP PUSH1 0x20 PUSH2 0x4577 DUP8 DUP3 DUP9 ADD PUSH2 0x3D75 JUMP JUMPDEST SWAP4 POP POP PUSH1 0x40 DUP6 ADD CALLDATALOAD PUSH8 0xFFFFFFFFFFFFFFFF DUP2 GT ISZERO PUSH2 0x4598 JUMPI PUSH2 0x4597 PUSH2 0x3B73 JUMP JUMPDEST JUMPDEST PUSH2 0x45A4 DUP8 DUP3 DUP9 ADD PUSH2 0x3F5B JUMP JUMPDEST SWAP3 POP SWAP3 POP POP SWAP3 SWAP6 SWAP2 SWAP5 POP SWAP3 POP JUMP JUMPDEST PUSH2 0x45BB DUP2 PUSH2 0x4284 JUMP JUMPDEST DUP3 MSTORE POP POP JUMP JUMPDEST PUSH2 0x45CA DUP2 PUSH2 0x42AD JUMP JUMPDEST DUP3 MSTORE POP POP JUMP JUMPDEST PUSH2 0x45D9 DUP2 PUSH2 0x3B78 JUMP JUMPDEST DUP3 MSTORE POP POP JUMP JUMPDEST PUSH2 0x45E8 DUP2 PUSH2 0x42D7 JUMP JUMPDEST DUP3 MSTORE POP POP JUMP JUMPDEST PUSH1 0x0 PUSH1 0xA0 DUP3 ADD SWAP1 POP PUSH2 0x4603 PUSH1 0x0 DUP4 ADD DUP9 PUSH2 0x45B2 JUMP JUMPDEST PUSH2 0x4610 PUSH1 0x20 DUP4 ADD DUP8 PUSH2 0x45C1 JUMP JUMPDEST PUSH2 0x461D PUSH1 0x40 DUP4 ADD DUP7 PUSH2 0x45B2 JUMP JUMPDEST PUSH2 0x462A PUSH1 0x60 DUP4 ADD DUP6 PUSH2 0x45D0 JUMP JUMPDEST PUSH2 0x4637 PUSH1 0x80 DUP4 ADD DUP5 PUSH2 0x45DF JUMP JUMPDEST SWAP7 SWAP6 POP POP POP POP POP POP JUMP JUMPDEST PUSH1 0x0 DUP2 SWAP1 POP SWAP2 SWAP1 POP JUMP JUMPDEST PUSH1 0x0 PUSH2 0x4666 PUSH2 0x4661 PUSH2 0x465C DUP5 PUSH2 0x4284 JUMP JUMPDEST PUSH2 0x4641 JUMP JUMPDEST PUSH2 0x3D8A JUMP JUMPDEST SWAP1 POP SWAP2 SWAP1 POP JUMP JUMPDEST PUSH2 0x4676 DUP2 PUSH2 0x464B JUMP JUMPDEST DUP3 MSTORE POP POP JUMP JUMPDEST PUSH1 0x0 PUSH1 0x20 DUP3 ADD SWAP1 POP PUSH2 0x4691 PUSH1 0x0 DUP4 ADD DUP5 PUSH2 0x466D JUMP JUMPDEST SWAP3 SWAP2 POP POP JUMP JUMPDEST PUSH1 0x0 DUP3 DUP3 MSTORE PUSH1 0x20 DUP3 ADD SWAP1 POP SWAP3 SWAP2 POP POP JUMP JUMPDEST PUSH32 0x6D757374207370656369667920756E7374616B652064656C6179000000000000 PUSH1 0x0 DUP3 ADD MSTORE POP JUMP JUMPDEST PUSH1 0x0 PUSH2 0x46DE PUSH1 0x1A DUP4 PUSH2 0x4697 JUMP JUMPDEST SWAP2 POP PUSH2 0x46E9 DUP3 PUSH2 0x46A8 JUMP JUMPDEST PUSH1 0x20 DUP3 ADD SWAP1 POP SWAP2 SWAP1 POP JUMP JUMPDEST PUSH1 0x0 PUSH1 0x20 DUP3 ADD SWAP1 POP DUP2 DUP2 SUB PUSH1 0x0 DUP4 ADD MSTORE PUSH2 0x470D DUP2 PUSH2 0x46D1 JUMP JUMPDEST SWAP1 POP SWAP2 SWAP1 POP JUMP JUMPDEST PUSH32 0x63616E6E6F7420646563726561736520756E7374616B652074696D6500000000 PUSH1 0x0 DUP3 ADD MSTORE POP JUMP JUMPDEST PUSH1 0x0 PUSH2 0x474A PUSH1 0x1C DUP4 PUSH2 0x4697 JUMP JUMPDEST SWAP2 POP PUSH2 0x4755 DUP3 PUSH2 0x4714 JUMP JUMPDEST PUSH1 0x20 DUP3 ADD SWAP1 POP SWAP2 SWAP1 POP JUMP JUMPDEST PUSH1 0x0 PUSH1 0x20 DUP3 ADD SWAP1 POP DUP2 DUP2 SUB PUSH1 0x0 DUP4 ADD MSTORE PUSH2 0x4779 DUP2 PUSH2 0x473D JUMP JUMPDEST SWAP1 POP SWAP2 SWAP1 POP JUMP JUMPDEST PUSH32 0x4E487B7100000000000000000000000000000000000000000000000000000000 PUSH1 0x0 MSTORE PUSH1 0x11 PUSH1 0x4 MSTORE PUSH1 0x24 PUSH1 0x0 REVERT JUMPDEST PUSH1 0x0 PUSH2 0x47BA DUP3 PUSH2 0x3D8A JUMP JUMPDEST SWAP2 POP PUSH2 0x47C5 DUP4 PUSH2 0x3D8A JUMP JUMPDEST SWAP3 POP DUP3 DUP3 ADD SWAP1 POP DUP1 DUP3 GT ISZERO PUSH2 0x47DD JUMPI PUSH2 0x47DC PUSH2 0x4780 JUMP JUMPDEST JUMPDEST SWAP3 SWAP2 POP POP JUMP JUMPDEST PUSH32 0x6E6F207374616B65207370656369666965640000000000000000000000000000 PUSH1 0x0 DUP3 ADD MSTORE POP JUMP JUMPDEST PUSH1 0x0 PUSH2 0x4819 PUSH1 0x12 DUP4 PUSH2 0x4697 JUMP JUMPDEST SWAP2 POP PUSH2 0x4824 DUP3 PUSH2 0x47E3 JUMP JUMPDEST PUSH1 0x20 DUP3 ADD SWAP1 POP SWAP2 SWAP1 POP JUMP JUMPDEST PUSH1 0x0 PUSH1 0x20 DUP3 ADD SWAP1 POP DUP2 DUP2 SUB PUSH1 0x0 DUP4 ADD MSTORE PUSH2 0x4848 DUP2 PUSH2 0x480C JUMP JUMPDEST SWAP1 POP SWAP2 SWAP1 POP JUMP JUMPDEST PUSH32 0x7374616B65206F766572666C6F77000000000000000000000000000000000000 PUSH1 0x0 DUP3 ADD MSTORE POP JUMP JUMPDEST PUSH1 0x0 PUSH2 0x4885 PUSH1 0xE DUP4 PUSH2 0x4697 JUMP JUMPDEST SWAP2 POP PUSH2 0x4890 DUP3 PUSH2 0x484F JUMP JUMPDEST PUSH1 0x20 DUP3 ADD SWAP1 POP SWAP2 SWAP1 POP JUMP JUMPDEST PUSH1 0x0 PUSH1 0x20 DUP3 ADD SWAP1 POP DUP2 DUP2 SUB PUSH1 0x0 DUP4 ADD MSTORE PUSH2 0x48B4 DUP2 PUSH2 0x4878 JUMP JUMPDEST SWAP1 POP SWAP2 SWAP1 POP JUMP JUMPDEST PUSH1 0x0 PUSH2 0x48D6 PUSH2 0x48D1 PUSH2 0x48CC DUP5 PUSH2 0x3B78 JUMP JUMPDEST PUSH2 0x4641 JUMP JUMPDEST PUSH2 0x3D8A JUMP JUMPDEST SWAP1 POP SWAP2 SWAP1 POP JUMP JUMPDEST PUSH2 0x48E6 DUP2 PUSH2 0x48BB JUMP JUMPDEST DUP3 MSTORE POP POP JUMP JUMPDEST PUSH1 0x0 PUSH1 0x40 DUP3 ADD SWAP1 POP PUSH2 0x4901 PUSH1 0x0 DUP4 ADD DUP6 PUSH2 0x4043 JUMP JUMPDEST PUSH2 0x490E PUSH1 0x20 DUP4 ADD DUP5 PUSH2 0x48DD JUMP JUMPDEST SWAP4 SWAP3 POP POP POP JUMP JUMPDEST PUSH32 0x4141393220696E7465726E616C2063616C6C206F6E6C79000000000000000000 PUSH1 0x0 DUP3 ADD MSTORE POP JUMP JUMPDEST PUSH1 0x0 PUSH2 0x494B PUSH1 0x17 DUP4 PUSH2 0x4697 JUMP JUMPDEST SWAP2 POP PUSH2 0x4956 DUP3 PUSH2 0x4915 JUMP JUMPDEST PUSH1 0x20 DUP3 ADD SWAP1 POP SWAP2 SWAP1 POP JUMP JUMPDEST PUSH1 0x0 PUSH1 0x20 DUP3 ADD SWAP1 POP DUP2 DUP2 SUB PUSH1 0x0 DUP4 ADD MSTORE PUSH2 0x497A DUP2 PUSH2 0x493E JUMP JUMPDEST SWAP1 POP SWAP2 SWAP1 POP JUMP JUMPDEST PUSH1 0x0 DUP2 MLOAD SWAP1 POP SWAP2 SWAP1 POP JUMP JUMPDEST PUSH1 0x0 DUP3 DUP3 MSTORE PUSH1 0x20 DUP3 ADD SWAP1 POP SWAP3 SWAP2 POP POP JUMP JUMPDEST PUSH1 0x0 JUMPDEST DUP4 DUP2 LT ISZERO PUSH2 0x49BB JUMPI DUP1 DUP3 ADD MLOAD DUP2 DUP5 ADD MSTORE PUSH1 0x20 DUP2 ADD SWAP1 POP PUSH2 0x49A0 JUMP JUMPDEST PUSH1 0x0 DUP5 DUP5 ADD MSTORE POP POP POP POP JUMP JUMPDEST PUSH1 0x0 PUSH2 0x49D2 DUP3 PUSH2 0x4981 JUMP JUMPDEST PUSH2 0x49DC DUP2 DUP6 PUSH2 0x498C JUMP JUMPDEST SWAP4 POP PUSH2 0x49EC DUP2 DUP6 PUSH1 0x20 DUP7 ADD PUSH2 0x499D JUMP JUMPDEST PUSH2 0x49F5 DUP2 PUSH2 0x3BEB JUMP JUMPDEST DUP5 ADD SWAP2 POP POP SWAP3 SWAP2 POP POP JUMP JUMPDEST PUSH1 0x0 PUSH1 0x40 DUP3 ADD SWAP1 POP PUSH2 0x4A15 PUSH1 0x0 DUP4 ADD DUP6 PUSH2 0x4043 JUMP JUMPDEST DUP2 DUP2 SUB PUSH1 0x20 DUP4 ADD MSTORE PUSH2 0x4A27 DUP2 DUP5 PUSH2 0x49C7 JUMP JUMPDEST SWAP1 POP SWAP4 SWAP3 POP POP POP JUMP JUMPDEST PUSH32 0x4E487B7100000000000000000000000000000000000000000000000000000000 PUSH1 0x0 MSTORE PUSH1 0x32 PUSH1 0x4 MSTORE PUSH1 0x24 PUSH1 0x0 REVERT JUMPDEST PUSH1 0x0 DUP1 REVERT JUMPDEST PUSH1 0x0 DUP1 REVERT JUMPDEST PUSH1 0x0 DUP1 REVERT JUMPDEST PUSH1 0x0 DUP3 CALLDATALOAD PUSH1 0x1 PUSH2 0x160 SUB DUP4 CALLDATASIZE SUB SUB DUP2 SLT PUSH2 0x4A8B JUMPI PUSH2 0x4A8A PUSH2 0x4A5F JUMP JUMPDEST JUMPDEST DUP1 DUP4 ADD SWAP2 POP POP SWAP3 SWAP2 POP POP JUMP JUMPDEST PUSH32 0x576974686472617720616D6F756E7420746F6F206C6172676500000000000000 PUSH1 0x0 DUP3 ADD MSTORE POP JUMP JUMPDEST PUSH1 0x0 PUSH2 0x4ACD PUSH1 0x19 DUP4 PUSH2 0x4697 JUMP JUMPDEST SWAP2 POP PUSH2 0x4AD8 DUP3 PUSH2 0x4A97 JUMP JUMPDEST PUSH1 0x20 DUP3 ADD SWAP1 POP SWAP2 SWAP1 POP JUMP JUMPDEST PUSH1 0x0 PUSH1 0x20 DUP3 ADD SWAP1 POP DUP2 DUP2 SUB PUSH1 0x0 DUP4 ADD MSTORE PUSH2 0x4AFC DUP2 PUSH2 0x4AC0 JUMP JUMPDEST SWAP1 POP SWAP2 SWAP1 POP JUMP JUMPDEST PUSH1 0x0 PUSH2 0x4B0E DUP3 PUSH2 0x3D8A JUMP JUMPDEST SWAP2 POP PUSH2 0x4B19 DUP4 PUSH2 0x3D8A JUMP JUMPDEST SWAP3 POP DUP3 DUP3 SUB SWAP1 POP DUP2 DUP2 GT ISZERO PUSH2 0x4B31 JUMPI PUSH2 0x4B30 PUSH2 0x4780 JUMP JUMPDEST JUMPDEST SWAP3 SWAP2 POP POP JUMP JUMPDEST PUSH1 0x0 PUSH2 0x4B52 PUSH2 0x4B4D PUSH2 0x4B48 DUP5 PUSH2 0x3D2C JUMP JUMPDEST PUSH2 0x4641 JUMP JUMPDEST PUSH2 0x3D2C JUMP JUMPDEST SWAP1 POP SWAP2 SWAP1 POP JUMP JUMPDEST PUSH1 0x0 PUSH2 0x4B64 DUP3 PUSH2 0x4B37 JUMP JUMPDEST SWAP1 POP SWAP2 SWAP1 POP JUMP JUMPDEST PUSH1 0x0 PUSH2 0x4B76 DUP3 PUSH2 0x4B59 JUMP JUMPDEST SWAP1 POP SWAP2 SWAP1 POP JUMP JUMPDEST PUSH2 0x4B86 DUP2 PUSH2 0x4B6B JUMP JUMPDEST DUP3 MSTORE POP POP JUMP JUMPDEST PUSH1 0x0 PUSH1 0x40 DUP3 ADD SWAP1 POP PUSH2 0x4BA1 PUSH1 0x0 DUP4 ADD DUP6 PUSH2 0x4B7D JUMP JUMPDEST PUSH2 0x4BAE PUSH1 0x20 DUP4 ADD DUP5 PUSH2 0x4043 JUMP JUMPDEST SWAP4 SWAP3 POP POP POP JUMP JUMPDEST PUSH1 0x0 DUP2 SWAP1 POP SWAP3 SWAP2 POP POP JUMP JUMPDEST POP JUMP JUMPDEST PUSH1 0x0 PUSH2 0x4BD0 PUSH1 0x0 DUP4 PUSH2 0x4BB5 JUMP JUMPDEST SWAP2 POP PUSH2 0x4BDB DUP3 PUSH2 0x4BC0 JUMP JUMPDEST PUSH1 0x0 DUP3 ADD SWAP1 POP SWAP2 SWAP1 POP JUMP JUMPDEST PUSH1 0x0 PUSH2 0x4BF1 DUP3 PUSH2 0x4BC3 JUMP JUMPDEST SWAP2 POP DUP2 SWAP1 POP SWAP2 SWAP1 POP JUMP JUMPDEST PUSH32 0x6661696C656420746F2077697468647261770000000000000000000000000000 PUSH1 0x0 DUP3 ADD MSTORE POP JUMP JUMPDEST PUSH1 0x0 PUSH2 0x4C31 PUSH1 0x12 DUP4 PUSH2 0x4697 JUMP JUMPDEST SWAP2 POP PUSH2 0x4C3C DUP3 PUSH2 0x4BFB JUMP JUMPDEST PUSH1 0x20 DUP3 ADD SWAP1 POP SWAP2 SWAP1 POP JUMP JUMPDEST PUSH1 0x0 PUSH1 0x20 DUP3 ADD SWAP1 POP DUP2 DUP2 SUB PUSH1 0x0 DUP4 ADD MSTORE PUSH2 0x4C60 DUP2 PUSH2 0x4C24 JUMP JUMPDEST SWAP1 POP SWAP2 SWAP1 POP JUMP JUMPDEST PUSH1 0x0 DUP3 CALLDATALOAD PUSH1 0x1 PUSH1 0x60 SUB DUP4 CALLDATASIZE SUB SUB DUP2 SLT PUSH2 0x4C83 JUMPI PUSH2 0x4C82 PUSH2 0x4A5F JUMP JUMPDEST JUMPDEST DUP1 DUP4 ADD SWAP2 POP POP SWAP3 SWAP2 POP POP JUMP JUMPDEST PUSH1 0x0 DUP1 DUP4 CALLDATALOAD PUSH1 0x1 PUSH1 0x20 SUB DUP5 CALLDATASIZE SUB SUB DUP2 SLT PUSH2 0x4CAC JUMPI PUSH2 0x4CAB PUSH2 0x4A5F JUMP JUMPDEST JUMPDEST DUP1 DUP5 ADD SWAP3 POP DUP3 CALLDATALOAD SWAP2 POP PUSH8 0xFFFFFFFFFFFFFFFF DUP3 GT ISZERO PUSH2 0x4CCE JUMPI PUSH2 0x4CCD PUSH2 0x4A64 JUMP JUMPDEST JUMPDEST PUSH1 0x20 DUP4 ADD SWAP3 POP PUSH1 0x20 DUP3 MUL CALLDATASIZE SUB DUP4 SGT ISZERO PUSH2 0x4CEA JUMPI PUSH2 0x4CE9 PUSH2 0x4A69 JUMP JUMPDEST JUMPDEST POP SWAP3 POP SWAP3 SWAP1 POP JUMP JUMPDEST PUSH1 0x0 PUSH2 0x4CFD DUP3 PUSH2 0x3D4C JUMP JUMPDEST SWAP1 POP SWAP2 SWAP1 POP JUMP JUMPDEST PUSH2 0x4D0D DUP2 PUSH2 0x4CF2 JUMP JUMPDEST DUP2 EQ PUSH2 0x4D18 JUMPI PUSH1 0x0 DUP1 REVERT JUMPDEST POP JUMP JUMPDEST PUSH1 0x0 DUP2 CALLDATALOAD SWAP1 POP PUSH2 0x4D2A DUP2 PUSH2 0x4D04 JUMP JUMPDEST SWAP3 SWAP2 POP POP JUMP JUMPDEST PUSH1 0x0 PUSH1 0x20 DUP3 DUP5 SUB SLT ISZERO PUSH2 0x4D46 JUMPI PUSH2 0x4D45 PUSH2 0x3B6E JUMP JUMPDEST JUMPDEST PUSH1 0x0 PUSH2 0x4D54 DUP5 DUP3 DUP6 ADD PUSH2 0x4D1B JUMP JUMPDEST SWAP2 POP POP SWAP3 SWAP2 POP POP JUMP JUMPDEST PUSH32 0x4141393620696E76616C69642061676772656761746F72000000000000000000 PUSH1 0x0 DUP3 ADD MSTORE POP JUMP JUMPDEST PUSH1 0x0 PUSH2 0x4D93 PUSH1 0x17 DUP4 PUSH2 0x4697 JUMP JUMPDEST SWAP2 POP PUSH2 0x4D9E DUP3 PUSH2 0x4D5D JUMP JUMPDEST PUSH1 0x20 DUP3 ADD SWAP1 POP SWAP2 SWAP1 POP JUMP JUMPDEST PUSH1 0x0 PUSH1 0x20 DUP3 ADD SWAP1 POP DUP2 DUP2 SUB PUSH1 0x0 DUP4 ADD MSTORE PUSH2 0x4DC2 DUP2 PUSH2 0x4D86 JUMP JUMPDEST SWAP1 POP SWAP2 SWAP1 POP JUMP JUMPDEST PUSH1 0x0 DUP1 DUP4 CALLDATALOAD PUSH1 0x1 PUSH1 0x20 SUB DUP5 CALLDATASIZE SUB SUB DUP2 SLT PUSH2 0x4DE6 JUMPI PUSH2 0x4DE5 PUSH2 0x4A5F JUMP JUMPDEST JUMPDEST DUP1 DUP5 ADD SWAP3 POP DUP3 CALLDATALOAD SWAP2 POP PUSH8 0xFFFFFFFFFFFFFFFF DUP3 GT ISZERO PUSH2 0x4E08 JUMPI PUSH2 0x4E07 PUSH2 0x4A64 JUMP JUMPDEST JUMPDEST PUSH1 0x20 DUP4 ADD SWAP3 POP PUSH1 0x1 DUP3 MUL CALLDATASIZE SUB DUP4 SGT ISZERO PUSH2 0x4E24 JUMPI PUSH2 0x4E23 PUSH2 0x4A69 JUMP JUMPDEST JUMPDEST POP SWAP3 POP SWAP3 SWAP1 POP JUMP JUMPDEST PUSH1 0x0 DUP3 DUP3 MSTORE PUSH1 0x20 DUP3 ADD SWAP1 POP SWAP3 SWAP2 POP POP JUMP JUMPDEST PUSH1 0x0 DUP2 SWAP1 POP SWAP2 SWAP1 POP JUMP JUMPDEST PUSH1 0x0 PUSH2 0x4E56 PUSH1 0x20 DUP5 ADD DUP5 PUSH2 0x3D75 JUMP JUMPDEST SWAP1 POP SWAP3 SWAP2 POP POP JUMP JUMPDEST PUSH2 0x4E67 DUP2 PUSH2 0x3D4C JUMP JUMPDEST DUP3 MSTORE POP POP JUMP JUMPDEST PUSH1 0x0 PUSH2 0x4E7C PUSH1 0x20 DUP5 ADD DUP5 PUSH2 0x3DAB JUMP JUMPDEST SWAP1 POP SWAP3 SWAP2 POP POP JUMP JUMPDEST PUSH2 0x4E8D DUP2 PUSH2 0x3D8A JUMP JUMPDEST DUP3 MSTORE POP POP JUMP JUMPDEST PUSH1 0x0 DUP1 REVERT JUMPDEST PUSH1 0x0 DUP1 REVERT JUMPDEST PUSH1 0x0 DUP1 REVERT JUMPDEST PUSH1 0x0 DUP1 DUP4 CALLDATALOAD PUSH1 0x1 PUSH1 0x20 SUB DUP5 CALLDATASIZE SUB SUB DUP2 SLT PUSH2 0x4EBF JUMPI PUSH2 0x4EBE PUSH2 0x4E9D JUMP JUMPDEST JUMPDEST DUP4 DUP2 ADD SWAP3 POP DUP3 CALLDATALOAD SWAP2 POP PUSH1 0x20 DUP4 ADD SWAP3 POP PUSH8 0xFFFFFFFFFFFFFFFF DUP3 GT ISZERO PUSH2 0x4EE7 JUMPI PUSH2 0x4EE6 PUSH2 0x4E93 JUMP JUMPDEST JUMPDEST PUSH1 0x1 DUP3 MUL CALLDATASIZE SUB DUP4 SGT ISZERO PUSH2 0x4EFD JUMPI PUSH2 0x4EFC PUSH2 0x4E98 JUMP JUMPDEST JUMPDEST POP SWAP3 POP SWAP3 SWAP1 POP JUMP JUMPDEST PUSH1 0x0 DUP3 DUP3 MSTORE PUSH1 0x20 DUP3 ADD SWAP1 POP SWAP3 SWAP2 POP POP JUMP JUMPDEST PUSH1 0x0 PUSH2 0x4F22 DUP4 DUP6 PUSH2 0x4F05 JUMP JUMPDEST SWAP4 POP PUSH2 0x4F2F DUP4 DUP6 DUP5 PUSH2 0x3CA8 JUMP JUMPDEST PUSH2 0x4F38 DUP4 PUSH2 0x3BEB JUMP JUMPDEST DUP5 ADD SWAP1 POP SWAP4 SWAP3 POP POP POP JUMP JUMPDEST PUSH1 0x0 PUSH2 0x160 DUP4 ADD PUSH2 0x4F57 PUSH1 0x0 DUP5 ADD DUP5 PUSH2 0x4E47 JUMP JUMPDEST PUSH2 0x4F64 PUSH1 0x0 DUP7 ADD DUP3 PUSH2 0x4E5E JUMP JUMPDEST POP PUSH2 0x4F72 PUSH1 0x20 DUP5 ADD DUP5 PUSH2 0x4E6D JUMP JUMPDEST PUSH2 0x4F7F PUSH1 0x20 DUP7 ADD DUP3 PUSH2 0x4E84 JUMP JUMPDEST POP PUSH2 0x4F8D PUSH1 0x40 DUP5 ADD DUP5 PUSH2 0x4EA2 JUMP JUMPDEST DUP6 DUP4 SUB PUSH1 0x40 DUP8 ADD MSTORE PUSH2 0x4FA0 DUP4 DUP3 DUP5 PUSH2 0x4F16 JUMP JUMPDEST SWAP3 POP POP POP PUSH2 0x4FB1 PUSH1 0x60 DUP5 ADD DUP5 PUSH2 0x4EA2 JUMP JUMPDEST DUP6 DUP4 SUB PUSH1 0x60 DUP8 ADD MSTORE PUSH2 0x4FC4 DUP4 DUP3 DUP5 PUSH2 0x4F16 JUMP JUMPDEST SWAP3 POP POP POP PUSH2 0x4FD5 PUSH1 0x80 DUP5 ADD DUP5 PUSH2 0x4E6D JUMP JUMPDEST PUSH2 0x4FE2 PUSH1 0x80 DUP7 ADD DUP3 PUSH2 0x4E84 JUMP JUMPDEST POP PUSH2 0x4FF0 PUSH1 0xA0 DUP5 ADD DUP5 PUSH2 0x4E6D JUMP JUMPDEST PUSH2 0x4FFD PUSH1 0xA0 DUP7 ADD DUP3 PUSH2 0x4E84 JUMP JUMPDEST POP PUSH2 0x500B PUSH1 0xC0 DUP5 ADD DUP5 PUSH2 0x4E6D JUMP JUMPDEST PUSH2 0x5018 PUSH1 0xC0 DUP7 ADD DUP3 PUSH2 0x4E84 JUMP JUMPDEST POP PUSH2 0x5026 PUSH1 0xE0 DUP5 ADD DUP5 PUSH2 0x4E6D JUMP JUMPDEST PUSH2 0x5033 PUSH1 0xE0 DUP7 ADD DUP3 PUSH2 0x4E84 JUMP JUMPDEST POP PUSH2 0x5042 PUSH2 0x100 DUP5 ADD DUP5 PUSH2 0x4E6D JUMP JUMPDEST PUSH2 0x5050 PUSH2 0x100 DUP7 ADD DUP3 PUSH2 0x4E84 JUMP JUMPDEST POP PUSH2 0x505F PUSH2 0x120 DUP5 ADD DUP5 PUSH2 0x4EA2 JUMP JUMPDEST DUP6 DUP4 SUB PUSH2 0x120 DUP8 ADD MSTORE PUSH2 0x5073 DUP4 DUP3 DUP5 PUSH2 0x4F16 JUMP JUMPDEST SWAP3 POP POP POP PUSH2 0x5085 PUSH2 0x140 DUP5 ADD DUP5 PUSH2 0x4EA2 JUMP JUMPDEST DUP6 DUP4 SUB PUSH2 0x140 DUP8 ADD MSTORE PUSH2 0x5099 DUP4 DUP3 DUP5 PUSH2 0x4F16 JUMP JUMPDEST SWAP3 POP POP POP DUP1 SWAP2 POP POP SWAP3 SWAP2 POP POP JUMP JUMPDEST PUSH1 0x0 PUSH2 0x50B3 DUP4 DUP4 PUSH2 0x4F43 JUMP JUMPDEST SWAP1 POP SWAP3 SWAP2 POP POP JUMP JUMPDEST PUSH1 0x0 DUP3 CALLDATALOAD PUSH1 0x1 PUSH2 0x160 SUB DUP4 CALLDATASIZE SUB SUB DUP2 SLT PUSH2 0x50D8 JUMPI PUSH2 0x50D7 PUSH2 0x4E9D JUMP JUMPDEST JUMPDEST DUP3 DUP2 ADD SWAP2 POP POP SWAP3 SWAP2 POP POP JUMP JUMPDEST PUSH1 0x0 PUSH1 0x20 DUP3 ADD SWAP1 POP SWAP2 SWAP1 POP JUMP JUMPDEST PUSH1 0x0 PUSH2 0x50FD DUP4 DUP6 PUSH2 0x4E2C JUMP JUMPDEST SWAP4 POP DUP4 PUSH1 0x20 DUP5 MUL DUP6 ADD PUSH2 0x510F DUP5 PUSH2 0x4E3D JUMP JUMPDEST DUP1 PUSH1 0x0 JUMPDEST DUP8 DUP2 LT ISZERO PUSH2 0x5153 JUMPI DUP5 DUP5 SUB DUP10 MSTORE PUSH2 0x512A DUP3 DUP5 PUSH2 0x50BB JUMP JUMPDEST PUSH2 0x5134 DUP6 DUP3 PUSH2 0x50A7 JUMP JUMPDEST SWAP5 POP PUSH2 0x513F DUP4 PUSH2 0x50E4 JUMP JUMPDEST SWAP3 POP PUSH1 0x20 DUP11 ADD SWAP10 POP POP PUSH1 0x1 DUP2 ADD SWAP1 POP PUSH2 0x5113 JUMP JUMPDEST POP DUP3 SWAP8 POP DUP8 SWAP5 POP POP POP POP POP SWAP4 SWAP3 POP POP POP JUMP JUMPDEST PUSH1 0x0 PUSH2 0x5171 DUP4 DUP6 PUSH2 0x498C JUMP JUMPDEST SWAP4 POP PUSH2 0x517E DUP4 DUP6 DUP5 PUSH2 0x3CA8 JUMP JUMPDEST PUSH2 0x5187 DUP4 PUSH2 0x3BEB JUMP JUMPDEST DUP5 ADD SWAP1 POP SWAP4 SWAP3 POP POP POP JUMP JUMPDEST PUSH1 0x0 PUSH1 0x40 DUP3 ADD SWAP1 POP DUP2 DUP2 SUB PUSH1 0x0 DUP4 ADD MSTORE PUSH2 0x51AD DUP2 DUP7 DUP9 PUSH2 0x50F1 JUMP JUMPDEST SWAP1 POP DUP2 DUP2 SUB PUSH1 0x20 DUP4 ADD MSTORE PUSH2 0x51C2 DUP2 DUP5 DUP7 PUSH2 0x5165 JUMP JUMPDEST SWAP1 POP SWAP6 SWAP5 POP POP POP POP POP JUMP JUMPDEST PUSH2 0x51D6 DUP2 PUSH2 0x3D4C JUMP JUMPDEST DUP3 MSTORE POP POP JUMP JUMPDEST PUSH1 0x0 PUSH1 0x20 DUP3 ADD SWAP1 POP PUSH2 0x51F1 PUSH1 0x0 DUP4 ADD DUP5 PUSH2 0x51CD JUMP JUMPDEST SWAP3 SWAP2 POP POP JUMP JUMPDEST PUSH1 0x0 PUSH2 0x5202 DUP3 PUSH2 0x3D8A JUMP JUMPDEST SWAP2 POP PUSH32 0xFFFFFFFFFFFFFFFFFFFFFFFFFFFFFFFFFFFFFFFFFFFFFFFFFFFFFFFFFFFFFFFF DUP3 SUB PUSH2 0x5234 JUMPI PUSH2 0x5233 PUSH2 0x4780 JUMP JUMPDEST JUMPDEST PUSH1 0x1 DUP3 ADD SWAP1 POP SWAP2 SWAP1 POP JUMP JUMPDEST PUSH32 0x41413230206163636F756E74206E6F74206465706C6F79656400000000000000 PUSH1 0x0 DUP3 ADD MSTORE POP JUMP JUMPDEST PUSH1 0x0 PUSH2 0x5275 PUSH1 0x19 DUP4 PUSH2 0x4697 JUMP JUMPDEST SWAP2 POP PUSH2 0x5280 DUP3 PUSH2 0x523F JUMP JUMPDEST PUSH1 0x20 DUP3 ADD SWAP1 POP SWAP2 SWAP1 POP JUMP JUMPDEST PUSH1 0x0 PUSH1 0x20 DUP3 ADD SWAP1 POP DUP2 DUP2 SUB PUSH1 0x0 DUP4 ADD MSTORE PUSH2 0x52A4 DUP2 PUSH2 0x5268 JUMP JUMPDEST SWAP1 POP SWAP2 SWAP1 POP JUMP JUMPDEST PUSH1 0x0 DUP1 REVERT JUMPDEST PUSH1 0x0 DUP1 REVERT JUMPDEST PUSH1 0x0 DUP1 DUP6 DUP6 GT ISZERO PUSH2 0x52C9 JUMPI PUSH2 0x52C8 PUSH2 0x52AB JUMP JUMPDEST JUMPDEST DUP4 DUP7 GT ISZERO PUSH2 0x52DA JUMPI PUSH2 0x52D9 PUSH2 0x52B0 JUMP JUMPDEST JUMPDEST PUSH1 0x1 DUP6 MUL DUP4 ADD SWAP2 POP DUP5 DUP7 SUB SWAP1 POP SWAP5 POP SWAP5 SWAP3 POP POP POP JUMP JUMPDEST PUSH1 0x0 DUP3 SWAP1 POP SWAP3 SWAP2 POP POP JUMP JUMPDEST PUSH1 0x0 PUSH32 0xFFFFFFFFFFFFFFFFFFFFFFFFFFFFFFFFFFFFFFFF000000000000000000000000 DUP3 AND SWAP1 POP SWAP2 SWAP1 POP JUMP JUMPDEST PUSH1 0x0 DUP3 DUP3 SHL SWAP1 POP SWAP3 SWAP2 POP POP JUMP JUMPDEST PUSH1 0x0 PUSH2 0x5340 DUP4 DUP4 PUSH2 0x52F0 JUMP JUMPDEST DUP3 PUSH2 0x534B DUP2 CALLDATALOAD PUSH2 0x52FB JUMP JUMPDEST SWAP3 POP PUSH1 0x14 DUP3 LT ISZERO PUSH2 0x538B JUMPI PUSH2 0x5386 PUSH32 0xFFFFFFFFFFFFFFFFFFFFFFFFFFFFFFFFFFFFFFFF000000000000000000000000 DUP4 PUSH1 0x14 SUB PUSH1 0x8 MUL PUSH2 0x5327 JUMP JUMPDEST DUP4 AND SWAP3 POP JUMPDEST POP POP SWAP3 SWAP2 POP POP JUMP JUMPDEST PUSH32 0x41413330207061796D6173746572206E6F74206465706C6F7965640000000000 PUSH1 0x0 DUP3 ADD MSTORE POP JUMP JUMPDEST PUSH1 0x0 PUSH2 0x53C9 PUSH1 0x1B DUP4 PUSH2 0x4697 JUMP JUMPDEST SWAP2 POP PUSH2 0x53D4 DUP3 PUSH2 0x5393 JUMP JUMPDEST PUSH1 0x20 DUP3 ADD SWAP1 POP SWAP2 SWAP1 POP JUMP JUMPDEST PUSH1 0x0 PUSH1 0x20 DUP3 ADD SWAP1 POP DUP2 DUP2 SUB PUSH1 0x0 DUP4 ADD MSTORE PUSH2 0x53F8 DUP2 PUSH2 0x53BC JUMP JUMPDEST SWAP1 POP SWAP2 SWAP1 POP JUMP JUMPDEST PUSH1 0x0 PUSH2 0x540C PUSH1 0x0 DUP4 PUSH2 0x4697 JUMP JUMPDEST SWAP2 POP PUSH2 0x5417 DUP3 PUSH2 0x4BC0 JUMP JUMPDEST PUSH1 0x0 DUP3 ADD SWAP1 POP SWAP2 SWAP1 POP JUMP JUMPDEST PUSH1 0x0 PUSH1 0x20 DUP3 ADD SWAP1 POP DUP2 DUP2 SUB PUSH1 0x0 DUP4 ADD MSTORE PUSH2 0x543B DUP2 PUSH2 0x53FF JUMP JUMPDEST SWAP1 POP SWAP2 SWAP1 POP JUMP JUMPDEST PUSH1 0x0 PUSH1 0x20 DUP3 ADD SWAP1 POP DUP2 DUP2 SUB PUSH1 0x0 DUP4 ADD MSTORE PUSH2 0x545D DUP2 DUP5 DUP7 PUSH2 0x5165 JUMP JUMPDEST SWAP1 POP SWAP4 SWAP3 POP POP POP JUMP JUMPDEST PUSH1 0x0 DUP2 MLOAD SWAP1 POP PUSH2 0x5475 DUP2 PUSH2 0x3D5E JUMP JUMPDEST SWAP3 SWAP2 POP POP JUMP JUMPDEST PUSH1 0x0 PUSH1 0x20 DUP3 DUP5 SUB SLT ISZERO PUSH2 0x5491 JUMPI PUSH2 0x5490 PUSH2 0x3B6E JUMP JUMPDEST JUMPDEST PUSH1 0x0 PUSH2 0x549F DUP5 DUP3 DUP6 ADD PUSH2 0x5466 JUMP JUMPDEST SWAP2 POP POP SWAP3 SWAP2 POP POP JUMP JUMPDEST PUSH1 0x0 PUSH1 0x60 DUP3 ADD SWAP1 POP PUSH2 0x54BD PUSH1 0x0 DUP4 ADD DUP7 PUSH2 0x44CB JUMP JUMPDEST PUSH2 0x54CA PUSH1 0x20 DUP4 ADD DUP6 PUSH2 0x51CD JUMP JUMPDEST PUSH2 0x54D7 PUSH1 0x40 DUP4 ADD DUP5 PUSH2 0x4043 JUMP JUMPDEST SWAP5 SWAP4 POP POP POP POP JUMP JUMPDEST PUSH32 0x6E6F74207374616B656400000000000000000000000000000000000000000000 PUSH1 0x0 DUP3 ADD MSTORE POP JUMP JUMPDEST PUSH1 0x0 PUSH2 0x5515 PUSH1 0xA DUP4 PUSH2 0x4697 JUMP JUMPDEST SWAP2 POP PUSH2 0x5520 DUP3 PUSH2 0x54DF JUMP JUMPDEST PUSH1 0x20 DUP3 ADD SWAP1 POP SWAP2 SWAP1 POP JUMP JUMPDEST PUSH1 0x0 PUSH1 0x20 DUP3 ADD SWAP1 POP DUP2 DUP2 SUB PUSH1 0x0 DUP4 ADD MSTORE PUSH2 0x5544 DUP2 PUSH2 0x5508 JUMP JUMPDEST SWAP1 POP SWAP2 SWAP1 POP JUMP JUMPDEST PUSH32 0x616C726561647920756E7374616B696E67000000000000000000000000000000 PUSH1 0x0 DUP3 ADD MSTORE POP JUMP JUMPDEST PUSH1 0x0 PUSH2 0x5581 PUSH1 0x11 DUP4 PUSH2 0x4697 JUMP JUMPDEST SWAP2 POP PUSH2 0x558C DUP3 PUSH2 0x554B JUMP JUMPDEST PUSH1 0x20 DUP3 ADD SWAP1 POP SWAP2 SWAP1 POP JUMP JUMPDEST PUSH1 0x0 PUSH1 0x20 DUP3 ADD SWAP1 POP DUP2 DUP2 SUB PUSH1 0x0 DUP4 ADD MSTORE PUSH2 0x55B0 DUP2 PUSH2 0x5574 JUMP JUMPDEST SWAP1 POP SWAP2 SWAP1 POP JUMP JUMPDEST PUSH1 0x0 PUSH2 0x55C2 DUP3 PUSH2 0x42D7 JUMP JUMPDEST SWAP2 POP PUSH2 0x55CD DUP4 PUSH2 0x42D7 JUMP JUMPDEST SWAP3 POP DUP3 DUP3 ADD SWAP1 POP PUSH6 0xFFFFFFFFFFFF DUP2 GT ISZERO PUSH2 0x55EB JUMPI PUSH2 0x55EA PUSH2 0x4780 JUMP JUMPDEST JUMPDEST SWAP3 SWAP2 POP POP JUMP JUMPDEST PUSH1 0x0 PUSH2 0x560C PUSH2 0x5607 PUSH2 0x5602 DUP5 PUSH2 0x42D7 JUMP JUMPDEST PUSH2 0x4641 JUMP JUMPDEST PUSH2 0x3D8A JUMP JUMPDEST SWAP1 POP SWAP2 SWAP1 POP JUMP JUMPDEST PUSH2 0x561C DUP2 PUSH2 0x55F1 JUMP JUMPDEST DUP3 MSTORE POP POP JUMP JUMPDEST PUSH1 0x0 PUSH1 0x20 DUP3 ADD SWAP1 POP PUSH2 0x5637 PUSH1 0x0 DUP4 ADD DUP5 PUSH2 0x5613 JUMP JUMPDEST SWAP3 SWAP2 POP POP JUMP JUMPDEST PUSH32 0x4E6F207374616B6520746F207769746864726177000000000000000000000000 PUSH1 0x0 DUP3 ADD MSTORE POP JUMP JUMPDEST PUSH1 0x0 PUSH2 0x5673 PUSH1 0x14 DUP4 PUSH2 0x4697 JUMP JUMPDEST SWAP2 POP PUSH2 0x567E DUP3 PUSH2 0x563D JUMP JUMPDEST PUSH1 0x20 DUP3 ADD SWAP1 POP SWAP2 SWAP1 POP JUMP JUMPDEST PUSH1 0x0 PUSH1 0x20 DUP3 ADD SWAP1 POP DUP2 DUP2 SUB PUSH1 0x0 DUP4 ADD MSTORE PUSH2 0x56A2 DUP2 PUSH2 0x5666 JUMP JUMPDEST SWAP1 POP SWAP2 SWAP1 POP JUMP JUMPDEST PUSH32 0x6D7573742063616C6C20756E6C6F636B5374616B652829206669727374000000 PUSH1 0x0 DUP3 ADD MSTORE POP JUMP JUMPDEST PUSH1 0x0 PUSH2 0x56DF PUSH1 0x1D DUP4 PUSH2 0x4697 JUMP JUMPDEST SWAP2 POP PUSH2 0x56EA DUP3 PUSH2 0x56A9 JUMP JUMPDEST PUSH1 0x20 DUP3 ADD SWAP1 POP SWAP2 SWAP1 POP JUMP JUMPDEST PUSH1 0x0 PUSH1 0x20 DUP3 ADD SWAP1 POP DUP2 DUP2 SUB PUSH1 0x0 DUP4 ADD MSTORE PUSH2 0x570E DUP2 PUSH2 0x56D2 JUMP JUMPDEST SWAP1 POP SWAP2 SWAP1 POP JUMP JUMPDEST PUSH32 0x5374616B65207769746864726177616C206973206E6F74206475650000000000 PUSH1 0x0 DUP3 ADD MSTORE POP JUMP JUMPDEST PUSH1 0x0 PUSH2 0x574B PUSH1 0x1B DUP4 PUSH2 0x4697 JUMP JUMPDEST SWAP2 POP PUSH2 0x5756 DUP3 PUSH2 0x5715 JUMP JUMPDEST PUSH1 0x20 DUP3 ADD SWAP1 POP SWAP2 SWAP1 POP JUMP JUMPDEST PUSH1 0x0 PUSH1 0x20 DUP3 ADD SWAP1 POP DUP2 DUP2 SUB PUSH1 0x0 DUP4 ADD MSTORE PUSH2 0x577A DUP2 PUSH2 0x573E JUMP JUMPDEST SWAP1 POP SWAP2 SWAP1 POP JUMP JUMPDEST PUSH32 0x6661696C656420746F207769746864726177207374616B650000000000000000 PUSH1 0x0 DUP3 ADD MSTORE POP JUMP JUMPDEST PUSH1 0x0 PUSH2 0x57B7 PUSH1 0x18 DUP4 PUSH2 0x4697 JUMP JUMPDEST SWAP2 POP PUSH2 0x57C2 DUP3 PUSH2 0x5781 JUMP JUMPDEST PUSH1 0x20 DUP3 ADD SWAP1 POP SWAP2 SWAP1 POP JUMP JUMPDEST PUSH1 0x0 PUSH1 0x20 DUP3 ADD SWAP1 POP DUP2 DUP2 SUB PUSH1 0x0 DUP4 ADD MSTORE PUSH2 0x57E6 DUP2 PUSH2 0x57AA JUMP JUMPDEST SWAP1 POP SWAP2 SWAP1 POP JUMP JUMPDEST PUSH1 0x0 PUSH2 0x57F9 DUP4 DUP6 PUSH2 0x4BB5 JUMP JUMPDEST SWAP4 POP PUSH2 0x5806 DUP4 DUP6 DUP5 PUSH2 0x3CA8 JUMP JUMPDEST DUP3 DUP5 ADD SWAP1 POP SWAP4 SWAP3 POP POP POP JUMP JUMPDEST PUSH1 0x0 PUSH2 0x581F DUP3 DUP5 DUP7 PUSH2 0x57ED JUMP JUMPDEST SWAP2 POP DUP2 SWAP1 POP SWAP4 SWAP3 POP POP POP JUMP JUMPDEST PUSH1 0x0 PUSH1 0xC0 DUP3 ADD SWAP1 POP PUSH2 0x5840 PUSH1 0x0 DUP4 ADD DUP10 PUSH2 0x4043 JUMP JUMPDEST PUSH2 0x584D PUSH1 0x20 DUP4 ADD DUP9 PUSH2 0x4043 JUMP JUMPDEST PUSH2 0x585A PUSH1 0x40 DUP4 ADD DUP8 PUSH2 0x45DF JUMP JUMPDEST PUSH2 0x5867 PUSH1 0x60 DUP4 ADD DUP7 PUSH2 0x45DF JUMP JUMPDEST PUSH2 0x5874 PUSH1 0x80 DUP4 ADD DUP6 PUSH2 0x45C1 JUMP JUMPDEST DUP2 DUP2 SUB PUSH1 0xA0 DUP4 ADD MSTORE PUSH2 0x5886 DUP2 DUP5 PUSH2 0x49C7 JUMP JUMPDEST SWAP1 POP SWAP8 SWAP7 POP POP POP POP POP POP POP JUMP JUMPDEST PUSH1 0x0 PUSH2 0x589E DUP3 PUSH2 0x4981 JUMP JUMPDEST PUSH2 0x58A8 DUP2 DUP6 PUSH2 0x4F05 JUMP JUMPDEST SWAP4 POP PUSH2 0x58B8 DUP2 DUP6 PUSH1 0x20 DUP7 ADD PUSH2 0x499D JUMP JUMPDEST PUSH2 0x58C1 DUP2 PUSH2 0x3BEB JUMP JUMPDEST DUP5 ADD SWAP2 POP POP SWAP3 SWAP2 POP POP JUMP JUMPDEST PUSH1 0x0 PUSH1 0xC0 DUP4 ADD PUSH1 0x0 DUP4 ADD MLOAD PUSH2 0x58E4 PUSH1 0x0 DUP7 ADD DUP3 PUSH2 0x4E84 JUMP JUMPDEST POP PUSH1 0x20 DUP4 ADD MLOAD PUSH2 0x58F7 PUSH1 0x20 DUP7 ADD DUP3 PUSH2 0x4E84 JUMP JUMPDEST POP PUSH1 0x40 DUP4 ADD MLOAD PUSH2 0x590A PUSH1 0x40 DUP7 ADD DUP3 PUSH2 0x42B9 JUMP JUMPDEST POP PUSH1 0x60 DUP4 ADD MLOAD PUSH2 0x591D PUSH1 0x60 DUP7 ADD DUP3 PUSH2 0x42E9 JUMP JUMPDEST POP PUSH1 0x80 DUP4 ADD MLOAD PUSH2 0x5930 PUSH1 0x80 DUP7 ADD DUP3 PUSH2 0x42E9 JUMP JUMPDEST POP PUSH1 0xA0 DUP4 ADD MLOAD DUP5 DUP3 SUB PUSH1 0xA0 DUP7 ADD MSTORE PUSH2 0x5948 DUP3 DUP3 PUSH2 0x5893 JUMP JUMPDEST SWAP2 POP POP DUP1 SWAP2 POP POP SWAP3 SWAP2 POP POP JUMP JUMPDEST PUSH1 0x40 DUP3 ADD PUSH1 0x0 DUP3 ADD MLOAD PUSH2 0x596B PUSH1 0x0 DUP6 ADD DUP3 PUSH2 0x4E84 JUMP JUMPDEST POP PUSH1 0x20 DUP3 ADD MLOAD PUSH2 0x597E PUSH1 0x20 DUP6 ADD DUP3 PUSH2 0x4E84 JUMP JUMPDEST POP POP POP POP JUMP JUMPDEST PUSH1 0x40 DUP3 ADD PUSH1 0x0 DUP3 ADD MLOAD PUSH2 0x599A PUSH1 0x0 DUP6 ADD DUP3 PUSH2 0x4E84 JUMP JUMPDEST POP PUSH1 0x20 DUP3 ADD MLOAD PUSH2 0x59AD PUSH1 0x20 DUP6 ADD DUP3 PUSH2 0x4E84 JUMP JUMPDEST POP POP POP POP JUMP JUMPDEST PUSH1 0x60 DUP3 ADD PUSH1 0x0 DUP3 ADD MLOAD PUSH2 0x59C9 PUSH1 0x0 DUP6 ADD DUP3 PUSH2 0x4E5E JUMP JUMPDEST POP PUSH1 0x20 DUP3 ADD MLOAD PUSH2 0x59DC PUSH1 0x20 DUP6 ADD DUP3 PUSH2 0x5984 JUMP JUMPDEST POP POP POP POP JUMP JUMPDEST PUSH1 0x0 PUSH2 0x140 DUP3 ADD SWAP1 POP DUP2 DUP2 SUB PUSH1 0x0 DUP4 ADD MSTORE PUSH2 0x59FD DUP2 DUP9 PUSH2 0x58CC JUMP JUMPDEST SWAP1 POP PUSH2 0x5A0C PUSH1 0x20 DUP4 ADD DUP8 PUSH2 0x5955 JUMP JUMPDEST PUSH2 0x5A19 PUSH1 0x60 DUP4 ADD DUP7 PUSH2 0x5955 JUMP JUMPDEST PUSH2 0x5A26 PUSH1 0xA0 DUP4 ADD DUP6 PUSH2 0x5955 JUMP JUMPDEST PUSH2 0x5A33 PUSH1 0xE0 DUP4 ADD DUP5 PUSH2 0x59B3 JUMP JUMPDEST SWAP7 SWAP6 POP POP POP POP POP POP JUMP JUMPDEST PUSH1 0x0 PUSH1 0xE0 DUP3 ADD SWAP1 POP DUP2 DUP2 SUB PUSH1 0x0 DUP4 ADD MSTORE PUSH2 0x5A57 DUP2 DUP8 PUSH2 0x58CC JUMP JUMPDEST SWAP1 POP PUSH2 0x5A66 PUSH1 0x20 DUP4 ADD DUP7 PUSH2 0x5955 JUMP JUMPDEST PUSH2 0x5A73 PUSH1 0x60 DUP4 ADD DUP6 PUSH2 0x5955 JUMP JUMPDEST PUSH2 0x5A80 PUSH1 0xA0 DUP4 ADD DUP5 PUSH2 0x5955 JUMP JUMPDEST SWAP6 SWAP5 POP POP POP POP POP JUMP JUMPDEST PUSH32 0x6465706F736974206F766572666C6F7700000000000000000000000000000000 PUSH1 0x0 DUP3 ADD MSTORE POP JUMP JUMPDEST PUSH1 0x0 PUSH2 0x5ABF PUSH1 0x10 DUP4 PUSH2 0x4697 JUMP JUMPDEST SWAP2 POP PUSH2 0x5ACA DUP3 PUSH2 0x5A89 JUMP JUMPDEST PUSH1 0x20 DUP3 ADD SWAP1 POP SWAP2 SWAP1 POP JUMP JUMPDEST PUSH1 0x0 PUSH1 0x20 DUP3 ADD SWAP1 POP DUP2 DUP2 SUB PUSH1 0x0 DUP4 ADD MSTORE PUSH2 0x5AEE DUP2 PUSH2 0x5AB2 JUMP JUMPDEST SWAP1 POP SWAP2 SWAP1 POP JUMP JUMPDEST PUSH32 0x4E487B7100000000000000000000000000000000000000000000000000000000 PUSH1 0x0 MSTORE PUSH1 0x21 PUSH1 0x4 MSTORE PUSH1 0x24 PUSH1 0x0 REVERT JUMPDEST PUSH1 0x3 DUP2 LT PUSH2 0x5B35 JUMPI PUSH2 0x5B34 PUSH2 0x5AF5 JUMP JUMPDEST JUMPDEST POP JUMP JUMPDEST PUSH1 0x0 DUP2 SWAP1 POP PUSH2 0x5B46 DUP3 PUSH2 0x5B24 JUMP JUMPDEST SWAP2 SWAP1 POP JUMP JUMPDEST PUSH1 0x0 PUSH2 0x5B56 DUP3 PUSH2 0x5B38 JUMP JUMPDEST SWAP1 POP SWAP2 SWAP1 POP JUMP JUMPDEST PUSH2 0x5B66 DUP2 PUSH2 0x5B4B JUMP JUMPDEST DUP3 MSTORE POP POP JUMP JUMPDEST PUSH1 0x0 PUSH1 0x60 DUP3 ADD SWAP1 POP PUSH2 0x5B81 PUSH1 0x0 DUP4 ADD DUP7 PUSH2 0x5B5D JUMP JUMPDEST DUP2 DUP2 SUB PUSH1 0x20 DUP4 ADD MSTORE PUSH2 0x5B93 DUP2 DUP6 PUSH2 0x49C7 JUMP JUMPDEST SWAP1 POP PUSH2 0x5BA2 PUSH1 0x40 DUP4 ADD DUP5 PUSH2 0x4043 JUMP JUMPDEST SWAP5 SWAP4 POP POP POP POP JUMP JUMPDEST PUSH1 0x0 DUP2 PUSH1 0xE0 SHR SWAP1 POP SWAP2 SWAP1 POP JUMP JUMPDEST PUSH1 0x0 PUSH1 0x3 RETURNDATASIZE GT ISZERO PUSH2 0x5BD6 JUMPI PUSH1 0x4 PUSH1 0x0 DUP1 RETURNDATACOPY PUSH2 0x5BD3 PUSH1 0x0 MLOAD PUSH2 0x5BAA JUMP JUMPDEST SWAP1 POP JUMPDEST SWAP1 JUMP JUMPDEST PUSH1 0x0 PUSH1 0x44 RETURNDATASIZE LT PUSH2 0x5C66 JUMPI PUSH2 0x5BEB PUSH2 0x3B64 JUMP JUMPDEST PUSH1 0x4 RETURNDATASIZE SUB PUSH1 0x4 DUP3 RETURNDATACOPY DUP1 MLOAD RETURNDATASIZE PUSH1 0x24 DUP3 ADD GT PUSH8 0xFFFFFFFFFFFFFFFF DUP3 GT OR ISZERO PUSH2 0x5C13 JUMPI POP POP PUSH2 0x5C66 JUMP JUMPDEST DUP1 DUP3 ADD DUP1 MLOAD PUSH8 0xFFFFFFFFFFFFFFFF DUP2 GT ISZERO PUSH2 0x5C31 JUMPI POP POP POP POP PUSH2 0x5C66 JUMP JUMPDEST DUP1 PUSH1 0x20 DUP4 ADD ADD PUSH1 0x4 RETURNDATASIZE SUB DUP6 ADD DUP2 GT ISZERO PUSH2 0x5C4E JUMPI POP POP POP POP POP PUSH2 0x5C66 JUMP JUMPDEST PUSH2 0x5C5D DUP3 PUSH1 0x20 ADD DUP6 ADD DUP7 PUSH2 0x3C2B JUMP JUMPDEST DUP3 SWAP6 POP POP POP POP POP POP JUMPDEST SWAP1 JUMP JUMPDEST PUSH32 0x4141353020706F73744F702072657665727465643A2000000000000000000000 DUP2 MSTORE POP JUMP JUMPDEST PUSH1 0x0 DUP2 MLOAD SWAP1 POP SWAP2 SWAP1 POP JUMP JUMPDEST PUSH1 0x0 DUP2 SWAP1 POP SWAP3 SWAP2 POP POP JUMP JUMPDEST PUSH1 0x0 PUSH2 0x5CB0 DUP3 PUSH2 0x5C8F JUMP JUMPDEST PUSH2 0x5CBA DUP2 DUP6 PUSH2 0x5C9A JUMP JUMPDEST SWAP4 POP PUSH2 0x5CCA DUP2 DUP6 PUSH1 0x20 DUP7 ADD PUSH2 0x499D JUMP JUMPDEST DUP1 DUP5 ADD SWAP2 POP POP SWAP3 SWAP2 POP POP JUMP JUMPDEST PUSH1 0x0 PUSH2 0x5CE1 DUP3 PUSH2 0x5C69 JUMP JUMPDEST PUSH1 0x16 DUP3 ADD SWAP2 POP PUSH2 0x5CF1 DUP3 DUP5 PUSH2 0x5CA5 JUMP JUMPDEST SWAP2 POP DUP2 SWAP1 POP SWAP3 SWAP2 POP POP JUMP JUMPDEST PUSH1 0x0 PUSH2 0x5D07 DUP3 PUSH2 0x5C8F JUMP JUMPDEST PUSH2 0x5D11 DUP2 DUP6 PUSH2 0x4697 JUMP JUMPDEST SWAP4 POP PUSH2 0x5D21 DUP2 DUP6 PUSH1 0x20 DUP7 ADD PUSH2 0x499D JUMP JUMPDEST PUSH2 0x5D2A DUP2 PUSH2 0x3BEB JUMP JUMPDEST DUP5 ADD SWAP2 POP POP SWAP3 SWAP2 POP POP JUMP JUMPDEST PUSH1 0x0 PUSH1 0x40 DUP3 ADD SWAP1 POP PUSH2 0x5D4A PUSH1 0x0 DUP4 ADD DUP6 PUSH2 0x4043 JUMP JUMPDEST DUP2 DUP2 SUB PUSH1 0x20 DUP4 ADD MSTORE PUSH2 0x5D5C DUP2 DUP5 PUSH2 0x5CFC JUMP JUMPDEST SWAP1 POP SWAP4 SWAP3 POP POP POP JUMP JUMPDEST PUSH32 0x4141353020706F73744F70207265766572740000000000000000000000000000 PUSH1 0x0 DUP3 ADD MSTORE POP JUMP JUMPDEST PUSH1 0x0 PUSH2 0x5D9B PUSH1 0x12 DUP4 PUSH2 0x4697 JUMP JUMPDEST SWAP2 POP PUSH2 0x5DA6 DUP3 PUSH2 0x5D65 JUMP JUMPDEST PUSH1 0x20 DUP3 ADD SWAP1 POP SWAP2 SWAP1 POP JUMP JUMPDEST PUSH1 0x0 PUSH1 0x40 DUP3 ADD SWAP1 POP PUSH2 0x5DC6 PUSH1 0x0 DUP4 ADD DUP5 PUSH2 0x4043 JUMP JUMPDEST DUP2 DUP2 SUB PUSH1 0x20 DUP4 ADD MSTORE PUSH2 0x5DD7 DUP2 PUSH2 0x5D8E JUMP JUMPDEST SWAP1 POP SWAP3 SWAP2 POP POP JUMP JUMPDEST PUSH32 0x414135312070726566756E642062656C6F772061637475616C476173436F7374 PUSH1 0x0 DUP3 ADD MSTORE POP JUMP JUMPDEST PUSH1 0x0 PUSH2 0x5E15 PUSH1 0x20 DUP4 PUSH2 0x4697 JUMP JUMPDEST SWAP2 POP PUSH2 0x5E20 DUP3 PUSH2 0x5DDF JUMP JUMPDEST PUSH1 0x20 DUP3 ADD SWAP1 POP SWAP2 SWAP1 POP JUMP JUMPDEST PUSH1 0x0 PUSH1 0x40 DUP3 ADD SWAP1 POP PUSH2 0x5E40 PUSH1 0x0 DUP4 ADD DUP5 PUSH2 0x4043 JUMP JUMPDEST DUP2 DUP2 SUB PUSH1 0x20 DUP4 ADD MSTORE PUSH2 0x5E51 DUP2 PUSH2 0x5E08 JUMP JUMPDEST SWAP1 POP SWAP3 SWAP2 POP POP JUMP JUMPDEST PUSH1 0x0 PUSH1 0x80 DUP3 ADD SWAP1 POP PUSH2 0x5E6E PUSH1 0x0 DUP4 ADD DUP8 PUSH2 0x4043 JUMP JUMPDEST PUSH2 0x5E7B PUSH1 0x20 DUP4 ADD DUP7 PUSH2 0x45C1 JUMP JUMPDEST PUSH2 0x5E88 PUSH1 0x40 DUP4 ADD DUP6 PUSH2 0x4043 JUMP JUMPDEST PUSH2 0x5E95 PUSH1 0x60 DUP4 ADD DUP5 PUSH2 0x4043 JUMP JUMPDEST SWAP6 SWAP5 POP POP POP POP POP JUMP JUMPDEST PUSH32 0x41413934206761732076616C756573206F766572666C6F770000000000000000 PUSH1 0x0 DUP3 ADD MSTORE POP JUMP JUMPDEST PUSH1 0x0 PUSH2 0x5ED4 PUSH1 0x18 DUP4 PUSH2 0x4697 JUMP JUMPDEST SWAP2 POP PUSH2 0x5EDF DUP3 PUSH2 0x5E9E JUMP JUMPDEST PUSH1 0x20 DUP3 ADD SWAP1 POP SWAP2 SWAP1 POP JUMP JUMPDEST PUSH1 0x0 PUSH1 0x20 DUP3 ADD SWAP1 POP DUP2 DUP2 SUB PUSH1 0x0 DUP4 ADD MSTORE PUSH2 0x5F03 DUP2 PUSH2 0x5EC7 JUMP JUMPDEST SWAP1 POP SWAP2 SWAP1 POP JUMP JUMPDEST PUSH32 0x41413430206F76657220766572696669636174696F6E4761734C696D69740000 PUSH1 0x0 DUP3 ADD MSTORE POP JUMP JUMPDEST PUSH1 0x0 PUSH2 0x5F40 PUSH1 0x1E DUP4 PUSH2 0x4697 JUMP JUMPDEST SWAP2 POP PUSH2 0x5F4B DUP3 PUSH2 0x5F0A JUMP JUMPDEST PUSH1 0x20 DUP3 ADD SWAP1 POP SWAP2 SWAP1 POP JUMP JUMPDEST PUSH1 0x0 PUSH1 0x40 DUP3 ADD SWAP1 POP PUSH2 0x5F6B PUSH1 0x0 DUP4 ADD DUP5 PUSH2 0x4043 JUMP JUMPDEST DUP2 DUP2 SUB PUSH1 0x20 DUP4 ADD MSTORE PUSH2 0x5F7C DUP2 PUSH2 0x5F33 JUMP JUMPDEST SWAP1 POP SWAP3 SWAP2 POP POP JUMP JUMPDEST PUSH32 0x41413234207369676E6174757265206572726F72000000000000000000000000 PUSH1 0x0 DUP3 ADD MSTORE POP JUMP JUMPDEST PUSH1 0x0 PUSH2 0x5FBA PUSH1 0x14 DUP4 PUSH2 0x4697 JUMP JUMPDEST SWAP2 POP PUSH2 0x5FC5 DUP3 PUSH2 0x5F84 JUMP JUMPDEST PUSH1 0x20 DUP3 ADD SWAP1 POP SWAP2 SWAP1 POP JUMP JUMPDEST PUSH1 0x0 PUSH1 0x40 DUP3 ADD SWAP1 POP PUSH2 0x5FE5 PUSH1 0x0 DUP4 ADD DUP5 PUSH2 0x4043 JUMP JUMPDEST DUP2 DUP2 SUB PUSH1 0x20 DUP4 ADD MSTORE PUSH2 0x5FF6 DUP2 PUSH2 0x5FAD JUMP JUMPDEST SWAP1 POP SWAP3 SWAP2 POP POP JUMP JUMPDEST PUSH32 0x414132322065787069726564206F72206E6F7420647565000000000000000000 PUSH1 0x0 DUP3 ADD MSTORE POP JUMP JUMPDEST PUSH1 0x0 PUSH2 0x6034 PUSH1 0x17 DUP4 PUSH2 0x4697 JUMP JUMPDEST SWAP2 POP PUSH2 0x603F DUP3 PUSH2 0x5FFE JUMP JUMPDEST PUSH1 0x20 DUP3 ADD SWAP1 POP SWAP2 SWAP1 POP JUMP JUMPDEST PUSH1 0x0 PUSH1 0x40 DUP3 ADD SWAP1 POP PUSH2 0x605F PUSH1 0x0 DUP4 ADD DUP5 PUSH2 0x4043 JUMP JUMPDEST DUP2 DUP2 SUB PUSH1 0x20 DUP4 ADD MSTORE PUSH2 0x6070 DUP2 PUSH2 0x6027 JUMP JUMPDEST SWAP1 POP SWAP3 SWAP2 POP POP JUMP JUMPDEST PUSH32 0x41413334207369676E6174757265206572726F72000000000000000000000000 PUSH1 0x0 DUP3 ADD MSTORE POP JUMP JUMPDEST PUSH1 0x0 PUSH2 0x60AE PUSH1 0x14 DUP4 PUSH2 0x4697 JUMP JUMPDEST SWAP2 POP PUSH2 0x60B9 DUP3 PUSH2 0x6078 JUMP JUMPDEST PUSH1 0x20 DUP3 ADD SWAP1 POP SWAP2 SWAP1 POP JUMP JUMPDEST PUSH1 0x0 PUSH1 0x40 DUP3 ADD SWAP1 POP PUSH2 0x60D9 PUSH1 0x0 DUP4 ADD DUP5 PUSH2 0x4043 JUMP JUMPDEST DUP2 DUP2 SUB PUSH1 0x20 DUP4 ADD MSTORE PUSH2 0x60EA DUP2 PUSH2 0x60A1 JUMP JUMPDEST SWAP1 POP SWAP3 SWAP2 POP POP JUMP JUMPDEST PUSH32 0x41413332207061796D61737465722065787069726564206F72206E6F74206475 PUSH1 0x0 DUP3 ADD MSTORE PUSH32 0x6500000000000000000000000000000000000000000000000000000000000000 PUSH1 0x20 DUP3 ADD MSTORE POP JUMP JUMPDEST PUSH1 0x0 PUSH2 0x614E PUSH1 0x21 DUP4 PUSH2 0x4697 JUMP JUMPDEST SWAP2 POP PUSH2 0x6159 DUP3 PUSH2 0x60F2 JUMP JUMPDEST PUSH1 0x40 DUP3 ADD SWAP1 POP SWAP2 SWAP1 POP JUMP JUMPDEST PUSH1 0x0 PUSH1 0x40 DUP3 ADD SWAP1 POP PUSH2 0x6179 PUSH1 0x0 DUP4 ADD DUP5 PUSH2 0x4043 JUMP JUMPDEST DUP2 DUP2 SUB PUSH1 0x20 DUP4 ADD MSTORE PUSH2 0x618A DUP2 PUSH2 0x6141 JUMP JUMPDEST SWAP1 POP SWAP3 SWAP2 POP POP JUMP JUMPDEST PUSH2 0x100 DUP3 ADD PUSH1 0x0 DUP3 ADD MLOAD PUSH2 0x61A9 PUSH1 0x0 DUP6 ADD DUP3 PUSH2 0x4E5E JUMP JUMPDEST POP PUSH1 0x20 DUP3 ADD MLOAD PUSH2 0x61BC PUSH1 0x20 DUP6 ADD DUP3 PUSH2 0x4E84 JUMP JUMPDEST POP PUSH1 0x40 DUP3 ADD MLOAD PUSH2 0x61CF PUSH1 0x40 DUP6 ADD DUP3 PUSH2 0x4E84 JUMP JUMPDEST POP PUSH1 0x60 DUP3 ADD MLOAD PUSH2 0x61E2 PUSH1 0x60 DUP6 ADD DUP3 PUSH2 0x4E84 JUMP JUMPDEST POP PUSH1 0x80 DUP3 ADD MLOAD PUSH2 0x61F5 PUSH1 0x80 DUP6 ADD DUP3 PUSH2 0x4E84 JUMP JUMPDEST POP PUSH1 0xA0 DUP3 ADD MLOAD PUSH2 0x6208 PUSH1 0xA0 DUP6 ADD DUP3 PUSH2 0x4E5E JUMP JUMPDEST POP PUSH1 0xC0 DUP3 ADD MLOAD PUSH2 0x621B PUSH1 0xC0 DUP6 ADD DUP3 PUSH2 0x4E84 JUMP JUMPDEST POP PUSH1 0xE0 DUP3 ADD MLOAD PUSH2 0x622E PUSH1 0xE0 DUP6 ADD DUP3 PUSH2 0x4E84 JUMP JUMPDEST POP POP POP POP JUMP JUMPDEST PUSH2 0x623D DUP2 PUSH2 0x3E8A JUMP JUMPDEST DUP3 MSTORE POP POP JUMP JUMPDEST PUSH2 0x180 DUP3 ADD PUSH1 0x0 DUP3 ADD MLOAD PUSH2 0x625A PUSH1 0x0 DUP6 ADD DUP3 PUSH2 0x6192 JUMP JUMPDEST POP PUSH1 0x20 DUP3 ADD MLOAD PUSH2 0x626E PUSH2 0x100 DUP6 ADD DUP3 PUSH2 0x6234 JUMP JUMPDEST POP PUSH1 0x40 DUP3 ADD MLOAD PUSH2 0x6282 PUSH2 0x120 DUP6 ADD DUP3 PUSH2 0x4E84 JUMP JUMPDEST POP PUSH1 0x60 DUP3 ADD MLOAD PUSH2 0x6296 PUSH2 0x140 DUP6 ADD DUP3 PUSH2 0x4E84 JUMP JUMPDEST POP PUSH1 0x80 DUP3 ADD MLOAD PUSH2 0x62AA PUSH2 0x160 DUP6 ADD DUP3 PUSH2 0x4E84 JUMP JUMPDEST POP POP POP POP JUMP JUMPDEST PUSH1 0x0 PUSH2 0x1C0 DUP3 ADD SWAP1 POP DUP2 DUP2 SUB PUSH1 0x0 DUP4 ADD MSTORE PUSH2 0x62CC DUP2 DUP7 DUP9 PUSH2 0x5165 JUMP JUMPDEST SWAP1 POP PUSH2 0x62DB PUSH1 0x20 DUP4 ADD DUP6 PUSH2 0x6243 JUMP JUMPDEST DUP2 DUP2 SUB PUSH2 0x1A0 DUP4 ADD MSTORE PUSH2 0x62EE DUP2 DUP5 PUSH2 0x49C7 JUMP JUMPDEST SWAP1 POP SWAP6 SWAP5 POP POP POP POP POP JUMP JUMPDEST PUSH1 0x0 DUP2 MLOAD SWAP1 POP PUSH2 0x6308 DUP2 PUSH2 0x3D94 JUMP JUMPDEST SWAP3 SWAP2 POP POP JUMP JUMPDEST PUSH1 0x0 PUSH1 0x20 DUP3 DUP5 SUB SLT ISZERO PUSH2 0x6324 JUMPI PUSH2 0x6323 PUSH2 0x3B6E JUMP JUMPDEST JUMPDEST PUSH1 0x0 PUSH2 0x6332 DUP5 DUP3 DUP6 ADD PUSH2 0x62F9 JUMP JUMPDEST SWAP2 POP POP SWAP3 SWAP2 POP POP JUMP JUMPDEST PUSH32 0x41413935206F7574206F66206761730000000000000000000000000000000000 PUSH1 0x0 DUP3 ADD MSTORE POP JUMP JUMPDEST PUSH1 0x0 PUSH2 0x6371 PUSH1 0xF DUP4 PUSH2 0x4697 JUMP JUMPDEST SWAP2 POP PUSH2 0x637C DUP3 PUSH2 0x633B JUMP JUMPDEST PUSH1 0x20 DUP3 ADD SWAP1 POP SWAP2 SWAP1 POP JUMP JUMPDEST PUSH1 0x0 PUSH1 0x40 DUP3 ADD SWAP1 POP PUSH2 0x639C PUSH1 0x0 DUP4 ADD DUP5 PUSH2 0x4043 JUMP JUMPDEST DUP2 DUP2 SUB PUSH1 0x20 DUP4 ADD MSTORE PUSH2 0x63AD DUP2 PUSH2 0x6364 JUMP JUMPDEST SWAP1 POP SWAP3 SWAP2 POP POP JUMP JUMPDEST PUSH32 0x4141393020696E76616C69642062656E65666963696172790000000000000000 PUSH1 0x0 DUP3 ADD MSTORE POP JUMP JUMPDEST PUSH1 0x0 PUSH2 0x63EB PUSH1 0x18 DUP4 PUSH2 0x4697 JUMP JUMPDEST SWAP2 POP PUSH2 0x63F6 DUP3 PUSH2 0x63B5 JUMP JUMPDEST PUSH1 0x20 DUP3 ADD SWAP1 POP SWAP2 SWAP1 POP JUMP JUMPDEST PUSH1 0x0 PUSH1 0x20 DUP3 ADD SWAP1 POP DUP2 DUP2 SUB PUSH1 0x0 DUP4 ADD MSTORE PUSH2 0x641A DUP2 PUSH2 0x63DE JUMP JUMPDEST SWAP1 POP SWAP2 SWAP1 POP JUMP JUMPDEST PUSH32 0x41413931206661696C65642073656E6420746F2062656E656669636961727900 PUSH1 0x0 DUP3 ADD MSTORE POP JUMP JUMPDEST PUSH1 0x0 PUSH2 0x6457 PUSH1 0x1F DUP4 PUSH2 0x4697 JUMP JUMPDEST SWAP2 POP PUSH2 0x6462 DUP3 PUSH2 0x6421 JUMP JUMPDEST PUSH1 0x20 DUP3 ADD SWAP1 POP SWAP2 SWAP1 POP JUMP JUMPDEST PUSH1 0x0 PUSH1 0x20 DUP3 ADD SWAP1 POP DUP2 DUP2 SUB PUSH1 0x0 DUP4 ADD MSTORE PUSH2 0x6486 DUP2 PUSH2 0x644A JUMP JUMPDEST SWAP1 POP SWAP2 SWAP1 POP JUMP JUMPDEST PUSH1 0x0 PUSH1 0x60 DUP3 ADD SWAP1 POP DUP2 DUP2 SUB PUSH1 0x0 DUP4 ADD MSTORE PUSH2 0x64A8 DUP2 DUP8 DUP10 PUSH2 0x5165 JUMP JUMPDEST SWAP1 POP PUSH2 0x64B7 PUSH1 0x20 DUP4 ADD DUP7 PUSH2 0x51CD JUMP JUMPDEST DUP2 DUP2 SUB PUSH1 0x40 DUP4 ADD MSTORE PUSH2 0x64CA DUP2 DUP5 DUP7 PUSH2 0x5165 JUMP JUMPDEST SWAP1 POP SWAP7 SWAP6 POP POP POP POP POP POP JUMP JUMPDEST PUSH1 0x0 DUP2 SWAP1 POP SWAP2 SWAP1 POP JUMP JUMPDEST PUSH1 0x0 PUSH2 0x64FB PUSH2 0x64F6 PUSH2 0x64F1 DUP5 PUSH2 0x64D6 JUMP JUMPDEST PUSH2 0x4641 JUMP JUMPDEST PUSH2 0x3D8A JUMP JUMPDEST SWAP1 POP SWAP2 SWAP1 POP JUMP JUMPDEST PUSH2 0x650B DUP2 PUSH2 0x64E0 JUMP JUMPDEST DUP3 MSTORE POP POP JUMP JUMPDEST PUSH1 0x0 PUSH1 0x40 DUP3 ADD SWAP1 POP PUSH2 0x6526 PUSH1 0x0 DUP4 ADD DUP6 PUSH2 0x6502 JUMP JUMPDEST DUP2 DUP2 SUB PUSH1 0x20 DUP4 ADD MSTORE PUSH2 0x6538 DUP2 DUP5 PUSH2 0x5CFC JUMP JUMPDEST SWAP1 POP SWAP4 SWAP3 POP POP POP JUMP JUMPDEST PUSH32 0x4141393320696E76616C6964207061796D6173746572416E6444617461000000 PUSH1 0x0 DUP3 ADD MSTORE POP JUMP JUMPDEST PUSH1 0x0 PUSH2 0x6577 PUSH1 0x1D DUP4 PUSH2 0x4697 JUMP JUMPDEST SWAP2 POP PUSH2 0x6582 DUP3 PUSH2 0x6541 JUMP JUMPDEST PUSH1 0x20 DUP3 ADD SWAP1 POP SWAP2 SWAP1 POP JUMP JUMPDEST PUSH1 0x0 PUSH1 0x20 DUP3 ADD SWAP1 POP DUP2 DUP2 SUB PUSH1 0x0 DUP4 ADD MSTORE PUSH2 0x65A6 DUP2 PUSH2 0x656A JUMP JUMPDEST SWAP1 POP SWAP2 SWAP1 POP JUMP JUMPDEST PUSH1 0x0 PUSH2 0x160 DUP4 ADD PUSH2 0x65C1 PUSH1 0x0 DUP5 ADD DUP5 PUSH2 0x4E47 JUMP JUMPDEST PUSH2 0x65CE PUSH1 0x0 DUP7 ADD DUP3 PUSH2 0x4E5E JUMP JUMPDEST POP PUSH2 0x65DC PUSH1 0x20 DUP5 ADD DUP5 PUSH2 0x4E6D JUMP JUMPDEST PUSH2 0x65E9 PUSH1 0x20 DUP7 ADD DUP3 PUSH2 0x4E84 JUMP JUMPDEST POP PUSH2 0x65F7 PUSH1 0x40 DUP5 ADD DUP5 PUSH2 0x4EA2 JUMP JUMPDEST DUP6 DUP4 SUB PUSH1 0x40 DUP8 ADD MSTORE PUSH2 0x660A DUP4 DUP3 DUP5 PUSH2 0x4F16 JUMP JUMPDEST SWAP3 POP POP POP PUSH2 0x661B PUSH1 0x60 DUP5 ADD DUP5 PUSH2 0x4EA2 JUMP JUMPDEST DUP6 DUP4 SUB PUSH1 0x60 DUP8 ADD MSTORE PUSH2 0x662E DUP4 DUP3 DUP5 PUSH2 0x4F16 JUMP JUMPDEST SWAP3 POP POP POP PUSH2 0x663F PUSH1 0x80 DUP5 ADD DUP5 PUSH2 0x4E6D JUMP JUMPDEST PUSH2 0x664C PUSH1 0x80 DUP7 ADD DUP3 PUSH2 0x4E84 JUMP JUMPDEST POP PUSH2 0x665A PUSH1 0xA0 DUP5 ADD DUP5 PUSH2 0x4E6D JUMP JUMPDEST PUSH2 0x6667 PUSH1 0xA0 DUP7 ADD DUP3 PUSH2 0x4E84 JUMP JUMPDEST POP PUSH2 0x6675 PUSH1 0xC0 DUP5 ADD DUP5 PUSH2 0x4E6D JUMP JUMPDEST PUSH2 0x6682 PUSH1 0xC0 DUP7 ADD DUP3 PUSH2 0x4E84 JUMP JUMPDEST POP PUSH2 0x6690 PUSH1 0xE0 DUP5 ADD DUP5 PUSH2 0x4E6D JUMP JUMPDEST PUSH2 0x669D PUSH1 0xE0 DUP7 ADD DUP3 PUSH2 0x4E84 JUMP JUMPDEST POP PUSH2 0x66AC PUSH2 0x100 DUP5 ADD DUP5 PUSH2 0x4E6D JUMP JUMPDEST PUSH2 0x66BA PUSH2 0x100 DUP7 ADD DUP3 PUSH2 0x4E84 JUMP JUMPDEST POP PUSH2 0x66C9 PUSH2 0x120 DUP5 ADD DUP5 PUSH2 0x4EA2 JUMP JUMPDEST DUP6 DUP4 SUB PUSH2 0x120 DUP8 ADD MSTORE PUSH2 0x66DD DUP4 DUP3 DUP5 PUSH2 0x4F16 JUMP JUMPDEST SWAP3 POP POP POP PUSH2 0x66EF PUSH2 0x140 DUP5 ADD DUP5 PUSH2 0x4EA2 JUMP JUMPDEST DUP6 DUP4 SUB PUSH2 0x140 DUP8 ADD MSTORE PUSH2 0x6703 DUP4 DUP3 DUP5 PUSH2 0x4F16 JUMP JUMPDEST SWAP3 POP POP POP DUP1 SWAP2 POP POP SWAP3 SWAP2 POP POP JUMP JUMPDEST PUSH1 0x0 PUSH1 0x60 DUP3 ADD SWAP1 POP DUP2 DUP2 SUB PUSH1 0x0 DUP4 ADD MSTORE PUSH2 0x672B DUP2 DUP7 PUSH2 0x65AD JUMP JUMPDEST SWAP1 POP PUSH2 0x673A PUSH1 0x20 DUP4 ADD DUP6 PUSH2 0x44CB JUMP JUMPDEST PUSH2 0x6747 PUSH1 0x40 DUP4 ADD DUP5 PUSH2 0x4043 JUMP JUMPDEST SWAP5 SWAP4 POP POP POP POP JUMP JUMPDEST PUSH32 0x414132332072657665727465643A200000000000000000000000000000000000 DUP2 MSTORE POP JUMP JUMPDEST PUSH1 0x0 PUSH2 0x6780 DUP3 PUSH2 0x674F JUMP JUMPDEST PUSH1 0xF DUP3 ADD SWAP2 POP PUSH2 0x6790 DUP3 DUP5 PUSH2 0x5CA5 JUMP JUMPDEST SWAP2 POP DUP2 SWAP1 POP SWAP3 SWAP2 POP POP JUMP JUMPDEST PUSH32 0x4141323320726576657274656420286F72204F4F472900000000000000000000 PUSH1 0x0 DUP3 ADD MSTORE POP JUMP JUMPDEST PUSH1 0x0 PUSH2 0x67D1 PUSH1 0x16 DUP4 PUSH2 0x4697 JUMP JUMPDEST SWAP2 POP PUSH2 0x67DC DUP3 PUSH2 0x679B JUMP JUMPDEST PUSH1 0x20 DUP3 ADD SWAP1 POP SWAP2 SWAP1 POP JUMP JUMPDEST PUSH1 0x0 PUSH1 0x40 DUP3 ADD SWAP1 POP PUSH2 0x67FC PUSH1 0x0 DUP4 ADD DUP5 PUSH2 0x4043 JUMP JUMPDEST DUP2 DUP2 SUB PUSH1 0x20 DUP4 ADD MSTORE PUSH2 0x680D DUP2 PUSH2 0x67C4 JUMP JUMPDEST SWAP1 POP SWAP3 SWAP2 POP POP JUMP JUMPDEST PUSH32 0x41413231206469646E2774207061792070726566756E64000000000000000000 PUSH1 0x0 DUP3 ADD MSTORE POP JUMP JUMPDEST PUSH1 0x0 PUSH2 0x684B PUSH1 0x17 DUP4 PUSH2 0x4697 JUMP JUMPDEST SWAP2 POP PUSH2 0x6856 DUP3 PUSH2 0x6815 JUMP JUMPDEST PUSH1 0x20 DUP3 ADD SWAP1 POP SWAP2 SWAP1 POP JUMP JUMPDEST PUSH1 0x0 PUSH1 0x40 DUP3 ADD SWAP1 POP PUSH2 0x6876 PUSH1 0x0 DUP4 ADD DUP5 PUSH2 0x4043 JUMP JUMPDEST DUP2 DUP2 SUB PUSH1 0x20 DUP4 ADD MSTORE PUSH2 0x6887 DUP2 PUSH2 0x683E JUMP JUMPDEST SWAP1 POP SWAP3 SWAP2 POP POP JUMP JUMPDEST PUSH32 0x4141343120746F6F206C6974746C6520766572696669636174696F6E47617300 PUSH1 0x0 DUP3 ADD MSTORE POP JUMP JUMPDEST PUSH1 0x0 PUSH2 0x68C5 PUSH1 0x1F DUP4 PUSH2 0x4697 JUMP JUMPDEST SWAP2 POP PUSH2 0x68D0 DUP3 PUSH2 0x688F JUMP JUMPDEST PUSH1 0x20 DUP3 ADD SWAP1 POP SWAP2 SWAP1 POP JUMP JUMPDEST PUSH1 0x0 PUSH1 0x20 DUP3 ADD SWAP1 POP DUP2 DUP2 SUB PUSH1 0x0 DUP4 ADD MSTORE PUSH2 0x68F4 DUP2 PUSH2 0x68B8 JUMP JUMPDEST SWAP1 POP SWAP2 SWAP1 POP JUMP JUMPDEST PUSH32 0x41413331207061796D6173746572206465706F73697420746F6F206C6F770000 PUSH1 0x0 DUP3 ADD MSTORE POP JUMP JUMPDEST PUSH1 0x0 PUSH2 0x6931 PUSH1 0x1E DUP4 PUSH2 0x4697 JUMP JUMPDEST SWAP2 POP PUSH2 0x693C DUP3 PUSH2 0x68FB JUMP JUMPDEST PUSH1 0x20 DUP3 ADD SWAP1 POP SWAP2 SWAP1 POP JUMP JUMPDEST PUSH1 0x0 PUSH1 0x40 DUP3 ADD SWAP1 POP PUSH2 0x695C PUSH1 0x0 DUP4 ADD DUP5 PUSH2 0x4043 JUMP JUMPDEST DUP2 DUP2 SUB PUSH1 0x20 DUP4 ADD MSTORE PUSH2 0x696D DUP2 PUSH2 0x6924 JUMP JUMPDEST SWAP1 POP SWAP3 SWAP2 POP POP JUMP JUMPDEST PUSH1 0x0 PUSH2 0x6988 PUSH2 0x6983 DUP5 PUSH2 0x3C77 JUMP JUMPDEST PUSH2 0x3C5C JUMP JUMPDEST SWAP1 POP DUP3 DUP2 MSTORE PUSH1 0x20 DUP2 ADD DUP5 DUP5 DUP5 ADD GT ISZERO PUSH2 0x69A4 JUMPI PUSH2 0x69A3 PUSH2 0x3BE6 JUMP JUMPDEST JUMPDEST PUSH2 0x69AF DUP5 DUP3 DUP6 PUSH2 0x499D JUMP JUMPDEST POP SWAP4 SWAP3 POP POP POP JUMP JUMPDEST PUSH1 0x0 DUP3 PUSH1 0x1F DUP4 ADD SLT PUSH2 0x69CC JUMPI PUSH2 0x69CB PUSH2 0x3BE1 JUMP JUMPDEST JUMPDEST DUP2 MLOAD PUSH2 0x69DC DUP5 DUP3 PUSH1 0x20 DUP7 ADD PUSH2 0x6975 JUMP JUMPDEST SWAP2 POP POP SWAP3 SWAP2 POP POP JUMP JUMPDEST PUSH1 0x0 DUP1 PUSH1 0x40 DUP4 DUP6 SUB SLT ISZERO PUSH2 0x69FC JUMPI PUSH2 0x69FB PUSH2 0x3B6E JUMP JUMPDEST JUMPDEST PUSH1 0x0 DUP4 ADD MLOAD PUSH8 0xFFFFFFFFFFFFFFFF DUP2 GT ISZERO PUSH2 0x6A1A JUMPI PUSH2 0x6A19 PUSH2 0x3B73 JUMP JUMPDEST JUMPDEST PUSH2 0x6A26 DUP6 DUP3 DUP7 ADD PUSH2 0x69B7 JUMP JUMPDEST SWAP3 POP POP PUSH1 0x20 PUSH2 0x6A37 DUP6 DUP3 DUP7 ADD PUSH2 0x62F9 JUMP JUMPDEST SWAP2 POP POP SWAP3 POP SWAP3 SWAP1 POP JUMP JUMPDEST PUSH32 0x414133332072657665727465643A200000000000000000000000000000000000 DUP2 MSTORE POP JUMP JUMPDEST PUSH1 0x0 PUSH2 0x6A72 DUP3 PUSH2 0x6A41 JUMP JUMPDEST PUSH1 0xF DUP3 ADD SWAP2 POP PUSH2 0x6A82 DUP3 DUP5 PUSH2 0x5CA5 JUMP JUMPDEST SWAP2 POP DUP2 SWAP1 POP SWAP3 SWAP2 POP POP JUMP JUMPDEST PUSH32 0x4141333320726576657274656420286F72204F4F472900000000000000000000 PUSH1 0x0 DUP3 ADD MSTORE POP JUMP JUMPDEST PUSH1 0x0 PUSH2 0x6AC3 PUSH1 0x16 DUP4 PUSH2 0x4697 JUMP JUMPDEST SWAP2 POP PUSH2 0x6ACE DUP3 PUSH2 0x6A8D JUMP JUMPDEST PUSH1 0x20 DUP3 ADD SWAP1 POP SWAP2 SWAP1 POP JUMP JUMPDEST PUSH1 0x0 PUSH1 0x40 DUP3 ADD SWAP1 POP PUSH2 0x6AEE PUSH1 0x0 DUP4 ADD DUP5 PUSH2 0x4043 JUMP JUMPDEST DUP2 DUP2 SUB PUSH1 0x20 DUP4 ADD MSTORE PUSH2 0x6AFF DUP2 PUSH2 0x6AB6 JUMP JUMPDEST SWAP1 POP SWAP3 SWAP2 POP POP JUMP JUMPDEST PUSH32 0x414131302073656E64657220616C726561647920636F6E737472756374656400 PUSH1 0x0 DUP3 ADD MSTORE POP JUMP JUMPDEST PUSH1 0x0 PUSH2 0x6B3D PUSH1 0x1F DUP4 PUSH2 0x4697 JUMP JUMPDEST SWAP2 POP PUSH2 0x6B48 DUP3 PUSH2 0x6B07 JUMP JUMPDEST PUSH1 0x20 DUP3 ADD SWAP1 POP SWAP2 SWAP1 POP JUMP JUMPDEST PUSH1 0x0 PUSH1 0x40 DUP3 ADD SWAP1 POP PUSH2 0x6B68 PUSH1 0x0 DUP4 ADD DUP5 PUSH2 0x4043 JUMP JUMPDEST DUP2 DUP2 SUB PUSH1 0x20 DUP4 ADD MSTORE PUSH2 0x6B79 DUP2 PUSH2 0x6B30 JUMP JUMPDEST SWAP1 POP SWAP3 SWAP2 POP POP JUMP JUMPDEST PUSH32 0x4141313320696E6974436F6465206661696C6564206F72204F4F470000000000 PUSH1 0x0 DUP3 ADD MSTORE POP JUMP JUMPDEST PUSH1 0x0 PUSH2 0x6BB7 PUSH1 0x1B DUP4 PUSH2 0x4697 JUMP JUMPDEST SWAP2 POP PUSH2 0x6BC2 DUP3 PUSH2 0x6B81 JUMP JUMPDEST PUSH1 0x20 DUP3 ADD SWAP1 POP SWAP2 SWAP1 POP JUMP JUMPDEST PUSH1 0x0 PUSH1 0x40 DUP3 ADD SWAP1 POP PUSH2 0x6BE2 PUSH1 0x0 DUP4 ADD DUP5 PUSH2 0x4043 JUMP JUMPDEST DUP2 DUP2 SUB PUSH1 0x20 DUP4 ADD MSTORE PUSH2 0x6BF3 DUP2 PUSH2 0x6BAA JUMP JUMPDEST SWAP1 POP SWAP3 SWAP2 POP POP JUMP JUMPDEST PUSH32 0x4141313420696E6974436F6465206D7573742072657475726E2073656E646572 PUSH1 0x0 DUP3 ADD MSTORE POP JUMP JUMPDEST PUSH1 0x0 PUSH2 0x6C31 PUSH1 0x20 DUP4 PUSH2 0x4697 JUMP JUMPDEST SWAP2 POP PUSH2 0x6C3C DUP3 PUSH2 0x6BFB JUMP JUMPDEST PUSH1 0x20 DUP3 ADD SWAP1 POP SWAP2 SWAP1 POP JUMP JUMPDEST PUSH1 0x0 PUSH1 0x40 DUP3 ADD SWAP1 POP PUSH2 0x6C5C PUSH1 0x0 DUP4 ADD DUP5 PUSH2 0x4043 JUMP JUMPDEST DUP2 DUP2 SUB PUSH1 0x20 DUP4 ADD MSTORE PUSH2 0x6C6D DUP2 PUSH2 0x6C24 JUMP JUMPDEST SWAP1 POP SWAP3 SWAP2 POP POP JUMP JUMPDEST PUSH32 0x4141313520696E6974436F6465206D757374206372656174652073656E646572 PUSH1 0x0 DUP3 ADD MSTORE POP JUMP JUMPDEST PUSH1 0x0 PUSH2 0x6CAB PUSH1 0x20 DUP4 PUSH2 0x4697 JUMP JUMPDEST SWAP2 POP PUSH2 0x6CB6 DUP3 PUSH2 0x6C75 JUMP JUMPDEST PUSH1 0x20 DUP3 ADD SWAP1 POP SWAP2 SWAP1 POP JUMP JUMPDEST PUSH1 0x0 PUSH1 0x40 DUP3 ADD SWAP1 POP PUSH2 0x6CD6 PUSH1 0x0 DUP4 ADD DUP5 PUSH2 0x4043 JUMP JUMPDEST DUP2 DUP2 SUB PUSH1 0x20 DUP4 ADD MSTORE PUSH2 0x6CE7 DUP2 PUSH2 0x6C9E JUMP JUMPDEST SWAP1 POP SWAP3 SWAP2 POP POP JUMP JUMPDEST PUSH1 0x0 PUSH1 0x40 DUP3 ADD SWAP1 POP PUSH2 0x6D04 PUSH1 0x0 DUP4 ADD DUP6 PUSH2 0x51CD JUMP JUMPDEST PUSH2 0x6D11 PUSH1 0x20 DUP4 ADD DUP5 PUSH2 0x51CD JUMP JUMPDEST SWAP4 SWAP3 POP POP POP JUMP INVALID LOG2 PUSH5 0x6970667358 0x22 SLT KECCAK256 0xDF PUSH31 0xD039CA2F549898BE1770FCF30F68DDC10ED2D51EC3A8ECC3DE2495B8C94E64 PUSH20 0x6F6C634300081200336080604052348015610010 JUMPI PUSH1 0x0 DUP1 REVERT JUMPDEST POP PUSH2 0x342 DUP1 PUSH2 0x20 PUSH1 0x0 CODECOPY PUSH1 0x0 RETURN INVALID PUSH1 0x80 PUSH1 0x40 MSTORE CALLVALUE DUP1 ISZERO PUSH2 0x10 JUMPI PUSH1 0x0 DUP1 REVERT JUMPDEST POP PUSH1 0x4 CALLDATASIZE LT PUSH2 0x2B JUMPI PUSH1 0x0 CALLDATALOAD PUSH1 0xE0 SHR DUP1 PUSH4 0x570E1A36 EQ PUSH2 0x30 JUMPI JUMPDEST PUSH1 0x0 DUP1 REVERT JUMPDEST PUSH2 0x4A PUSH1 0x4 DUP1 CALLDATASIZE SUB DUP2 ADD SWAP1 PUSH2 0x45 SWAP2 SWAP1 PUSH2 0x17B JUMP JUMPDEST PUSH2 0x60 JUMP JUMPDEST PUSH1 0x40 MLOAD PUSH2 0x57 SWAP2 SWAP1 PUSH2 0x209 JUMP JUMPDEST PUSH1 0x40 MLOAD DUP1 SWAP2 SUB SWAP1 RETURN JUMPDEST PUSH1 0x0 DUP1 DUP4 DUP4 PUSH1 0x0 SWAP1 PUSH1 0x14 SWAP3 PUSH2 0x77 SWAP4 SWAP3 SWAP2 SWAP1 PUSH2 0x22E JUMP JUMPDEST SWAP1 PUSH2 0x82 SWAP2 SWAP1 PUSH2 0x2AD JUMP JUMPDEST PUSH1 0x60 SHR SWAP1 POP PUSH1 0x0 DUP5 DUP5 PUSH1 0x14 SWAP1 DUP1 SWAP3 PUSH2 0x9C SWAP4 SWAP3 SWAP2 SWAP1 PUSH2 0x22E JUMP JUMPDEST DUP1 DUP1 PUSH1 0x1F ADD PUSH1 0x20 DUP1 SWAP2 DIV MUL PUSH1 0x20 ADD PUSH1 0x40 MLOAD SWAP1 DUP2 ADD PUSH1 0x40 MSTORE DUP1 SWAP4 SWAP3 SWAP2 SWAP1 DUP2 DUP2 MSTORE PUSH1 0x20 ADD DUP4 DUP4 DUP1 DUP3 DUP5 CALLDATACOPY PUSH1 0x0 DUP2 DUP5 ADD MSTORE PUSH1 0x1F NOT PUSH1 0x1F DUP3 ADD AND SWAP1 POP DUP1 DUP4 ADD SWAP3 POP POP POP POP POP POP POP SWAP1 POP PUSH1 0x0 PUSH1 0x20 PUSH1 0x0 DUP4 MLOAD PUSH1 0x20 DUP6 ADD PUSH1 0x0 DUP8 GAS CALL SWAP1 POP PUSH1 0x0 MLOAD SWAP4 POP DUP1 PUSH2 0x103 JUMPI PUSH1 0x0 SWAP4 POP JUMPDEST POP POP POP SWAP3 SWAP2 POP POP JUMP JUMPDEST PUSH1 0x0 DUP1 REVERT JUMPDEST PUSH1 0x0 DUP1 REVERT JUMPDEST PUSH1 0x0 DUP1 REVERT JUMPDEST PUSH1 0x0 DUP1 REVERT JUMPDEST PUSH1 0x0 DUP1 REVERT JUMPDEST PUSH1 0x0 DUP1 DUP4 PUSH1 0x1F DUP5 ADD SLT PUSH2 0x13B JUMPI PUSH2 0x13A PUSH2 0x116 JUMP JUMPDEST JUMPDEST DUP3 CALLDATALOAD SWAP1 POP PUSH8 0xFFFFFFFFFFFFFFFF DUP2 GT ISZERO PUSH2 0x158 JUMPI PUSH2 0x157 PUSH2 0x11B JUMP JUMPDEST JUMPDEST PUSH1 0x20 DUP4 ADD SWAP2 POP DUP4 PUSH1 0x1 DUP3 MUL DUP4 ADD GT ISZERO PUSH2 0x174 JUMPI PUSH2 0x173 PUSH2 0x120 JUMP JUMPDEST JUMPDEST SWAP3 POP SWAP3 SWAP1 POP JUMP JUMPDEST PUSH1 0x0 DUP1 PUSH1 0x20 DUP4 DUP6 SUB SLT ISZERO PUSH2 0x192 JUMPI PUSH2 0x191 PUSH2 0x10C JUMP JUMPDEST JUMPDEST PUSH1 0x0 DUP4 ADD CALLDATALOAD PUSH8 0xFFFFFFFFFFFFFFFF DUP2 GT ISZERO PUSH2 0x1B0 JUMPI PUSH2 0x1AF PUSH2 0x111 JUMP JUMPDEST JUMPDEST PUSH2 0x1BC DUP6 DUP3 DUP7 ADD PUSH2 0x125 JUMP JUMPDEST SWAP3 POP SWAP3 POP POP SWAP3 POP SWAP3 SWAP1 POP JUMP JUMPDEST PUSH1 0x0 PUSH20 0xFFFFFFFFFFFFFFFFFFFFFFFFFFFFFFFFFFFFFFFF DUP3 AND SWAP1 POP SWAP2 SWAP1 POP JUMP JUMPDEST PUSH1 0x0 PUSH2 0x1F3 DUP3 PUSH2 0x1C8 JUMP JUMPDEST SWAP1 POP SWAP2 SWAP1 POP JUMP JUMPDEST PUSH2 0x203 DUP2 PUSH2 0x1E8 JUMP JUMPDEST DUP3 MSTORE POP POP JUMP JUMPDEST PUSH1 0x0 PUSH1 0x20 DUP3 ADD SWAP1 POP PUSH2 0x21E PUSH1 0x0 DUP4 ADD DUP5 PUSH2 0x1FA JUMP JUMPDEST SWAP3 SWAP2 POP POP JUMP JUMPDEST PUSH1 0x0 DUP1 REVERT JUMPDEST PUSH1 0x0 DUP1 REVERT JUMPDEST PUSH1 0x0 DUP1 DUP6 DUP6 GT ISZERO PUSH2 0x242 JUMPI PUSH2 0x241 PUSH2 0x224 JUMP JUMPDEST JUMPDEST DUP4 DUP7 GT ISZERO PUSH2 0x253 JUMPI PUSH2 0x252 PUSH2 0x229 JUMP JUMPDEST JUMPDEST PUSH1 0x1 DUP6 MUL DUP4 ADD SWAP2 POP DUP5 DUP7 SUB SWAP1 POP SWAP5 POP SWAP5 SWAP3 POP POP POP JUMP JUMPDEST PUSH1 0x0 DUP3 SWAP1 POP SWAP3 SWAP2 POP POP JUMP JUMPDEST PUSH1 0x0 PUSH32 0xFFFFFFFFFFFFFFFFFFFFFFFFFFFFFFFFFFFFFFFF000000000000000000000000 DUP3 AND SWAP1 POP SWAP2 SWAP1 POP JUMP JUMPDEST PUSH1 0x0 DUP3 DUP3 SHL SWAP1 POP SWAP3 SWAP2 POP POP JUMP JUMPDEST PUSH1 0x0 PUSH2 0x2B9 DUP4 DUP4 PUSH2 0x269 JUMP JUMPDEST DUP3 PUSH2 0x2C4 DUP2 CALLDATALOAD PUSH2 0x274 JUMP JUMPDEST SWAP3 POP PUSH1 0x14 DUP3 LT ISZERO PUSH2 0x304 JUMPI PUSH2 0x2FF PUSH32 0xFFFFFFFFFFFFFFFFFFFFFFFFFFFFFFFFFFFFFFFF000000000000000000000000 DUP4 PUSH1 0x14 SUB PUSH1 0x8 MUL PUSH2 0x2A0 JUMP JUMPDEST DUP4 AND SWAP3 POP JUMPDEST POP POP SWAP3 SWAP2 POP POP JUMP INVALID LOG2 PUSH5 0x6970667358 0x22 SLT KECCAK256 0xE3 0xD EQ 0x2F DUP8 PUSH26 0x3A971782F295797354CEE0B2CAB1DDE5D99328C16B485B8887D8 PUSH5 0x736F6C6343 STOP ADDMOD SLT STOP CALLER "},"methodIdentifiers":{"SIG_VALIDATION_FAILED()":"8f41ec5a","_validateSenderAndPaymaster(bytes,address,bytes)":"957122ab","addStake(uint32)":"0396cb60","balanceOf(address)":"70a08231","depositTo(address)":"b760faf9","deposits(address)":"fc7e286d","getDepositInfo(address)":"5287ce12","getSenderAddress(bytes)":"9b249f69","getUserOpHash((address,uint256,bytes,bytes,uint256,uint256,uint256,uint256,uint256,bytes,bytes))":"a6193531","handleAggregatedOps(((address,uint256,bytes,bytes,uint256,uint256,uint256,uint256,uint256,bytes,bytes)[],address,bytes)[],address)":"4b1d7cf5","handleOps((address,uint256,bytes,bytes,uint256,uint256,uint256,uint256,uint256,bytes,bytes)[],address)":"1fad948c","innerHandleOp(bytes,((address,uint256,uint256,uint256,uint256,address,uint256,uint256),bytes32,uint256,uint256,uint256),bytes)":"1d732756","simulateHandleOp((address,uint256,bytes,bytes,uint256,uint256,uint256,uint256,uint256,bytes,bytes),address,bytes)":"d6383f94","simulateValidation((address,uint256,bytes,bytes,uint256,uint256,uint256,uint256,uint256,bytes,bytes))":"ee219423","unlockStake()":"bb9fe6bf","withdrawStake(address)":"c23a5cea","withdrawTo(address,uint256)":"205c2878"}}}}}