{
  "_format": "hh-sol-artifact-1",
  "contractName": "LimitOrderAccount",
  "sourceName": "contracts/core/LimitOrderAccount.sol",
  "abi": [
    {
      "inputs": [
        {
          "internalType": "contract IEntryPoint",
          "name": "anEntryPoint",
          "type": "address"
        }
      ],
      "stateMutability": "nonpayable",
      "type": "constructor"
    },
    {
      "anonymous": false,
      "inputs": [
        {
          "indexed": false,
          "internalType": "address",
          "name": "previousAdmin",
          "type": "address"
        },
        {
          "indexed": false,
          "internalType": "address",
          "name": "newAdmin",
          "type": "address"
        }
      ],
      "name": "AdminChanged",
      "type": "event"
    },
    {
      "anonymous": false,
      "inputs": [
        {
          "indexed": true,
          "internalType": "address",
          "name": "beacon",
          "type": "address"
        }
      ],
      "name": "BeaconUpgraded",
      "type": "event"
    },
    {
      "anonymous": false,
      "inputs": [
        {
          "indexed": false,
          "internalType": "uint8",
          "name": "version",
          "type": "uint8"
        }
      ],
      "name": "Initialized",
      "type": "event"
    },
    {
      "anonymous": false,
      "inputs": [
        {
          "indexed": true,
          "internalType": "contract IEntryPoint",
          "name": "entryPoint",
          "type": "address"
        },
        {
          "indexed": true,
          "internalType": "address",
          "name": "owner",
          "type": "address"
        }
      ],
      "name": "SimpleAccountInitialized",
      "type": "event"
    },
    {
      "anonymous": false,
      "inputs": [
        {
          "indexed": true,
          "internalType": "address",
          "name": "tokenOut",
          "type": "address"
        },
        {
          "indexed": true,
          "internalType": "address",
          "name": "tokenIn",
          "type": "address"
        },
        {
          "indexed": true,
          "internalType": "uint256",
          "name": "expiry",
          "type": "uint256"
        },
        {
          "indexed": false,
          "internalType": "uint256",
          "name": "id",
          "type": "uint256"
        },
        {
          "indexed": false,
          "internalType": "uint256",
          "name": "orderAmount",
          "type": "uint256"
        },
        {
          "indexed": false,
          "internalType": "uint256",
          "name": "filledAmount",
          "type": "uint256"
        },
        {
          "indexed": false,
          "internalType": "uint256",
          "name": "rate",
          "type": "uint256"
        }
      ],
      "name": "UpdateLimitOrder",
      "type": "event"
    },
    {
      "anonymous": false,
      "inputs": [
        {
          "indexed": true,
          "internalType": "address",
          "name": "implementation",
          "type": "address"
        }
      ],
      "name": "Upgraded",
      "type": "event"
    },
    {
      "inputs": [],
      "name": "addDeposit",
      "outputs": [],
      "stateMutability": "payable",
      "type": "function"
    },
    {
      "inputs": [
        {
          "internalType": "uint256",
          "name": "_id",
          "type": "uint256"
        }
      ],
      "name": "cancelLimitOrder",
      "outputs": [],
      "stateMutability": "nonpayable",
      "type": "function"
    },
    {
      "inputs": [
        {
          "internalType": "address",
          "name": "_tokenOut",
          "type": "address"
        },
        {
          "internalType": "address",
          "name": "_tokenIn",
          "type": "address"
        },
        {
          "internalType": "uint256",
          "name": "_expiry",
          "type": "uint256"
        },
        {
          "internalType": "uint256",
          "name": "_orderAmount",
          "type": "uint256"
        },
        {
          "internalType": "uint256",
          "name": "_rate",
          "type": "uint256"
        }
      ],
      "name": "createLimitOrder",
      "outputs": [],
      "stateMutability": "nonpayable",
      "type": "function"
    },
    {
      "inputs": [],
      "name": "entryPoint",
      "outputs": [
        {
          "internalType": "contract IEntryPoint",
          "name": "",
          "type": "address"
        }
      ],
      "stateMutability": "view",
      "type": "function"
    },
    {
      "inputs": [
        {
          "internalType": "address",
          "name": "dest",
          "type": "address"
        },
        {
          "internalType": "uint256",
          "name": "value",
          "type": "uint256"
        },
        {
          "internalType": "bytes",
          "name": "func",
          "type": "bytes"
        }
      ],
      "name": "execute",
      "outputs": [],
      "stateMutability": "nonpayable",
      "type": "function"
    },
    {
      "inputs": [
        {
          "internalType": "address[]",
          "name": "dest",
          "type": "address[]"
        },
        {
          "internalType": "bytes[]",
          "name": "func",
          "type": "bytes[]"
        }
      ],
      "name": "executeBatch",
      "outputs": [],
      "stateMutability": "nonpayable",
      "type": "function"
    },
    {
      "inputs": [
        {
          "internalType": "uint256",
          "name": "_id",
          "type": "uint256"
        },
        {
          "internalType": "address",
          "name": "_filler",
          "type": "address"
        },
        {
          "internalType": "uint256",
          "name": "_fillAmount",
          "type": "uint256"
        },
        {
          "internalType": "bytes",
          "name": "_params",
          "type": "bytes"
        }
      ],
      "name": "fillLimitOrder",
      "outputs": [],
      "stateMutability": "nonpayable",
      "type": "function"
    },
    {
      "inputs": [],
      "name": "getDeposit",
      "outputs": [
        {
          "internalType": "uint256",
          "name": "",
          "type": "uint256"
        }
      ],
      "stateMutability": "view",
      "type": "function"
    },
    {
      "inputs": [
        {
          "internalType": "address",
          "name": "anOwner",
          "type": "address"
        }
      ],
      "name": "initialize",
      "outputs": [],
      "stateMutability": "nonpayable",
      "type": "function"
    },
    {
      "inputs": [
        {
          "internalType": "uint256",
          "name": "",
          "type": "uint256"
        }
      ],
      "name": "limitOrders",
      "outputs": [
        {
          "internalType": "address",
          "name": "tokenOut",
          "type": "address"
        },
        {
          "internalType": "address",
          "name": "tokenIn",
          "type": "address"
        },
        {
          "internalType": "uint256",
          "name": "expiry",
          "type": "uint256"
        },
        {
          "internalType": "uint256",
          "name": "orderAmount",
          "type": "uint256"
        },
        {
          "internalType": "uint256",
          "name": "filledAmount",
          "type": "uint256"
        },
        {
          "internalType": "uint256",
          "name": "rate",
          "type": "uint256"
        }
      ],
      "stateMutability": "view",
      "type": "function"
    },
    {
      "inputs": [],
      "name": "nonce",
      "outputs": [
        {
          "internalType": "uint256",
          "name": "",
          "type": "uint256"
        }
      ],
      "stateMutability": "view",
      "type": "function"
    },
    {
      "inputs": [],
      "name": "owner",
      "outputs": [
        {
          "internalType": "address",
          "name": "",
          "type": "address"
        }
      ],
      "stateMutability": "view",
      "type": "function"
    },
    {
      "inputs": [],
      "name": "proxiableUUID",
      "outputs": [
        {
          "internalType": "bytes32",
          "name": "",
          "type": "bytes32"
        }
      ],
      "stateMutability": "view",
      "type": "function"
    },
    {
      "inputs": [
        {
          "internalType": "address",
          "name": "newImplementation",
          "type": "address"
        }
      ],
      "name": "upgradeTo",
      "outputs": [],
      "stateMutability": "nonpayable",
      "type": "function"
    },
    {
      "inputs": [
        {
          "internalType": "address",
          "name": "newImplementation",
          "type": "address"
        },
        {
          "internalType": "bytes",
          "name": "data",
          "type": "bytes"
        }
      ],
      "name": "upgradeToAndCall",
      "outputs": [],
      "stateMutability": "payable",
      "type": "function"
    },
    {
      "inputs": [
        {
          "components": [
            {
              "internalType": "address",
              "name": "sender",
              "type": "address"
            },
            {
              "internalType": "uint256",
              "name": "nonce",
              "type": "uint256"
            },
            {
              "internalType": "bytes",
              "name": "initCode",
              "type": "bytes"
            },
            {
              "internalType": "bytes",
              "name": "callData",
              "type": "bytes"
            },
            {
              "internalType": "uint256",
              "name": "callGasLimit",
              "type": "uint256"
            },
            {
              "internalType": "uint256",
              "name": "verificationGasLimit",
              "type": "uint256"
            },
            {
              "internalType": "uint256",
              "name": "preVerificationGas",
              "type": "uint256"
            },
            {
              "internalType": "uint256",
              "name": "maxFeePerGas",
              "type": "uint256"
            },
            {
              "internalType": "uint256",
              "name": "maxPriorityFeePerGas",
              "type": "uint256"
            },
            {
              "internalType": "bytes",
              "name": "paymasterAndData",
              "type": "bytes"
            },
            {
              "internalType": "bytes",
              "name": "signature",
              "type": "bytes"
            }
          ],
          "internalType": "struct UserOperation",
          "name": "userOp",
          "type": "tuple"
        },
        {
          "internalType": "bytes32",
          "name": "userOpHash",
          "type": "bytes32"
        },
        {
          "internalType": "uint256",
          "name": "missingAccountFunds",
          "type": "uint256"
        }
      ],
      "name": "validateUserOp",
      "outputs": [
        {
          "internalType": "uint256",
          "name": "validationData",
          "type": "uint256"
        }
      ],
      "stateMutability": "nonpayable",
      "type": "function"
    },
    {
      "inputs": [
        {
          "internalType": "address payable",
          "name": "withdrawAddress",
          "type": "address"
        },
        {
          "internalType": "uint256",
          "name": "amount",
          "type": "uint256"
        }
      ],
      "name": "withdrawDepositTo",
      "outputs": [],
      "stateMutability": "nonpayable",
      "type": "function"
    },
    {
      "stateMutability": "payable",
      "type": "receive"
    }
  ],
  "bytecode": "0x60c06040523073ffffffffffffffffffffffffffffffffffffffff1660809073ffffffffffffffffffffffffffffffffffffffff168152503480156200004457600080fd5b50604051620040d6380380620040d683398181016040528101906200006a9190620001fa565b8073ffffffffffffffffffffffffffffffffffffffff1660a08173ffffffffffffffffffffffffffffffffffffffff1681525050620000ae620000b560201b60201c565b5062000310565b600060019054906101000a900460ff161562000108576040517f08c379a0000000000000000000000000000000000000000000000000000000008152600401620000ff90620002b3565b60405180910390fd5b60ff801660008054906101000a900460ff1660ff1610156200017a5760ff6000806101000a81548160ff021916908360ff1602179055507f7f26b83ff96e1f2b6a682f133852f6798a09c465da95921460cefb384740249860ff604051620001719190620002f3565b60405180910390a15b565b600080fd5b600073ffffffffffffffffffffffffffffffffffffffff82169050919050565b6000620001ae8262000181565b9050919050565b6000620001c282620001a1565b9050919050565b620001d481620001b5565b8114620001e057600080fd5b50565b600081519050620001f481620001c9565b92915050565b6000602082840312156200021357620002126200017c565b5b60006200022384828501620001e3565b91505092915050565b600082825260208201905092915050565b7f496e697469616c697a61626c653a20636f6e747261637420697320696e69746960008201527f616c697a696e6700000000000000000000000000000000000000000000000000602082015250565b60006200029b6027836200022c565b9150620002a8826200023d565b604082019050919050565b60006020820190508181036000830152620002ce816200028c565b9050919050565b600060ff82169050919050565b620002ed81620002d5565b82525050565b60006020820190506200030a6000830184620002e2565b92915050565b60805160a051613d7d62000359600039600081816111140152611ce70152600081816104e601528181610574015281816107ac0152818161083a01526108ea0152613d7d6000f3fe6080604052600436106101025760003560e01c80638da5cb5b11610095578063b0d691fe11610064578063b0d691fe14610301578063b61d27f61461032c578063c399ec8814610355578063c4d66de814610380578063de1b983b146103a957610109565b80638da5cb5b14610240578063a3e2b4951461026b578063a5cdc8fc146102ad578063affed0e0146102d657610109565b80634d44560d116100d15780634d44560d146101a75780634f1ef286146101d057806352d1902d146101ec5780638aab7a0a1461021757610109565b806318dfb3c71461010e5780633659cfe6146101375780633a871cdd146101605780634a58db191461019d57610109565b3661010957005b600080fd5b34801561011a57600080fd5b50610135600480360381019061013091906123a8565b6103d2565b005b34801561014357600080fd5b5061015e60048036038101906101599190612487565b6104e4565b005b34801561016c57600080fd5b5061018760048036038101906101829190612545565b61066c565b60405161019491906125c3565b60405180910390f35b6101a56106b5565b005b3480156101b357600080fd5b506101ce60048036038101906101c9919061261c565b61072a565b005b6101ea60048036038101906101e5919061279d565b6107aa565b005b3480156101f857600080fd5b506102016108e6565b60405161020e9190612808565b60405180910390f35b34801561022357600080fd5b5061023e60048036038101906102399190612823565b61099f565b005b34801561024c57600080fd5b50610255610f4d565b60405161026291906128b5565b60405180910390f35b34801561027757600080fd5b50610292600480360381019061028d91906128d0565b610f73565b6040516102a4969594939291906128fd565b60405180910390f35b3480156102b957600080fd5b506102d460048036038101906102cf91906128d0565b610fef565b005b3480156102e257600080fd5b506102eb6110e0565b6040516102f891906125c3565b60405180910390f35b34801561030d57600080fd5b50610316611110565b60405161032391906129bd565b60405180910390f35b34801561033857600080fd5b50610353600480360381019061034e9190612a2e565b611138565b005b34801561036157600080fd5b5061036a611195565b60405161037791906125c3565b60405180910390f35b34801561038c57600080fd5b506103a760048036038101906103a29190612487565b61121d565b005b3480156103b557600080fd5b506103d060048036038101906103cb9190612aa2565b61135d565b005b6103da61151b565b818190508484905014610422576040517f08c379a000000000000000000000000000000000000000000000000000000000815260040161041990612b7a565b60405180910390fd5b60005b848490508110156104dd576104ca85858381811061044657610445612b9a565b5b905060200201602081019061045b9190612487565b60008585858181106104705761046f612b9a565b5b90506020028101906104829190612bd8565b8080601f016020809104026020016040519081016040528093929190818152602001838380828437600081840152601f19601f820116905080830192505050505050506115ea565b80806104d590612c6a565b915050610425565b5050505050565b7f000000000000000000000000000000000000000000000000000000000000000073ffffffffffffffffffffffffffffffffffffffff163073ffffffffffffffffffffffffffffffffffffffff1603610572576040517f08c379a000000000000000000000000000000000000000000000000000000000815260040161056990612d24565b60405180910390fd5b7f000000000000000000000000000000000000000000000000000000000000000073ffffffffffffffffffffffffffffffffffffffff166105b161166e565b73ffffffffffffffffffffffffffffffffffffffff1614610607576040517f08c379a00000000000000000000000000000000000000000000000000000000081526004016105fe90612db6565b60405180910390fd5b610610816116c5565b61066981600067ffffffffffffffff81111561062f5761062e612672565b5b6040519080825280601f01601f1916602001820160405280156106615781602001600182028036833780820191505090505b5060006116d0565b50565b600061067661183e565b61068084846118b5565b905060008480604001906106949190612bd8565b9050036106a5576106a484611993565b5b6106ae82611a41565b9392505050565b6106bd611110565b73ffffffffffffffffffffffffffffffffffffffff1663b760faf934306040518363ffffffff1660e01b81526004016106f691906128b5565b6000604051808303818588803b15801561070f57600080fd5b505af1158015610723573d6000803e3d6000fd5b5050505050565b610732611add565b61073a611110565b73ffffffffffffffffffffffffffffffffffffffff1663205c287883836040518363ffffffff1660e01b8152600401610774929190612de5565b600060405180830381600087803b15801561078e57600080fd5b505af11580156107a2573d6000803e3d6000fd5b505050505050565b7f000000000000000000000000000000000000000000000000000000000000000073ffffffffffffffffffffffffffffffffffffffff163073ffffffffffffffffffffffffffffffffffffffff1603610838576040517f08c379a000000000000000000000000000000000000000000000000000000000815260040161082f90612d24565b60405180910390fd5b7f000000000000000000000000000000000000000000000000000000000000000073ffffffffffffffffffffffffffffffffffffffff1661087761166e565b73ffffffffffffffffffffffffffffffffffffffff16146108cd576040517f08c379a00000000000000000000000000000000000000000000000000000000081526004016108c490612db6565b60405180910390fd5b6108d6826116c5565b6108e2828260016116d0565b5050565b60007f000000000000000000000000000000000000000000000000000000000000000073ffffffffffffffffffffffffffffffffffffffff163073ffffffffffffffffffffffffffffffffffffffff1614610976576040517f08c379a000000000000000000000000000000000000000000000000000000000815260040161096d90612e80565b60405180910390fd5b7f360894a13ba1a3210667c828492db98dca3e2076cc3735a920a3ca505d382bbc60001b905090565b6109a7611ba5565b600060996000868152602001908152602001600020905042816002015411610a04576040517f08c379a00000000000000000000000000000000000000000000000000000000081526004016109fb90612eec565b60405180910390fd5b8281600401548260030154610a199190612f0c565b1015610a5a576040517f08c379a0000000000000000000000000000000000000000000000000000000008152600401610a5190612f8c565b60405180910390fd5b60008160000160009054906101000a900473ffffffffffffffffffffffffffffffffffffffff1673ffffffffffffffffffffffffffffffffffffffff166370a08231306040518263ffffffff1660e01b8152600401610ab991906128b5565b602060405180830381865afa158015610ad6573d6000803e3d6000fd5b505050506040513d601f19601f82011682018060405250810190610afa9190612fc1565b905083811015610b3f576040517f08c379a0000000000000000000000000000000000000000000000000000000008152600401610b369061303a565b60405180910390fd5b60008260010160009054906101000a900473ffffffffffffffffffffffffffffffffffffffff1673ffffffffffffffffffffffffffffffffffffffff166370a08231306040518263ffffffff1660e01b8152600401610b9e91906128b5565b602060405180830381865afa158015610bbb573d6000803e3d6000fd5b505050506040513d601f19601f82011682018060405250810190610bdf9190612fc1565b90506000610c10633b9aca00610c02866005015489611bf490919063ffffffff16565b611c0a90919063ffffffff16565b905085846004016000828254610c26919061305a565b925050819055508360030154846004015410610c4757600084600201819055505b8360000160009054906101000a900473ffffffffffffffffffffffffffffffffffffffff1673ffffffffffffffffffffffffffffffffffffffff1663a9059cbb88886040518363ffffffff1660e01b8152600401610ca692919061308e565b6020604051808303816000875af1158015610cc5573d6000803e3d6000fd5b505050506040513d601f19601f82011682018060405250810190610ce991906130ef565b508673ffffffffffffffffffffffffffffffffffffffff166326a18b61898660010160009054906101000a900473ffffffffffffffffffffffffffffffffffffffff1684896040518563ffffffff1660e01b8152600401610d4d949392919061319b565b600060405180830381600087803b158015610d6757600080fd5b505af1158015610d7b573d6000803e3d6000fd5b5050505060008460010160009054906101000a900473ffffffffffffffffffffffffffffffffffffffff1673ffffffffffffffffffffffffffffffffffffffff166370a08231306040518263ffffffff1660e01b8152600401610dde91906128b5565b602060405180830381865afa158015610dfb573d6000803e3d6000fd5b505050506040513d601f19601f82011682018060405250810190610e1f9190612fc1565b9050610e348284611c2090919063ffffffff16565b811015610e76576040517f08c379a0000000000000000000000000000000000000000000000000000000008152600401610e6d90613233565b60405180910390fd5b84600201548560010160009054906101000a900473ffffffffffffffffffffffffffffffffffffffff1673ffffffffffffffffffffffffffffffffffffffff168660000160009054906101000a900473ffffffffffffffffffffffffffffffffffffffff1673ffffffffffffffffffffffffffffffffffffffff167f47eb7f4dd8db9e8af1b6739135896f2a1b7687c89fbc923a4061efbe67fbecf78c89600301548a600401548b60050154604051610f329493929190613253565b60405180910390a45050505050610f47611c36565b50505050565b6097600c9054906101000a900473ffffffffffffffffffffffffffffffffffffffff1681565b60996020528060005260406000206000915090508060000160009054906101000a900473ffffffffffffffffffffffffffffffffffffffff16908060010160009054906101000a900473ffffffffffffffffffffffffffffffffffffffff16908060020154908060030154908060040154908060050154905086565b610ff761151b565b60006099600083815260200190815260200160002090506000816002018190555080600201548160010160009054906101000a900473ffffffffffffffffffffffffffffffffffffffff1673ffffffffffffffffffffffffffffffffffffffff168260000160009054906101000a900473ffffffffffffffffffffffffffffffffffffffff1673ffffffffffffffffffffffffffffffffffffffff167f47eb7f4dd8db9e8af1b6739135896f2a1b7687c89fbc923a4061efbe67fbecf7858560030154866004015487600501546040516110d49493929190613253565b60405180910390a45050565b6000609760009054906101000a90046bffffffffffffffffffffffff166bffffffffffffffffffffffff16905090565b60007f0000000000000000000000000000000000000000000000000000000000000000905090565b61114061151b565b61118f848484848080601f016020809104026020016040519081016040528093929190818152602001838380828437600081840152601f19601f820116905080830192505050505050506115ea565b50505050565b600061119f611110565b73ffffffffffffffffffffffffffffffffffffffff166370a08231306040518263ffffffff1660e01b81526004016111d791906128b5565b602060405180830381865afa1580156111f4573d6000803e3d6000fd5b505050506040513d601f19601f820116820180604052508101906112189190612fc1565b905090565b60008060019054906101000a900460ff1615905080801561124e5750600160008054906101000a900460ff1660ff16105b8061127b575061125d30611c40565b15801561127a5750600160008054906101000a900460ff1660ff16145b5b6112ba576040517f08c379a00000000000000000000000000000000000000000000000000000000081526004016112b19061330a565b60405180910390fd5b60016000806101000a81548160ff021916908360ff16021790555080156112f7576001600060016101000a81548160ff0219169083151502179055505b61130082611c63565b80156113595760008060016101000a81548160ff0219169083151502179055507f7f26b83ff96e1f2b6a682f133852f6798a09c465da95921460cefb384740249860016040516113509190613372565b60405180910390a15b5050565b61136561151b565b6040518060c001604052808673ffffffffffffffffffffffffffffffffffffffff1681526020018573ffffffffffffffffffffffffffffffffffffffff168152602001848152602001838152602001600081526020018281525060996000609854815260200190815260200160002060008201518160000160006101000a81548173ffffffffffffffffffffffffffffffffffffffff021916908373ffffffffffffffffffffffffffffffffffffffff16021790555060208201518160010160006101000a81548173ffffffffffffffffffffffffffffffffffffffff021916908373ffffffffffffffffffffffffffffffffffffffff16021790555060408201518160020155606082015181600301556080820151816004015560a08201518160050155905050828473ffffffffffffffffffffffffffffffffffffffff168673ffffffffffffffffffffffffffffffffffffffff167f47eb7f4dd8db9e8af1b6739135896f2a1b7687c89fbc923a4061efbe67fbecf7609854866000876040516114f494939291906133c8565b60405180910390a46098600081548092919061150f90612c6a565b91905055505050505050565b611523611110565b73ffffffffffffffffffffffffffffffffffffffff163373ffffffffffffffffffffffffffffffffffffffff1614806115a957506097600c9054906101000a900473ffffffffffffffffffffffffffffffffffffffff1673ffffffffffffffffffffffffffffffffffffffff163373ffffffffffffffffffffffffffffffffffffffff16145b6115e8576040517f08c379a00000000000000000000000000000000000000000000000000000000081526004016115df90613459565b60405180910390fd5b565b6000808473ffffffffffffffffffffffffffffffffffffffff16848460405161161391906134b5565b60006040518083038185875af1925050503d8060008114611650576040519150601f19603f3d011682016040523d82523d6000602084013e611655565b606091505b50915091508161166757805160208201fd5b5050505050565b600061169c7f360894a13ba1a3210667c828492db98dca3e2076cc3735a920a3ca505d382bbc60001b611d4b565b60000160009054906101000a900473ffffffffffffffffffffffffffffffffffffffff16905090565b6116cd611add565b50565b6116fc7f4910fdfa16fed3260ed0e7147f7cc6da11a60208b5b9406d12a635614ffd914360001b611d55565b60000160009054906101000a900460ff16156117205761171b83611d5f565b611839565b8273ffffffffffffffffffffffffffffffffffffffff166352d1902d6040518163ffffffff1660e01b8152600401602060405180830381865afa92505050801561178857506040513d601f19601f8201168201806040525081019061178591906134e1565b60015b6117c7576040517f08c379a00000000000000000000000000000000000000000000000000000000081526004016117be90613580565b60405180910390fd5b7f360894a13ba1a3210667c828492db98dca3e2076cc3735a920a3ca505d382bbc60001b811461182c576040517f08c379a000000000000000000000000000000000000000000000000000000000815260040161182390613612565b60405180910390fd5b50611838838383611e18565b5b505050565b611846611110565b73ffffffffffffffffffffffffffffffffffffffff163373ffffffffffffffffffffffffffffffffffffffff16146118b3576040517f08c379a00000000000000000000000000000000000000000000000000000000081526004016118aa9061367e565b60405180910390fd5b565b6000806118c183611e44565b9050611929848061014001906118d79190612bd8565b8080601f016020809104026020016040519081016040528093929190818152602001838380828437600081840152601f19601f8201169050808301925050505050505082611e7490919063ffffffff16565b73ffffffffffffffffffffffffffffffffffffffff166097600c9054906101000a900473ffffffffffffffffffffffffffffffffffffffff1673ffffffffffffffffffffffffffffffffffffffff161461198757600191505061198d565b60009150505b92915050565b80602001356097600081819054906101000a90046bffffffffffffffffffffffff16809291906119c2906136b6565b91906101000a8154816bffffffffffffffffffffffff02191690836bffffffffffffffffffffffff1602179055506bffffffffffffffffffffffff1614611a3e576040517f08c379a0000000000000000000000000000000000000000000000000000000008152600401611a3590613736565b60405180910390fd5b50565b60008114611ada5760003373ffffffffffffffffffffffffffffffffffffffff16827fffffffffffffffffffffffffffffffffffffffffffffffffffffffffffffffff90604051611a919061377c565b600060405180830381858888f193505050503d8060008114611acf576040519150601f19603f3d011682016040523d82523d6000602084013e611ad4565b606091505b50509050505b50565b6097600c9054906101000a900473ffffffffffffffffffffffffffffffffffffffff1673ffffffffffffffffffffffffffffffffffffffff163373ffffffffffffffffffffffffffffffffffffffff161480611b6457503073ffffffffffffffffffffffffffffffffffffffff163373ffffffffffffffffffffffffffffffffffffffff16145b611ba3576040517f08c379a0000000000000000000000000000000000000000000000000000000008152600401611b9a906137dd565b60405180910390fd5b565b600260655403611bea576040517f08c379a0000000000000000000000000000000000000000000000000000000008152600401611be190613849565b60405180910390fd5b6002606581905550565b60008183611c029190613869565b905092915050565b60008183611c1891906138da565b905092915050565b60008183611c2e919061305a565b905092915050565b6001606581905550565b6000808273ffffffffffffffffffffffffffffffffffffffff163b119050919050565b806097600c6101000a81548173ffffffffffffffffffffffffffffffffffffffff021916908373ffffffffffffffffffffffffffffffffffffffff16021790555060016098819055506097600c9054906101000a900473ffffffffffffffffffffffffffffffffffffffff1673ffffffffffffffffffffffffffffffffffffffff167f000000000000000000000000000000000000000000000000000000000000000073ffffffffffffffffffffffffffffffffffffffff167f47e55c76e7a6f1fd8996a1da8008c1ea29699cca35e7bcd057f2dec313b6e5de60405160405180910390a350565b6000819050919050565b6000819050919050565b611d6881611c40565b611da7576040517f08c379a0000000000000000000000000000000000000000000000000000000008152600401611d9e9061397d565b60405180910390fd5b80611dd47f360894a13ba1a3210667c828492db98dca3e2076cc3735a920a3ca505d382bbc60001b611d4b565b60000160006101000a81548173ffffffffffffffffffffffffffffffffffffffff021916908373ffffffffffffffffffffffffffffffffffffffff16021790555050565b611e2183611e9b565b600082511180611e2e5750805b15611e3f57611e3d8383611eea565b505b505050565b600081604051602001611e579190613a15565b604051602081830303815290604052805190602001209050919050565b6000806000611e838585611fce565b91509150611e908161201f565b819250505092915050565b611ea481611d5f565b8073ffffffffffffffffffffffffffffffffffffffff167fbc7cd75a20ee27fd9adebab32041f755214dbc6bffa90cc0225b39da2e5c2d3b60405160405180910390a250565b6060611ef583611c40565b611f34576040517f08c379a0000000000000000000000000000000000000000000000000000000008152600401611f2b90613aad565b60405180910390fd5b6000808473ffffffffffffffffffffffffffffffffffffffff1684604051611f5c91906134b5565b600060405180830381855af49150503d8060008114611f97576040519150601f19603f3d011682016040523d82523d6000602084013e611f9c565b606091505b5091509150611fc48282604051806060016040528060278152602001613d2160279139612185565b9250505092915050565b600080604183510361200f5760008060006020860151925060408601519150606086015160001a9050612003878285856121a7565b94509450505050612018565b60006002915091505b9250929050565b6000600481111561203357612032613acd565b5b81600481111561204657612045613acd565b5b031561218257600160048111156120605761205f613acd565b5b81600481111561207357612072613acd565b5b036120b3576040517f08c379a00000000000000000000000000000000000000000000000000000000081526004016120aa90613b48565b60405180910390fd5b600260048111156120c7576120c6613acd565b5b8160048111156120da576120d9613acd565b5b0361211a576040517f08c379a000000000000000000000000000000000000000000000000000000000815260040161211190613bb4565b60405180910390fd5b6003600481111561212e5761212d613acd565b5b81600481111561214157612140613acd565b5b03612181576040517f08c379a000000000000000000000000000000000000000000000000000000000815260040161217890613c46565b60405180910390fd5b5b50565b60608315612195578290506121a0565b61219f8383612289565b5b9392505050565b6000807f7fffffffffffffffffffffffffffffff5d576e7357a4501ddfe92f46681b20a08360001c11156121e2576000600391509150612280565b6000600187878787604051600081526020016040526040516122079493929190613c75565b6020604051602081039080840390855afa158015612229573d6000803e3d6000fd5b505050602060405103519050600073ffffffffffffffffffffffffffffffffffffffff168173ffffffffffffffffffffffffffffffffffffffff160361227757600060019250925050612280565b80600092509250505b94509492505050565b60008251111561229c5781518083602001fd5b806040517f08c379a00000000000000000000000000000000000000000000000000000000081526004016122d09190613cfe565b60405180910390fd5b6000604051905090565b600080fd5b600080fd5b600080fd5b600080fd5b600080fd5b60008083601f840112612312576123116122ed565b5b8235905067ffffffffffffffff81111561232f5761232e6122f2565b5b60208301915083602082028301111561234b5761234a6122f7565b5b9250929050565b60008083601f840112612368576123676122ed565b5b8235905067ffffffffffffffff811115612385576123846122f2565b5b6020830191508360208202830111156123a1576123a06122f7565b5b9250929050565b600080600080604085870312156123c2576123c16122e3565b5b600085013567ffffffffffffffff8111156123e0576123df6122e8565b5b6123ec878288016122fc565b9450945050602085013567ffffffffffffffff81111561240f5761240e6122e8565b5b61241b87828801612352565b925092505092959194509250565b600073ffffffffffffffffffffffffffffffffffffffff82169050919050565b600061245482612429565b9050919050565b61246481612449565b811461246f57600080fd5b50565b6000813590506124818161245b565b92915050565b60006020828403121561249d5761249c6122e3565b5b60006124ab84828501612472565b91505092915050565b600080fd5b600061016082840312156124d0576124cf6124b4565b5b81905092915050565b6000819050919050565b6124ec816124d9565b81146124f757600080fd5b50565b600081359050612509816124e3565b92915050565b6000819050919050565b6125228161250f565b811461252d57600080fd5b50565b60008135905061253f81612519565b92915050565b60008060006060848603121561255e5761255d6122e3565b5b600084013567ffffffffffffffff81111561257c5761257b6122e8565b5b612588868287016124b9565b9350506020612599868287016124fa565b92505060406125aa86828701612530565b9150509250925092565b6125bd8161250f565b82525050565b60006020820190506125d860008301846125b4565b92915050565b60006125e982612429565b9050919050565b6125f9816125de565b811461260457600080fd5b50565b600081359050612616816125f0565b92915050565b60008060408385031215612633576126326122e3565b5b600061264185828601612607565b925050602061265285828601612530565b9150509250929050565b600080fd5b6000601f19601f8301169050919050565b7f4e487b7100000000000000000000000000000000000000000000000000000000600052604160045260246000fd5b6126aa82612661565b810181811067ffffffffffffffff821117156126c9576126c8612672565b5b80604052505050565b60006126dc6122d9565b90506126e882826126a1565b919050565b600067ffffffffffffffff82111561270857612707612672565b5b61271182612661565b9050602081019050919050565b82818337600083830152505050565b600061274061273b846126ed565b6126d2565b90508281526020810184848401111561275c5761275b61265c565b5b61276784828561271e565b509392505050565b600082601f830112612784576127836122ed565b5b813561279484826020860161272d565b91505092915050565b600080604083850312156127b4576127b36122e3565b5b60006127c285828601612472565b925050602083013567ffffffffffffffff8111156127e3576127e26122e8565b5b6127ef8582860161276f565b9150509250929050565b612802816124d9565b82525050565b600060208201905061281d60008301846127f9565b92915050565b6000806000806080858703121561283d5761283c6122e3565b5b600061284b87828801612530565b945050602061285c87828801612472565b935050604061286d87828801612530565b925050606085013567ffffffffffffffff81111561288e5761288d6122e8565b5b61289a8782880161276f565b91505092959194509250565b6128af81612449565b82525050565b60006020820190506128ca60008301846128a6565b92915050565b6000602082840312156128e6576128e56122e3565b5b60006128f484828501612530565b91505092915050565b600060c08201905061291260008301896128a6565b61291f60208301886128a6565b61292c60408301876125b4565b61293960608301866125b4565b61294660808301856125b4565b61295360a08301846125b4565b979650505050505050565b6000819050919050565b600061298361297e61297984612429565b61295e565b612429565b9050919050565b600061299582612968565b9050919050565b60006129a78261298a565b9050919050565b6129b78161299c565b82525050565b60006020820190506129d260008301846129ae565b92915050565b60008083601f8401126129ee576129ed6122ed565b5b8235905067ffffffffffffffff811115612a0b57612a0a6122f2565b5b602083019150836001820283011115612a2757612a266122f7565b5b9250929050565b60008060008060608587031215612a4857612a476122e3565b5b6000612a5687828801612472565b9450506020612a6787828801612530565b935050604085013567ffffffffffffffff811115612a8857612a876122e8565b5b612a94878288016129d8565b925092505092959194509250565b600080600080600060a08688031215612abe57612abd6122e3565b5b6000612acc88828901612472565b9550506020612add88828901612472565b9450506040612aee88828901612530565b9350506060612aff88828901612530565b9250506080612b1088828901612530565b9150509295509295909350565b600082825260208201905092915050565b7f77726f6e67206172726179206c656e6774687300000000000000000000000000600082015250565b6000612b64601383612b1d565b9150612b6f82612b2e565b602082019050919050565b60006020820190508181036000830152612b9381612b57565b9050919050565b7f4e487b7100000000000000000000000000000000000000000000000000000000600052603260045260246000fd5b600080fd5b600080fd5b600080fd5b60008083356001602003843603038112612bf557612bf4612bc9565b5b80840192508235915067ffffffffffffffff821115612c1757612c16612bce565b5b602083019250600182023603831315612c3357612c32612bd3565b5b509250929050565b7f4e487b7100000000000000000000000000000000000000000000000000000000600052601160045260246000fd5b6000612c758261250f565b91507fffffffffffffffffffffffffffffffffffffffffffffffffffffffffffffffff8203612ca757612ca6612c3b565b5b600182019050919050565b7f46756e6374696f6e206d7573742062652063616c6c6564207468726f7567682060008201527f64656c656761746563616c6c0000000000000000000000000000000000000000602082015250565b6000612d0e602c83612b1d565b9150612d1982612cb2565b604082019050919050565b60006020820190508181036000830152612d3d81612d01565b9050919050565b7f46756e6374696f6e206d7573742062652063616c6c6564207468726f7567682060008201527f6163746976652070726f78790000000000000000000000000000000000000000602082015250565b6000612da0602c83612b1d565b9150612dab82612d44565b604082019050919050565b60006020820190508181036000830152612dcf81612d93565b9050919050565b612ddf816125de565b82525050565b6000604082019050612dfa6000830185612dd6565b612e0760208301846125b4565b9392505050565b7f555550535570677261646561626c653a206d757374206e6f742062652063616c60008201527f6c6564207468726f7567682064656c656761746563616c6c0000000000000000602082015250565b6000612e6a603883612b1d565b9150612e7582612e0e565b604082019050919050565b60006020820190508181036000830152612e9981612e5d565b9050919050565b7f6f72646572206973206e6f742076616c69640000000000000000000000000000600082015250565b6000612ed6601283612b1d565b9150612ee182612ea0565b602082019050919050565b60006020820190508181036000830152612f0581612ec9565b9050919050565b6000612f178261250f565b9150612f228361250f565b9250828203905081811115612f3a57612f39612c3b565b5b92915050565b7f5f66696c6c416d6f756e7420746f6f206c617267650000000000000000000000600082015250565b6000612f76601583612b1d565b9150612f8182612f40565b602082019050919050565b60006020820190508181036000830152612fa581612f69565b9050919050565b600081519050612fbb81612519565b92915050565b600060208284031215612fd757612fd66122e3565b5b6000612fe584828501612fac565b91505092915050565b7f696e73756666696369656e74206163636f756e742066756e6473000000000000600082015250565b6000613024601a83612b1d565b915061302f82612fee565b602082019050919050565b6000602082019050818103600083015261305381613017565b9050919050565b60006130658261250f565b91506130708361250f565b925082820190508082111561308857613087612c3b565b5b92915050565b60006040820190506130a360008301856128a6565b6130b060208301846125b4565b9392505050565b60008115159050919050565b6130cc816130b7565b81146130d757600080fd5b50565b6000815190506130e9816130c3565b92915050565b600060208284031215613105576131046122e3565b5b6000613113848285016130da565b91505092915050565b600081519050919050565b600082825260208201905092915050565b60005b8381101561315657808201518184015260208101905061313b565b60008484015250505050565b600061316d8261311c565b6131778185613127565b9350613187818560208601613138565b61319081612661565b840191505092915050565b60006080820190506131b060008301876125b4565b6131bd60208301866128a6565b6131ca60408301856125b4565b81810360608301526131dc8184613162565b905095945050505050565b7f696e73756666696369656e7420746f6b656e496e207265636569766564000000600082015250565b600061321d601d83612b1d565b9150613228826131e7565b602082019050919050565b6000602082019050818103600083015261324c81613210565b9050919050565b600060808201905061326860008301876125b4565b61327560208301866125b4565b61328260408301856125b4565b61328f60608301846125b4565b95945050505050565b7f496e697469616c697a61626c653a20636f6e747261637420697320616c72656160008201527f647920696e697469616c697a6564000000000000000000000000000000000000602082015250565b60006132f4602e83612b1d565b91506132ff82613298565b604082019050919050565b60006020820190508181036000830152613323816132e7565b9050919050565b6000819050919050565b600060ff82169050919050565b600061335c6133576133528461332a565b61295e565b613334565b9050919050565b61336c81613341565b82525050565b60006020820190506133876000830184613363565b92915050565b6000819050919050565b60006133b26133ad6133a88461338d565b61295e565b61250f565b9050919050565b6133c281613397565b82525050565b60006080820190506133dd60008301876125b4565b6133ea60208301866125b4565b6133f760408301856133b9565b61340460608301846125b4565b95945050505050565b7f6163636f756e743a206e6f74204f776e6572206f7220456e747279506f696e74600082015250565b6000613443602083612b1d565b915061344e8261340d565b602082019050919050565b6000602082019050818103600083015261347281613436565b9050919050565b600081905092915050565b600061348f8261311c565b6134998185613479565b93506134a9818560208601613138565b80840191505092915050565b60006134c18284613484565b915081905092915050565b6000815190506134db816124e3565b92915050565b6000602082840312156134f7576134f66122e3565b5b6000613505848285016134cc565b91505092915050565b7f45524331393637557067726164653a206e657720696d706c656d656e7461746960008201527f6f6e206973206e6f742055555053000000000000000000000000000000000000602082015250565b600061356a602e83612b1d565b91506135758261350e565b604082019050919050565b600060208201905081810360008301526135998161355d565b9050919050565b7f45524331393637557067726164653a20756e737570706f727465642070726f7860008201527f6961626c65555549440000000000000000000000000000000000000000000000602082015250565b60006135fc602983612b1d565b9150613607826135a0565b604082019050919050565b6000602082019050818103600083015261362b816135ef565b9050919050565b7f6163636f756e743a206e6f742066726f6d20456e747279506f696e7400000000600082015250565b6000613668601c83612b1d565b915061367382613632565b602082019050919050565b600060208201905081810360008301526136978161365b565b9050919050565b60006bffffffffffffffffffffffff82169050919050565b60006136c18261369e565b91506bffffffffffffffffffffffff82036136df576136de612c3b565b5b600182019050919050565b7f6163636f756e743a20696e76616c6964206e6f6e636500000000000000000000600082015250565b6000613720601683612b1d565b915061372b826136ea565b602082019050919050565b6000602082019050818103600083015261374f81613713565b9050919050565b50565b6000613766600083613479565b915061377182613756565b600082019050919050565b600061378782613759565b9150819050919050565b7f6f6e6c79206f776e657200000000000000000000000000000000000000000000600082015250565b60006137c7600a83612b1d565b91506137d282613791565b602082019050919050565b600060208201905081810360008301526137f6816137ba565b9050919050565b7f5265656e7472616e637947756172643a207265656e7472616e742063616c6c00600082015250565b6000613833601f83612b1d565b915061383e826137fd565b602082019050919050565b6000602082019050818103600083015261386281613826565b9050919050565b60006138748261250f565b915061387f8361250f565b925082820261388d8161250f565b915082820484148315176138a4576138a3612c3b565b5b5092915050565b7f4e487b7100000000000000000000000000000000000000000000000000000000600052601260045260246000fd5b60006138e58261250f565b91506138f08361250f565b925082613900576138ff6138ab565b5b828204905092915050565b7f455243313936373a206e657720696d706c656d656e746174696f6e206973206e60008201527f6f74206120636f6e747261637400000000000000000000000000000000000000602082015250565b6000613967602d83612b1d565b91506139728261390b565b604082019050919050565b600060208201905081810360008301526139968161395a565b9050919050565b600081905092915050565b7f19457468657265756d205369676e6564204d6573736167653a0a333200000000600082015250565b60006139de601c8361399d565b91506139e9826139a8565b601c82019050919050565b6000819050919050565b613a0f613a0a826124d9565b6139f4565b82525050565b6000613a20826139d1565b9150613a2c82846139fe565b60208201915081905092915050565b7f416464726573733a2064656c65676174652063616c6c20746f206e6f6e2d636f60008201527f6e74726163740000000000000000000000000000000000000000000000000000602082015250565b6000613a97602683612b1d565b9150613aa282613a3b565b604082019050919050565b60006020820190508181036000830152613ac681613a8a565b9050919050565b7f4e487b7100000000000000000000000000000000000000000000000000000000600052602160045260246000fd5b7f45434453413a20696e76616c6964207369676e61747572650000000000000000600082015250565b6000613b32601883612b1d565b9150613b3d82613afc565b602082019050919050565b60006020820190508181036000830152613b6181613b25565b9050919050565b7f45434453413a20696e76616c6964207369676e6174757265206c656e67746800600082015250565b6000613b9e601f83612b1d565b9150613ba982613b68565b602082019050919050565b60006020820190508181036000830152613bcd81613b91565b9050919050565b7f45434453413a20696e76616c6964207369676e6174757265202773272076616c60008201527f7565000000000000000000000000000000000000000000000000000000000000602082015250565b6000613c30602283612b1d565b9150613c3b82613bd4565b604082019050919050565b60006020820190508181036000830152613c5f81613c23565b9050919050565b613c6f81613334565b82525050565b6000608082019050613c8a60008301876127f9565b613c976020830186613c66565b613ca460408301856127f9565b613cb160608301846127f9565b95945050505050565b600081519050919050565b6000613cd082613cba565b613cda8185612b1d565b9350613cea818560208601613138565b613cf381612661565b840191505092915050565b60006020820190508181036000830152613d188184613cc5565b90509291505056fe416464726573733a206c6f772d6c6576656c2064656c65676174652063616c6c206661696c6564a2646970667358221220893cfcde9577d3b7d9a50026ee61ae8d4196f53fe7ee9a2f61e8c5eb62ca436764736f6c63430008120033",
  "linkReferences": {},
  "deployedLinkReferences": {}
}