{
  "_format": "hh-sol-artifact-1",
  "contractName": "LimitOrderSCW",
  "sourceName": "contracts/core/LimitOrderSCW.sol",
  "abi": [
    {
      "anonymous": false,
      "inputs": [
        {
          "indexed": true,
          "internalType": "address",
          "name": "tokenOut",
          "type": "address"
        },
        {
          "indexed": true,
          "internalType": "address",
          "name": "tokenIn",
          "type": "address"
        },
        {
          "indexed": true,
          "internalType": "uint256",
          "name": "expiry",
          "type": "uint256"
        },
        {
          "indexed": false,
          "internalType": "uint256",
          "name": "id",
          "type": "uint256"
        },
        {
          "indexed": false,
          "internalType": "uint256",
          "name": "amountOut",
          "type": "uint256"
        },
        {
          "indexed": false,
          "internalType": "uint256",
          "name": "rate",
          "type": "uint256"
        }
      ],
      "name": "NewLimitOrder",
      "type": "event"
    },
    {
      "inputs": [
        {
          "internalType": "address",
          "name": "_tokenOut",
          "type": "address"
        },
        {
          "internalType": "address",
          "name": "_tokenIn",
          "type": "address"
        },
        {
          "internalType": "uint256",
          "name": "_expiry",
          "type": "uint256"
        },
        {
          "internalType": "uint256",
          "name": "_amountOut",
          "type": "uint256"
        },
        {
          "internalType": "uint256",
          "name": "_rate",
          "type": "uint256"
        }
      ],
      "name": "createOrder",
      "outputs": [],
      "stateMutability": "nonpayable",
      "type": "function"
    },
    {
      "inputs": [
        {
          "internalType": "uint256",
          "name": "_orderId",
          "type": "uint256"
        },
        {
          "internalType": "address",
          "name": "_filler",
          "type": "address"
        },
        {
          "internalType": "uint256",
          "name": "_amountOut",
          "type": "uint256"
        },
        {
          "internalType": "bytes",
          "name": "_params",
          "type": "bytes"
        }
      ],
      "name": "fillLimitOrder",
      "outputs": [],
      "stateMutability": "nonpayable",
      "type": "function"
    },
    {
      "inputs": [],
      "name": "idCounter",
      "outputs": [
        {
          "internalType": "uint256",
          "name": "",
          "type": "uint256"
        }
      ],
      "stateMutability": "view",
      "type": "function"
    },
    {
      "inputs": [
        {
          "internalType": "uint256",
          "name": "",
          "type": "uint256"
        }
      ],
      "name": "limitOrders",
      "outputs": [
        {
          "internalType": "address",
          "name": "tokenOut",
          "type": "address"
        },
        {
          "internalType": "address",
          "name": "tokenIn",
          "type": "address"
        },
        {
          "internalType": "uint256",
          "name": "expiry",
          "type": "uint256"
        },
        {
          "internalType": "uint256",
          "name": "id",
          "type": "uint256"
        },
        {
          "internalType": "uint256",
          "name": "amountOut",
          "type": "uint256"
        },
        {
          "internalType": "uint256",
          "name": "rate",
          "type": "uint256"
        }
      ],
      "stateMutability": "view",
      "type": "function"
    }
  ],
  "bytecode": "0x60806040526001805534801561001457600080fd5b506001600055610aa8806100296000396000f3fe608060405234801561001057600080fd5b506004361061004c5760003560e01c8063518e62db146100515780638aab7a0a14610066578063a3e2b49514610079578063eb08ab2814610108575b600080fd5b61006461005f3660046107e4565b61011f565b005b610064610074366004610847565b610240565b6100cb61008736600461091c565b60026020819052600091825260409091208054600182015492820154600383015460048401546005909401546001600160a01b039384169590931693919290919086565b604080516001600160a01b039788168152969095166020870152938501929092526060840152608083015260a082015260c0015b60405180910390f35b61011160015481565b6040519081526020016100ff565b6040805160c0810182526001600160a01b03808816825286811660208084019182528385018881526001805460608701818152608088018b815260a089018b81526000938452600296879052998320985189549089167fffffffffffffffffffffffff0000000000000000000000000000000000000000918216178a55965189850180549190991697169690961790965591519286019290925592516003850155905160048401559251600590920191909155815491906101df8361094b565b90915550506001546040805191825260208201849052810182905283906001600160a01b0380871691908816907f8e90a202923754d43d4bc900c935b2c20a7ccf8454ab3ca3276f138f295ac1559060600160405180910390a45050505050565b610248610742565b600084815260026020526040902060038101546102ac5760405162461bcd60e51b815260206004820152601760248201527f5f6f72646572496420646f6573206e6f7420657869737400000000000000000060448201526064015b60405180910390fd5b428160020154116102ff5760405162461bcd60e51b815260206004820152601060248201527f6f7264657220697320657870697265640000000000000000000000000000000060448201526064016102a3565b82816004015410156103535760405162461bcd60e51b815260206004820152601d60248201527f5f616d6f756e744f75742067726561746572207468616e206f7264657200000060448201526064016102a3565b80546040516370a0823160e01b81523060048201526000916001600160a01b0316906370a0823190602401602060405180830381865afa15801561039b573d6000803e3d6000fd5b505050506040513d601f19601f820116820180604052508101906103bf9190610964565b9050838110156104115760405162461bcd60e51b815260206004820152601a60248201527f696e73756666696369656e74206163636f756e742066756e647300000000000060448201526064016102a3565b60018201546040516370a0823160e01b81523060048201526000916001600160a01b0316906370a0823190602401602060405180830381865afa15801561045c573d6000803e3d6000fd5b505050506040513d601f19601f820116820180604052508101906104809190610964565b905060006104ad670de0b6b3a76400006104a786600501548961079b90919063ffffffff16565b906107b0565b9050858460040154036104cd5760016002850155600060048501556104e7565b858460040160008282546104e1919061097d565b90915550505b83546040517fa9059cbb0000000000000000000000000000000000000000000000000000000081526001600160a01b038981166004830152602482018990529091169063a9059cbb906044016020604051808303816000875af1158015610552573d6000803e3d6000fd5b505050506040513d601f19601f820116820180604052508101906105769190610990565b5060018401546040517f26a18b610000000000000000000000000000000000000000000000000000000081526001600160a01b03808a16926326a18b61926105c8928d92169086908b906004016109b9565b600060405180830381600087803b1580156105e257600080fd5b505af11580156105f6573d6000803e3d6000fd5b5050505060018401546040516370a0823160e01b81523060048201526000916001600160a01b0316906370a0823190602401602060405180830381865afa158015610645573d6000803e3d6000fd5b505050506040513d601f19601f820116820180604052508101906106699190610964565b905061067583836107bc565b8110156106c45760405162461bcd60e51b815260206004820152601d60248201527f696e73756666696369656e7420746f6b656e496e20726563656976656400000060448201526064016102a3565b6002850154600186015486546003880154600489015460058a015460408051938452602084019290925282820152516001600160a01b0393841693909216917f8e90a202923754d43d4bc900c935b2c20a7ccf8454ab3ca3276f138f295ac1559181900360600190a4505050505061073c6001600055565b50505050565b6002600054036107945760405162461bcd60e51b815260206004820152601f60248201527f5265656e7472616e637947756172643a207265656e7472616e742063616c6c0060448201526064016102a3565b6002600055565b60006107a78284610a26565b90505b92915050565b60006107a78284610a3d565b60006107a78284610a5f565b80356001600160a01b03811681146107df57600080fd5b919050565b600080600080600060a086880312156107fc57600080fd5b610805866107c8565b9450610813602087016107c8565b94979496505050506040830135926060810135926080909101359150565b634e487b7160e01b600052604160045260246000fd5b6000806000806080858703121561085d57600080fd5b8435935061086d602086016107c8565b925060408501359150606085013567ffffffffffffffff8082111561089157600080fd5b818701915087601f8301126108a557600080fd5b8135818111156108b7576108b7610831565b604051601f8201601f19908116603f011681019083821181831017156108df576108df610831565b816040528281528a60208487010111156108f857600080fd5b82602086016020830137600060208483010152809550505050505092959194509250565b60006020828403121561092e57600080fd5b5035919050565b634e487b7160e01b600052601160045260246000fd5b60006001820161095d5761095d610935565b5060010190565b60006020828403121561097657600080fd5b5051919050565b818103818111156107aa576107aa610935565b6000602082840312156109a257600080fd5b815180151581146109b257600080fd5b9392505050565b848152600060206001600160a01b0386168184015284604084015260806060840152835180608085015260005b81811015610a025785810183015185820160a0015282016109e6565b50600060a0828601015260a0601f19601f8301168501019250505095945050505050565b80820281158282048414176107aa576107aa610935565b600082610a5a57634e487b7160e01b600052601260045260246000fd5b500490565b808201808211156107aa576107aa61093556fea26469706673582212202ea63219740f7f36976c4bfc264c3340b474eac88c0168fa3206219a3b8daa5864736f6c63430008110033",
  "linkReferences": {},
  "deployedLinkReferences": {}
}