{
  "_format": "hh-sol-artifact-1",
  "contractName": "SampleFiller",
  "sourceName": "contracts/sample/sampleFiller.sol",
  "abi": [
    {
      "inputs": [
        {
          "internalType": "uint256",
          "name": "_orderId",
          "type": "uint256"
        },
        {
          "internalType": "address",
          "name": "tokenIn",
          "type": "address"
        },
        {
          "internalType": "uint256",
          "name": "_amountIn",
          "type": "uint256"
        },
        {
          "internalType": "bytes",
          "name": "_params",
          "type": "bytes"
        }
      ],
      "name": "executeOperation",
      "outputs": [],
      "stateMutability": "nonpayable",
      "type": "function"
    },
    {
      "inputs": [
        {
          "internalType": "address",
          "name": "_orderer",
          "type": "address"
        },
        {
          "internalType": "uint256",
          "name": "_orderId",
          "type": "uint256"
        },
        {
          "internalType": "uint256",
          "name": "_amount",
          "type": "uint256"
        }
      ],
      "name": "fillOrder",
      "outputs": [],
      "stateMutability": "nonpayable",
      "type": "function"
    }
  ],
  "bytecode": "0x608060405234801561001057600080fd5b506105b9806100206000396000f3fe608060405234801561001057600080fd5b50600436106100365760003560e01c806326a18b611461003b578063ea47c71814610057575b600080fd5b6100556004803603810190610050919061035a565b610073565b005b610071600480360381019061006c91906103dd565b6100f8565b005b8273ffffffffffffffffffffffffffffffffffffffff1663a9059cbb33846040518363ffffffff1660e01b81526004016100ae92919061044e565b6020604051808303816000875af11580156100cd573d6000803e3d6000fd5b505050506040513d601f19601f820116820180604052508101906100f191906104af565b5050505050565b8273ffffffffffffffffffffffffffffffffffffffff16638aab7a0a8330846040518463ffffffff1660e01b815260040161013593929190610539565b600060405180830381600087803b15801561014f57600080fd5b505af1158015610163573d6000803e3d6000fd5b50505050505050565b6000604051905090565b600080fd5b600080fd5b6000819050919050565b61019381610180565b811461019e57600080fd5b50565b6000813590506101b08161018a565b92915050565b600073ffffffffffffffffffffffffffffffffffffffff82169050919050565b60006101e1826101b6565b9050919050565b6101f1816101d6565b81146101fc57600080fd5b50565b60008135905061020e816101e8565b92915050565b600080fd5b600080fd5b6000601f19601f8301169050919050565b7f4e487b7100000000000000000000000000000000000000000000000000000000600052604160045260246000fd5b6102678261021e565b810181811067ffffffffffffffff821117156102865761028561022f565b5b80604052505050565b600061029961016c565b90506102a5828261025e565b919050565b600067ffffffffffffffff8211156102c5576102c461022f565b5b6102ce8261021e565b9050602081019050919050565b82818337600083830152505050565b60006102fd6102f8846102aa565b61028f565b90508281526020810184848401111561031957610318610219565b5b6103248482856102db565b509392505050565b600082601f83011261034157610340610214565b5b81356103518482602086016102ea565b91505092915050565b6000806000806080858703121561037457610373610176565b5b6000610382878288016101a1565b9450506020610393878288016101ff565b93505060406103a4878288016101a1565b925050606085013567ffffffffffffffff8111156103c5576103c461017b565b5b6103d18782880161032c565b91505092959194509250565b6000806000606084860312156103f6576103f5610176565b5b6000610404868287016101ff565b9350506020610415868287016101a1565b9250506040610426868287016101a1565b9150509250925092565b610439816101d6565b82525050565b61044881610180565b82525050565b60006040820190506104636000830185610430565b610470602083018461043f565b9392505050565b60008115159050919050565b61048c81610477565b811461049757600080fd5b50565b6000815190506104a981610483565b92915050565b6000602082840312156104c5576104c4610176565b5b60006104d38482850161049a565b91505092915050565b600082825260208201905092915050565b7f3078000000000000000000000000000000000000000000000000000000000000600082015250565b60006105236002836104dc565b915061052e826104ed565b602082019050919050565b600060808201905061054e600083018661043f565b61055b6020830185610430565b610568604083018461043f565b818103606083015261057981610516565b905094935050505056fea26469706673582212208ee259ef7ca56442f047508837b60705bf15082c3a2200690d0a78ae1580ac8464736f6c63430008120033",
  "linkReferences": {},
  "deployedLinkReferences": {}
}