{
  "_format": "hh-sol-artifact-1",
  "contractName": "SimpleFiller",
  "sourceName": "contracts/sample/SampleFiller.sol",
  "abi": [
    {
      "inputs": [
        {
          "internalType": "uint256",
          "name": "_orderId",
          "type": "uint256"
        },
        {
          "internalType": "address",
          "name": "tokenIn",
          "type": "address"
        },
        {
          "internalType": "uint256",
          "name": "_amountIn",
          "type": "uint256"
        },
        {
          "internalType": "bytes",
          "name": "_params",
          "type": "bytes"
        }
      ],
      "name": "executeOperation",
      "outputs": [],
      "stateMutability": "nonpayable",
      "type": "function"
    },
    {
      "inputs": [
        {
          "internalType": "address",
          "name": "_orderer",
          "type": "address"
        },
        {
          "internalType": "uint256",
          "name": "_orderId",
          "type": "uint256"
        },
        {
          "internalType": "uint256",
          "name": "_amount",
          "type": "uint256"
        }
      ],
      "name": "fillOrder",
      "outputs": [],
      "stateMutability": "nonpayable",
      "type": "function"
    }
  ],
  "bytecode": "0x608060405234801561001057600080fd5b50610386806100206000396000f3fe608060405234801561001057600080fd5b50600436106100365760003560e01c806326a18b611461003b578063ea47c71814610050575b600080fd5b61004e61004936600461021f565b610063565b005b61004e61005e3660046102f4565b610101565b6040517fa9059cbb0000000000000000000000000000000000000000000000000000000081523360048201526024810183905273ffffffffffffffffffffffffffffffffffffffff84169063a9059cbb906044016020604051808303816000875af11580156100d6573d6000803e3d6000fd5b505050506040513d601f19601f820116820180604052508101906100fa9190610327565b5050505050565b6040517f8aab7a0a000000000000000000000000000000000000000000000000000000008152600481018390523060248201526044810182905260806064820152600260848201527f307800000000000000000000000000000000000000000000000000000000000060a482015273ffffffffffffffffffffffffffffffffffffffff841690638aab7a0a9060c401600060405180830381600087803b1580156101aa57600080fd5b505af11580156101be573d6000803e3d6000fd5b50505050505050565b803573ffffffffffffffffffffffffffffffffffffffff811681146101eb57600080fd5b919050565b7f4e487b7100000000000000000000000000000000000000000000000000000000600052604160045260246000fd5b6000806000806080858703121561023557600080fd5b84359350610245602086016101c7565b925060408501359150606085013567ffffffffffffffff8082111561026957600080fd5b818701915087601f83011261027d57600080fd5b81358181111561028f5761028f6101f0565b604051601f8201601f19908116603f011681019083821181831017156102b7576102b76101f0565b816040528281528a60208487010111156102d057600080fd5b82602086016020830137600060208483010152809550505050505092959194509250565b60008060006060848603121561030957600080fd5b610312846101c7565b95602085013595506040909401359392505050565b60006020828403121561033957600080fd5b8151801515811461034957600080fd5b939250505056fea26469706673582212205f3722cd9d1b6ae0bcc0a9ba4ce806fa08c9547f717eb3618eccdba90fbc401a64736f6c63430008110033",
  "linkReferences": {},
  "deployedLinkReferences": {}
}